{
  "address": "0xFFf4573541353483D4b292A651Cf078FdBbDFAEF",
  "abi": [
    {
      "inputs": [
        {
          "internalType": "contract IVerifier",
          "name": "_verifier",
          "type": "address"
        }
      ],
      "stateMutability": "nonpayable",
      "type": "constructor"
    },
    {
      "inputs": [
        {
          "internalType": "address",
          "name": "",
          "type": "address"
        }
      ],
      "name": "isElegibleForLoan",
      "outputs": [
        {
          "internalType": "uint256",
          "name": "",
          "type": "uint256"
        }
      ],
      "stateMutability": "view",
      "type": "function"
    },
    {
      "inputs": [
        {
          "internalType": "uint256[2]",
          "name": "a",
          "type": "uint256[2]"
        },
        {
          "internalType": "uint256[2][2]",
          "name": "b",
          "type": "uint256[2][2]"
        },
        {
          "internalType": "uint256[2]",
          "name": "c",
          "type": "uint256[2]"
        },
        {
          "internalType": "uint256[5]",
          "name": "publicValues",
          "type": "uint256[5]"
        },
        {
          "internalType": "contract IZKSBT",
          "name": "zkSBT",
          "type": "address"
        },
        {
          "internalType": "uint256",
          "name": "sbtTokenId",
          "type": "uint256"
        }
      ],
      "name": "loanEligible",
      "outputs": [],
      "stateMutability": "nonpayable",
      "type": "function"
    }
  ],
  "transactionHash": "0x8d8f8a02c2742e7e9982f71d51ce18e5d9d6851d77f2443960596280c9044dbc",
  "args": [
    "0x8e31D082F4ba82358bC0043FC9e266AA622e4662"
  ],
  "numDeployments": 1,
  "solcInputHash": "d7f8cfade834a8eae153be8543a9d826",
  "bytecode": "0x608060405234801561001057600080fd5b50604051610e9c380380610e9c83398101604081905261002f91610094565b600080546001600160a01b0319166001600160a01b03929092169190911790556100bd565b60006001600160a01b0382165b92915050565b600061006182610054565b61007b81610067565b811461008657600080fd5b50565b805161006181610072565b6000602082840312156100a9576100a9600080fd5b60006100b58484610089565b949350505050565b610dd0806100cc6000396000f3fe608060405234801561001057600080fd5b50600436106100365760003560e01c8063b4f69cb81461003b578063d6c5cc9314610050575b600080fd5b61004e6100493660046106f5565b610086565b005b61007061005e366004610797565b60016020526000908152604090205481565b60405161007d91906107c0565b60405180910390f35b604083015160608085015160808601519091816100bd576040518060600160405280602c8152602001610cbc602c91399050610186565b81600114156100e6576040518060600160405280602d8152602001610ce8602d91399050610186565b816002141561010f576040518060600160405280602c8152602001610d6f602c91399050610186565b8160031415610138576040518060600160405280602d8152602001610d42602d91399050610186565b8160041415610161576040518060600160405280602c8152602001610c90602c91399050610186565b8160051415610186576040518060600160405280602d8152602001610d15602d913990505b86516001146101b05760405162461bcd60e51b81526004016101a7906107ce565b60405180910390fd5b836001600160a01b0316866001600160a01b0316636352211e876040518263ffffffff1660e01b81526004016101e691906107c0565b60206040518083038186803b1580156101fe57600080fd5b505afa158015610212573d6000803e3d6000fd5b505050506040513d601f19601f82011682018060405250810190610236919061082a565b6001600160a01b03161461025c5760405162461bcd60e51b81526004016101a7906108b7565b6040516309b24b3b60e41b81526000906001600160a01b03881690639b24b3b09061028b9089906004016107c0565b60006040518083038186803b1580156102a357600080fd5b505afa1580156102b7573d6000803e3d6000fd5b505050506040513d6000823e601f3d908101601f191682016040526102df919081019061097e565b905087600160200201516040516020016102f991906109be565b604051602081830303815290604052805190602001208160405160200161032091906109f5565b60405160208183030381529060405280519060200120146103535760405162461bcd60e51b81526004016101a790610a76565b6000546040516334baeab960e01b81526001600160a01b03909116906334baeab990610389908e908e908e908e90600401610b66565b60206040518083038186803b1580156103a157600080fd5b505afa1580156103b5573d6000803e3d6000fd5b505050506040513d601f19601f820116820180604052508101906103d99190610bb9565b6103f55760405162461bcd60e51b81526004016101a790610bda565b610420604051806040016040528060078152602001664164647265737360c81b815250868487610445565b5050506001600160a01b03909116600090815260016020526040902055505050505050565b61048e8484848460405160240161045f9493929190610c4e565b60408051601f198184030181529190526020810180516001600160e01b03166348e8889760e11b179052610494565b50505050565b61049d816104a0565b50565b60006a636f6e736f6c652e6c6f679050600080835160208501845afa505050565b601f01601f191690565b634e487b7160e01b600052604160045260246000fd5b6104ea826104c1565b81018181106001600160401b0382111715610507576105076104cb565b6040525050565b600061051960405190565b905061052582826104e1565b919050565b60006001600160401b03821115610543576105436104cb565b5060200290565b805b811461049d57600080fd5b80356105628161054a565b92915050565b600061057b6105768461052a565b61050e565b9050806020840283018581111561059457610594600080fd5b835b818110156105b857806105a98882610557565b84525060209283019201610596565b5050509392505050565b600082601f8301126105d6576105d6600080fd5b60026105e3848285610568565b949350505050565b60006105f96105768461052a565b9050806040840283018581111561061257610612600080fd5b835b818110156105b8578061062788826105c2565b845250602090920191604001610614565b600082601f83011261064c5761064c600080fd5b60026105e38482856105eb565b60006106676105768461052a565b9050806020840283018581111561068057610680600080fd5b835b818110156105b857806106958882610557565b84525060209283019201610682565b600082601f8301126106b8576106b8600080fd5b60056105e3848285610659565b60006001600160a01b038216610562565b6000610562826106c5565b61054c816106d6565b8035610562816106e1565b6000806000806000806101e0878903121561071257610712600080fd5b600061071e89896105c2565b965050604061072f89828a01610638565b95505060c061074089828a016105c2565b94505061010061075289828a016106a4565b9350506101a061076489828a016106ea565b9250506101c061077689828a01610557565b9150509295509295509295565b61054c816106c5565b803561056281610783565b6000602082840312156107ac576107ac600080fd5b60006105e3848461078c565b805b82525050565b6020810161056282846107b8565b6020808252810161056281602d81527f54686520636c61696d20646f65736e277420736174697366792074686520717560208201526c32b93c9031b7b73234ba34b7b760991b604082015260600190565b805161056281610783565b60006020828403121561083f5761083f600080fd5b60006105e3848461081f565b604681526000602082017f5468652053425420646f65736e27742062656c6f6e6720746f2074686520616481527f6472657373207468617420697320747279696e6720746f20636c61696d20746860208201526532903637b0b760d11b604082015291505b5060600190565b602080825281016105628161084b565b60006001600160401b038211156108e0576108e06104cb565b6108e9826104c1565b60200192915050565b60005b8381101561090d5781810151838201526020016108f5565b8381111561048e5750506000910152565b600061092c610576846108c7565b90508281526020810184848401111561094757610947600080fd5b6109528482856108f2565b509392505050565b600082601f83011261096e5761096e600080fd5b81516105e384826020860161091e565b60006020828403121561099357610993600080fd5b81516001600160401b038111156109ac576109ac600080fd5b6105e38482850161095a565b806107ba565b60006109ca82846109b8565b50602001919050565b60006109dd825190565b6109eb8185602086016108f2565b9290920192915050565b6000610a0182846109d3565b9392505050565b604b81526000602082017f54686520726f6f74206f6620746865204d65726b6c652054726565277320646181527f746120646f65736e2774206d617463682074686520726f6f742073746f72656460208201526a081a5b881d1a194814d09560aa1b604082015291506108b0565b6020808252810161056281610a08565b6000610a9283836107b8565b505060200190565b6002818060005b83811015610ac6578151610ab58782610a86565b965060208301925050600101610aa1565b505050505050565b6002818060005b83811015610ac6578151610ae98782610a86565b965060208301925050600101610ad5565b6000610b068383610ace565b505060400190565b6002818060005b83811015610ac6578151610b298782610afa565b965060208301925050600101610b15565b6005818060005b83811015610ac6578151610b558782610a86565b965060208301925050600101610b41565b6101a08101610b758287610a9a565b610b826040830186610b0e565b610b8f60c0830185610a9a565b610b9d610100830184610b3a565b95945050505050565b80151561054c565b805161056281610ba6565b600060208284031215610bce57610bce600080fd5b60006105e38484610bae565b60208082528101610562816019815278141c9bdbd9881d995c9a599a58d85d1a5bdb8819985a5b1959603a1b602082015260400190565b6000610c1b825190565b808452602084019350610c328185602086016108f2565b610c3b816104c1565b9093019392505050565b6107ba816106c5565b60808082528101610c5f8187610c11565b9050610c6e6020830186610c45565b8181036040830152610c808185610c11565b9050610b9d60608301846107b856fe697320656c656769626c6520666f722061206c6f616e20776974682061206372656469742073636f7265203c697320656c656769626c6520666f722061206c6f616e20776974682061206372656469742073636f7265203d697320656c656769626c6520666f722061206c6f616e20776974682061206372656469742073636f726520213d697320656c656769626c6520666f722061206c6f616e20776974682061206372656469742073636f7265203c3d697320656c656769626c6520666f722061206c6f616e20776974682061206372656469742073636f7265203e3d697320656c656769626c6520666f722061206c6f616e20776974682061206372656469742073636f7265203ea26469706673582212201d9d59e9eec1691959439bdde77f6fd04bb609b4d48647fc2e9426e2950ac59864736f6c63430008080033",
  "devdoc": {
    "author": "Masa Finance",
    "kind": "dev",
    "methods": {},
    "title": "Verify if user is eligible for a loan",
    "version": 1
  },
  "userdoc": {
    "kind": "user",
    "methods": {},
    "notice": "Tests if the user is eligible for a loan based on the credit score",
    "version": 1
  },
  "storageLayout": {
    "storage": [
      {
        "astId": 7157,
        "contract": "contracts/VerifyCreditScore.sol:VerifyCreditScore",
        "label": "verifier",
        "offset": 0,
        "slot": "0",
        "type": "t_contract(IVerifier)7143"
      },
      {
        "astId": 7161,
        "contract": "contracts/VerifyCreditScore.sol:VerifyCreditScore",
        "label": "isElegibleForLoan",
        "offset": 0,
        "slot": "1",
        "type": "t_mapping(t_address,t_uint256)"
      }
    ],
    "types": {
      "t_address": {
        "encoding": "inplace",
        "label": "address",
        "numberOfBytes": "20"
      },
      "t_contract(IVerifier)7143": {
        "encoding": "inplace",
        "label": "contract IVerifier",
        "numberOfBytes": "20"
      },
      "t_mapping(t_address,t_uint256)": {
        "encoding": "mapping",
        "key": "t_address",
        "label": "mapping(address => uint256)",
        "numberOfBytes": "32",
        "value": "t_uint256"
      },
      "t_uint256": {
        "encoding": "inplace",
        "label": "uint256",
        "numberOfBytes": "32"
      }
    }
  }
}