{
  "address": "0x8e31D082F4ba82358bC0043FC9e266AA622e4662",
  "abi": [
    {
      "inputs": [
        {
          "internalType": "uint256[2]",
          "name": "a",
          "type": "uint256[2]"
        },
        {
          "internalType": "uint256[2][2]",
          "name": "b",
          "type": "uint256[2][2]"
        },
        {
          "internalType": "uint256[2]",
          "name": "c",
          "type": "uint256[2]"
        },
        {
          "internalType": "uint256[5]",
          "name": "input",
          "type": "uint256[5]"
        }
      ],
      "name": "verifyProof",
      "outputs": [
        {
          "internalType": "bool",
          "name": "r",
          "type": "bool"
        }
      ],
      "stateMutability": "view",
      "type": "function"
    }
  ],
  "transactionHash": "0x4dc64a27a7cd03d5775c73325e58e072a0ac8409337f0fcb7ba269ce7a018f6f",
  "args": [],
  "numDeployments": 1,
  "solcInputHash": "2d07bdcde7601727e17d3033e00e9e67",
  "bytecode": "0x608060405234801561001057600080fd5b50611063806100206000396000f3fe608060405234801561001057600080fd5b506004361061002b5760003560e01c806334baeab914610030575b600080fd5b61012c60048036036101a081101561004757600080fd5b6040805180820182529183019291818301918390600290839083908082843760009201829052506040805180820190915293969594608081019493509150600290835b828210156100c8576040805180820182529080840286019060029083908390808284376000920191909152505050815260019091019060200161008a565b50506040805180820182529396959481810194935091506002908390839080828437600092019190915250506040805160a0818101909252929594938181019392509060059083908390808284376000920191909152509194506101409350505050565b604080519115158252519081900360200190f35b600061014a610f02565b6040805180820182528751815260208089015181830152908352815160808101835287515181840190815288518301516060808401919091529082528351808501855289840180515182525184015181850152828401528483019190915282518084018452875181528783015181840152848401528251600580825260c0820190945290929091820160a08036833701905050905060005b600581101561021b578481600581106101f757fe5b602002015182828151811061020857fe5b60209081029190910101526001016101e2565b506102268183610244565b6102355760019250505061023c565b6000925050505b949350505050565b60007f30644e72e131a029b85045b68181585d2833e84879b9709143e1f593f000000161026f610f34565b61027761041c565b90508060800151518551600101146102cb576040805162461bcd60e51b81526020600482015260126024820152711d995c9a599a595c8b5898590b5a5b9c1d5d60721b604482015290519081900360640190fd5b6102d3610f7b565b50604080518082019091526000808252602082018190525b86518110156103a5578387828151811061030157fe5b60200260200101511061035b576040805162461bcd60e51b815260206004820152601f60248201527f76657269666965722d6774652d736e61726b2d7363616c61722d6669656c6400604482015290519081900360640190fd5b61039b826103968560800151846001018151811061037557fe5b60200260200101518a858151811061038957fe5b6020026020010151610962565b6109f7565b91506001016102eb565b506103c88183608001516000815181106103bb57fe5b60200260200101516109f7565b90506103fe6103da8660000151610a88565b8660200151846000015185602001518587604001518b604001518960600151610b14565b61040e5760019350505050610416565b600093505050505b92915050565b610424610f34565b6040805180820182527f03251b4ab6831322fd473e2e084615d21e6f4af5afcbe0d62d473dcc8e05d93481527f2a15425db1e422c6893ecbfbdd3dca28581ac7c784a2352e587cfda2cb6f9cd46020808301919091529083528151608080820184527f29c84fe26d5dc7e16967829519c5a79335875acb7f7138314dae3988074228d38285019081527f0c11c1c7bc622880c74ebe7118eba78c7d115a31e06b8c31d1d957a138b70d97606080850191909152908352845180860186527f2de778b48fe305fb7e16c76c5c96b77df38960383ba9d89771ae1d673d66aa8b81527f06e3cd892252ad46b0ac3ec2a2663e14ac671b6a0229502e30bd32a7b27a88b8818601528385015285840192909252835180820185527f198e9393920d483a7260bfb731fb5d25f1aa493335a9e71297e485b7aef312c28186019081527f1800deef121f1e76426a00665e5c4479674322d4f75edadd46debd5cd992f6ed828501528152845180860186527f090689d0585ff075ec9e99ad690c3395bc4b313370b38ef355acdadcd122975b81527f12c85ea5db8c6deb4aab71808dcb408fe3d1e7690c43d37b4ce6cc0166fa7daa818601528185015285850152835190810184527f153f6beab379e1e0051261acfb86335b2220d2ba655f91b34ac93defeee4fc1d8185019081527f24c664054a9011327dafb2aa4ad70387f27ae0712519af581ce1978b8f6fb504828401528152835180850185527f23f5711f1920d66982830ec19fc8be18e8e7dd781255d064c4c0e2b099472fcf81527f0fb9e184d60ca9f861bbdb363651a8943f390eb36a3dac08d562644d277c808f8185015281840152908401528151600680825260e08201909352919082015b6106a7610f7b565b81526020019060019003908161069f57505060808201908152604080518082019091527f263200a936e8e47321e5d9761196c2e2aad344481c91ade3c33ee07702d6da2c81527f1978da5e3c81092278582f038fdfe6092e0ea0369ddccd001ed449724a086a5760208201529051805160009061072057fe5b602002602001018190525060405180604001604052807f1fa38f36a4010094804dba544373059cb163a7f903e951d8de77cccd841d8fcd81526020017f12d04a60bbcc9d57f991c2c74ee0844db1d74987826799386621e519b2cd5a78815250816080015160018151811061079157fe5b602002602001018190525060405180604001604052807f139afe2bab55029a4961f80518dc2f3873da79990cc987fdf2235970ba45a60981526020017f1e66494b087aea82bc41a6510d346a8f178135fb959855a9aeb15607a22ba8fd815250816080015160028151811061080257fe5b602002602001018190525060405180604001604052807f0a7253e7127069f7e14116e4380d3e74f251bb753b3e64c909b37581b72c149e81526020017e0201f2f4e78516736222cc03bc03d83dd356ac360604127b5d2bf2fec22581815250816080015160038151811061087257fe5b602002602001018190525060405180604001604052807f076cf1ffaa3cadf12d8980034cfcb8ef12d47481beb383644cc1791e7571c9e081526020017f1c4ece92b2d9a713517afe42a871c7fa192408b10d2ec4d70862310cacef7cb781525081608001516004815181106108e357fe5b602002602001018190525060405180604001604052807f022cc3761fd04443219fc4d1511cfcfd0fc08dc831111424ed00f7726a8044da81526020017f03562e34e719d8375468c729f954d589a4f0fe66138b2f1ef7e4c60a3bcea4b9815250816080015160058151811061095457fe5b602002602001018190525090565b61096a610f7b565b610972610f95565b835181526020808501519082015260408101839052600060608360808460076107d05a03fa90508080156109a5576109a7565bfe5b50806109ef576040805162461bcd60e51b81526020600482015260126024820152711c185a5c9a5b99cb5b5d5b0b59985a5b195960721b604482015290519081900360640190fd5b505092915050565b6109ff610f7b565b610a07610fb3565b8351815260208085015181830152835160408301528301516060808301919091526000908360c08460066107d05a03fa90508080156109a55750806109ef576040805162461bcd60e51b81526020600482015260126024820152711c185a5c9a5b99cb5859190b59985a5b195960721b604482015290519081900360640190fd5b610a90610f7b565b81517f30644e72e131a029b85045b68181585d97816a916871ca8d3c208c16d87cfd4790158015610ac357506020830151155b15610ae35750506040805180820190915260008082526020820152610b0f565b60405180604001604052808460000151815260200182856020015181610b0557fe5b0683038152509150505b919050565b60408051600480825260a0820190925260009160609190816020015b610b38610f7b565b815260200190600190039081610b3057505060408051600480825260a0820190925291925060609190602082015b610b6e610fd1565b815260200190600190039081610b665790505090508a82600081518110610b9157fe5b60200260200101819052508882600181518110610baa57fe5b60200260200101819052508682600281518110610bc357fe5b60200260200101819052508482600381518110610bdc57fe5b60200260200101819052508981600081518110610bf557fe5b60200260200101819052508781600181518110610c0e57fe5b60200260200101819052508581600281518110610c2757fe5b60200260200101819052508381600381518110610c4057fe5b6020026020010181905250610c558282610c64565b9b9a5050505050505050505050565b60008151835114610cb5576040805162461bcd60e51b81526020600482015260166024820152751c185a5c9a5b99cb5b195b99dd1a1ccb59985a5b195960521b604482015290519081900360640190fd5b8251600681026060816001600160401b0381118015610cd357600080fd5b50604051908082528060200260200182016040528015610cfd578160200160208202803683370190505b50905060005b83811015610e8257868181518110610d1757fe5b602002602001015160000151828260060260000181518110610d3557fe5b602002602001018181525050868181518110610d4d57fe5b602002602001015160200151828260060260010181518110610d6b57fe5b602002602001018181525050858181518110610d8357fe5b602090810291909101015151518251839060026006850201908110610da457fe5b602002602001018181525050858181518110610dbc57fe5b60209081029190910101515160016020020151828260060260030181518110610de157fe5b602002602001018181525050858181518110610df957fe5b602002602001015160200151600060028110610e1157fe5b6020020151828260060260040181518110610e2857fe5b602002602001018181525050858181518110610e4057fe5b602002602001015160200151600160028110610e5857fe5b6020020151828260060260050181518110610e6f57fe5b6020908102919091010152600101610d03565b50610e8b610ff1565b6000602082602086026020860160086107d05a03fa90508080156109a5575080610ef4576040805162461bcd60e51b81526020600482015260156024820152741c185a5c9a5b99cb5bdc18dbd9194b59985a5b1959605a1b604482015290519081900360640190fd5b505115159695505050505050565b6040518060600160405280610f15610f7b565b8152602001610f22610fd1565b8152602001610f2f610f7b565b905290565b6040518060a00160405280610f47610f7b565b8152602001610f54610fd1565b8152602001610f61610fd1565b8152602001610f6e610fd1565b8152602001606081525090565b604051806040016040528060008152602001600081525090565b60405180606001604052806003906020820280368337509192915050565b60405180608001604052806004906020820280368337509192915050565b6040518060400160405280610fe461100f565b8152602001610f2f61100f565b60405180602001604052806001906020820280368337509192915050565b6040518060400160405280600290602082028036833750919291505056fea264697066735822122074e142ee015660cdee72fbba8113fa988c68bbffb062f00872518a1369b822db64736f6c634300060b0033",
  "devdoc": {
    "kind": "dev",
    "methods": {
      "verifyProof(uint256[2],uint256[2][2],uint256[2],uint256[5])": {
        "returns": {
          "r": " bool true if proof is valid"
        }
      }
    },
    "version": 1
  },
  "userdoc": {
    "kind": "user",
    "methods": {},
    "version": 1
  },
  "storageLayout": {
    "storage": [],
    "types": null
  }
}