{
  "address": "0x4a6f8E4FB54F9F27540ad8CafDe31Fc489DBaa9c",
  "abi": [
    {
      "inputs": [
        {
          "internalType": "contract IVerifier",
          "name": "_verifier",
          "type": "address"
        }
      ],
      "stateMutability": "nonpayable",
      "type": "constructor"
    },
    {
      "inputs": [
        {
          "internalType": "address",
          "name": "",
          "type": "address"
        }
      ],
      "name": "isElegibleForLoan",
      "outputs": [
        {
          "internalType": "uint256",
          "name": "",
          "type": "uint256"
        }
      ],
      "stateMutability": "view",
      "type": "function"
    },
    {
      "inputs": [
        {
          "internalType": "uint256[2]",
          "name": "a",
          "type": "uint256[2]"
        },
        {
          "internalType": "uint256[2][2]",
          "name": "b",
          "type": "uint256[2][2]"
        },
        {
          "internalType": "uint256[2]",
          "name": "c",
          "type": "uint256[2]"
        },
        {
          "internalType": "uint256[5]",
          "name": "publicValues",
          "type": "uint256[5]"
        },
        {
          "internalType": "contract IZKPSBT",
          "name": "zkpSBT",
          "type": "address"
        },
        {
          "internalType": "uint256",
          "name": "sbtTokenId",
          "type": "uint256"
        }
      ],
      "name": "loanEligible",
      "outputs": [],
      "stateMutability": "nonpayable",
      "type": "function"
    }
  ],
  "transactionHash": "0x20658b81c59d7624288654c7c6cfb2f484bc9f7d27f83c4cda41705c1931be9f",
  "args": [
    "0x9c15792b58069F35Fb00183324c3Ed5980E7d815"
  ],
  "numDeployments": 1,
  "solcInputHash": "bdab6662befe1e5197d23b06056d40dd",
  "bytecode": "0x608060405234801561001057600080fd5b50604051610cde380380610cde83398101604081905261002f91610094565b600080546001600160a01b0319166001600160a01b03929092169190911790556100bd565b60006001600160a01b0382165b92915050565b600061006182610054565b61007b81610067565b811461008657600080fd5b50565b805161006181610072565b6000602082840312156100a9576100a9600080fd5b60006100b58484610089565b949350505050565b610c12806100cc6000396000f3fe608060405234801561001057600080fd5b50600436106100365760003560e01c8063b4f69cb81461003b578063d6c5cc9314610050575b600080fd5b61004e610049366004610615565b610086565b005b61007061005e3660046106b7565b60016020526000908152604090205481565b60405161007d91906106e0565b60405180910390f35b6040830151606084015184516001146100ba5760405162461bcd60e51b81526004016100b1906106ee565b60405180910390fd5b816001600160a01b0316846001600160a01b0316636352211e856040518263ffffffff1660e01b81526004016100f091906106e0565b60206040518083038186803b15801561010857600080fd5b505afa15801561011c573d6000803e3d6000fd5b505050506040513d601f19601f82011682018060405250810190610140919061074a565b6001600160a01b0316146101665760405162461bcd60e51b81526004016100b1906107d7565b6040516309b24b3b60e41b81526000906001600160a01b03861690639b24b3b0906101959087906004016106e0565b60006040518083038186803b1580156101ad57600080fd5b505afa1580156101c1573d6000803e3d6000fd5b505050506040513d6000823e601f3d908101601f191682016040526101e9919081019061089e565b9050856001602002015160405160200161020391906108de565b604051602081830303815290604052805190602001208160405160200161022a9190610915565b604051602081830303815290604052805190602001201461025d5760405162461bcd60e51b81526004016100b190610996565b6000546040516334baeab960e01b81526001600160a01b03909116906334baeab990610293908c908c908c908c90600401610a86565b60206040518083038186803b1580156102ab57600080fd5b505afa1580156102bf573d6000803e3d6000fd5b505050506040513d601f19601f820116820180604052508101906102e39190610ad9565b6102ff5760405162461bcd60e51b81526004016100b190610afa565b610342604051806040016040528060078152602001664164647265737360c81b815250846040518060600160405280602d8152602001610bb0602d913985610365565b506001600160a01b03909116600090815260016020526040902055505050505050565b6103ae8484848460405160240161037f9493929190610b6e565b60408051601f198184030181529190526020810180516001600160e01b03166348e8889760e11b1790526103b4565b50505050565b6103bd816103c0565b50565b60006a636f6e736f6c652e6c6f679050600080835160208501845afa505050565b601f01601f191690565b634e487b7160e01b600052604160045260246000fd5b61040a826103e1565b81018181106001600160401b0382111715610427576104276103eb565b6040525050565b600061043960405190565b90506104458282610401565b919050565b60006001600160401b03821115610463576104636103eb565b5060200290565b805b81146103bd57600080fd5b80356104828161046a565b92915050565b600061049b6104968461044a565b61042e565b905080602084028301858111156104b4576104b4600080fd5b835b818110156104d857806104c98882610477565b845250602092830192016104b6565b5050509392505050565b600082601f8301126104f6576104f6600080fd5b6002610503848285610488565b949350505050565b60006105196104968461044a565b9050806040840283018581111561053257610532600080fd5b835b818110156104d8578061054788826104e2565b845250602090920191604001610534565b600082601f83011261056c5761056c600080fd5b600261050384828561050b565b60006105876104968461044a565b905080602084028301858111156105a0576105a0600080fd5b835b818110156104d857806105b58882610477565b845250602092830192016105a2565b600082601f8301126105d8576105d8600080fd5b6005610503848285610579565b60006001600160a01b038216610482565b6000610482826105e5565b61046c816105f6565b803561048281610601565b6000806000806000806101e0878903121561063257610632600080fd5b600061063e89896104e2565b965050604061064f89828a01610558565b95505060c061066089828a016104e2565b94505061010061067289828a016105c4565b9350506101a061068489828a0161060a565b9250506101c061069689828a01610477565b9150509295509295509295565b61046c816105e5565b8035610482816106a3565b6000602082840312156106cc576106cc600080fd5b600061050384846106ac565b805b82525050565b6020810161048282846106d8565b6020808252810161048281602d81527f54686520636c61696d20646f65736e277420736174697366792074686520717560208201526c32b93c9031b7b73234ba34b7b760991b604082015260600190565b8051610482816106a3565b60006020828403121561075f5761075f600080fd5b6000610503848461073f565b604681526000602082017f5468652053425420646f65736e27742062656c6f6e6720746f2074686520616481527f6472657373207468617420697320747279696e6720746f20636c61696d20746860208201526532903637b0b760d11b604082015291505b5060600190565b602080825281016104828161076b565b60006001600160401b03821115610800576108006103eb565b610809826103e1565b60200192915050565b60005b8381101561082d578181015183820152602001610815565b838111156103ae5750506000910152565b600061084c610496846107e7565b90508281526020810184848401111561086757610867600080fd5b610872848285610812565b509392505050565b600082601f83011261088e5761088e600080fd5b815161050384826020860161083e565b6000602082840312156108b3576108b3600080fd5b81516001600160401b038111156108cc576108cc600080fd5b6105038482850161087a565b806106da565b60006108ea82846108d8565b50602001919050565b60006108fd825190565b61090b818560208601610812565b9290920192915050565b600061092182846108f3565b9392505050565b604b81526000602082017f54686520726f6f74206f6620746865204d65726b6c652054726565277320646181527f746120646f65736e2774206d617463682074686520726f6f742073746f72656460208201526a081a5b881d1a194814d09560aa1b604082015291506107d0565b6020808252810161048281610928565b60006109b283836106d8565b505060200190565b6002818060005b838110156109e65781516109d587826109a6565b9650602083019250506001016109c1565b505050505050565b6002818060005b838110156109e6578151610a0987826109a6565b9650602083019250506001016109f5565b6000610a2683836109ee565b505060400190565b6002818060005b838110156109e6578151610a498782610a1a565b965060208301925050600101610a35565b6005818060005b838110156109e6578151610a7587826109a6565b965060208301925050600101610a61565b6101a08101610a9582876109ba565b610aa26040830186610a2e565b610aaf60c08301856109ba565b610abd610100830184610a5a565b95945050505050565b80151561046c565b805161048281610ac6565b600060208284031215610aee57610aee600080fd5b60006105038484610ace565b60208082528101610482816019815278141c9bdbd9881d995c9a599a58d85d1a5bdb8819985a5b1959603a1b602082015260400190565b6000610b3b825190565b808452602084019350610b52818560208601610812565b610b5b816103e1565b9093019392505050565b6106da816105e5565b60808082528101610b7f8187610b31565b9050610b8e6020830186610b65565b8181036040830152610ba08185610b31565b9050610abd60608301846106d856fe697320656c656769626c6520666f722061206c6f616e20776974682061206372656469742073636f7265203e3da264697066735822122073dd11de057b62c25a2a6ae42bfdae1e135367aad25411248faa1dcc4890dd9164736f6c63430008080033",
  "devdoc": {
    "author": "Masa Finance",
    "kind": "dev",
    "methods": {},
    "title": "Verify if user is eligible for a loan",
    "version": 1
  },
  "userdoc": {
    "kind": "user",
    "methods": {},
    "notice": "Tests if the user is eligible for a loan based on the credit score",
    "version": 1
  },
  "storageLayout": {
    "storage": [
      {
        "astId": 7157,
        "contract": "contracts/VerifyCreditScore.sol:VerifyCreditScore",
        "label": "verifier",
        "offset": 0,
        "slot": "0",
        "type": "t_contract(IVerifier)7143"
      },
      {
        "astId": 7161,
        "contract": "contracts/VerifyCreditScore.sol:VerifyCreditScore",
        "label": "isElegibleForLoan",
        "offset": 0,
        "slot": "1",
        "type": "t_mapping(t_address,t_uint256)"
      }
    ],
    "types": {
      "t_address": {
        "encoding": "inplace",
        "label": "address",
        "numberOfBytes": "20"
      },
      "t_contract(IVerifier)7143": {
        "encoding": "inplace",
        "label": "contract IVerifier",
        "numberOfBytes": "20"
      },
      "t_mapping(t_address,t_uint256)": {
        "encoding": "mapping",
        "key": "t_address",
        "label": "mapping(address => uint256)",
        "numberOfBytes": "32",
        "value": "t_uint256"
      },
      "t_uint256": {
        "encoding": "inplace",
        "label": "uint256",
        "numberOfBytes": "32"
      }
    }
  }
}