{
  "address": "0x9c15792b58069F35Fb00183324c3Ed5980E7d815",
  "abi": [
    {
      "inputs": [
        {
          "internalType": "uint256[2]",
          "name": "a",
          "type": "uint256[2]"
        },
        {
          "internalType": "uint256[2][2]",
          "name": "b",
          "type": "uint256[2][2]"
        },
        {
          "internalType": "uint256[2]",
          "name": "c",
          "type": "uint256[2]"
        },
        {
          "internalType": "uint256[5]",
          "name": "input",
          "type": "uint256[5]"
        }
      ],
      "name": "verifyProof",
      "outputs": [
        {
          "internalType": "bool",
          "name": "r",
          "type": "bool"
        }
      ],
      "stateMutability": "view",
      "type": "function"
    }
  ],
  "transactionHash": "0x290ee9dbd75d20e9d846da7446862bf225ed31d236d218978921d3cbf6a1cce6",
  "args": [],
  "numDeployments": 1,
  "solcInputHash": "c986142de44dd133ab0414dd7196b016",
  "bytecode": "0x608060405234801561001057600080fd5b50611064806100206000396000f3fe608060405234801561001057600080fd5b506004361061002b5760003560e01c806334baeab914610030575b600080fd5b61012c60048036036101a081101561004757600080fd5b6040805180820182529183019291818301918390600290839083908082843760009201829052506040805180820190915293969594608081019493509150600290835b828210156100c8576040805180820182529080840286019060029083908390808284376000920191909152505050815260019091019060200161008a565b50506040805180820182529396959481810194935091506002908390839080828437600092019190915250506040805160a0818101909252929594938181019392509060059083908390808284376000920191909152509194506101409350505050565b604080519115158252519081900360200190f35b600061014a610f03565b6040805180820182528751815260208089015181830152908352815160808101835287515181840190815288518301516060808401919091529082528351808501855289840180515182525184015181850152828401528483019190915282518084018452875181528783015181840152848401528251600580825260c0820190945290929091820160a08036833701905050905060005b600581101561021b578481600581106101f757fe5b602002015182828151811061020857fe5b60209081029190910101526001016101e2565b506102268183610244565b6102355760019250505061023c565b6000925050505b949350505050565b60007f30644e72e131a029b85045b68181585d2833e84879b9709143e1f593f000000161026f610f35565b61027761041c565b90508060800151518551600101146102cb576040805162461bcd60e51b81526020600482015260126024820152711d995c9a599a595c8b5898590b5a5b9c1d5d60721b604482015290519081900360640190fd5b6102d3610f7c565b50604080518082019091526000808252602082018190525b86518110156103a5578387828151811061030157fe5b60200260200101511061035b576040805162461bcd60e51b815260206004820152601f60248201527f76657269666965722d6774652d736e61726b2d7363616c61722d6669656c6400604482015290519081900360640190fd5b61039b826103968560800151846001018151811061037557fe5b60200260200101518a858151811061038957fe5b6020026020010151610963565b6109f8565b91506001016102eb565b506103c88183608001516000815181106103bb57fe5b60200260200101516109f8565b90506103fe6103da8660000151610a89565b8660200151846000015185602001518587604001518b604001518960600151610b15565b61040e5760019350505050610416565b600093505050505b92915050565b610424610f35565b6040805180820182527f24525e12a65afe389baf87d600cb3bfc50f5801c08602897388dea306dfb6c0681527f0dbc5ce2c0f9ff69fca9afdbd3cea3e466a8af34269f0f4a16a3eb8795dad9586020808301919091529083528151608080820184527f0392d255731958314857ae95edf7064f08f2cbbbe559079b826bfddcb50372e28285019081527f2993b9106b838dd863dc6901fb60494165fc2c3075f62bb1f2cf8be4a8e24f33606080850191909152908352845180860186527f1a2326b3aa287c05840f94e547dfad830a759fe942fb77bfbd51629dcce06d0881527f25e13c72de8723d9233990dc8ffb54c066aae764d9bb3187ef1efe2334b89c11818601528385015285840192909252835180820185527f198e9393920d483a7260bfb731fb5d25f1aa493335a9e71297e485b7aef312c28186019081527f1800deef121f1e76426a00665e5c4479674322d4f75edadd46debd5cd992f6ed828501528152845180860186527f090689d0585ff075ec9e99ad690c3395bc4b313370b38ef355acdadcd122975b81527f12c85ea5db8c6deb4aab71808dcb408fe3d1e7690c43d37b4ce6cc0166fa7daa818601528185015285850152835190810184527f12d4a94eea2ba82c894128703c9011df3f99e84773258820767bdbbaec99e48a8185019081527f05c27358931e091e86c5c0e6f65857e7725c5609afb3a60c7b76fe25ae5072e8828401528152835180850185527f18f39703adc262c47845e002e45a3b5c1a9d22c4689786fdcc49c0414042586c81527f130b05c8c1b6b19772349bf7868d18b964d958ce60da6807fc7ef43587b978398185015281840152908401528151600680825260e08201909352919082015b6106a7610f7c565b81526020019060019003908161069f57505060808201908152604080518082019091527f070707d161dcb1ed2678aba81b93b67a3d129888dd106638b3cfb56840dd65d981527f077088d44c8f1d5013b05c8be996c2f104cb2331ec6f13dd21f186b49279d95c60208201529051805160009061072057fe5b602002602001018190525060405180604001604052807f0ecc7c22f6ac0f6bb117507566376f9c2a55fbb2d61b2a12204cd7ca0aff66ef81526020017f2eb87f1862464ecb2bc41a04931ed780d490ec64dfa78ce8f0c6627c849fe260815250816080015160018151811061079157fe5b602002602001018190525060405180604001604052807f14a3661884a8f0add0290c3a278be9aa77cb7795cc0a017ea1cb0525e20d237b81526020017f1ddd72934683015627d1bf26285403c9547db8e57d16e8becb486cda514db981815250816080015160028151811061080257fe5b602002602001018190525060405180604001604052807f1b70e30eb81a974bd8fe72b5a228dd3637e9b098065fadbaf577a7f04ed088bb81526020017f1cfc4b766eeda0499b9d557ab74b934e7319e0fafebed4b21593d43d5ba9fc72815250816080015160038151811061087357fe5b602002602001018190525060405180604001604052807f24f495c2e0e0864f4900a6543fc43f41819d35aefcb34e9cab7d352cf533c24c81526020017f04104f5e964c4371c2bb73b11b580dc09f2f4ef0ff284e580d76198d0411641481525081608001516004815181106108e457fe5b602002602001018190525060405180604001604052807f0791b1c36d3651855367749d167ec3e29b04c89dcfab43f50f7e0db5b82bf82981526020017f2d40b2bdfd44d90c086e2624d541ad1a62edfe2235ad96d925cd77fe816faac8815250816080015160058151811061095557fe5b602002602001018190525090565b61096b610f7c565b610973610f96565b835181526020808501519082015260408101839052600060608360808460076107d05a03fa90508080156109a6576109a8565bfe5b50806109f0576040805162461bcd60e51b81526020600482015260126024820152711c185a5c9a5b99cb5b5d5b0b59985a5b195960721b604482015290519081900360640190fd5b505092915050565b610a00610f7c565b610a08610fb4565b8351815260208085015181830152835160408301528301516060808301919091526000908360c08460066107d05a03fa90508080156109a65750806109f0576040805162461bcd60e51b81526020600482015260126024820152711c185a5c9a5b99cb5859190b59985a5b195960721b604482015290519081900360640190fd5b610a91610f7c565b81517f30644e72e131a029b85045b68181585d97816a916871ca8d3c208c16d87cfd4790158015610ac457506020830151155b15610ae45750506040805180820190915260008082526020820152610b10565b60405180604001604052808460000151815260200182856020015181610b0657fe5b0683038152509150505b919050565b60408051600480825260a0820190925260009160609190816020015b610b39610f7c565b815260200190600190039081610b3157505060408051600480825260a0820190925291925060609190602082015b610b6f610fd2565b815260200190600190039081610b675790505090508a82600081518110610b9257fe5b60200260200101819052508882600181518110610bab57fe5b60200260200101819052508682600281518110610bc457fe5b60200260200101819052508482600381518110610bdd57fe5b60200260200101819052508981600081518110610bf657fe5b60200260200101819052508781600181518110610c0f57fe5b60200260200101819052508581600281518110610c2857fe5b60200260200101819052508381600381518110610c4157fe5b6020026020010181905250610c568282610c65565b9b9a5050505050505050505050565b60008151835114610cb6576040805162461bcd60e51b81526020600482015260166024820152751c185a5c9a5b99cb5b195b99dd1a1ccb59985a5b195960521b604482015290519081900360640190fd5b8251600681026060816001600160401b0381118015610cd457600080fd5b50604051908082528060200260200182016040528015610cfe578160200160208202803683370190505b50905060005b83811015610e8357868181518110610d1857fe5b602002602001015160000151828260060260000181518110610d3657fe5b602002602001018181525050868181518110610d4e57fe5b602002602001015160200151828260060260010181518110610d6c57fe5b602002602001018181525050858181518110610d8457fe5b602090810291909101015151518251839060026006850201908110610da557fe5b602002602001018181525050858181518110610dbd57fe5b60209081029190910101515160016020020151828260060260030181518110610de257fe5b602002602001018181525050858181518110610dfa57fe5b602002602001015160200151600060028110610e1257fe5b6020020151828260060260040181518110610e2957fe5b602002602001018181525050858181518110610e4157fe5b602002602001015160200151600160028110610e5957fe5b6020020151828260060260050181518110610e7057fe5b6020908102919091010152600101610d04565b50610e8c610ff2565b6000602082602086026020860160086107d05a03fa90508080156109a6575080610ef5576040805162461bcd60e51b81526020600482015260156024820152741c185a5c9a5b99cb5bdc18dbd9194b59985a5b1959605a1b604482015290519081900360640190fd5b505115159695505050505050565b6040518060600160405280610f16610f7c565b8152602001610f23610fd2565b8152602001610f30610f7c565b905290565b6040518060a00160405280610f48610f7c565b8152602001610f55610fd2565b8152602001610f62610fd2565b8152602001610f6f610fd2565b8152602001606081525090565b604051806040016040528060008152602001600081525090565b60405180606001604052806003906020820280368337509192915050565b60405180608001604052806004906020820280368337509192915050565b6040518060400160405280610fe5611010565b8152602001610f30611010565b60405180602001604052806001906020820280368337509192915050565b6040518060400160405280600290602082028036833750919291505056fea26469706673582212201ae7e2ac28552defcee52485b42a9d2cb8da26d7fe518eb903425eb0c9349a5e64736f6c634300060b0033",
  "devdoc": {
    "kind": "dev",
    "methods": {
      "verifyProof(uint256[2],uint256[2][2],uint256[2],uint256[5])": {
        "returns": {
          "r": " bool true if proof is valid"
        }
      }
    },
    "version": 1
  },
  "userdoc": {
    "kind": "user",
    "methods": {},
    "version": 1
  },
  "storageLayout": {
    "storage": [],
    "types": null
  }
}