{
  "address": "0x125Ed36e8A64C35850c497E9042E28Dc6ab66Cd8",
  "abi": [
    {
      "inputs": [
        {
          "internalType": "address",
          "name": "admin",
          "type": "address"
        },
        {
          "internalType": "string",
          "name": "name",
          "type": "string"
        },
        {
          "internalType": "string",
          "name": "symbol",
          "type": "string"
        },
        {
          "internalType": "contract IVerifier",
          "name": "verifier",
          "type": "address"
        },
        {
          "internalType": "string",
          "name": "baseTokenURI",
          "type": "string"
        },
        {
          "internalType": "address",
          "name": "soulboundIdentity",
          "type": "address"
        },
        {
          "components": [
            {
              "internalType": "address",
              "name": "swapRouter",
              "type": "address"
            },
            {
              "internalType": "address",
              "name": "wrappedNativeToken",
              "type": "address"
            },
            {
              "internalType": "address",
              "name": "stableCoin",
              "type": "address"
            },
            {
              "internalType": "address",
              "name": "masaToken",
              "type": "address"
            },
            {
              "internalType": "address",
              "name": "projectFeeReceiver",
              "type": "address"
            },
            {
              "internalType": "address",
              "name": "protocolFeeReceiver",
              "type": "address"
            },
            {
              "internalType": "uint256",
              "name": "protocolFeeAmount",
              "type": "uint256"
            },
            {
              "internalType": "uint256",
              "name": "protocolFeePercent",
              "type": "uint256"
            },
            {
              "internalType": "uint256",
              "name": "protocolFeePercentSub",
              "type": "uint256"
            }
          ],
          "internalType": "struct PaymentGateway.PaymentParams",
          "name": "paymentParams",
          "type": "tuple"
        },
        {
          "internalType": "uint256",
          "name": "maxSBTToMint",
          "type": "uint256"
        }
      ],
      "stateMutability": "nonpayable",
      "type": "constructor"
    },
    {
      "inputs": [],
      "name": "AlreadyAdded",
      "type": "error"
    },
    {
      "inputs": [
        {
          "internalType": "address",
          "name": "authority",
          "type": "address"
        }
      ],
      "name": "AuthorityNotExists",
      "type": "error"
    },
    {
      "inputs": [
        {
          "internalType": "address",
          "name": "caller",
          "type": "address"
        }
      ],
      "name": "CallerNotOwner",
      "type": "error"
    },
    {
      "inputs": [
        {
          "internalType": "uint256",
          "name": "amount",
          "type": "uint256"
        }
      ],
      "name": "InsufficientEthAmount",
      "type": "error"
    },
    {
      "inputs": [
        {
          "internalType": "address",
          "name": "paymentMethod",
          "type": "address"
        }
      ],
      "name": "InvalidPaymentMethod",
      "type": "error"
    },
    {
      "inputs": [],
      "name": "InvalidShortString",
      "type": "error"
    },
    {
      "inputs": [],
      "name": "InvalidSignature",
      "type": "error"
    },
    {
      "inputs": [
        {
          "internalType": "address",
          "name": "token",
          "type": "address"
        }
      ],
      "name": "InvalidToken",
      "type": "error"
    },
    {
      "inputs": [
        {
          "internalType": "address",
          "name": "to",
          "type": "address"
        },
        {
          "internalType": "uint256",
          "name": "maximum",
          "type": "uint256"
        }
      ],
      "name": "MaxSBTMinted",
      "type": "error"
    },
    {
      "inputs": [
        {
          "internalType": "address",
          "name": "erc20token",
          "type": "address"
        }
      ],
      "name": "NonExistingErc20Token",
      "type": "error"
    },
    {
      "inputs": [
        {
          "internalType": "address",
          "name": "signer",
          "type": "address"
        }
      ],
      "name": "NotAuthorized",
      "type": "error"
    },
    {
      "inputs": [],
      "name": "NotLinkedToAnIdentitySBT",
      "type": "error"
    },
    {
      "inputs": [],
      "name": "PaymentParamsNotSet",
      "type": "error"
    },
    {
      "inputs": [],
      "name": "ProtocolFeeReceiverNotSet",
      "type": "error"
    },
    {
      "inputs": [],
      "name": "RefundFailed",
      "type": "error"
    },
    {
      "inputs": [],
      "name": "SameValue",
      "type": "error"
    },
    {
      "inputs": [
        {
          "internalType": "string",
          "name": "str",
          "type": "string"
        }
      ],
      "name": "StringTooLong",
      "type": "error"
    },
    {
      "inputs": [],
      "name": "TransferFailed",
      "type": "error"
    },
    {
      "inputs": [],
      "name": "UserMustHaveProtocolOrProjectAdminRole",
      "type": "error"
    },
    {
      "inputs": [],
      "name": "ZeroAddress",
      "type": "error"
    },
    {
      "anonymous": false,
      "inputs": [
        {
          "indexed": true,
          "internalType": "address",
          "name": "_owner",
          "type": "address"
        },
        {
          "indexed": true,
          "internalType": "uint256",
          "name": "_tokenId",
          "type": "uint256"
        }
      ],
      "name": "Burn",
      "type": "event"
    },
    {
      "anonymous": false,
      "inputs": [],
      "name": "EIP712DomainChanged",
      "type": "event"
    },
    {
      "anonymous": false,
      "inputs": [
        {
          "indexed": true,
          "internalType": "address",
          "name": "_owner",
          "type": "address"
        },
        {
          "indexed": true,
          "internalType": "uint256",
          "name": "_tokenId",
          "type": "uint256"
        }
      ],
      "name": "Mint",
      "type": "event"
    },
    {
      "anonymous": false,
      "inputs": [
        {
          "indexed": false,
          "internalType": "uint256",
          "name": "tokenId",
          "type": "uint256"
        },
        {
          "indexed": false,
          "internalType": "address",
          "name": "to",
          "type": "address"
        },
        {
          "indexed": false,
          "internalType": "address",
          "name": "authorityAddress",
          "type": "address"
        },
        {
          "indexed": false,
          "internalType": "uint256",
          "name": "signatureDate",
          "type": "uint256"
        },
        {
          "indexed": false,
          "internalType": "address",
          "name": "paymentMethod",
          "type": "address"
        },
        {
          "indexed": false,
          "internalType": "uint256",
          "name": "mintPrice",
          "type": "uint256"
        }
      ],
      "name": "MintedToAddress",
      "type": "event"
    },
    {
      "anonymous": false,
      "inputs": [
        {
          "indexed": false,
          "internalType": "uint256",
          "name": "tokenId",
          "type": "uint256"
        },
        {
          "indexed": false,
          "internalType": "uint256",
          "name": "identityId",
          "type": "uint256"
        },
        {
          "indexed": false,
          "internalType": "address",
          "name": "authorityAddress",
          "type": "address"
        },
        {
          "indexed": false,
          "internalType": "uint256",
          "name": "signatureDate",
          "type": "uint256"
        },
        {
          "indexed": false,
          "internalType": "address",
          "name": "paymentMethod",
          "type": "address"
        },
        {
          "indexed": false,
          "internalType": "uint256",
          "name": "mintPrice",
          "type": "uint256"
        }
      ],
      "name": "MintedToIdentity",
      "type": "event"
    },
    {
      "anonymous": false,
      "inputs": [
        {
          "indexed": true,
          "internalType": "address",
          "name": "paymentMethod",
          "type": "address"
        },
        {
          "indexed": false,
          "internalType": "uint256",
          "name": "amount",
          "type": "uint256"
        },
        {
          "indexed": false,
          "internalType": "uint256",
          "name": "protocolFee",
          "type": "uint256"
        }
      ],
      "name": "Pay",
      "type": "event"
    },
    {
      "anonymous": false,
      "inputs": [
        {
          "indexed": true,
          "internalType": "bytes32",
          "name": "role",
          "type": "bytes32"
        },
        {
          "indexed": true,
          "internalType": "bytes32",
          "name": "previousAdminRole",
          "type": "bytes32"
        },
        {
          "indexed": true,
          "internalType": "bytes32",
          "name": "newAdminRole",
          "type": "bytes32"
        }
      ],
      "name": "RoleAdminChanged",
      "type": "event"
    },
    {
      "anonymous": false,
      "inputs": [
        {
          "indexed": true,
          "internalType": "bytes32",
          "name": "role",
          "type": "bytes32"
        },
        {
          "indexed": true,
          "internalType": "address",
          "name": "account",
          "type": "address"
        },
        {
          "indexed": true,
          "internalType": "address",
          "name": "sender",
          "type": "address"
        }
      ],
      "name": "RoleGranted",
      "type": "event"
    },
    {
      "anonymous": false,
      "inputs": [
        {
          "indexed": true,
          "internalType": "bytes32",
          "name": "role",
          "type": "bytes32"
        },
        {
          "indexed": true,
          "internalType": "address",
          "name": "account",
          "type": "address"
        },
        {
          "indexed": true,
          "internalType": "address",
          "name": "sender",
          "type": "address"
        }
      ],
      "name": "RoleRevoked",
      "type": "event"
    },
    {
      "inputs": [],
      "name": "DEFAULT_ADMIN_ROLE",
      "outputs": [
        {
          "internalType": "bytes32",
          "name": "",
          "type": "bytes32"
        }
      ],
      "stateMutability": "view",
      "type": "function"
    },
    {
      "inputs": [],
      "name": "PROJECT_ADMIN_ROLE",
      "outputs": [
        {
          "internalType": "bytes32",
          "name": "",
          "type": "bytes32"
        }
      ],
      "stateMutability": "view",
      "type": "function"
    },
    {
      "inputs": [
        {
          "internalType": "address",
          "name": "_authority",
          "type": "address"
        }
      ],
      "name": "addAuthority",
      "outputs": [],
      "stateMutability": "nonpayable",
      "type": "function"
    },
    {
      "inputs": [],
      "name": "addLinkPrice",
      "outputs": [
        {
          "internalType": "uint256",
          "name": "",
          "type": "uint256"
        }
      ],
      "stateMutability": "view",
      "type": "function"
    },
    {
      "inputs": [],
      "name": "addLinkPriceMASA",
      "outputs": [
        {
          "internalType": "uint256",
          "name": "",
          "type": "uint256"
        }
      ],
      "stateMutability": "view",
      "type": "function"
    },
    {
      "inputs": [
        {
          "internalType": "address",
          "name": "",
          "type": "address"
        }
      ],
      "name": "authorities",
      "outputs": [
        {
          "internalType": "bool",
          "name": "",
          "type": "bool"
        }
      ],
      "stateMutability": "view",
      "type": "function"
    },
    {
      "inputs": [
        {
          "internalType": "address",
          "name": "owner",
          "type": "address"
        }
      ],
      "name": "balanceOf",
      "outputs": [
        {
          "internalType": "uint256",
          "name": "",
          "type": "uint256"
        }
      ],
      "stateMutability": "view",
      "type": "function"
    },
    {
      "inputs": [
        {
          "internalType": "uint256",
          "name": "tokenId",
          "type": "uint256"
        }
      ],
      "name": "burn",
      "outputs": [],
      "stateMutability": "nonpayable",
      "type": "function"
    },
    {
      "inputs": [
        {
          "internalType": "address",
          "name": "_paymentMethod",
          "type": "address"
        }
      ],
      "name": "disablePaymentMethod",
      "outputs": [],
      "stateMutability": "nonpayable",
      "type": "function"
    },
    {
      "inputs": [],
      "name": "eip712Domain",
      "outputs": [
        {
          "internalType": "bytes1",
          "name": "fields",
          "type": "bytes1"
        },
        {
          "internalType": "string",
          "name": "name",
          "type": "string"
        },
        {
          "internalType": "string",
          "name": "version",
          "type": "string"
        },
        {
          "internalType": "uint256",
          "name": "chainId",
          "type": "uint256"
        },
        {
          "internalType": "address",
          "name": "verifyingContract",
          "type": "address"
        },
        {
          "internalType": "bytes32",
          "name": "salt",
          "type": "bytes32"
        },
        {
          "internalType": "uint256[]",
          "name": "extensions",
          "type": "uint256[]"
        }
      ],
      "stateMutability": "view",
      "type": "function"
    },
    {
      "inputs": [
        {
          "internalType": "address",
          "name": "_paymentMethod",
          "type": "address"
        }
      ],
      "name": "enablePaymentMethod",
      "outputs": [],
      "stateMutability": "nonpayable",
      "type": "function"
    },
    {
      "inputs": [
        {
          "internalType": "address",
          "name": "",
          "type": "address"
        }
      ],
      "name": "enabledPaymentMethod",
      "outputs": [
        {
          "internalType": "bool",
          "name": "",
          "type": "bool"
        }
      ],
      "stateMutability": "view",
      "type": "function"
    },
    {
      "inputs": [
        {
          "internalType": "uint256",
          "name": "",
          "type": "uint256"
        }
      ],
      "name": "enabledPaymentMethods",
      "outputs": [
        {
          "internalType": "address",
          "name": "",
          "type": "address"
        }
      ],
      "stateMutability": "view",
      "type": "function"
    },
    {
      "inputs": [
        {
          "internalType": "uint256",
          "name": "tokenId",
          "type": "uint256"
        }
      ],
      "name": "exists",
      "outputs": [
        {
          "internalType": "bool",
          "name": "",
          "type": "bool"
        }
      ],
      "stateMutability": "view",
      "type": "function"
    },
    {
      "inputs": [],
      "name": "getEnabledPaymentMethods",
      "outputs": [
        {
          "internalType": "address[]",
          "name": "",
          "type": "address[]"
        }
      ],
      "stateMutability": "view",
      "type": "function"
    },
    {
      "inputs": [
        {
          "internalType": "uint256",
          "name": "tokenId",
          "type": "uint256"
        }
      ],
      "name": "getEncryptedData",
      "outputs": [
        {
          "internalType": "bytes[]",
          "name": "",
          "type": "bytes[]"
        }
      ],
      "stateMutability": "view",
      "type": "function"
    },
    {
      "inputs": [
        {
          "internalType": "uint256",
          "name": "tokenId",
          "type": "uint256"
        }
      ],
      "name": "getIdentityId",
      "outputs": [
        {
          "internalType": "uint256",
          "name": "",
          "type": "uint256"
        }
      ],
      "stateMutability": "view",
      "type": "function"
    },
    {
      "inputs": [
        {
          "internalType": "address",
          "name": "paymentMethod",
          "type": "address"
        }
      ],
      "name": "getMintPrice",
      "outputs": [
        {
          "internalType": "uint256",
          "name": "price",
          "type": "uint256"
        }
      ],
      "stateMutability": "view",
      "type": "function"
    },
    {
      "inputs": [
        {
          "internalType": "address",
          "name": "paymentMethod",
          "type": "address"
        }
      ],
      "name": "getMintPriceWithProtocolFee",
      "outputs": [
        {
          "internalType": "uint256",
          "name": "price",
          "type": "uint256"
        },
        {
          "internalType": "uint256",
          "name": "protocolFee",
          "type": "uint256"
        }
      ],
      "stateMutability": "view",
      "type": "function"
    },
    {
      "inputs": [
        {
          "internalType": "address",
          "name": "paymentMethod",
          "type": "address"
        },
        {
          "internalType": "uint256",
          "name": "amount",
          "type": "uint256"
        }
      ],
      "name": "getProtocolFee",
      "outputs": [
        {
          "internalType": "uint256",
          "name": "",
          "type": "uint256"
        }
      ],
      "stateMutability": "view",
      "type": "function"
    },
    {
      "inputs": [
        {
          "internalType": "uint256",
          "name": "amount",
          "type": "uint256"
        }
      ],
      "name": "getProtocolFeeSub",
      "outputs": [
        {
          "internalType": "uint256",
          "name": "",
          "type": "uint256"
        }
      ],
      "stateMutability": "view",
      "type": "function"
    },
    {
      "inputs": [
        {
          "internalType": "bytes32",
          "name": "role",
          "type": "bytes32"
        }
      ],
      "name": "getRoleAdmin",
      "outputs": [
        {
          "internalType": "bytes32",
          "name": "",
          "type": "bytes32"
        }
      ],
      "stateMutability": "view",
      "type": "function"
    },
    {
      "inputs": [
        {
          "internalType": "uint256",
          "name": "tokenId",
          "type": "uint256"
        }
      ],
      "name": "getRoot",
      "outputs": [
        {
          "internalType": "bytes",
          "name": "",
          "type": "bytes"
        }
      ],
      "stateMutability": "view",
      "type": "function"
    },
    {
      "inputs": [],
      "name": "getVerifier",
      "outputs": [
        {
          "internalType": "contract IVerifier",
          "name": "",
          "type": "address"
        }
      ],
      "stateMutability": "view",
      "type": "function"
    },
    {
      "inputs": [
        {
          "internalType": "bytes32",
          "name": "role",
          "type": "bytes32"
        },
        {
          "internalType": "address",
          "name": "account",
          "type": "address"
        }
      ],
      "name": "grantRole",
      "outputs": [],
      "stateMutability": "nonpayable",
      "type": "function"
    },
    {
      "inputs": [
        {
          "internalType": "bytes32",
          "name": "role",
          "type": "bytes32"
        },
        {
          "internalType": "address",
          "name": "account",
          "type": "address"
        }
      ],
      "name": "hasRole",
      "outputs": [
        {
          "internalType": "bool",
          "name": "",
          "type": "bool"
        }
      ],
      "stateMutability": "view",
      "type": "function"
    },
    {
      "inputs": [],
      "name": "masaToken",
      "outputs": [
        {
          "internalType": "address",
          "name": "",
          "type": "address"
        }
      ],
      "stateMutability": "view",
      "type": "function"
    },
    {
      "inputs": [],
      "name": "maxSBTToMint",
      "outputs": [
        {
          "internalType": "uint256",
          "name": "",
          "type": "uint256"
        }
      ],
      "stateMutability": "view",
      "type": "function"
    },
    {
      "inputs": [
        {
          "internalType": "address",
          "name": "",
          "type": "address"
        },
        {
          "internalType": "bytes",
          "name": "",
          "type": "bytes"
        },
        {
          "internalType": "bytes[]",
          "name": "",
          "type": "bytes[]"
        }
      ],
      "name": "mint",
      "outputs": [
        {
          "internalType": "uint256",
          "name": "",
          "type": "uint256"
        }
      ],
      "stateMutability": "payable",
      "type": "function"
    },
    {
      "inputs": [
        {
          "internalType": "address",
          "name": "to",
          "type": "address"
        },
        {
          "internalType": "address",
          "name": "authorityAddress",
          "type": "address"
        },
        {
          "internalType": "uint256",
          "name": "signatureDate",
          "type": "uint256"
        },
        {
          "internalType": "bytes",
          "name": "root",
          "type": "bytes"
        },
        {
          "internalType": "bytes[]",
          "name": "encryptedData",
          "type": "bytes[]"
        },
        {
          "internalType": "bytes",
          "name": "signature",
          "type": "bytes"
        }
      ],
      "name": "mint",
      "outputs": [
        {
          "internalType": "uint256",
          "name": "",
          "type": "uint256"
        }
      ],
      "stateMutability": "payable",
      "type": "function"
    },
    {
      "inputs": [],
      "name": "mintPrice",
      "outputs": [
        {
          "internalType": "uint256",
          "name": "",
          "type": "uint256"
        }
      ],
      "stateMutability": "view",
      "type": "function"
    },
    {
      "inputs": [],
      "name": "mintPriceMASA",
      "outputs": [
        {
          "internalType": "uint256",
          "name": "",
          "type": "uint256"
        }
      ],
      "stateMutability": "view",
      "type": "function"
    },
    {
      "inputs": [],
      "name": "name",
      "outputs": [
        {
          "internalType": "string",
          "name": "",
          "type": "string"
        }
      ],
      "stateMutability": "view",
      "type": "function"
    },
    {
      "inputs": [
        {
          "internalType": "uint256",
          "name": "tokenId",
          "type": "uint256"
        }
      ],
      "name": "ownerOf",
      "outputs": [
        {
          "internalType": "address",
          "name": "",
          "type": "address"
        }
      ],
      "stateMutability": "view",
      "type": "function"
    },
    {
      "inputs": [],
      "name": "projectFeeReceiver",
      "outputs": [
        {
          "internalType": "address",
          "name": "",
          "type": "address"
        }
      ],
      "stateMutability": "view",
      "type": "function"
    },
    {
      "inputs": [],
      "name": "protocolFeeAmount",
      "outputs": [
        {
          "internalType": "uint256",
          "name": "",
          "type": "uint256"
        }
      ],
      "stateMutability": "view",
      "type": "function"
    },
    {
      "inputs": [],
      "name": "protocolFeePercent",
      "outputs": [
        {
          "internalType": "uint256",
          "name": "",
          "type": "uint256"
        }
      ],
      "stateMutability": "view",
      "type": "function"
    },
    {
      "inputs": [],
      "name": "protocolFeePercentSub",
      "outputs": [
        {
          "internalType": "uint256",
          "name": "",
          "type": "uint256"
        }
      ],
      "stateMutability": "view",
      "type": "function"
    },
    {
      "inputs": [],
      "name": "protocolFeeReceiver",
      "outputs": [
        {
          "internalType": "address",
          "name": "",
          "type": "address"
        }
      ],
      "stateMutability": "view",
      "type": "function"
    },
    {
      "inputs": [],
      "name": "queryLinkPrice",
      "outputs": [
        {
          "internalType": "uint256",
          "name": "",
          "type": "uint256"
        }
      ],
      "stateMutability": "view",
      "type": "function"
    },
    {
      "inputs": [],
      "name": "queryLinkPriceMASA",
      "outputs": [
        {
          "internalType": "uint256",
          "name": "",
          "type": "uint256"
        }
      ],
      "stateMutability": "view",
      "type": "function"
    },
    {
      "inputs": [
        {
          "internalType": "address",
          "name": "_authority",
          "type": "address"
        }
      ],
      "name": "removeAuthority",
      "outputs": [],
      "stateMutability": "nonpayable",
      "type": "function"
    },
    {
      "inputs": [
        {
          "internalType": "bytes32",
          "name": "role",
          "type": "bytes32"
        },
        {
          "internalType": "address",
          "name": "account",
          "type": "address"
        }
      ],
      "name": "renounceRole",
      "outputs": [],
      "stateMutability": "nonpayable",
      "type": "function"
    },
    {
      "inputs": [
        {
          "internalType": "bytes32",
          "name": "role",
          "type": "bytes32"
        },
        {
          "internalType": "address",
          "name": "account",
          "type": "address"
        }
      ],
      "name": "revokeRole",
      "outputs": [],
      "stateMutability": "nonpayable",
      "type": "function"
    },
    {
      "inputs": [
        {
          "internalType": "uint256",
          "name": "_addLinkPrice",
          "type": "uint256"
        }
      ],
      "name": "setAddLinkPrice",
      "outputs": [],
      "stateMutability": "nonpayable",
      "type": "function"
    },
    {
      "inputs": [
        {
          "internalType": "uint256",
          "name": "_addLinkPriceMASA",
          "type": "uint256"
        }
      ],
      "name": "setAddLinkPriceMASA",
      "outputs": [],
      "stateMutability": "nonpayable",
      "type": "function"
    },
    {
      "inputs": [
        {
          "internalType": "address",
          "name": "_masaToken",
          "type": "address"
        }
      ],
      "name": "setMasaToken",
      "outputs": [],
      "stateMutability": "nonpayable",
      "type": "function"
    },
    {
      "inputs": [
        {
          "internalType": "uint256",
          "name": "_mintPrice",
          "type": "uint256"
        }
      ],
      "name": "setMintPrice",
      "outputs": [],
      "stateMutability": "nonpayable",
      "type": "function"
    },
    {
      "inputs": [
        {
          "internalType": "uint256",
          "name": "_mintPriceMASA",
          "type": "uint256"
        }
      ],
      "name": "setMintPriceMASA",
      "outputs": [],
      "stateMutability": "nonpayable",
      "type": "function"
    },
    {
      "inputs": [
        {
          "internalType": "address",
          "name": "_projectFeeReceiver",
          "type": "address"
        }
      ],
      "name": "setProjectFeeReceiver",
      "outputs": [],
      "stateMutability": "nonpayable",
      "type": "function"
    },
    {
      "inputs": [
        {
          "internalType": "uint256",
          "name": "_protocolFeeAmount",
          "type": "uint256"
        }
      ],
      "name": "setProtocolFeeAmount",
      "outputs": [],
      "stateMutability": "nonpayable",
      "type": "function"
    },
    {
      "inputs": [
        {
          "internalType": "uint256",
          "name": "_protocolFeePercent",
          "type": "uint256"
        }
      ],
      "name": "setProtocolFeePercent",
      "outputs": [],
      "stateMutability": "nonpayable",
      "type": "function"
    },
    {
      "inputs": [
        {
          "internalType": "uint256",
          "name": "_protocolFeePercentSub",
          "type": "uint256"
        }
      ],
      "name": "setProtocolFeePercentSub",
      "outputs": [],
      "stateMutability": "nonpayable",
      "type": "function"
    },
    {
      "inputs": [
        {
          "internalType": "address",
          "name": "_protocolFeeReceiver",
          "type": "address"
        }
      ],
      "name": "setProtocolFeeReceiver",
      "outputs": [],
      "stateMutability": "nonpayable",
      "type": "function"
    },
    {
      "inputs": [
        {
          "internalType": "uint256",
          "name": "_queryLinkPrice",
          "type": "uint256"
        }
      ],
      "name": "setQueryLinkPrice",
      "outputs": [],
      "stateMutability": "nonpayable",
      "type": "function"
    },
    {
      "inputs": [
        {
          "internalType": "uint256",
          "name": "_queryLinkPriceMASA",
          "type": "uint256"
        }
      ],
      "name": "setQueryLinkPriceMASA",
      "outputs": [],
      "stateMutability": "nonpayable",
      "type": "function"
    },
    {
      "inputs": [
        {
          "internalType": "address",
          "name": "_soulboundIdentity",
          "type": "address"
        }
      ],
      "name": "setSoulboundIdentity",
      "outputs": [],
      "stateMutability": "nonpayable",
      "type": "function"
    },
    {
      "inputs": [
        {
          "internalType": "address",
          "name": "_stableCoin",
          "type": "address"
        }
      ],
      "name": "setStableCoin",
      "outputs": [],
      "stateMutability": "nonpayable",
      "type": "function"
    },
    {
      "inputs": [
        {
          "internalType": "address",
          "name": "_swapRouter",
          "type": "address"
        }
      ],
      "name": "setSwapRouter",
      "outputs": [],
      "stateMutability": "nonpayable",
      "type": "function"
    },
    {
      "inputs": [
        {
          "internalType": "address",
          "name": "_wrappedNativeToken",
          "type": "address"
        }
      ],
      "name": "setWrappedNativeToken",
      "outputs": [],
      "stateMutability": "nonpayable",
      "type": "function"
    },
    {
      "inputs": [],
      "name": "soulboundIdentity",
      "outputs": [
        {
          "internalType": "contract ISoulboundIdentity",
          "name": "",
          "type": "address"
        }
      ],
      "stateMutability": "view",
      "type": "function"
    },
    {
      "inputs": [],
      "name": "stableCoin",
      "outputs": [
        {
          "internalType": "address",
          "name": "",
          "type": "address"
        }
      ],
      "stateMutability": "view",
      "type": "function"
    },
    {
      "inputs": [
        {
          "internalType": "bytes4",
          "name": "interfaceId",
          "type": "bytes4"
        }
      ],
      "name": "supportsInterface",
      "outputs": [
        {
          "internalType": "bool",
          "name": "",
          "type": "bool"
        }
      ],
      "stateMutability": "view",
      "type": "function"
    },
    {
      "inputs": [],
      "name": "swapRouter",
      "outputs": [
        {
          "internalType": "address",
          "name": "",
          "type": "address"
        }
      ],
      "stateMutability": "view",
      "type": "function"
    },
    {
      "inputs": [],
      "name": "symbol",
      "outputs": [
        {
          "internalType": "string",
          "name": "",
          "type": "string"
        }
      ],
      "stateMutability": "view",
      "type": "function"
    },
    {
      "inputs": [
        {
          "internalType": "uint256",
          "name": "index",
          "type": "uint256"
        }
      ],
      "name": "tokenByIndex",
      "outputs": [
        {
          "internalType": "uint256",
          "name": "",
          "type": "uint256"
        }
      ],
      "stateMutability": "view",
      "type": "function"
    },
    {
      "inputs": [
        {
          "internalType": "address",
          "name": "owner",
          "type": "address"
        },
        {
          "internalType": "uint256",
          "name": "index",
          "type": "uint256"
        }
      ],
      "name": "tokenOfOwnerByIndex",
      "outputs": [
        {
          "internalType": "uint256",
          "name": "",
          "type": "uint256"
        }
      ],
      "stateMutability": "view",
      "type": "function"
    },
    {
      "inputs": [
        {
          "internalType": "uint256",
          "name": "tokenId",
          "type": "uint256"
        }
      ],
      "name": "tokenURI",
      "outputs": [
        {
          "internalType": "string",
          "name": "",
          "type": "string"
        }
      ],
      "stateMutability": "view",
      "type": "function"
    },
    {
      "inputs": [],
      "name": "totalSupply",
      "outputs": [
        {
          "internalType": "uint256",
          "name": "",
          "type": "uint256"
        }
      ],
      "stateMutability": "view",
      "type": "function"
    },
    {
      "inputs": [
        {
          "internalType": "uint256",
          "name": "tokenId",
          "type": "uint256"
        },
        {
          "internalType": "uint256[]",
          "name": "proof",
          "type": "uint256[]"
        },
        {
          "internalType": "uint256[]",
          "name": "publicValues",
          "type": "uint256[]"
        }
      ],
      "name": "verifyProof",
      "outputs": [
        {
          "internalType": "bool",
          "name": "",
          "type": "bool"
        }
      ],
      "stateMutability": "view",
      "type": "function"
    },
    {
      "inputs": [],
      "name": "wrappedNativeToken",
      "outputs": [
        {
          "internalType": "address",
          "name": "",
          "type": "address"
        }
      ],
      "stateMutability": "view",
      "type": "function"
    }
  ],
  "transactionHash": "0x2e4ec88a87b3dbb4028896b79c9d7fc2ee4fde101af7db5a3a434cf72f2ff302",
  "args": [
    "0xA38dd237a3A8D50537B74a4B0D4E7E8A5359386F",
    "ZKP SBT",
    "ZKSBT",
    "0xb1235AF9849d17149A56166A84c5c4C4365d229b",
    "https://testserver/v1.0",
    "0x0000000000000000000000000000000000000000",
    [
      "0x7a250d5630B4cF539739dF2C5dAcb4c659F2488D",
      "0xB4FBF271143F4FBf7B91A5ded31805e42b2208d6",
      "0xD87Ba7A50B2E7E660f678A895E4B72E7CB4CCd9C",
      "0x1f9840a85d5aF5bf1D1762F925BDADdC4201F984",
      "0x46c9cdA3F83C5c13C767A07b6E80aEd302E40B28",
      "0x0000000000000000000000000000000000000000",
      0,
      0,
      0
    ],
    1
  ],
  "numDeployments": 1,
  "solcInputHash": "ffcfee490d422cf35e434d32f0579cd3",
  "bytecode": "0x6101806040523480156200001257600080fd5b506040516200609238038062006092833981016040819052620000359162000691565b87878786868686604051806040016040528060128152602001712d25a9a12a29b2b63329b7bb32b932b4b3b760711b815250604051806040016040528060058152602001640312e302e360dc1b8152508888888888888885858884620000a56000801b836200025260201b60201c565b8051600180546001600160a01b03199081166001600160a01b0393841617909155602083015160028054831691841691909117905560408301516003805483169184169190911790556060830151600480548316918416919091179055608083015160078054831691841691909117905560a083015160088054909216921691909117905560c081015160095560e0810151600a556101000151600b5550600c620001518382620008ca565b50600d620001608282620008ca565b50620001729150600090508862000252565b6015620001808582620008ca565b50601680546001600160a01b0319166001600160a01b0394909416939093179092555060805250620001c69250849150601d9050620002f3602090811b6200227c17901c565b61014052620001e381601e620002f3602090811b6200227c17901c565b61016052815160208084019190912061010052815190820120610120524660c0526200020e62000343565b60a05250503060e052505060016022555050602080546001600160a01b0319166001600160a01b0399909916989098179097555062000aa498505050505050505050565b6000828152602081815260408083206001600160a01b038516845290915290205460ff16620002ef576000828152602081815260408083206001600160a01b03851684529091529020805460ff19166001179055620002ae3390565b6001600160a01b0316816001600160a01b0316837f2f8788117e7eff1d82e926ec794901d17c78024a50270940304540a733656f0d60405160405180910390a45b5050565b600060208351101562000313576200030b83620003a0565b90506200033d565b826200032a83620003ec60201b620022ad1760201c565b90620003379082620008ca565b5060ff90505b92915050565b610100516101205160405160009262000385927f8b73c3c69bb8fe3d512ecc4cf759cc79239f7b179b0ffacaa9a75d522b39400f9246903090602001620009ac565b60405160208183030381529060405280519060200120905090565b600080829050601f81511115620003d7578260405163305a27a960e01b8152600401620003ce919062000a3b565b60405180910390fd5b8051620003e48262000a60565b179392505050565b90565b60006001600160a01b0382166200033d565b6200040c81620003ef565b81146200041857600080fd5b50565b80516200033d8162000401565b601f01601f191690565b634e487b7160e01b600052604160045260246000fd5b620004538262000428565b81018181106001600160401b038211171562000473576200047362000432565b6040525050565b60006200048660405190565b905062000494828262000448565b919050565b60006001600160401b03821115620004b557620004b562000432565b620004c08262000428565b60200192915050565b60005b83811015620004e6578181015183820152602001620004cc565b50506000910152565b600062000506620005008462000499565b6200047a565b905082815260208101848484011115620005235762000523600080fd5b62000530848285620004c9565b509392505050565b600082601f8301126200054e576200054e600080fd5b815162000560848260208601620004ef565b949350505050565b60006200033d82620003ef565b6200040c8162000568565b80516200033d8162000575565b806200040c565b80516200033d816200058d565b60006101208284031215620005b957620005b9600080fd5b620005c66101206200047a565b90506000620005d684846200041b565b8252506020620005e9848483016200041b565b6020830152506040620005ff848285016200041b565b604083015250606062000615848285016200041b565b60608301525060806200062b848285016200041b565b60808301525060a062000641848285016200041b565b60a08301525060c0620006578482850162000594565b60c08301525060e06200066d8482850162000594565b60e083015250610100620006848482850162000594565b6101008301525092915050565b600080600080600080600080610200898b031215620006b357620006b3600080fd5b6000620006c18b8b6200041b565b98505060208901516001600160401b03811115620006e257620006e2600080fd5b620006f08b828c0162000538565b97505060408901516001600160401b03811115620007115762000711600080fd5b6200071f8b828c0162000538565b9650506060620007328b828c0162000580565b95505060808901516001600160401b03811115620007535762000753600080fd5b620007618b828c0162000538565b94505060a0620007748b828c016200041b565b93505060c0620007878b828c01620005a1565b9250506101e06200079b8b828c0162000594565b9150509295985092959890939650565b634e487b7160e01b600052602260045260246000fd5b600281046001821680620007d657607f821691505b602082108103620007eb57620007eb620007ab565b50919050565b60006200033d620003ec8381565b6200080a83620007f1565b815460001960089490940293841b1916921b91909117905550565b600062000834818484620007ff565b505050565b81811015620002ef576200084f60008262000825565b60010162000839565b601f82111562000834576000818152602090206020601f85010481016020851015620008815750805b620008956020601f86010483018262000839565b5050505050565b6000196008929092029190911c191690565b6000620008bc83836200089c565b600290930290921792915050565b81516001600160401b03811115620008e657620008e662000432565b620008f28254620007c1565b620008ff82828562000858565b6020601f8311600181146200093257600084156200091d5750858201515b620009298582620008ae565b86555062000991565b600085815260208120601f198616915b8281101562000964578885015182556020948501946001909201910162000942565b8683101562000984578489015162000980601f8916826200089c565b8355505b6001600288020188555050505b505050505050565b805b82525050565b6200099b81620003ef565b60a08101620009bc828862000999565b620009cb602083018762000999565b620009da604083018662000999565b620009e9606083018562000999565b620009f86080830184620009a1565b9695505050505050565b600062000a0d825190565b80845260208401935062000a26818560208601620004c9565b62000a318162000428565b9093019392505050565b6020808252810162000a4e818462000a02565b9392505050565b60006200033d825190565b600062000a6b825190565b6020830162000a7a8162000a55565b9250602082101562000a9d5762000a98600019836020036008021b90565b831692505b5050919050565b60805160a05160c05160e0516101005161012051610140516101605161557362000b1f6000396000611629015260006115fe01526000613aa001526000613a7f0152600061325f01526000613289015260006132b301526000818161089e01528181612c7901528181612ca20152612cd501526155736000f3fe60806040526004361061031f5760003560e01c8062bdfde51461032457806301ffc9a7146103465780630513c3e91461037c57806306fdde03146103a957806310200519146103cb578063126ed01c146103ed57806313150b481461041a578063135f470c1461043057806317fcb39b1461044657806318160ddd146104665780631830e8811461047b5780631f37c12414610491578063217a2c7b146104a757806323af4e17146104c7578063248a9ca3146104e757806326defa7314610507578063289c686b1461052757806329f325f7146105475780632f2ff15d1461055a5780632f745c591461057a57806336568abe1461059a57806339a51be5146105ba5780633ad3033e146105da5780633c72ae70146105fa5780633ec0b0bc1461061a578063412736571461064757806341c04d5e1461066757806342966c681461068957806346657fe9146106a957806346877b1a146106d05780634962a158146106f05780634f558e79146107105780634f6ccce7146107305780636352211e146107505780636817c76c146107705780636bfd499f1461078657806370a08231146107a6578063719d0f2b146107c657806376ad1997146107e6578063776d1a541461080657806377bed5ed1461081c5780637a0d16461461083c5780637db8cb681461086c57806381e392ad1461088c57806384b0196e146108c05780638d018461146108e85780638ec9c93b1461090857806391223d691461091e57806391d148541461094e57806394a665e91461096e57806395d89b411461098e578063980833ec146109a3578063992642e5146109c357806399b589cb146109e35780639b24b3b014610a03578063a217fddf14610a23578063a498342114610a38578063a637f22a14610a58578063b97d6b2314610a6b578063c1177d1914610a81578063c31c9c0714610aa1578063c86aadb614610ac1578063c87b56dd14610ae1578063d544e01014610b01578063d547741f14610b21578063d6e6eb9f14610b41578063da058ae314610b57578063eb93e85514610b77578063ebda439614610ba5578063f4a0a52814610bc5578063fd48ac8314610be5575b600080fd5b34801561033057600080fd5b5061034461033f366004613f3f565b610c05565b005b34801561035257600080fd5b50610366610361366004613f7b565b610c38565b6040516103739190613fa6565b60405180910390f35b34801561038857600080fd5b5061039c610397366004613f3f565b610c49565b6040516103739190613fd4565b3480156103b557600080fd5b506103be610c73565b6040516103739190614044565b3480156103d757600080fd5b506103e0610d05565b60405161037391906140b2565b3480156103f957600080fd5b5061040d610408366004613f3f565b610d66565b60405161037391906140c9565b34801561042657600080fd5b5061040d601c5481565b34801561043c57600080fd5b5061040d600b5481565b34801561045257600080fd5b5060025461039c906001600160a01b031681565b34801561047257600080fd5b5060125461040d565b34801561048757600080fd5b5061040d60185481565b34801561049d57600080fd5b5061040d60195481565b3480156104b357600080fd5b5061040d6104c23660046140eb565b610d71565b3480156104d357600080fd5b506103446104e2366004614128565b610d84565b3480156104f357600080fd5b5061040d610502366004613f3f565b610de0565b34801561051357600080fd5b50610344610522366004614128565b610df5565b34801561053357600080fd5b50610344610542366004613f3f565b610ec5565b61040d61055536600461433f565b610f37565b34801561056657600080fd5b506103446105753660046143c8565b610f5a565b34801561058657600080fd5b5061040d6105953660046140eb565b610f7b565b3480156105a657600080fd5b506103446105b53660046143c8565b610fcd565b3480156105c657600080fd5b5060085461039c906001600160a01b031681565b3480156105e657600080fd5b506103446105f5366004614128565b611003565b34801561060657600080fd5b50610344610615366004613f3f565b61105f565b34801561062657600080fd5b5061063a610635366004613f3f565b6110d1565b604051610373919061446d565b34801561065357600080fd5b50610344610662366004614128565b6111c0565b34801561067357600080fd5b5061040d6000805160206154fe83398151915281565b34801561069557600080fd5b506103446106a4366004613f3f565b61121c565b3480156106b557600080fd5b506020546001600160a01b03165b60405161037391906144b3565b3480156106dc57600080fd5b506103446106eb366004614128565b61124e565b3480156106fc57600080fd5b5061034461070b366004613f3f565b6112ab565b34801561071c57600080fd5b5061036661072b366004613f3f565b61131d565b34801561073c57600080fd5b5061040d61074b366004613f3f565b611328565b34801561075c57600080fd5b5061039c61076b366004613f3f565b611376565b34801561077c57600080fd5b5061040d60175481565b34801561079257600080fd5b506103446107a1366004613f3f565b6113ab565b3480156107b257600080fd5b5061040d6107c1366004614128565b6113de565b3480156107d257600080fd5b5061040d6107e1366004614128565b611422565b3480156107f257600080fd5b50610344610801366004614128565b611522565b34801561081257600080fd5b5061040d601a5481565b34801561082857600080fd5b506016546106c3906001600160a01b031681565b34801561084857600080fd5b50610366610857366004614128565b60056020526000908152604090205460ff1681565b34801561087857600080fd5b50610344610887366004613f3f565b61157e565b34801561089857600080fd5b5061040d7f000000000000000000000000000000000000000000000000000000000000000081565b3480156108cc57600080fd5b506108d56115f0565b604051610373979695949392919061451b565b3480156108f457600080fd5b50610344610903366004614128565b611679565b34801561091457600080fd5b5061040d60095481565b34801561092a57600080fd5b50610366610939366004614128565b601f6020526000908152604090205460ff1681565b34801561095a57600080fd5b506103666109693660046143c8565b611715565b34801561097a57600080fd5b50610344610989366004614128565b61173e565b34801561099a57600080fd5b506103be6118aa565b3480156109af57600080fd5b506103666109be36600461460c565b6118b9565b3480156109cf57600080fd5b5060035461039c906001600160a01b031681565b3480156109ef57600080fd5b5060075461039c906001600160a01b031681565b348015610a0f57600080fd5b506103be610a1e366004613f3f565b611c92565b348015610a2f57600080fd5b5061040d600081565b348015610a4457600080fd5b50610344610a53366004613f3f565b611d34565b61040d610a66366004614690565b611d67565b348015610a7757600080fd5b5061040d601b5481565b348015610a8d57600080fd5b5061040d610a9c366004613f3f565b611e75565b348015610aad57600080fd5b5060015461039c906001600160a01b031681565b348015610acd57600080fd5b50610344610adc366004614128565b611f1e565b348015610aed57600080fd5b506103be610afc366004613f3f565b611fca565b348015610b0d57600080fd5b50610344610b1c366004614128565b612030565b348015610b2d57600080fd5b50610344610b3c3660046143c8565b6120fe565b348015610b4d57600080fd5b5061040d600a5481565b348015610b6357600080fd5b50610344610b72366004614128565b61211a565b348015610b8357600080fd5b50610b97610b92366004614128565b612176565b604051610373929190614772565b348015610bb157600080fd5b5060045461039c906001600160a01b031681565b348015610bd157600080fd5b50610344610be0366004613f3f565b612198565b348015610bf157600080fd5b50610344610c00366004613f3f565b61220a565b6000610c10816122b0565b6009548203610c325760405163c23f6ccb60e01b815260040160405180910390fd5b50600955565b6000610c43826122ba565b92915050565b60068181548110610c5957600080fd5b6000918252602090912001546001600160a01b0316905081565b6060600c8054610c82906147a3565b80601f0160208091040260200160405190810160405280929190818152602001828054610cae906147a3565b8015610cfb5780601f10610cd057610100808354040283529160200191610cfb565b820191906000526020600020905b815481529060010190602001808311610cde57829003601f168201915b5050505050905090565b60606006805480602002602001604051908101604052809291908181526020018280548015610cfb57602002820191906000526020600020905b81546001600160a01b03168152600190910190602001808311610d3f575050505050905090565b6000610c43826122df565b6000610d7d8383612312565b9392505050565b6000610d8f816122b0565b6003546001600160a01b03808416911603610dbd5760405163c23f6ccb60e01b815260040160405180910390fd5b50600380546001600160a01b0319166001600160a01b0392909216919091179055565b60009081526020819052604090206001015490565b610e00600033611715565b158015610e225750610e206000805160206154fe83398151915233611715565b155b15610e40576040516326f0f48160e01b815260040160405180910390fd5b6001600160a01b038116610e675760405163d92e233d60e01b815260040160405180910390fd5b6001600160a01b0381166000908152601f602052604090205460ff1615610ea15760405163f411c32760e01b815260040160405180910390fd5b6001600160a01b03166000908152601f60205260409020805460ff19166001179055565b610ed0600033611715565b158015610ef25750610ef06000805160206154fe83398151915233611715565b155b15610f10576040516326f0f48160e01b815260040160405180910390fd5b8060195403610f325760405163c23f6ccb60e01b815260040160405180910390fd5b601955565b600060405162461bcd60e51b8152600401610f5190614801565b60405180910390fd5b610f6382610de0565b610f6c816122b0565b610f768383612381565b505050565b6000610f86836113de565b8210610fa45760405162461bcd60e51b8152600401610f5190614859565b506001600160a01b03919091166000908152601060209081526040808320938352929052205490565b6001600160a01b0381163314610ff55760405162461bcd60e51b8152600401610f51906148b5565b610fff8282612405565b5050565b600061100e816122b0565b6016546001600160a01b0380841691160361103c5760405163c23f6ccb60e01b815260040160405180910390fd5b50601680546001600160a01b0319166001600160a01b0392909216919091179055565b61106a600033611715565b15801561108c575061108a6000805160206154fe83398151915233611715565b155b156110aa576040516326f0f48160e01b815260040160405180910390fd5b80601a54036110cc5760405163c23f6ccb60e01b815260040160405180910390fd5b601a55565b606060216000838152602001908152602001600020600101805480602002602001604051908101604052809291908181526020016000905b828210156111b5578382906000526020600020018054611128906147a3565b80601f0160208091040260200160405190810160405280929190818152602001828054611154906147a3565b80156111a15780601f10611176576101008083540402835291602001916111a1565b820191906000526020600020905b81548152906001019060200180831161118457829003601f168201915b505050505081526020019060010190611109565b505050509050919050565b60006111cb816122b0565b6001546001600160a01b038084169116036111f95760405163c23f6ccb60e01b815260040160405180910390fd5b50600180546001600160a01b0319166001600160a01b0392909216919091179055565b611226338261246a565b6112425760405162461bcd60e51b8152600401610f51906148f9565b61124b8161248d565b50565b6000611259816122b0565b6008546001600160a01b03908116908316036112885760405163c23f6ccb60e01b815260040160405180910390fd5b50600880546001600160a01b0319166001600160a01b0392909216919091179055565b6112b6600033611715565b1580156112d857506112d66000805160206154fe83398151915233611715565b155b156112f6576040516326f0f48160e01b815260040160405180910390fd5b80601854036113185760405163c23f6ccb60e01b815260040160405180910390fd5b601855565b6000610c4382612527565b600061133360125490565b82106113515760405162461bcd60e51b8152600401610f519061494f565b601282815481106113645761136461495f565b90600052602060002001549050919050565b6000818152600e60205260408120546001600160a01b031680610c435760405162461bcd60e51b8152600401610f51906149a1565b60006113b6816122b0565b600b5482036113d85760405163c23f6ccb60e01b815260040160405180910390fd5b50600b55565b60006001600160a01b0382166114065760405162461bcd60e51b8152600401610f51906149f4565b506001600160a01b03166000908152600f602052604090205490565b600060175460001480156114365750601854155b1561144357506000919050565b6004546001600160a01b03838116911614801561147857506001600160a01b03821660009081526005602052604090205460ff165b801561148657506000601854115b1561149357505060185490565b6003546001600160a01b0383811691161480156114c857506001600160a01b03821660009081526005602052604090205460ff165b156114d557505060175490565b6001600160a01b03821660009081526005602052604090205460ff161561150257610c4382601754612544565b81604051630ac29ab760e31b8152600401610f519190613fd4565b919050565b600061152d816122b0565b6004546001600160a01b0380841691160361155b5760405163c23f6ccb60e01b815260040160405180910390fd5b50600480546001600160a01b0319166001600160a01b0392909216919091179055565b611589600033611715565b1580156115ab57506115a96000805160206154fe83398151915233611715565b155b156115c9576040516326f0f48160e01b815260040160405180910390fd5b80601c54036115eb5760405163c23f6ccb60e01b815260040160405180910390fd5b601c55565b6000606080828080836116247f0000000000000000000000000000000000000000000000000000000000000000601d6126da565b61164f7f0000000000000000000000000000000000000000000000000000000000000000601e6126da565b60408051600080825260208201909252600f60f81b9b939a50919850469750309650945092509050565b611684600033611715565b1580156116a657506116a46000805160206154fe83398151915233611715565b155b156116c4576040516326f0f48160e01b815260040160405180910390fd5b6007546001600160a01b03908116908216036116f35760405163c23f6ccb60e01b815260040160405180910390fd5b600780546001600160a01b0319166001600160a01b0392909216919091179055565b6000918252602082815260408084206001600160a01b0393909316845291905290205460ff1690565b6000611749816122b0565b6001600160a01b03821660009081526005602052604090205460ff1661178457816040516318317bd560e01b8152600401610f519190613fd4565b6001600160a01b0382166000908152600560205260408120805460ff191690555b600654811015610f7657826001600160a01b0316600682815481106117cc576117cc61495f565b6000918252602090912001546001600160a01b03160361189857600680546117f690600190614a1a565b815481106118065761180661495f565b600091825260209091200154600680546001600160a01b0390921691839081106118325761183261495f565b9060005260206000200160006101000a8154816001600160a01b0302191690836001600160a01b03160217905550600680548061187157611871614a2d565b600082815260209020810160001990810180546001600160a01b0319169055019055505050565b806118a281614a43565b9150506117a5565b6060600d8054610c82906147a3565b600080826003815181106118cf576118cf61495f565b60200260200101519050826000815181106118ec576118ec61495f565b60200260200101516001146119135760405162461bcd60e51b8152600401610f5190614aa7565b806001600160a01b031661192686611376565b6001600160a01b03161461194c5760405162461bcd60e51b8152600401610f5190614b23565b600061195786611c92565b90508360028151811061196c5761196c61495f565b60200260200101516040516020016119849190614b33565b60405160208183030381529060405280519060200120816040516020016119ab9190614b6b565b60405160208183030381529060405280519060200120146119de5760405162461bcd60e51b8152600401610f5190614be5565b60006040518060400160405280876000815181106119fe576119fe61495f565b6020026020010151815260200187600181518110611a1e57611a1e61495f565b602002602001015181525090506000604051806040016040528060405180604001604052808a600281518110611a5657611a5661495f565b602002602001015181526020018a600381518110611a7657611a7661495f565b6020026020010151815250815260200160405180604001604052808a600481518110611aa457611aa461495f565b602002602001015181526020018a600581518110611ac457611ac461495f565b602002602001015181525081525090506000604051806040016040528089600681518110611af457611af461495f565b6020026020010151815260200189600781518110611b1457611b1461495f565b6020026020010151815250905060006040518060c0016040528089600081518110611b4157611b4161495f565b6020026020010151815260200189600181518110611b6157611b6161495f565b6020026020010151815260200189600281518110611b8157611b8161495f565b6020026020010151815260200189600381518110611ba157611ba161495f565b6020026020010151815260200189600481518110611bc157611bc161495f565b6020026020010151815260200189600581518110611be157611be161495f565b6020908102919091018101519091525460405163f398789b60e01b81529192506001600160a01b03169063f398789b90611c25908790879087908790600401614cc1565b602060405180830381865afa158015611c42573d6000803e3d6000fd5b505050506040513d601f19601f82011682018060405250810190611c669190614d0b565b611c825760405162461bcd60e51b8152600401610f5190614d5c565b5060019998505050505050505050565b6000818152602160205260409020805460609190611caf906147a3565b80601f0160208091040260200160405190810160405280929190818152602001828054611cdb906147a3565b8015611d285780601f10611cfd57610100808354040283529160200191611d28565b820191906000526020600020905b815481529060010190602001808311611d0b57829003601f168201915b50505050509050919050565b6000611d3f816122b0565b600a548203611d615760405163c23f6ccb60e01b815260040160405180910390fd5b50600a55565b60006001600160a01b0389163314611d9557335b60405163060296c760e31b8152600401610f519190613fd4565b6000611da58a8a8a8a8a8a61277e565b90506000611db960008c848d8d8a8a612864565b6040805160606020601f8c01819004028201810183529181018a81529293509182918b908b90819085018382808284376000920182905250938552505050602091820189905283815260219091526040902081518190611e199082614e30565b506020828101518051611e329260018501920190613e6a565b505060175460405160008051602061551e8339815191529250611e5f9184918f918f918f91600091614eed565b60405180910390a19a9950505050505050505050565b6016546000906001600160a01b0316611ea157604051630d7fe67b60e41b815260040160405180910390fd5b6000611eac83611376565b60165460405163294cdf0d60e01b81529192506001600160a01b03169063294cdf0d90611edd908490600401613fd4565b602060405180830381865afa158015611efa573d6000803e3d6000fd5b505050506040513d601f19601f82011682018060405250810190610d7d9190614f47565b6000611f29816122b0565b6001600160a01b03821660009081526005602052604090205460ff1615611f635760405163f411c32760e01b815260040160405180910390fd5b506001600160a01b03166000818152600560205260408120805460ff191660019081179091556006805491820181559091527ff652222313e28459528d920b65115c16c04f3efc82aaedc97be59f3f377c0d3f0180546001600160a01b0319169091179055565b6060611fd58261290b565b6000611fdf612930565b90506000815111611fff5760405180602001604052806000815250610d7d565b806120098461293f565b60405160200161201a929190614f68565b6040516020818303038152906040529392505050565b61203b600033611715565b15801561205d575061205b6000805160206154fe83398151915233611715565b155b1561207b576040516326f0f48160e01b815260040160405180910390fd5b6001600160a01b0381166120a25760405163d92e233d60e01b815260040160405180910390fd5b6001600160a01b0381166000908152601f602052604090205460ff166120dd57806040516324b1f80560e21b8152600401610f519190613fd4565b6001600160a01b03166000908152601f60205260409020805460ff19169055565b61210782610de0565b612110816122b0565b610f768383612405565b6000612125816122b0565b6002546001600160a01b038084169116036121535760405163c23f6ccb60e01b815260040160405180910390fd5b50600280546001600160a01b0319166001600160a01b0392909216919091179055565b60008061218283611422565b91508161218f8484612312565b91509150915091565b6121a3600033611715565b1580156121c557506121c36000805160206154fe83398151915233611715565b155b156121e3576040516326f0f48160e01b815260040160405180910390fd5b80601754036122055760405163c23f6ccb60e01b815260040160405180910390fd5b601755565b612215600033611715565b15801561223757506122356000805160206154fe83398151915233611715565b155b15612255576040516326f0f48160e01b815260040160405180910390fd5b80601b54036122775760405163c23f6ccb60e01b815260040160405180910390fd5b601b55565b600060208351101561229857612291836129d2565b9050610c43565b816122a38482614e30565b5060ff9050610c43565b90565b61124b8133612a10565b60006001600160e01b0319821663780e9d6360e01b1480610c435750610c4382612a69565b600b546000901561230a57610c436064612304600b5485612aa990919063ffffffff16565b90612ab5565b506000919050565b60095460009081901561234d576003546001600160a01b039081169085160361233e575060095461234d565b61234a84600954612544565b90505b600a5415610d7d576123796123726064612304600a5487612aa990919063ffffffff16565b8290612ac1565b949350505050565b61238b8282611715565b610fff576000828152602081815260408083206001600160a01b03851684529091529020805460ff191660011790556123c13390565b6001600160a01b0316816001600160a01b0316837f2f8788117e7eff1d82e926ec794901d17c78024a50270940304540a733656f0d60405160405180910390a45050565b61240f8282611715565b15610fff576000828152602081815260408083206001600160a01b0385168085529252808320805460ff1916905551339285917ff6391f5c32d9c69d2a47ea670b442974b53935d1edc7fd64eb21e047a839171b9190a45050565b60008061247683611376565b6001600160a01b0385811691161491505092915050565b600061249882611376565b90506124a681600084612acd565b6001600160a01b0381166000908152600f602052604081208054600192906124cf908490614a1a565b90915550506000828152600e602052604080822080546001600160a01b03191690555183916001600160a01b038416917fcc16f5dbb4873280815c1ee09dbd06736cffcc184412cf7a71a0fdb75d397ca59190a35050565b6000908152600e60205260409020546001600160a01b0316151590565b60008160008111801561256057506001546001600160a01b0316155b1561257e5760405163fca2174f60e01b815260040160405180910390fd5b60008111801561259757506002546001600160a01b0316155b156125b55760405163fca2174f60e01b815260040160405180910390fd5b6000811180156125ce57506003546001600160a01b0316155b156125ec5760405163fca2174f60e01b815260040160405180910390fd5b60008111801561260557506007546001600160a01b0316155b156126235760405163fca2174f60e01b815260040160405180910390fd5b6001600160a01b03841660009081526005602052604090205460ff16158061265857506003546001600160a01b038581169116145b15612678578360405163961c9a4f60e01b8152600401610f519190613fd4565b8260000361268957600091506126d3565b6001600160a01b0384166126bb576002546003546126b4916001600160a01b03908116911685612ad8565b91506126d3565b6003546126b49085906001600160a01b031685612ad8565b5092915050565b606060ff83146126ed5761229183612b87565b8180546126f9906147a3565b80601f0160208091040260200160405190810160405280929190818152602001828054612725906147a3565b80156127725780601f1061274757610100808354040283529160200191612772565b820191906000526020600020905b81548152906001019060200180831161275557829003601f168201915b50505050509050610c43565b60006128577f2ea84b66306c06d18588a09ce7f1dbcee6c4567b27904af16457a4c7869ab43e88888888886040516127b7929190614fa9565b6040518091039020876000815181106127d2576127d261495f565b602002602001015180519060200120886001815181106127f4576127f461495f565b602002602001015180519060200120896002815181106128165761281661495f565b60200260200101518051906020012060405160200161283c989796959493929190614fb6565b60405160208183030381529060405280519060200120612bc6565b90505b9695505050505050565b60006001600160a01b038716331461287c5733611d7b565b6128be8684848080601f0160208091040260200160405190810160405280939291908181526020018383808284376000920191909152508a9250612bf3915050565b60006128ca8989612c74565b905060008051602061551e833981519152818988888d6017546040516128f596959493929190614eed565b60405180910390a190505b979650505050505050565b61291481612527565b61124b5760405162461bcd60e51b8152600401610f51906149a1565b606060158054610c82906147a3565b6060600061294c83612d58565b60010190506000816001600160401b0381111561296b5761296b614193565b6040519080825280601f01601f191660200182016040528015612995576020820181803683370190505b5090508181016020015b600019016f181899199a1a9b1b9c1cb0b131b232b360811b600a86061a8153600a850494508461299f575b509392505050565b600080829050601f815111156129fd578260405163305a27a960e01b8152600401610f519190614044565b8051612a0882615040565b179392505050565b612a1a8282611715565b610fff57612a2781612e2e565b612a32836020612e40565b604051602001612a4392919061507f565b60408051601f198184030181529082905262461bcd60e51b8252610f5191600401614044565b60006001600160e01b031982166313f2a32f60e01b1480612a9a57506001600160e01b03198216635b5e139f60e01b145b80610c435750610c4382612fab565b6000610d7d82846150d1565b6000610d7d82846150e9565b6000610d7d82846150fd565b610f76838383612fe0565b6000606080612ae78686613098565b6001546040516307c0329d60e21b81529192506001600160a01b031690631f00ca7490612b1a9087908590600401615110565b600060405180830381865afa158015612b37573d6000803e3d6000fd5b505050506040513d6000823e601f3d908101601f19168201604052612b5f91908101906151a5565b915081600081518110612b7457612b7461495f565b6020026020010151925050509392505050565b60606000612b948361322a565b604080516020808252818301909252919250600091906020820181803683375050509182525060208101929092525090565b6000610c43612bd3613252565b8360405161190160f01b8152600281019290925260228201526042902090565b6000612bff84846132e2565b9050816001600160a01b0316816001600160a01b031614612c3357604051638baa579f60e01b815260040160405180910390fd5b6001600160a01b0381166000908152601f602052604090205460ff16612c6e5780604051634a0bfec160e01b8152600401610f519190613fd4565b50505050565b6000807f0000000000000000000000000000000000000000000000000000000000000000118015612ccd57507f0000000000000000000000000000000000000000000000000000000000000000612cca836113de565b10155b15612d0f57817f00000000000000000000000000000000000000000000000000000000000000006040516305dfb04760e01b8152600401610f519291906151df565b600080612d1b85612176565b91509150612d2a8583836132fe565b6000612d3560145490565b9050612d45601480546001019055565b612d4f85826137ee565b95945050505050565b60008072184f03e93ff9f4daa797ed6e38ed64bf6a1f0160401b8310612d975772184f03e93ff9f4daa797ed6e38ed64bf6a1f0160401b830492506040015b6904ee2d6d415b85acef8160201b8310612dc1576904ee2d6d415b85acef8160201b830492506020015b662386f26fc100008310612ddf57662386f26fc10000830492506010015b6305f5e1008310612df7576305f5e100830492506008015b6127108310612e0b57612710830492506004015b60648310612e1d576064830492506002015b600a8310610c435760010192915050565b6060610c436001600160a01b03831660145b60606000612e4f8360026150d1565b612e5a9060026150fd565b6001600160401b03811115612e7157612e71614193565b6040519080825280601f01601f191660200182016040528015612e9b576020820181803683370190505b509050600360fc1b81600081518110612eb657612eb661495f565b60200101906001600160f81b031916908160001a905350600f60fb1b81600181518110612ee557612ee561495f565b60200101906001600160f81b031916908160001a9053506000612f098460026150d1565b612f149060016150fd565b90505b6001811115612f8c576f181899199a1a9b1b9c1cb0b131b232b360811b85600f1660108110612f4857612f4861495f565b1a60f81b828281518110612f5e57612f5e61495f565b60200101906001600160f81b031916908160001a90535060049490941c93612f85816151ed565b9050612f17565b508315610d7d5760405162461bcd60e51b8152600401610f5190615236565b60006001600160e01b03198216637965db0b60e01b1480610c4357506301ffc9a760e01b6001600160e01b0319831614610c43565b6001600160a01b03831661303b5761303681601280546000838152601360205260408120829055600182018355919091527fbb8a6a4669ba250d26cd7a459eca9d215f8307e33aebe50379bc5a3617ec34440155565b61305e565b816001600160a01b0316836001600160a01b03161461305e5761305e83826138ca565b6001600160a01b03821661307557610f7681613967565b826001600160a01b0316826001600160a01b031614610f7657610f768282613a16565b6002546060906001600160a01b03848116911614806130c457506002546001600160a01b038381169116145b1561318e57604080516002808252606082018352600092602083019080368337019050506002549091506001600160a01b038581169116146131065783613113565b6002546001600160a01b03165b816000815181106131265761312661495f565b6001600160a01b03928316602091820292909201015260025484821691161461314f578261315c565b6002546001600160a01b03165b8160018151811061316f5761316f61495f565b6001600160a01b03909216602092830291909101909101529050610c43565b604080516003808252608082019092526000916020820160608036833701905050905083816000815181106131c5576131c561495f565b6001600160a01b0392831660209182029290920101526002548251911690829060019081106131f6576131f661495f565b60200260200101906001600160a01b031690816001600160a01b031681525050828160028151811061316f5761316f61495f565b600060ff8216601f811115610c4357604051632cd44ac360e21b815260040160405180910390fd5b6000306001600160a01b037f0000000000000000000000000000000000000000000000000000000000000000161480156132ab57507f000000000000000000000000000000000000000000000000000000000000000046145b156132d557507f000000000000000000000000000000000000000000000000000000000000000090565b6132dd613a5a565b905090565b60008060006132f18585613af0565b915091506129ca81613b35565b6133088282612ac1565b60008111801561332157506001546001600160a01b0316155b1561333f5760405163fca2174f60e01b815260040160405180910390fd5b60008111801561335857506002546001600160a01b0316155b156133765760405163fca2174f60e01b815260040160405180910390fd5b60008111801561338f57506003546001600160a01b0316155b156133ad5760405163fca2174f60e01b815260040160405180910390fd5b6000811180156133c657506007546001600160a01b0316155b156133e45760405163fca2174f60e01b815260040160405180910390fd5b821580156133f0575081155b612c6e5760006133ff846122df565b905060008311806134105750600081115b801561342557506008546001600160a01b0316155b156134435760405163910af6f560e01b815260040160405180910390fd5b6001600160a01b03851660009081526005602052604090205460ff1661347e5784604051630ac29ab760e31b8152600401610f519190613fd4565b6001600160a01b038516613720576134968484612ac1565b3410156134c1576134a78484612ac1565b60405163091a6d0f60e01b8152600401610f5191906140c9565b60006134cd8583613be4565b111561355e576007546000906001600160a01b03166134ec8684613be4565b6040516134f890615246565b60006040518083038185875af1925050503d8060008114613535576040519150601f19603f3d011682016040523d82523d6000602084013e61353a565b606091505b505090508061355c576040516312171d8360e31b815260040160405180910390fd5b505b82156135e8576008546040516000916001600160a01b031690859061358290615246565b60006040518083038185875af1925050503d80600081146135bf576040519150601f19603f3d011682016040523d82523d6000602084013e6135c4565b606091505b50509050806135e6576040516312171d8360e31b815260040160405180910390fd5b505b8015613672576008546040516000916001600160a01b031690839061360c90615246565b60006040518083038185875af1925050503d8060008114613649576040519150601f19603f3d011682016040523d82523d6000602084013e61364e565b606091505b5050905080613670576040516312171d8360e31b815260040160405180910390fd5b505b61367c8484612ac1565b34111561371b5760006136996136928686612ac1565b3490613be4565b90506000336001600160a01b0316826040516136b490615246565b60006040518083038185875af1925050503d80600081146136f1576040519150601f19603f3d011682016040523d82523d6000602084013e6136f6565b606091505b505090508061371857604051633c31275160e21b815260040160405180910390fd5b50505b6137a4565b600061372c8583613be4565b1115613760576007546137609033906001600160a01b031661374e8785613be4565b6001600160a01b038916929190613bf0565b821561378257600854613782906001600160a01b038781169133911686613bf0565b80156137a4576008546137a4906001600160a01b038781169133911684613bf0565b846001600160a01b03167f32c8827c44bf4e71963135be394d95e34ec7302da6f5d8fca5439557863a33f485856040516137df929190614772565b60405180910390a25050505050565b6001600160a01b0382166138145760405162461bcd60e51b8152600401610f5190615282565b61381d81612527565b1561383a5760405162461bcd60e51b8152600401610f51906152c2565b61384660008383612acd565b6001600160a01b0382166000908152600f6020526040812080546001929061386f9084906150fd565b90915550506000818152600e602052604080822080546001600160a01b0319166001600160a01b038616908117909155905183927f0f6798a560793a54c3bcfe86a93cde1e73087d944c0ea20544137d412139688591a35050565b600060016138d7846113de565b6138e19190614a1a565b600083815260116020526040902054909150808214613934576001600160a01b03841660009081526010602090815260408083208584528252808320548484528184208190558352601190915290208190555b5060009182526011602090815260408084208490556001600160a01b039094168352601081528383209183525290812055565b60125460009061397990600190614a1a565b600083815260136020526040812054601280549394509092849081106139a1576139a161495f565b9060005260206000200154905080601283815481106139c2576139c261495f565b60009182526020808320909101929092558281526013909152604080822084905585825281205560128054806139fa576139fa614a2d565b6001900381819060005260206000200160009055905550505050565b6000613a21836113de565b6001600160a01b039093166000908152601060209081526040808320868452825280832085905593825260119052919091209190915550565b60007f8b73c3c69bb8fe3d512ecc4cf759cc79239f7b179b0ffacaa9a75d522b39400f7f00000000000000000000000000000000000000000000000000000000000000007f00000000000000000000000000000000000000000000000000000000000000004630604051602001613ad59594939291906152d2565b60405160208183030381529060405280519060200120905090565b6000808251604103613b265760208301516040840151606085015160001a613b1a87828585613c48565b94509450505050613b2e565b506000905060025b9250929050565b6000816004811115613b4957613b49615314565b03613b515750565b6001816004811115613b6557613b65615314565b03613b825760405162461bcd60e51b8152600401610f5190615359565b6002816004811115613b9657613b96615314565b03613bb35760405162461bcd60e51b8152600401610f519061539d565b6003816004811115613bc757613bc7615314565b0361124b5760405162461bcd60e51b8152600401610f51906153ec565b6000610d7d8284614a1a565b612c6e846323b872dd60e01b858585604051602401613c11939291906153fc565b60408051601f198184030181529190526020810180516001600160e01b03166001600160e01b031990931692909217909152613cf5565b6000806fa2a8918ca85bafe22016d0b997e4df60600160ff1b03831115613c755750600090506003613cec565b600060018787878760405160008152602001604052604051613c9a949392919061542d565b6020604051602081039080840390855afa158015613cbc573d6000803e3d6000fd5b5050604051601f1901519150506001600160a01b038116613ce557600060019250925050613cec565b9150600090505b94509492505050565b6000613d4a826040518060400160405280602081526020017f5361666545524332303a206c6f772d6c6576656c2063616c6c206661696c6564815250856001600160a01b0316613d879092919063ffffffff16565b9050805160001480613d6b575080806020019051810190613d6b9190614d0b565b610f765760405162461bcd60e51b8152600401610f51906154a9565b6060612379848460008585600080866001600160a01b03168587604051613dae9190614b6b565b60006040518083038185875af1925050503d8060008114613deb576040519150601f19603f3d011682016040523d82523d6000602084013e613df0565b606091505b50915091506129008783838760608315613e3b578251600003613e34576001600160a01b0385163b613e345760405162461bcd60e51b8152600401610f51906154ed565b5081612379565b6123798383815115613e505781518083602001fd5b8060405162461bcd60e51b8152600401610f519190614044565b828054828255906000526020600020908101928215613eb0579160200282015b82811115613eb05782518290613ea09082614e30565b5091602001919060010190613e8a565b50613ebc929150613ec0565b5090565b80821115613ebc576000613ed48282613edd565b50600101613ec0565b508054613ee9906147a3565b6000825580601f10613ef9575050565b601f01602090049060005260206000209081019061124b91905b80821115613ebc5760008155600101613f13565b805b811461124b57600080fd5b8035610c4381613f27565b600060208284031215613f5457613f54600080fd5b60006123798484613f34565b6001600160e01b03198116613f29565b8035610c4381613f60565b600060208284031215613f9057613f90600080fd5b60006123798484613f70565b8015155b82525050565b60208101610c438284613f9c565b6001600160a01b031690565b6000610c4382613fb4565b613fa081613fc0565b60208101610c438284613fcb565b60005b83811015613ffd578181015183820152602001613fe5565b50506000910152565b601f01601f191690565b600061401a825190565b808452602084019350614031818560208601613fe2565b61403a81614006565b9093019392505050565b60208082528101610d7d8184614010565b60006140618383613fcb565b505060200190565b6000614073825190565b80845260209384019383018060005b838110156140a75781516140968882614055565b975060208301925050600101614082565b509495945050505050565b60208082528101610d7d8184614069565b80613fa0565b60208101610c4382846140c3565b613f2981613fc0565b8035610c43816140d7565b6000806040838503121561410157614101600080fd5b600061410d85856140e0565b925050602061411e85828601613f34565b9150509250929050565b60006020828403121561413d5761413d600080fd5b600061237984846140e0565b60008083601f84011261415e5761415e600080fd5b5081356001600160401b0381111561417857614178600080fd5b602083019150836001820283011115613b2e57613b2e600080fd5b634e487b7160e01b600052604160045260246000fd5b6141b282614006565b81018181106001600160401b03821117156141cf576141cf614193565b6040525050565b60006141e160405190565b905061151d82826141a9565b60006001600160401b0382111561420657614206614193565b5060209081020190565b60006001600160401b0382111561422957614229614193565b61423282614006565b60200192915050565b82818337506000910152565b600061425a61425584614210565b6141d6565b90508281526020810184848401111561427557614275600080fd5b6129ca84828561423b565b600082601f83011261429457614294600080fd5b8135612379848260208601614247565b60006142b2614255846141ed565b838152905060208082019084028301858111156142d1576142d1600080fd5b835b818110156143115780356001600160401b038111156142f4576142f4600080fd5b8086016143018982614280565b85525050602092830192016142d3565b5050509392505050565b600082601f83011261432f5761432f600080fd5b81356123798482602086016142a4565b6000806000806060858703121561435857614358600080fd5b600061436487876140e0565b94505060208501356001600160401b0381111561438357614383600080fd5b61438f87828801614149565b935093505060408501356001600160401b038111156143b0576143b0600080fd5b6143bc8782880161431b565b91505092959194509250565b600080604083850312156143de576143de600080fd5b60006143ea8585613f34565b925050602061411e858286016140e0565b6000610d7d8383614010565b6000614411825190565b8084526020840193508360208202850161442b8560200190565b8060005b85811015614460578484038952815161444885826143fb565b94506020830160209a909a019992505060010161442f565b5091979650505050505050565b60208082528101610d7d8184614407565b6000610c4361448f6122ad84613fb4565b613fb4565b6000610c438261447e565b6000610c4382614494565b613fa08161449f565b60208101610c4382846144aa565b6001600160f81b03198116613fa0565b600061406183836140c3565b60006144e7825190565b80845260209384019383018060005b838110156140a757815161450a88826144d1565b9750602083019250506001016144f6565b60e08101614529828a6144c1565b818103602083015261453b8189614010565b9050818103604083015261454f8188614010565b905061455e60608301876140c3565b61456b6080830186613fcb565b61457860a08301856140c3565b81810360c083015261458a81846144dd565b9998505050505050505050565b60006145a5614255846141ed565b838152905060208082019084028301858111156145c4576145c4600080fd5b835b8181101561431157806145d98882613f34565b845250602092830192016145c6565b600082601f8301126145fc576145fc600080fd5b8135612379848260208601614597565b60008060006060848603121561462457614624600080fd5b60006146308686613f34565b93505060208401356001600160401b0381111561464f5761464f600080fd5b61465b868287016145e8565b92505060408401356001600160401b0381111561467a5761467a600080fd5b614686868287016145e8565b9150509250925092565b60008060008060008060008060c0898b0312156146af576146af600080fd5b60006146bb8b8b6140e0565b98505060206146cc8b828c016140e0565b97505060406146dd8b828c01613f34565b96505060608901356001600160401b038111156146fc576146fc600080fd5b6147088b828c01614149565b955095505060808901356001600160401b0381111561472957614729600080fd5b6147358b828c0161431b565b93505060a08901356001600160401b0381111561475457614754600080fd5b6147608b828c01614149565b92509250509295985092959890939650565b6040810161478082856140c3565b610d7d60208301846140c3565b634e487b7160e01b600052602260045260246000fd5b6002810460018216806147b757607f821691505b6020821081036147c9576147c961478d565b50919050565b6018815260006020820177119d5b98dd1a5bdb881b9bdd081a5b5c1b195b595b9d195960421b815291505b5060200190565b60208082528101610c43816147cf565b602881526000602082017f534254456e756d657261626c653a206f776e657220696e646578206f7574206f8152676620626f756e647360c01b602082015291505b5060400190565b60208082528101610c4381614811565b602f81526000602082017f416363657373436f6e74726f6c3a2063616e206f6e6c792072656e6f756e636581526e103937b632b9903337b91039b2b63360891b60208201529150614852565b60208082528101610c4381614869565b601e81526000602082017f5342543a2063616c6c6572206973206e6f7420746f6b656e206f776e65720000815291506147fa565b60208082528101610c43816148c5565b602981526000602082017f534254456e756d657261626c653a20676c6f62616c20696e646578206f7574208152686f6620626f756e647360b81b60208201529150614852565b60208082528101610c4381614909565b634e487b7160e01b600052603260045260246000fd5b601581526000602082017414d0950e881a5b9d985b1a59081d1bdad95b881251605a1b815291506147fa565b60208082528101610c4381614975565b602681526000602082017f5342543a2061646472657373207a65726f206973206e6f7420612076616c69648152651037bbb732b960d11b60208201529150614852565b60208082528101610c43816149b1565b634e487b7160e01b600052601160045260246000fd5b81810381811115610c4357610c43614a04565b634e487b7160e01b600052603160045260246000fd5b60006000198203614a5657614a56614a04565b5060010190565b602d81526000602082017f54686520636c61696d20646f65736e277420736174697366792074686520717581526c32b93c9031b7b73234ba34b7b760991b60208201529150614852565b60208082528101610c4381614a5d565b604681526000602082017f5468652053425420646f65736e27742062656c6f6e6720746f2074686520616481527f6472657373207468617420697320747279696e6720746f20636c61696d20746860208201526532903637b0b760d11b604082015291505b5060600190565b60208082528101610c4381614ab7565b6000614b40828480613fa0565b50602001919050565b6000614b53825190565b614b61818560208601613fe2565b9290920192915050565b6000610d7d8284614b49565b604b81526000602082017f54686520726f6f74206f6620746865204d65726b6c652054726565277320646181527f746120646f65736e2774206d617463682074686520726f6f742073746f72656460208201526a081a5b881d1a194814d09560aa1b60408201529150614b1c565b60208082528101610c4381614b77565b6002818060005b83811015614c21578151614c1087826144d1565b965060208301925050600101614bfc565b505050505050565b6002818060005b83811015614c21578151614c4487826144d1565b965060208301925050600101614c30565b6000614c618383614c29565b505060400190565b6002818060005b83811015614c21578151614c848782614c55565b965060208301925050600101614c70565b6006818060005b83811015614c21578151614cb087826144d1565b965060208301925050600101614c9c565b6101c08101614cd08287614bf5565b614cdd6040830186614c69565b614cea60c0830185614bf5565b612d4f610100830184614c95565b801515613f29565b8051610c4381614cf8565b600060208284031215614d2057614d20600080fd5b60006123798484614d00565b6019815260006020820178141c9bdbd9881d995c9a599a58d85d1a5bdb8819985a5b1959603a1b815291506147fa565b60208082528101610c4381614d2c565b6000610c436122ad8381565b614d8183614d6c565b815460001960089490940293841b1916921b91909117905550565b6000610f76818484614d78565b81811015610fff57614dbc600082614d9c565b600101614da9565b601f821115610f76576000818152602090206020601f85010481016020851015614deb5750805b614dfd6020601f860104830182614da9565b5050505050565b6000196008929092029190911c191690565b6000614e228383614e04565b600290930290921792915050565b81516001600160401b03811115614e4957614e49614193565b614e5382546147a3565b614e5e828285614dc4565b6020601f831160018114614e8c5760008415614e7a5750858201515b614e848582614e16565b865550614c21565b600085815260208120601f198616915b82811015614ebc5788850151825560209485019460019092019101614e9c565b86831015614ed95784890151614ed5601f891682614e04565b8355505b600160028802018855505050505050505050565b60c08101614efb82896140c3565b614f086020830188613fcb565b614f156040830187613fcb565b614f2260608301866140c3565b614f2f6080830185613fcb565b61290060a08301846140c3565b8051610c4381613f27565b600060208284031215614f5c57614f5c600080fd5b60006123798484614f3c565b6000614f748285614b49565b9150614f808284614b49565b64173539b7b760d91b8152915060058201612379565b6000614fa383858461423b565b50500190565b6000612379828486614f96565b6101008101614fc5828b6140c3565b614fd2602083018a613fcb565b614fdf6040830189613fcb565b614fec60608301886140c3565b614ff960808301876140c3565b61500660a08301866140c3565b61501360c08301856140c3565b61458a60e08301846140c3565b634e487b7160e01b600052601260045260246000fd5b6000610c43825190565b600061504a825190565b6020830161505781615036565b9250602082101561507857615073600019836020036008021b90565b831692505b5050919050565b76020b1b1b2b9b9a1b7b73a3937b61d1030b1b1b7bab73a1604d1b815260170160006150ab8285614b49565b7001034b99036b4b9b9b4b733903937b6329607d1b815260110191506123798284614b49565b8181028082158382048514176126d3576126d3614a04565b6000826150f8576150f8615020565b500490565b80820180821115610c4357610c43614a04565b6040810161511e82856140c3565b81810360208301526123798184614069565b600061513e614255846141ed565b8381529050602080820190840283018581111561515d5761515d600080fd5b835b8181101561431157806151728882614f3c565b8452506020928301920161515f565b600082601f83011261519557615195600080fd5b8151612379848260208601615130565b6000602082840312156151ba576151ba600080fd5b81516001600160401b038111156151d3576151d3600080fd5b61237984828501615181565b604081016147808285613fcb565b6000816151fc576151fc614a04565b506000190190565b60208082527f537472696e67733a20686578206c656e67746820696e73756666696369656e74910190815260006147fa565b60208082528101610c4381615204565b600081610c43565b601d81526000602082017f5342543a206d696e7420746f20746865207a65726f2061646472657373000000815291506147fa565b60208082528101610c438161524e565b601981526000602082017814d0950e881d1bdad95b88185b1c9958591e481b5a5b9d1959603a1b815291506147fa565b60208082528101610c4381615292565b60a081016152e082886140c3565b6152ed60208301876140c3565b6152fa60408301866140c3565b61530760608301856140c3565b61285a6080830184613fcb565b634e487b7160e01b600052602160045260246000fd5b601881526000602082017745434453413a20696e76616c6964207369676e617475726560401b815291506147fa565b60208082528101610c438161532a565b601f81526000602082017f45434453413a20696e76616c6964207369676e6174757265206c656e67746800815291506147fa565b60208082528101610c4381615369565b602281526000602082017f45434453413a20696e76616c6964207369676e6174757265202773272076616c815261756560f01b60208201529150614852565b60208082528101610c43816153ad565b6060810161540a8286613fcb565b6154176020830185613fcb565b61237960408301846140c3565b60ff8116613fa0565b6080810161543b82876140c3565b6154486020830186615424565b61545560408301856140c3565b612d4f60608301846140c3565b602a81526000602082017f5361666545524332303a204552433230206f7065726174696f6e20646964206e8152691bdd081cdd58d8d9595960b21b60208201529150614852565b60208082528101610c4381615462565b601d81526000602082017f416464726573733a2063616c6c20746f206e6f6e2d636f6e7472616374000000815291506147fa565b60208082528101610c43816154b956fe52eafc11f6f81f86878bffd31109a0d92f37506527754f00788853ff9f63b130c90403d5f004ffdbf65d5821160d02ec2aca1434bf532f015ae34177b0b36f37a2646970667358221220206b9de114a4da441becd8c3cf49dc5b468cd1a3dfd6b52265284025c4c3673264736f6c63430008120033",
  "devdoc": {
    "author": "Masa Finance",
    "details": "Inherits from the SSSBT contract.",
    "events": {
      "Burn(address,uint256)": {
        "details": "This emits when an SBT is burned  This event emits when SBTs are destroyed"
      },
      "EIP712DomainChanged()": {
        "details": "MAY be emitted to signal that the domain could have changed."
      },
      "Mint(address,uint256)": {
        "details": "This emits when an SBT is newly minted.  This event emits when SBTs are created"
      },
      "RoleAdminChanged(bytes32,bytes32,bytes32)": {
        "details": "Emitted when `newAdminRole` is set as ``role``'s admin role, replacing `previousAdminRole` `DEFAULT_ADMIN_ROLE` is the starting admin for all roles, despite {RoleAdminChanged} not being emitted signaling this. _Available since v3.1._"
      },
      "RoleGranted(bytes32,address,address)": {
        "details": "Emitted when `account` is granted `role`. `sender` is the account that originated the contract call, an admin role bearer except when using {AccessControl-_setupRole}."
      },
      "RoleRevoked(bytes32,address,address)": {
        "details": "Emitted when `account` is revoked `role`. `sender` is the account that originated the contract call:   - if using `revokeRole`, it is the admin role bearer   - if using `renounceRole`, it is the role bearer (i.e. `account`)"
      }
    },
    "kind": "dev",
    "methods": {
      "addAuthority(address)": {
        "details": "The caller must have the admin or project admin role to call this function",
        "params": {
          "_authority": "New authority to add"
        }
      },
      "balanceOf(address)": {
        "details": "See {ISBT-balanceOf}."
      },
      "burn(uint256)": {
        "details": "Burns `tokenId`. See {SBT-_burn}. Requirements: - The caller must own `tokenId` or be an approved operator."
      },
      "constructor": {
        "details": "Creates a new Test ZKP SBT, inheriting from the Masa SSSBT contract.",
        "params": {
          "admin": "Administrator of the smart contract",
          "baseTokenURI": "Base URI of the token",
          "maxSBTToMint": "Maximum number of SBT that can be minted",
          "name": "Name of the token",
          "paymentParams": "Payment gateway params",
          "soulboundIdentity": "Address of the SoulboundIdentity contract",
          "symbol": "Symbol of the token",
          "verifier": "Verifier smart contract"
        }
      },
      "disablePaymentMethod(address)": {
        "details": "The caller must have the admin role to call this function",
        "params": {
          "_paymentMethod": "Token to remove"
        }
      },
      "eip712Domain()": {
        "details": "See {EIP-5267}. _Available since v4.9._"
      },
      "enablePaymentMethod(address)": {
        "details": "The caller must have the admin role to call this function",
        "params": {
          "_paymentMethod": "New token to add"
        }
      },
      "exists(uint256)": {
        "details": "Returns true if the token has been minted",
        "params": {
          "tokenId": "Token to check"
        },
        "returns": {
          "_0": "True if the token exists"
        }
      },
      "getEnabledPaymentMethods()": {
        "details": "Returns the address of all available payment methods",
        "returns": {
          "_0": "Array of all enabled payment methods"
        }
      },
      "getEncryptedData(uint256)": {
        "params": {
          "tokenId": "The SBT ID"
        },
        "returns": {
          "_0": "The encrypted data with the public key of the owner of the SBT"
        }
      },
      "getIdentityId(uint256)": {
        "params": {
          "tokenId": "Id of the token"
        },
        "returns": {
          "_0": "Id of the identity"
        }
      },
      "getMintPrice(address)": {
        "details": "Returns current pricing for minting",
        "params": {
          "paymentMethod": "Address of token that user want to pay"
        },
        "returns": {
          "price": "Current price for minting in the given payment method"
        }
      },
      "getMintPriceWithProtocolFee(address)": {
        "details": "Returns current pricing for minting with protocol fee",
        "params": {
          "paymentMethod": "Address of token that user want to pay"
        },
        "returns": {
          "price": "Current price for minting in the given payment method",
          "protocolFee": "Current protocol fee for minting in the given payment method"
        }
      },
      "getProtocolFee(address,uint256)": {
        "details": "This method will calculate the protocol fee based on the payment method",
        "params": {
          "amount": "Price to be paid in the specified payment method",
          "paymentMethod": "Address of token that user want to pay"
        }
      },
      "getProtocolFeeSub(uint256)": {
        "details": "This method will calculate the protocol fee based on the payment method",
        "params": {
          "amount": "Price to be paid in the specified payment method"
        }
      },
      "getRoleAdmin(bytes32)": {
        "details": "Returns the admin role that controls `role`. See {grantRole} and {revokeRole}. To change a role's admin, use {_setRoleAdmin}."
      },
      "getRoot(uint256)": {
        "params": {
          "tokenId": "The SBT ID"
        },
        "returns": {
          "_0": "The root of the Merkle Tree's data without encryption, used to verify the data"
        }
      },
      "getVerifier()": {
        "returns": {
          "_0": "The verifier smart contract"
        }
      },
      "grantRole(bytes32,address)": {
        "details": "Grants `role` to `account`. If `account` had not been already granted `role`, emits a {RoleGranted} event. Requirements: - the caller must have ``role``'s admin role. May emit a {RoleGranted} event."
      },
      "hasRole(bytes32,address)": {
        "details": "Returns `true` if `account` has been granted `role`."
      },
      "mint(address,address,uint256,bytes,bytes[],bytes)": {
        "details": "The caller must have the MINTER role",
        "params": {
          "authorityAddress": "Address of the authority that signed the message",
          "encryptedData": "Encrypted data",
          "root": "Root of the Merkle Tree's data without encryption, used to verify the data",
          "signature": "Signature of the message",
          "signatureDate": "Date of the signature",
          "to": "The address to mint the SBT to"
        },
        "returns": {
          "_0": "The SBT ID of the newly minted SBT"
        }
      },
      "name()": {
        "details": "See {ISBTMetadata-name}."
      },
      "ownerOf(uint256)": {
        "details": "See {ISBT-ownerOf}."
      },
      "removeAuthority(address)": {
        "details": "The caller must have the admin or project admin role to call this function",
        "params": {
          "_authority": "Authority to remove"
        }
      },
      "renounceRole(bytes32,address)": {
        "details": "Revokes `role` from the calling account. Roles are often managed via {grantRole} and {revokeRole}: this function's purpose is to provide a mechanism for accounts to lose their privileges if they are compromised (such as when a trusted device is misplaced). If the calling account had been revoked `role`, emits a {RoleRevoked} event. Requirements: - the caller must be `account`. May emit a {RoleRevoked} event."
      },
      "revokeRole(bytes32,address)": {
        "details": "Revokes `role` from `account`. If `account` had been granted `role`, emits a {RoleRevoked} event. Requirements: - the caller must have ``role``'s admin role. May emit a {RoleRevoked} event."
      },
      "setAddLinkPrice(uint256)": {
        "details": "The caller must have the admin or project admin role to call this function",
        "params": {
          "_addLinkPrice": "New price for adding the link in SoulLinker in stable coin"
        }
      },
      "setAddLinkPriceMASA(uint256)": {
        "details": "The caller must have the admin or project admin role to call this function",
        "params": {
          "_addLinkPriceMASA": "New price for adding the link in SoulLinker in MASA"
        }
      },
      "setMasaToken(address)": {
        "details": "The caller must have the admin role to call this function It can be set to address(0) to disable paying in MASA",
        "params": {
          "_masaToken": "New utility token to pay the fee in"
        }
      },
      "setMintPrice(uint256)": {
        "details": "The caller must have the admin or project admin role to call this function",
        "params": {
          "_mintPrice": "New price of minting in stable coin"
        }
      },
      "setMintPriceMASA(uint256)": {
        "details": "The caller must have the admin or project admin role to call this function",
        "params": {
          "_mintPriceMASA": "New price of minting in MASA"
        }
      },
      "setProjectFeeReceiver(address)": {
        "details": "The caller must have the admin or project admin role to call this function",
        "params": {
          "_projectFeeReceiver": "New project fee receiver wallet"
        }
      },
      "setProtocolFeeAmount(uint256)": {
        "details": "The caller must have the admin role to call this function",
        "params": {
          "_protocolFeeAmount": "New protocol fee amount"
        }
      },
      "setProtocolFeePercent(uint256)": {
        "details": "The caller must have the admin role to call this function",
        "params": {
          "_protocolFeePercent": "New protocol fee percent added to the project fee"
        }
      },
      "setProtocolFeePercentSub(uint256)": {
        "details": "The caller must have the admin role to call this function",
        "params": {
          "_protocolFeePercentSub": "New protocol fee percent substracted from the amount"
        }
      },
      "setProtocolFeeReceiver(address)": {
        "details": "The caller must have the admin role to call this function",
        "params": {
          "_protocolFeeReceiver": "New protocol fee wallet"
        }
      },
      "setQueryLinkPrice(uint256)": {
        "details": "The caller must have the admin or project admin role to call this function",
        "params": {
          "_queryLinkPrice": "New price for reading data in SoulLinker in stable coin"
        }
      },
      "setQueryLinkPriceMASA(uint256)": {
        "details": "The caller must have the admin or project admin role to call this function",
        "params": {
          "_queryLinkPriceMASA": "New price for reading data in SoulLinker in MASA"
        }
      },
      "setSoulboundIdentity(address)": {
        "details": "The caller must be the admin to call this function",
        "params": {
          "_soulboundIdentity": "Address of the SoulboundIdentity contract"
        }
      },
      "setStableCoin(address)": {
        "details": "The caller must have the admin role to call this function",
        "params": {
          "_stableCoin": "New stable coin to pay the fee in"
        }
      },
      "setSwapRouter(address)": {
        "details": "The caller must have the admin role to call this function",
        "params": {
          "_swapRouter": "New swap router address"
        }
      },
      "setWrappedNativeToken(address)": {
        "details": "The caller must have the admin role to call this function",
        "params": {
          "_wrappedNativeToken": "New wrapped native token address"
        }
      },
      "supportsInterface(bytes4)": {
        "details": "Interface identification is specified in ERC-165.",
        "params": {
          "interfaceId": "The interface identifier, as specified in ERC-165"
        },
        "returns": {
          "_0": "`true` if the contract implements `interfaceId` and  `interfaceId` is not 0xffffffff, `false` otherwise"
        }
      },
      "symbol()": {
        "details": "See {ISBTMetadata-symbol}."
      },
      "tokenByIndex(uint256)": {
        "details": "See {ISBTEnumerable-tokenByIndex}."
      },
      "tokenOfOwnerByIndex(address,uint256)": {
        "details": "See {ISBTEnumerable-tokenOfOwnerByIndex}."
      },
      "tokenURI(uint256)": {
        "details": "Throws if `_tokenId` is not a valid SBT. URIs are defined in RFC  3986. The URI may point to a JSON file that conforms to the \"ERC721  Metadata JSON Schema\".",
        "params": {
          "tokenId": "SBT to get the URI of"
        },
        "returns": {
          "_0": "URI of the SBT"
        }
      },
      "totalSupply()": {
        "details": "See {ISBTEnumerable-totalSupply}."
      }
    },
    "title": "Test ZKP SBT Self-Sovereign",
    "version": 1
  },
  "userdoc": {
    "kind": "user",
    "methods": {
      "addAuthority(address)": {
        "notice": "Adds a new authority to the list of authorities"
      },
      "constructor": {
        "notice": "Creates a new Test ZKP SBT"
      },
      "disablePaymentMethod(address)": {
        "notice": "Removes a token as a valid payment method"
      },
      "enablePaymentMethod(address)": {
        "notice": "Adds a new token as a valid payment method"
      },
      "exists(uint256)": {
        "notice": "Returns true if the token exists"
      },
      "getEnabledPaymentMethods()": {
        "notice": "Returns all available payment methods"
      },
      "getEncryptedData(uint256)": {
        "notice": "Returns the encrypted data with the public key of the owner of the SBT"
      },
      "getIdentityId(uint256)": {
        "notice": "Returns the identityId owned by the given token"
      },
      "getMintPrice(address)": {
        "notice": "Returns the price for minting"
      },
      "getMintPriceWithProtocolFee(address)": {
        "notice": "Returns the price for minting with protocol fee"
      },
      "getProtocolFee(address,uint256)": {
        "notice": "Calculates the protocol fee added to the project fee"
      },
      "getProtocolFeeSub(uint256)": {
        "notice": "Calculates the protocol fee substracted from the amount"
      },
      "getRoot(uint256)": {
        "notice": "Returns the root of the Merkle Tree's data without encryption, used to verify the data"
      },
      "getVerifier()": {
        "notice": "Returns the verifier smart contract"
      },
      "mint(address,address,uint256,bytes,bytes[],bytes)": {
        "notice": "Mints a new SBT"
      },
      "removeAuthority(address)": {
        "notice": "Removes an authority from the list of authorities"
      },
      "setAddLinkPrice(uint256)": {
        "notice": "Sets the price for adding the link in SoulLinker in stable coin"
      },
      "setAddLinkPriceMASA(uint256)": {
        "notice": "Sets the price for adding the link in SoulLinker in MASA"
      },
      "setMasaToken(address)": {
        "notice": "Sets the utility token to pay the fee in (MASA)"
      },
      "setMintPrice(uint256)": {
        "notice": "Sets the price of minting in stable coin"
      },
      "setMintPriceMASA(uint256)": {
        "notice": "Sets the price of minting in MASA"
      },
      "setProjectFeeReceiver(address)": {
        "notice": "Set the project fee receiver wallet"
      },
      "setProtocolFeeAmount(uint256)": {
        "notice": "Set the protocol fee amount"
      },
      "setProtocolFeePercent(uint256)": {
        "notice": "Set the protocol fee percent added to the project fee"
      },
      "setProtocolFeePercentSub(uint256)": {
        "notice": "Set the protocol fee percent substracted from the amount"
      },
      "setProtocolFeeReceiver(address)": {
        "notice": "Set the protocol fee wallet"
      },
      "setQueryLinkPrice(uint256)": {
        "notice": "Sets the price for reading data in SoulLinker in stable coin"
      },
      "setQueryLinkPriceMASA(uint256)": {
        "notice": "Sets the price for reading data in SoulLinker in MASA"
      },
      "setSoulboundIdentity(address)": {
        "notice": "Sets the SoulboundIdentity contract address linked to this SBT"
      },
      "setStableCoin(address)": {
        "notice": "Sets the stable coin to pay the fee in (USDC)"
      },
      "setSwapRouter(address)": {
        "notice": "Sets the swap router address"
      },
      "setWrappedNativeToken(address)": {
        "notice": "Sets the wrapped native token address"
      },
      "supportsInterface(bytes4)": {
        "notice": "Query if a contract implements an interface"
      },
      "tokenURI(uint256)": {
        "notice": "A distinct Uniform Resource Identifier (URI) for a given asset."
      }
    },
    "notice": "Test Soulbound token",
    "version": 1
  },
  "storageLayout": {
    "storage": [
      {
        "astId": 3439,
        "contract": "contracts/ZKSBTSelfSovereign.sol:ZKSBTSelfSovereign",
        "label": "_roles",
        "offset": 0,
        "slot": "0",
        "type": "t_mapping(t_bytes32,t_struct(RoleData)3434_storage)"
      },
      {
        "astId": 43,
        "contract": "contracts/ZKSBTSelfSovereign.sol:ZKSBTSelfSovereign",
        "label": "swapRouter",
        "offset": 0,
        "slot": "1",
        "type": "t_address"
      },
      {
        "astId": 45,
        "contract": "contracts/ZKSBTSelfSovereign.sol:ZKSBTSelfSovereign",
        "label": "wrappedNativeToken",
        "offset": 0,
        "slot": "2",
        "type": "t_address"
      },
      {
        "astId": 47,
        "contract": "contracts/ZKSBTSelfSovereign.sol:ZKSBTSelfSovereign",
        "label": "stableCoin",
        "offset": 0,
        "slot": "3",
        "type": "t_address"
      },
      {
        "astId": 49,
        "contract": "contracts/ZKSBTSelfSovereign.sol:ZKSBTSelfSovereign",
        "label": "masaToken",
        "offset": 0,
        "slot": "4",
        "type": "t_address"
      },
      {
        "astId": 53,
        "contract": "contracts/ZKSBTSelfSovereign.sol:ZKSBTSelfSovereign",
        "label": "enabledPaymentMethod",
        "offset": 0,
        "slot": "5",
        "type": "t_mapping(t_address,t_bool)"
      },
      {
        "astId": 56,
        "contract": "contracts/ZKSBTSelfSovereign.sol:ZKSBTSelfSovereign",
        "label": "enabledPaymentMethods",
        "offset": 0,
        "slot": "6",
        "type": "t_array(t_address)dyn_storage"
      },
      {
        "astId": 58,
        "contract": "contracts/ZKSBTSelfSovereign.sol:ZKSBTSelfSovereign",
        "label": "projectFeeReceiver",
        "offset": 0,
        "slot": "7",
        "type": "t_address"
      },
      {
        "astId": 60,
        "contract": "contracts/ZKSBTSelfSovereign.sol:ZKSBTSelfSovereign",
        "label": "protocolFeeReceiver",
        "offset": 0,
        "slot": "8",
        "type": "t_address"
      },
      {
        "astId": 62,
        "contract": "contracts/ZKSBTSelfSovereign.sol:ZKSBTSelfSovereign",
        "label": "protocolFeeAmount",
        "offset": 0,
        "slot": "9",
        "type": "t_uint256"
      },
      {
        "astId": 64,
        "contract": "contracts/ZKSBTSelfSovereign.sol:ZKSBTSelfSovereign",
        "label": "protocolFeePercent",
        "offset": 0,
        "slot": "10",
        "type": "t_uint256"
      },
      {
        "astId": 66,
        "contract": "contracts/ZKSBTSelfSovereign.sol:ZKSBTSelfSovereign",
        "label": "protocolFeePercentSub",
        "offset": 0,
        "slot": "11",
        "type": "t_uint256"
      },
      {
        "astId": 2622,
        "contract": "contracts/ZKSBTSelfSovereign.sol:ZKSBTSelfSovereign",
        "label": "_name",
        "offset": 0,
        "slot": "12",
        "type": "t_string_storage"
      },
      {
        "astId": 2624,
        "contract": "contracts/ZKSBTSelfSovereign.sol:ZKSBTSelfSovereign",
        "label": "_symbol",
        "offset": 0,
        "slot": "13",
        "type": "t_string_storage"
      },
      {
        "astId": 2628,
        "contract": "contracts/ZKSBTSelfSovereign.sol:ZKSBTSelfSovereign",
        "label": "_owners",
        "offset": 0,
        "slot": "14",
        "type": "t_mapping(t_uint256,t_address)"
      },
      {
        "astId": 2632,
        "contract": "contracts/ZKSBTSelfSovereign.sol:ZKSBTSelfSovereign",
        "label": "_balances",
        "offset": 0,
        "slot": "15",
        "type": "t_mapping(t_address,t_uint256)"
      },
      {
        "astId": 3091,
        "contract": "contracts/ZKSBTSelfSovereign.sol:ZKSBTSelfSovereign",
        "label": "_ownedTokens",
        "offset": 0,
        "slot": "16",
        "type": "t_mapping(t_address,t_mapping(t_uint256,t_uint256))"
      },
      {
        "astId": 3095,
        "contract": "contracts/ZKSBTSelfSovereign.sol:ZKSBTSelfSovereign",
        "label": "_ownedTokensIndex",
        "offset": 0,
        "slot": "17",
        "type": "t_mapping(t_uint256,t_uint256)"
      },
      {
        "astId": 3098,
        "contract": "contracts/ZKSBTSelfSovereign.sol:ZKSBTSelfSovereign",
        "label": "_allTokens",
        "offset": 0,
        "slot": "18",
        "type": "t_array(t_uint256)dyn_storage"
      },
      {
        "astId": 3102,
        "contract": "contracts/ZKSBTSelfSovereign.sol:ZKSBTSelfSovereign",
        "label": "_allTokensIndex",
        "offset": 0,
        "slot": "19",
        "type": "t_mapping(t_uint256,t_uint256)"
      },
      {
        "astId": 1481,
        "contract": "contracts/ZKSBTSelfSovereign.sol:ZKSBTSelfSovereign",
        "label": "_tokenIdCounter",
        "offset": 0,
        "slot": "20",
        "type": "t_struct(Counter)4741_storage"
      },
      {
        "astId": 1483,
        "contract": "contracts/ZKSBTSelfSovereign.sol:ZKSBTSelfSovereign",
        "label": "_baseTokenURI",
        "offset": 0,
        "slot": "21",
        "type": "t_string_storage"
      },
      {
        "astId": 1488,
        "contract": "contracts/ZKSBTSelfSovereign.sol:ZKSBTSelfSovereign",
        "label": "soulboundIdentity",
        "offset": 0,
        "slot": "22",
        "type": "t_contract(ISoulboundIdentity)1220"
      },
      {
        "astId": 1490,
        "contract": "contracts/ZKSBTSelfSovereign.sol:ZKSBTSelfSovereign",
        "label": "mintPrice",
        "offset": 0,
        "slot": "23",
        "type": "t_uint256"
      },
      {
        "astId": 1492,
        "contract": "contracts/ZKSBTSelfSovereign.sol:ZKSBTSelfSovereign",
        "label": "mintPriceMASA",
        "offset": 0,
        "slot": "24",
        "type": "t_uint256"
      },
      {
        "astId": 1495,
        "contract": "contracts/ZKSBTSelfSovereign.sol:ZKSBTSelfSovereign",
        "label": "addLinkPrice",
        "offset": 0,
        "slot": "25",
        "type": "t_uint256"
      },
      {
        "astId": 1498,
        "contract": "contracts/ZKSBTSelfSovereign.sol:ZKSBTSelfSovereign",
        "label": "addLinkPriceMASA",
        "offset": 0,
        "slot": "26",
        "type": "t_uint256"
      },
      {
        "astId": 1501,
        "contract": "contracts/ZKSBTSelfSovereign.sol:ZKSBTSelfSovereign",
        "label": "queryLinkPrice",
        "offset": 0,
        "slot": "27",
        "type": "t_uint256"
      },
      {
        "astId": 1504,
        "contract": "contracts/ZKSBTSelfSovereign.sol:ZKSBTSelfSovereign",
        "label": "queryLinkPriceMASA",
        "offset": 0,
        "slot": "28",
        "type": "t_uint256"
      },
      {
        "astId": 5763,
        "contract": "contracts/ZKSBTSelfSovereign.sol:ZKSBTSelfSovereign",
        "label": "_nameFallback",
        "offset": 0,
        "slot": "29",
        "type": "t_string_storage"
      },
      {
        "astId": 5765,
        "contract": "contracts/ZKSBTSelfSovereign.sol:ZKSBTSelfSovereign",
        "label": "_versionFallback",
        "offset": 0,
        "slot": "30",
        "type": "t_string_storage"
      },
      {
        "astId": 2212,
        "contract": "contracts/ZKSBTSelfSovereign.sol:ZKSBTSelfSovereign",
        "label": "authorities",
        "offset": 0,
        "slot": "31",
        "type": "t_mapping(t_address,t_bool)"
      },
      {
        "astId": 7335,
        "contract": "contracts/ZKSBTSelfSovereign.sol:ZKSBTSelfSovereign",
        "label": "_verifier",
        "offset": 0,
        "slot": "32",
        "type": "t_contract(IVerifier)7327"
      },
      {
        "astId": 7346,
        "contract": "contracts/ZKSBTSelfSovereign.sol:ZKSBTSelfSovereign",
        "label": "sbtData",
        "offset": 0,
        "slot": "33",
        "type": "t_mapping(t_uint256,t_struct(SBTData)7341_storage)"
      },
      {
        "astId": 3839,
        "contract": "contracts/ZKSBTSelfSovereign.sol:ZKSBTSelfSovereign",
        "label": "_status",
        "offset": 0,
        "slot": "34",
        "type": "t_uint256"
      }
    ],
    "types": {
      "t_address": {
        "encoding": "inplace",
        "label": "address",
        "numberOfBytes": "20"
      },
      "t_array(t_address)dyn_storage": {
        "base": "t_address",
        "encoding": "dynamic_array",
        "label": "address[]",
        "numberOfBytes": "32"
      },
      "t_array(t_bytes_storage)dyn_storage": {
        "base": "t_bytes_storage",
        "encoding": "dynamic_array",
        "label": "bytes[]",
        "numberOfBytes": "32"
      },
      "t_array(t_uint256)dyn_storage": {
        "base": "t_uint256",
        "encoding": "dynamic_array",
        "label": "uint256[]",
        "numberOfBytes": "32"
      },
      "t_bool": {
        "encoding": "inplace",
        "label": "bool",
        "numberOfBytes": "1"
      },
      "t_bytes32": {
        "encoding": "inplace",
        "label": "bytes32",
        "numberOfBytes": "32"
      },
      "t_bytes_storage": {
        "encoding": "bytes",
        "label": "bytes",
        "numberOfBytes": "32"
      },
      "t_contract(ISoulboundIdentity)1220": {
        "encoding": "inplace",
        "label": "contract ISoulboundIdentity",
        "numberOfBytes": "20"
      },
      "t_contract(IVerifier)7327": {
        "encoding": "inplace",
        "label": "contract IVerifier",
        "numberOfBytes": "20"
      },
      "t_mapping(t_address,t_bool)": {
        "encoding": "mapping",
        "key": "t_address",
        "label": "mapping(address => bool)",
        "numberOfBytes": "32",
        "value": "t_bool"
      },
      "t_mapping(t_address,t_mapping(t_uint256,t_uint256))": {
        "encoding": "mapping",
        "key": "t_address",
        "label": "mapping(address => mapping(uint256 => uint256))",
        "numberOfBytes": "32",
        "value": "t_mapping(t_uint256,t_uint256)"
      },
      "t_mapping(t_address,t_uint256)": {
        "encoding": "mapping",
        "key": "t_address",
        "label": "mapping(address => uint256)",
        "numberOfBytes": "32",
        "value": "t_uint256"
      },
      "t_mapping(t_bytes32,t_struct(RoleData)3434_storage)": {
        "encoding": "mapping",
        "key": "t_bytes32",
        "label": "mapping(bytes32 => struct AccessControl.RoleData)",
        "numberOfBytes": "32",
        "value": "t_struct(RoleData)3434_storage"
      },
      "t_mapping(t_uint256,t_address)": {
        "encoding": "mapping",
        "key": "t_uint256",
        "label": "mapping(uint256 => address)",
        "numberOfBytes": "32",
        "value": "t_address"
      },
      "t_mapping(t_uint256,t_struct(SBTData)7341_storage)": {
        "encoding": "mapping",
        "key": "t_uint256",
        "label": "mapping(uint256 => struct ZKSBT.SBTData)",
        "numberOfBytes": "32",
        "value": "t_struct(SBTData)7341_storage"
      },
      "t_mapping(t_uint256,t_uint256)": {
        "encoding": "mapping",
        "key": "t_uint256",
        "label": "mapping(uint256 => uint256)",
        "numberOfBytes": "32",
        "value": "t_uint256"
      },
      "t_string_storage": {
        "encoding": "bytes",
        "label": "string",
        "numberOfBytes": "32"
      },
      "t_struct(Counter)4741_storage": {
        "encoding": "inplace",
        "label": "struct Counters.Counter",
        "members": [
          {
            "astId": 4740,
            "contract": "contracts/ZKSBTSelfSovereign.sol:ZKSBTSelfSovereign",
            "label": "_value",
            "offset": 0,
            "slot": "0",
            "type": "t_uint256"
          }
        ],
        "numberOfBytes": "32"
      },
      "t_struct(RoleData)3434_storage": {
        "encoding": "inplace",
        "label": "struct AccessControl.RoleData",
        "members": [
          {
            "astId": 3431,
            "contract": "contracts/ZKSBTSelfSovereign.sol:ZKSBTSelfSovereign",
            "label": "members",
            "offset": 0,
            "slot": "0",
            "type": "t_mapping(t_address,t_bool)"
          },
          {
            "astId": 3433,
            "contract": "contracts/ZKSBTSelfSovereign.sol:ZKSBTSelfSovereign",
            "label": "adminRole",
            "offset": 0,
            "slot": "1",
            "type": "t_bytes32"
          }
        ],
        "numberOfBytes": "64"
      },
      "t_struct(SBTData)7341_storage": {
        "encoding": "inplace",
        "label": "struct ZKSBT.SBTData",
        "members": [
          {
            "astId": 7337,
            "contract": "contracts/ZKSBTSelfSovereign.sol:ZKSBTSelfSovereign",
            "label": "root",
            "offset": 0,
            "slot": "0",
            "type": "t_bytes_storage"
          },
          {
            "astId": 7340,
            "contract": "contracts/ZKSBTSelfSovereign.sol:ZKSBTSelfSovereign",
            "label": "encryptedData",
            "offset": 0,
            "slot": "1",
            "type": "t_array(t_bytes_storage)dyn_storage"
          }
        ],
        "numberOfBytes": "64"
      },
      "t_uint256": {
        "encoding": "inplace",
        "label": "uint256",
        "numberOfBytes": "32"
      }
    }
  }
}