{
  "address": "0xcD8568cAe0eBc80a2aF631F7B489DaeA160A87E1",
  "abi": [
    {
      "inputs": [
        {
          "internalType": "address",
          "name": "admin",
          "type": "address"
        },
        {
          "internalType": "string",
          "name": "name",
          "type": "string"
        },
        {
          "internalType": "string",
          "name": "symbol",
          "type": "string"
        },
        {
          "internalType": "contract IVerifier",
          "name": "verifier",
          "type": "address"
        },
        {
          "internalType": "string",
          "name": "baseTokenURI",
          "type": "string"
        },
        {
          "internalType": "address",
          "name": "soulboundIdentity",
          "type": "address"
        },
        {
          "components": [
            {
              "internalType": "address",
              "name": "swapRouter",
              "type": "address"
            },
            {
              "internalType": "address",
              "name": "wrappedNativeToken",
              "type": "address"
            },
            {
              "internalType": "address",
              "name": "stableCoin",
              "type": "address"
            },
            {
              "internalType": "address",
              "name": "masaToken",
              "type": "address"
            },
            {
              "internalType": "address",
              "name": "projectFeeReceiver",
              "type": "address"
            },
            {
              "internalType": "address",
              "name": "protocolFeeReceiver",
              "type": "address"
            },
            {
              "internalType": "uint256",
              "name": "protocolFeeAmount",
              "type": "uint256"
            },
            {
              "internalType": "uint256",
              "name": "protocolFeePercent",
              "type": "uint256"
            },
            {
              "internalType": "uint256",
              "name": "protocolFeePercentSub",
              "type": "uint256"
            }
          ],
          "internalType": "struct PaymentGateway.PaymentParams",
          "name": "paymentParams",
          "type": "tuple"
        },
        {
          "internalType": "uint256",
          "name": "maxSBTToMint",
          "type": "uint256"
        }
      ],
      "stateMutability": "nonpayable",
      "type": "constructor"
    },
    {
      "inputs": [],
      "name": "AlreadyAdded",
      "type": "error"
    },
    {
      "inputs": [
        {
          "internalType": "uint256",
          "name": "amount",
          "type": "uint256"
        }
      ],
      "name": "InsufficientEthAmount",
      "type": "error"
    },
    {
      "inputs": [
        {
          "internalType": "address",
          "name": "paymentMethod",
          "type": "address"
        }
      ],
      "name": "InvalidPaymentMethod",
      "type": "error"
    },
    {
      "inputs": [
        {
          "internalType": "address",
          "name": "token",
          "type": "address"
        }
      ],
      "name": "InvalidToken",
      "type": "error"
    },
    {
      "inputs": [
        {
          "internalType": "address",
          "name": "to",
          "type": "address"
        },
        {
          "internalType": "uint256",
          "name": "maximum",
          "type": "uint256"
        }
      ],
      "name": "MaxSBTMinted",
      "type": "error"
    },
    {
      "inputs": [
        {
          "internalType": "address",
          "name": "erc20token",
          "type": "address"
        }
      ],
      "name": "NonExistingErc20Token",
      "type": "error"
    },
    {
      "inputs": [],
      "name": "NotLinkedToAnIdentitySBT",
      "type": "error"
    },
    {
      "inputs": [],
      "name": "PaymentParamsNotSet",
      "type": "error"
    },
    {
      "inputs": [],
      "name": "ProtocolFeeReceiverNotSet",
      "type": "error"
    },
    {
      "inputs": [],
      "name": "RefundFailed",
      "type": "error"
    },
    {
      "inputs": [],
      "name": "SameValue",
      "type": "error"
    },
    {
      "inputs": [],
      "name": "TransferFailed",
      "type": "error"
    },
    {
      "inputs": [],
      "name": "UserMustHaveProtocolOrProjectAdminRole",
      "type": "error"
    },
    {
      "anonymous": false,
      "inputs": [
        {
          "indexed": true,
          "internalType": "address",
          "name": "_owner",
          "type": "address"
        },
        {
          "indexed": true,
          "internalType": "uint256",
          "name": "_tokenId",
          "type": "uint256"
        }
      ],
      "name": "Burn",
      "type": "event"
    },
    {
      "anonymous": false,
      "inputs": [
        {
          "indexed": true,
          "internalType": "address",
          "name": "_owner",
          "type": "address"
        },
        {
          "indexed": true,
          "internalType": "uint256",
          "name": "_tokenId",
          "type": "uint256"
        }
      ],
      "name": "Mint",
      "type": "event"
    },
    {
      "anonymous": false,
      "inputs": [
        {
          "indexed": false,
          "internalType": "uint256",
          "name": "tokenId",
          "type": "uint256"
        },
        {
          "indexed": false,
          "internalType": "address",
          "name": "to",
          "type": "address"
        }
      ],
      "name": "MintedToAddress",
      "type": "event"
    },
    {
      "anonymous": false,
      "inputs": [
        {
          "indexed": false,
          "internalType": "uint256",
          "name": "tokenId",
          "type": "uint256"
        },
        {
          "indexed": false,
          "internalType": "uint256",
          "name": "identityId",
          "type": "uint256"
        }
      ],
      "name": "MintedToIdentity",
      "type": "event"
    },
    {
      "anonymous": false,
      "inputs": [
        {
          "indexed": true,
          "internalType": "address",
          "name": "paymentMethod",
          "type": "address"
        },
        {
          "indexed": false,
          "internalType": "uint256",
          "name": "amount",
          "type": "uint256"
        },
        {
          "indexed": false,
          "internalType": "uint256",
          "name": "protocolFee",
          "type": "uint256"
        }
      ],
      "name": "Pay",
      "type": "event"
    },
    {
      "anonymous": false,
      "inputs": [
        {
          "indexed": true,
          "internalType": "bytes32",
          "name": "role",
          "type": "bytes32"
        },
        {
          "indexed": true,
          "internalType": "bytes32",
          "name": "previousAdminRole",
          "type": "bytes32"
        },
        {
          "indexed": true,
          "internalType": "bytes32",
          "name": "newAdminRole",
          "type": "bytes32"
        }
      ],
      "name": "RoleAdminChanged",
      "type": "event"
    },
    {
      "anonymous": false,
      "inputs": [
        {
          "indexed": true,
          "internalType": "bytes32",
          "name": "role",
          "type": "bytes32"
        },
        {
          "indexed": true,
          "internalType": "address",
          "name": "account",
          "type": "address"
        },
        {
          "indexed": true,
          "internalType": "address",
          "name": "sender",
          "type": "address"
        }
      ],
      "name": "RoleGranted",
      "type": "event"
    },
    {
      "anonymous": false,
      "inputs": [
        {
          "indexed": true,
          "internalType": "bytes32",
          "name": "role",
          "type": "bytes32"
        },
        {
          "indexed": true,
          "internalType": "address",
          "name": "account",
          "type": "address"
        },
        {
          "indexed": true,
          "internalType": "address",
          "name": "sender",
          "type": "address"
        }
      ],
      "name": "RoleRevoked",
      "type": "event"
    },
    {
      "inputs": [],
      "name": "DEFAULT_ADMIN_ROLE",
      "outputs": [
        {
          "internalType": "bytes32",
          "name": "",
          "type": "bytes32"
        }
      ],
      "stateMutability": "view",
      "type": "function"
    },
    {
      "inputs": [],
      "name": "MINTER_ROLE",
      "outputs": [
        {
          "internalType": "bytes32",
          "name": "",
          "type": "bytes32"
        }
      ],
      "stateMutability": "view",
      "type": "function"
    },
    {
      "inputs": [],
      "name": "PROJECT_ADMIN_ROLE",
      "outputs": [
        {
          "internalType": "bytes32",
          "name": "",
          "type": "bytes32"
        }
      ],
      "stateMutability": "view",
      "type": "function"
    },
    {
      "inputs": [],
      "name": "addLinkPrice",
      "outputs": [
        {
          "internalType": "uint256",
          "name": "",
          "type": "uint256"
        }
      ],
      "stateMutability": "view",
      "type": "function"
    },
    {
      "inputs": [],
      "name": "addLinkPriceMASA",
      "outputs": [
        {
          "internalType": "uint256",
          "name": "",
          "type": "uint256"
        }
      ],
      "stateMutability": "view",
      "type": "function"
    },
    {
      "inputs": [
        {
          "internalType": "address",
          "name": "owner",
          "type": "address"
        }
      ],
      "name": "balanceOf",
      "outputs": [
        {
          "internalType": "uint256",
          "name": "",
          "type": "uint256"
        }
      ],
      "stateMutability": "view",
      "type": "function"
    },
    {
      "inputs": [
        {
          "internalType": "uint256",
          "name": "tokenId",
          "type": "uint256"
        }
      ],
      "name": "burn",
      "outputs": [],
      "stateMutability": "nonpayable",
      "type": "function"
    },
    {
      "inputs": [
        {
          "internalType": "address",
          "name": "_paymentMethod",
          "type": "address"
        }
      ],
      "name": "disablePaymentMethod",
      "outputs": [],
      "stateMutability": "nonpayable",
      "type": "function"
    },
    {
      "inputs": [
        {
          "internalType": "address",
          "name": "_paymentMethod",
          "type": "address"
        }
      ],
      "name": "enablePaymentMethod",
      "outputs": [],
      "stateMutability": "nonpayable",
      "type": "function"
    },
    {
      "inputs": [
        {
          "internalType": "address",
          "name": "",
          "type": "address"
        }
      ],
      "name": "enabledPaymentMethod",
      "outputs": [
        {
          "internalType": "bool",
          "name": "",
          "type": "bool"
        }
      ],
      "stateMutability": "view",
      "type": "function"
    },
    {
      "inputs": [
        {
          "internalType": "uint256",
          "name": "",
          "type": "uint256"
        }
      ],
      "name": "enabledPaymentMethods",
      "outputs": [
        {
          "internalType": "address",
          "name": "",
          "type": "address"
        }
      ],
      "stateMutability": "view",
      "type": "function"
    },
    {
      "inputs": [
        {
          "internalType": "uint256",
          "name": "tokenId",
          "type": "uint256"
        }
      ],
      "name": "exists",
      "outputs": [
        {
          "internalType": "bool",
          "name": "",
          "type": "bool"
        }
      ],
      "stateMutability": "view",
      "type": "function"
    },
    {
      "inputs": [],
      "name": "getEnabledPaymentMethods",
      "outputs": [
        {
          "internalType": "address[]",
          "name": "",
          "type": "address[]"
        }
      ],
      "stateMutability": "view",
      "type": "function"
    },
    {
      "inputs": [
        {
          "internalType": "uint256",
          "name": "tokenId",
          "type": "uint256"
        }
      ],
      "name": "getEncryptedData",
      "outputs": [
        {
          "internalType": "bytes[]",
          "name": "",
          "type": "bytes[]"
        }
      ],
      "stateMutability": "view",
      "type": "function"
    },
    {
      "inputs": [
        {
          "internalType": "uint256",
          "name": "tokenId",
          "type": "uint256"
        }
      ],
      "name": "getIdentityId",
      "outputs": [
        {
          "internalType": "uint256",
          "name": "",
          "type": "uint256"
        }
      ],
      "stateMutability": "view",
      "type": "function"
    },
    {
      "inputs": [
        {
          "internalType": "address",
          "name": "paymentMethod",
          "type": "address"
        }
      ],
      "name": "getMintPrice",
      "outputs": [
        {
          "internalType": "uint256",
          "name": "price",
          "type": "uint256"
        }
      ],
      "stateMutability": "view",
      "type": "function"
    },
    {
      "inputs": [
        {
          "internalType": "address",
          "name": "paymentMethod",
          "type": "address"
        }
      ],
      "name": "getMintPriceWithProtocolFee",
      "outputs": [
        {
          "internalType": "uint256",
          "name": "price",
          "type": "uint256"
        },
        {
          "internalType": "uint256",
          "name": "protocolFee",
          "type": "uint256"
        }
      ],
      "stateMutability": "view",
      "type": "function"
    },
    {
      "inputs": [
        {
          "internalType": "address",
          "name": "paymentMethod",
          "type": "address"
        },
        {
          "internalType": "uint256",
          "name": "amount",
          "type": "uint256"
        }
      ],
      "name": "getProtocolFee",
      "outputs": [
        {
          "internalType": "uint256",
          "name": "",
          "type": "uint256"
        }
      ],
      "stateMutability": "view",
      "type": "function"
    },
    {
      "inputs": [
        {
          "internalType": "uint256",
          "name": "amount",
          "type": "uint256"
        }
      ],
      "name": "getProtocolFeeSub",
      "outputs": [
        {
          "internalType": "uint256",
          "name": "",
          "type": "uint256"
        }
      ],
      "stateMutability": "view",
      "type": "function"
    },
    {
      "inputs": [
        {
          "internalType": "bytes32",
          "name": "role",
          "type": "bytes32"
        }
      ],
      "name": "getRoleAdmin",
      "outputs": [
        {
          "internalType": "bytes32",
          "name": "",
          "type": "bytes32"
        }
      ],
      "stateMutability": "view",
      "type": "function"
    },
    {
      "inputs": [
        {
          "internalType": "uint256",
          "name": "tokenId",
          "type": "uint256"
        }
      ],
      "name": "getRoot",
      "outputs": [
        {
          "internalType": "bytes",
          "name": "",
          "type": "bytes"
        }
      ],
      "stateMutability": "view",
      "type": "function"
    },
    {
      "inputs": [],
      "name": "getVerifier",
      "outputs": [
        {
          "internalType": "contract IVerifier",
          "name": "",
          "type": "address"
        }
      ],
      "stateMutability": "view",
      "type": "function"
    },
    {
      "inputs": [
        {
          "internalType": "bytes32",
          "name": "role",
          "type": "bytes32"
        },
        {
          "internalType": "address",
          "name": "account",
          "type": "address"
        }
      ],
      "name": "grantRole",
      "outputs": [],
      "stateMutability": "nonpayable",
      "type": "function"
    },
    {
      "inputs": [
        {
          "internalType": "bytes32",
          "name": "role",
          "type": "bytes32"
        },
        {
          "internalType": "address",
          "name": "account",
          "type": "address"
        }
      ],
      "name": "hasRole",
      "outputs": [
        {
          "internalType": "bool",
          "name": "",
          "type": "bool"
        }
      ],
      "stateMutability": "view",
      "type": "function"
    },
    {
      "inputs": [],
      "name": "masaToken",
      "outputs": [
        {
          "internalType": "address",
          "name": "",
          "type": "address"
        }
      ],
      "stateMutability": "view",
      "type": "function"
    },
    {
      "inputs": [],
      "name": "maxSBTToMint",
      "outputs": [
        {
          "internalType": "uint256",
          "name": "",
          "type": "uint256"
        }
      ],
      "stateMutability": "view",
      "type": "function"
    },
    {
      "inputs": [
        {
          "internalType": "address",
          "name": "to",
          "type": "address"
        },
        {
          "internalType": "bytes",
          "name": "root",
          "type": "bytes"
        },
        {
          "internalType": "bytes[]",
          "name": "encryptedData",
          "type": "bytes[]"
        }
      ],
      "name": "mint",
      "outputs": [
        {
          "internalType": "uint256",
          "name": "",
          "type": "uint256"
        }
      ],
      "stateMutability": "payable",
      "type": "function"
    },
    {
      "inputs": [],
      "name": "mintPrice",
      "outputs": [
        {
          "internalType": "uint256",
          "name": "",
          "type": "uint256"
        }
      ],
      "stateMutability": "view",
      "type": "function"
    },
    {
      "inputs": [],
      "name": "mintPriceMASA",
      "outputs": [
        {
          "internalType": "uint256",
          "name": "",
          "type": "uint256"
        }
      ],
      "stateMutability": "view",
      "type": "function"
    },
    {
      "inputs": [],
      "name": "name",
      "outputs": [
        {
          "internalType": "string",
          "name": "",
          "type": "string"
        }
      ],
      "stateMutability": "view",
      "type": "function"
    },
    {
      "inputs": [
        {
          "internalType": "uint256",
          "name": "tokenId",
          "type": "uint256"
        }
      ],
      "name": "ownerOf",
      "outputs": [
        {
          "internalType": "address",
          "name": "",
          "type": "address"
        }
      ],
      "stateMutability": "view",
      "type": "function"
    },
    {
      "inputs": [],
      "name": "projectFeeReceiver",
      "outputs": [
        {
          "internalType": "address",
          "name": "",
          "type": "address"
        }
      ],
      "stateMutability": "view",
      "type": "function"
    },
    {
      "inputs": [],
      "name": "protocolFeeAmount",
      "outputs": [
        {
          "internalType": "uint256",
          "name": "",
          "type": "uint256"
        }
      ],
      "stateMutability": "view",
      "type": "function"
    },
    {
      "inputs": [],
      "name": "protocolFeePercent",
      "outputs": [
        {
          "internalType": "uint256",
          "name": "",
          "type": "uint256"
        }
      ],
      "stateMutability": "view",
      "type": "function"
    },
    {
      "inputs": [],
      "name": "protocolFeePercentSub",
      "outputs": [
        {
          "internalType": "uint256",
          "name": "",
          "type": "uint256"
        }
      ],
      "stateMutability": "view",
      "type": "function"
    },
    {
      "inputs": [],
      "name": "protocolFeeReceiver",
      "outputs": [
        {
          "internalType": "address",
          "name": "",
          "type": "address"
        }
      ],
      "stateMutability": "view",
      "type": "function"
    },
    {
      "inputs": [],
      "name": "queryLinkPrice",
      "outputs": [
        {
          "internalType": "uint256",
          "name": "",
          "type": "uint256"
        }
      ],
      "stateMutability": "view",
      "type": "function"
    },
    {
      "inputs": [],
      "name": "queryLinkPriceMASA",
      "outputs": [
        {
          "internalType": "uint256",
          "name": "",
          "type": "uint256"
        }
      ],
      "stateMutability": "view",
      "type": "function"
    },
    {
      "inputs": [
        {
          "internalType": "bytes32",
          "name": "role",
          "type": "bytes32"
        },
        {
          "internalType": "address",
          "name": "account",
          "type": "address"
        }
      ],
      "name": "renounceRole",
      "outputs": [],
      "stateMutability": "nonpayable",
      "type": "function"
    },
    {
      "inputs": [
        {
          "internalType": "bytes32",
          "name": "role",
          "type": "bytes32"
        },
        {
          "internalType": "address",
          "name": "account",
          "type": "address"
        }
      ],
      "name": "revokeRole",
      "outputs": [],
      "stateMutability": "nonpayable",
      "type": "function"
    },
    {
      "inputs": [
        {
          "internalType": "uint256",
          "name": "_addLinkPrice",
          "type": "uint256"
        }
      ],
      "name": "setAddLinkPrice",
      "outputs": [],
      "stateMutability": "nonpayable",
      "type": "function"
    },
    {
      "inputs": [
        {
          "internalType": "uint256",
          "name": "_addLinkPriceMASA",
          "type": "uint256"
        }
      ],
      "name": "setAddLinkPriceMASA",
      "outputs": [],
      "stateMutability": "nonpayable",
      "type": "function"
    },
    {
      "inputs": [
        {
          "internalType": "address",
          "name": "_masaToken",
          "type": "address"
        }
      ],
      "name": "setMasaToken",
      "outputs": [],
      "stateMutability": "nonpayable",
      "type": "function"
    },
    {
      "inputs": [
        {
          "internalType": "uint256",
          "name": "_mintPrice",
          "type": "uint256"
        }
      ],
      "name": "setMintPrice",
      "outputs": [],
      "stateMutability": "nonpayable",
      "type": "function"
    },
    {
      "inputs": [
        {
          "internalType": "uint256",
          "name": "_mintPriceMASA",
          "type": "uint256"
        }
      ],
      "name": "setMintPriceMASA",
      "outputs": [],
      "stateMutability": "nonpayable",
      "type": "function"
    },
    {
      "inputs": [
        {
          "internalType": "address",
          "name": "_projectFeeReceiver",
          "type": "address"
        }
      ],
      "name": "setProjectFeeReceiver",
      "outputs": [],
      "stateMutability": "nonpayable",
      "type": "function"
    },
    {
      "inputs": [
        {
          "internalType": "uint256",
          "name": "_protocolFeeAmount",
          "type": "uint256"
        }
      ],
      "name": "setProtocolFeeAmount",
      "outputs": [],
      "stateMutability": "nonpayable",
      "type": "function"
    },
    {
      "inputs": [
        {
          "internalType": "uint256",
          "name": "_protocolFeePercent",
          "type": "uint256"
        }
      ],
      "name": "setProtocolFeePercent",
      "outputs": [],
      "stateMutability": "nonpayable",
      "type": "function"
    },
    {
      "inputs": [
        {
          "internalType": "uint256",
          "name": "_protocolFeePercentSub",
          "type": "uint256"
        }
      ],
      "name": "setProtocolFeePercentSub",
      "outputs": [],
      "stateMutability": "nonpayable",
      "type": "function"
    },
    {
      "inputs": [
        {
          "internalType": "address",
          "name": "_protocolFeeReceiver",
          "type": "address"
        }
      ],
      "name": "setProtocolFeeReceiver",
      "outputs": [],
      "stateMutability": "nonpayable",
      "type": "function"
    },
    {
      "inputs": [
        {
          "internalType": "uint256",
          "name": "_queryLinkPrice",
          "type": "uint256"
        }
      ],
      "name": "setQueryLinkPrice",
      "outputs": [],
      "stateMutability": "nonpayable",
      "type": "function"
    },
    {
      "inputs": [
        {
          "internalType": "uint256",
          "name": "_queryLinkPriceMASA",
          "type": "uint256"
        }
      ],
      "name": "setQueryLinkPriceMASA",
      "outputs": [],
      "stateMutability": "nonpayable",
      "type": "function"
    },
    {
      "inputs": [
        {
          "internalType": "address",
          "name": "_soulboundIdentity",
          "type": "address"
        }
      ],
      "name": "setSoulboundIdentity",
      "outputs": [],
      "stateMutability": "nonpayable",
      "type": "function"
    },
    {
      "inputs": [
        {
          "internalType": "address",
          "name": "_stableCoin",
          "type": "address"
        }
      ],
      "name": "setStableCoin",
      "outputs": [],
      "stateMutability": "nonpayable",
      "type": "function"
    },
    {
      "inputs": [
        {
          "internalType": "address",
          "name": "_swapRouter",
          "type": "address"
        }
      ],
      "name": "setSwapRouter",
      "outputs": [],
      "stateMutability": "nonpayable",
      "type": "function"
    },
    {
      "inputs": [
        {
          "internalType": "address",
          "name": "_wrappedNativeToken",
          "type": "address"
        }
      ],
      "name": "setWrappedNativeToken",
      "outputs": [],
      "stateMutability": "nonpayable",
      "type": "function"
    },
    {
      "inputs": [],
      "name": "soulboundIdentity",
      "outputs": [
        {
          "internalType": "contract ISoulboundIdentity",
          "name": "",
          "type": "address"
        }
      ],
      "stateMutability": "view",
      "type": "function"
    },
    {
      "inputs": [],
      "name": "stableCoin",
      "outputs": [
        {
          "internalType": "address",
          "name": "",
          "type": "address"
        }
      ],
      "stateMutability": "view",
      "type": "function"
    },
    {
      "inputs": [
        {
          "internalType": "bytes4",
          "name": "interfaceId",
          "type": "bytes4"
        }
      ],
      "name": "supportsInterface",
      "outputs": [
        {
          "internalType": "bool",
          "name": "",
          "type": "bool"
        }
      ],
      "stateMutability": "view",
      "type": "function"
    },
    {
      "inputs": [],
      "name": "swapRouter",
      "outputs": [
        {
          "internalType": "address",
          "name": "",
          "type": "address"
        }
      ],
      "stateMutability": "view",
      "type": "function"
    },
    {
      "inputs": [],
      "name": "symbol",
      "outputs": [
        {
          "internalType": "string",
          "name": "",
          "type": "string"
        }
      ],
      "stateMutability": "view",
      "type": "function"
    },
    {
      "inputs": [
        {
          "internalType": "uint256",
          "name": "index",
          "type": "uint256"
        }
      ],
      "name": "tokenByIndex",
      "outputs": [
        {
          "internalType": "uint256",
          "name": "",
          "type": "uint256"
        }
      ],
      "stateMutability": "view",
      "type": "function"
    },
    {
      "inputs": [
        {
          "internalType": "address",
          "name": "owner",
          "type": "address"
        },
        {
          "internalType": "uint256",
          "name": "index",
          "type": "uint256"
        }
      ],
      "name": "tokenOfOwnerByIndex",
      "outputs": [
        {
          "internalType": "uint256",
          "name": "",
          "type": "uint256"
        }
      ],
      "stateMutability": "view",
      "type": "function"
    },
    {
      "inputs": [
        {
          "internalType": "uint256",
          "name": "tokenId",
          "type": "uint256"
        }
      ],
      "name": "tokenURI",
      "outputs": [
        {
          "internalType": "string",
          "name": "",
          "type": "string"
        }
      ],
      "stateMutability": "view",
      "type": "function"
    },
    {
      "inputs": [],
      "name": "totalSupply",
      "outputs": [
        {
          "internalType": "uint256",
          "name": "",
          "type": "uint256"
        }
      ],
      "stateMutability": "view",
      "type": "function"
    },
    {
      "inputs": [
        {
          "internalType": "uint256",
          "name": "tokenId",
          "type": "uint256"
        },
        {
          "internalType": "uint256[]",
          "name": "proof",
          "type": "uint256[]"
        },
        {
          "internalType": "uint256[]",
          "name": "publicValues",
          "type": "uint256[]"
        }
      ],
      "name": "verifyProof",
      "outputs": [
        {
          "internalType": "bool",
          "name": "",
          "type": "bool"
        }
      ],
      "stateMutability": "view",
      "type": "function"
    },
    {
      "inputs": [],
      "name": "wrappedNativeToken",
      "outputs": [
        {
          "internalType": "address",
          "name": "",
          "type": "address"
        }
      ],
      "stateMutability": "view",
      "type": "function"
    }
  ],
  "transactionHash": "0x8624315d3357c3ec678f7b495a4a19ba2727dc2ebfa1d08b1914d93bb558e730",
  "args": [
    "0xA38dd237a3A8D50537B74a4B0D4E7E8A5359386F",
    "ZKP SBT",
    "ZKSBT",
    "0xb1235AF9849d17149A56166A84c5c4C4365d229b",
    "https://testserver/v1.0",
    "0x0000000000000000000000000000000000000000",
    [
      "0x7a250d5630B4cF539739dF2C5dAcb4c659F2488D",
      "0xB4FBF271143F4FBf7B91A5ded31805e42b2208d6",
      "0xD87Ba7A50B2E7E660f678A895E4B72E7CB4CCd9C",
      "0x1f9840a85d5aF5bf1D1762F925BDADdC4201F984",
      "0x46c9cdA3F83C5c13C767A07b6E80aEd302E40B28",
      "0x0000000000000000000000000000000000000000",
      0,
      0,
      0
    ],
    1
  ],
  "numDeployments": 1,
  "solcInputHash": "ce62c85a259b8cdbd7e30c8268190d25",
  "bytecode": "0x60a06040523480156200001157600080fd5b506040516200501738038062005017833981016040819052620000349162000518565b87878786868686868686868686868585888462000053600083620001c2565b8051600180546001600160a01b03199081166001600160a01b0393841617909155602083015160028054831691841691909117905560408301516003805483169184169190911790556060830151600480548316918416919091179055608083015160078054831691841691909117905560a083015160088054909216921691909117905560c081015160095560e0810151600a556101000151600b5550600c620000ff838262000754565b50600d6200010e828262000754565b506200012091506000905088620001c2565b60156200012e858262000754565b50601680546001600160a01b0319166001600160a01b03949094169390931790925550608052506200018792507f9f2df0fed2c77648de5860a4cc508cd0818c85b8b8a1ab4ceeef8d981c8956a69150899050620001c2565b50506001601f555050601d80546001600160a01b0319166001600160a01b039990991698909817909755506200082398505050505050505050565b620001ce82826200024b565b62000247576000828152602081815260408083206001600160a01b03851684529091529020805460ff19166001179055620002063390565b6001600160a01b0316816001600160a01b0316837f2f8788117e7eff1d82e926ec794901d17c78024a50270940304540a733656f0d60405160405180910390a45b5050565b6000828152602081815260408083206001600160a01b038516845290915290205460ff165b92915050565b60006001600160a01b03821662000270565b620002938162000276565b81146200029f57600080fd5b50565b8051620002708162000288565b601f01601f191690565b634e487b7160e01b600052604160045260246000fd5b620002da82620002af565b81018181106001600160401b0382111715620002fa57620002fa620002b9565b6040525050565b60006200030d60405190565b90506200031b8282620002cf565b919050565b60006001600160401b038211156200033c576200033c620002b9565b6200034782620002af565b60200192915050565b60005b838110156200036d57818101518382015260200162000353565b50506000910152565b60006200038d620003878462000320565b62000301565b905082815260208101848484011115620003aa57620003aa600080fd5b620003b784828562000350565b509392505050565b600082601f830112620003d557620003d5600080fd5b8151620003e784826020860162000376565b949350505050565b6000620002708262000276565b6200029381620003ef565b80516200027081620003fc565b8062000293565b8051620002708162000414565b60006101208284031215620004405762000440600080fd5b6200044d61012062000301565b905060006200045d8484620002a2565b82525060206200047084848301620002a2565b60208301525060406200048684828501620002a2565b60408301525060606200049c84828501620002a2565b6060830152506080620004b284828501620002a2565b60808301525060a0620004c884828501620002a2565b60a08301525060c0620004de848285016200041b565b60c08301525060e0620004f4848285016200041b565b60e0830152506101006200050b848285016200041b565b6101008301525092915050565b600080600080600080600080610200898b0312156200053a576200053a600080fd5b6000620005488b8b620002a2565b98505060208901516001600160401b03811115620005695762000569600080fd5b620005778b828c01620003bf565b97505060408901516001600160401b03811115620005985762000598600080fd5b620005a68b828c01620003bf565b9650506060620005b98b828c0162000407565b95505060808901516001600160401b03811115620005da57620005da600080fd5b620005e88b828c01620003bf565b94505060a0620005fb8b828c01620002a2565b93505060c06200060e8b828c0162000428565b9250506101e0620006228b828c016200041b565b9150509295985092959890939650565b634e487b7160e01b600052602260045260246000fd5b6002810460018216806200065d57607f821691505b60208210810362000672576200067262000632565b50919050565b600062000270620006868381565b90565b620006948362000678565b815460001960089490940293841b1916921b91909117905550565b6000620006be81848462000689565b505050565b818110156200024757620006d9600082620006af565b600101620006c3565b601f821115620006be576000818152602090206020601f850104810160208510156200070b5750805b6200071f6020601f860104830182620006c3565b5050505050565b6000196008929092029190911c191690565b600062000746838362000726565b600290930290921792915050565b81516001600160401b03811115620007705762000770620002b9565b6200077c825462000648565b62000789828285620006e2565b6020601f831160018114620007bc5760008415620007a75750858201515b620007b3858262000738565b8655506200081b565b600085815260208120601f198616915b82811015620007ee5788850151825560209485019460019092019101620007cc565b868310156200080e57848901516200080a601f89168262000726565b8355505b6001600288020188555050505b505050505050565b6080516147c3620008546000396000818161085201528181612885015281816128ae01526128e101526147c36000f3fe6080604052600436106102f35760003560e01c8062bdfde5146102f857806301ffc9a71461031a5780630513c3e91461035057806306fdde031461037d578063102005191461039f578063126ed01c146103c157806313150b48146103ee578063135f470c1461040457806317fcb39b1461041a57806318160ddd1461043a5780631830e8811461044f5780631f37c12414610465578063217a2c7b1461047b57806323af4e171461049b578063248a9ca3146104bb578063289c686b146104db57806329f325f7146104fb5780632f2ff15d1461050e5780632f745c591461052e57806336568abe1461054e57806339a51be51461056e5780633ad3033e1461058e5780633c72ae70146105ae5780633ec0b0bc146105ce57806341273657146105fb57806341c04d5e1461061b57806342966c681461063d57806346657fe91461065d57806346877b1a146106845780634962a158146106a45780634f558e79146106c45780634f6ccce7146106e45780636352211e146107045780636817c76c146107245780636bfd499f1461073a57806370a082311461075a578063719d0f2b1461077a57806376ad19971461079a578063776d1a54146107ba57806377bed5ed146107d05780637a0d1646146107f05780637db8cb681461082057806381e392ad146108405780638d018461146108745780638ec9c93b1461089457806391d14854146108aa57806394a665e9146108ca57806395d89b41146108ea578063980833ec146108ff578063992642e51461091f57806399b589cb1461093f5780639b24b3b01461095f578063a217fddf1461097f578063a498342114610994578063b97d6b23146109b4578063c1177d19146109ca578063c31c9c07146109ea578063c86aadb614610a0a578063c87b56dd14610a2a578063d539139314610a4a578063d547741f14610a6c578063d6e6eb9f14610a8c578063da058ae314610aa2578063eb93e85514610ac2578063ebda439614610af0578063f4a0a52814610b10578063fd48ac8314610b30575b600080fd5b34801561030457600080fd5b506103186103133660046135c4565b610b50565b005b34801561032657600080fd5b5061033a610335366004613600565b610b83565b604051610347919061362b565b60405180910390f35b34801561035c57600080fd5b5061037061036b3660046135c4565b610b94565b6040516103479190613659565b34801561038957600080fd5b50610392610bbe565b60405161034791906136c9565b3480156103ab57600080fd5b506103b4610c50565b6040516103479190613737565b3480156103cd57600080fd5b506103e16103dc3660046135c4565b610cb1565b604051610347919061374e565b3480156103fa57600080fd5b506103e1601c5481565b34801561041057600080fd5b506103e1600b5481565b34801561042657600080fd5b50600254610370906001600160a01b031681565b34801561044657600080fd5b506012546103e1565b34801561045b57600080fd5b506103e160185481565b34801561047157600080fd5b506103e160195481565b34801561048757600080fd5b506103e1610496366004613770565b610cbc565b3480156104a757600080fd5b506103186104b63660046137ad565b610ccf565b3480156104c757600080fd5b506103e16104d63660046135c4565b610d2b565b3480156104e757600080fd5b506103186104f63660046135c4565b610d40565b6103e16105093660046139cb565b610db2565b34801561051a57600080fd5b50610318610529366004613a54565b610e6f565b34801561053a57600080fd5b506103e1610549366004613770565b610e90565b34801561055a57600080fd5b50610318610569366004613a54565b610eeb565b34801561057a57600080fd5b50600854610370906001600160a01b031681565b34801561059a57600080fd5b506103186105a93660046137ad565b610f21565b3480156105ba57600080fd5b506103186105c93660046135c4565b610f7d565b3480156105da57600080fd5b506105ee6105e93660046135c4565b610fef565b6040516103479190613af9565b34801561060757600080fd5b506103186106163660046137ad565b6110de565b34801561062757600080fd5b506103e160008051602061472e83398151915281565b34801561064957600080fd5b506103186106583660046135c4565b61113a565b34801561066957600080fd5b50601d546001600160a01b03165b6040516103479190613b42565b34801561069057600080fd5b5061031861069f3660046137ad565b61116c565b3480156106b057600080fd5b506103186106bf3660046135c4565b6111c9565b3480156106d057600080fd5b5061033a6106df3660046135c4565b61123b565b3480156106f057600080fd5b506103e16106ff3660046135c4565b611246565b34801561071057600080fd5b5061037061071f3660046135c4565b611294565b34801561073057600080fd5b506103e160175481565b34801561074657600080fd5b506103186107553660046135c4565b6112c9565b34801561076657600080fd5b506103e16107753660046137ad565b6112fc565b34801561078657600080fd5b506103e16107953660046137ad565b611340565b3480156107a657600080fd5b506103186107b53660046137ad565b611440565b3480156107c657600080fd5b506103e1601a5481565b3480156107dc57600080fd5b50601654610677906001600160a01b031681565b3480156107fc57600080fd5b5061033a61080b3660046137ad565b60056020526000908152604090205460ff1681565b34801561082c57600080fd5b5061031861083b3660046135c4565b61149c565b34801561084c57600080fd5b506103e17f000000000000000000000000000000000000000000000000000000000000000081565b34801561088057600080fd5b5061031861088f3660046137ad565b61150e565b3480156108a057600080fd5b506103e160095481565b3480156108b657600080fd5b5061033a6108c5366004613a54565b6115aa565b3480156108d657600080fd5b506103186108e53660046137ad565b6115d3565b3480156108f657600080fd5b5061039261173f565b34801561090b57600080fd5b5061033a61091a366004613bc5565b61174e565b34801561092b57600080fd5b50600354610370906001600160a01b031681565b34801561094b57600080fd5b50600754610370906001600160a01b031681565b34801561096b57600080fd5b5061039261097a3660046135c4565b611b27565b34801561098b57600080fd5b506103e1600081565b3480156109a057600080fd5b506103186109af3660046135c4565b611bc9565b3480156109c057600080fd5b506103e1601b5481565b3480156109d657600080fd5b506103e16109e53660046135c4565b611bfc565b3480156109f657600080fd5b50600154610370906001600160a01b031681565b348015610a1657600080fd5b50610318610a253660046137ad565b611ca5565b348015610a3657600080fd5b50610392610a453660046135c4565b611d51565b348015610a5657600080fd5b506103e160008051602061474e83398151915281565b348015610a7857600080fd5b50610318610a87366004613a54565b611db7565b348015610a9857600080fd5b506103e1600a5481565b348015610aae57600080fd5b50610318610abd3660046137ad565b611dd3565b348015610ace57600080fd5b50610ae2610add3660046137ad565b611e2f565b604051610347929190613c49565b348015610afc57600080fd5b50600454610370906001600160a01b031681565b348015610b1c57600080fd5b50610318610b2b3660046135c4565b611e51565b348015610b3c57600080fd5b50610318610b4b3660046135c4565b611ec3565b6000610b5b81611f35565b6009548203610b7d5760405163c23f6ccb60e01b815260040160405180910390fd5b50600955565b6000610b8e82611f3f565b92915050565b60068181548110610ba457600080fd5b6000918252602090912001546001600160a01b0316905081565b6060600c8054610bcd90613c7a565b80601f0160208091040260200160405190810160405280929190818152602001828054610bf990613c7a565b8015610c465780601f10610c1b57610100808354040283529160200191610c46565b820191906000526020600020905b815481529060010190602001808311610c2957829003601f168201915b5050505050905090565b60606006805480602002602001604051908101604052809291908181526020018280548015610c4657602002820191906000526020600020905b81546001600160a01b03168152600190910190602001808311610c8a575050505050905090565b6000610b8e82611f64565b6000610cc88383611f97565b9392505050565b6000610cda81611f35565b6003546001600160a01b03808416911603610d085760405163c23f6ccb60e01b815260040160405180910390fd5b50600380546001600160a01b0319166001600160a01b0392909216919091179055565b60009081526020819052604090206001015490565b610d4b6000336115aa565b158015610d6d5750610d6b60008051602061472e833981519152336115aa565b155b15610d8b576040516326f0f48160e01b815260040160405180910390fd5b8060195403610dad5760405163c23f6ccb60e01b815260040160405180910390fd5b601955565b600080610dc0600087611ffe565b6040805160606020601f890181900402820181018352918101878152929350918291889088908190850183828082843760009201829052509385525050506020918201869052838152601e9091526040902081518190610e209082613d6a565b506020828101518051610e3992600185019201906134ef565b5090505060008051602061476e8339815191528187604051610e5c929190613e28565b60405180910390a190505b949350505050565b610e7882610d2b565b610e8181611f35565b610e8b838361200a565b505050565b6000610e9b836112fc565b8210610ec25760405162461bcd60e51b8152600401610eb990613e8b565b60405180910390fd5b506001600160a01b03919091166000908152601060209081526040808320938352929052205490565b6001600160a01b0381163314610f135760405162461bcd60e51b8152600401610eb990613ee7565b610f1d828261208e565b5050565b6000610f2c81611f35565b6016546001600160a01b03808416911603610f5a5760405163c23f6ccb60e01b815260040160405180910390fd5b50601680546001600160a01b0319166001600160a01b0392909216919091179055565b610f886000336115aa565b158015610faa5750610fa860008051602061472e833981519152336115aa565b155b15610fc8576040516326f0f48160e01b815260040160405180910390fd5b80601a5403610fea5760405163c23f6ccb60e01b815260040160405180910390fd5b601a55565b6060601e6000838152602001908152602001600020600101805480602002602001604051908101604052809291908181526020016000905b828210156110d357838290600052602060002001805461104690613c7a565b80601f016020809104026020016040519081016040528092919081815260200182805461107290613c7a565b80156110bf5780601f10611094576101008083540402835291602001916110bf565b820191906000526020600020905b8154815290600101906020018083116110a257829003601f168201915b505050505081526020019060010190611027565b505050509050919050565b60006110e981611f35565b6001546001600160a01b038084169116036111175760405163c23f6ccb60e01b815260040160405180910390fd5b50600180546001600160a01b0319166001600160a01b0392909216919091179055565b61114433826120f3565b6111605760405162461bcd60e51b8152600401610eb990613f2e565b61116981612116565b50565b600061117781611f35565b6008546001600160a01b03908116908316036111a65760405163c23f6ccb60e01b815260040160405180910390fd5b50600880546001600160a01b0319166001600160a01b0392909216919091179055565b6111d46000336115aa565b1580156111f657506111f460008051602061472e833981519152336115aa565b155b15611214576040516326f0f48160e01b815260040160405180910390fd5b80601854036112365760405163c23f6ccb60e01b815260040160405180910390fd5b601855565b6000610b8e826121b0565b600061125160125490565b821061126f5760405162461bcd60e51b8152600401610eb990613f84565b6012828154811061128257611282613f94565b90600052602060002001549050919050565b6000818152600e60205260408120546001600160a01b031680610b8e5760405162461bcd60e51b8152600401610eb990613fd6565b60006112d481611f35565b600b5482036112f65760405163c23f6ccb60e01b815260040160405180910390fd5b50600b55565b60006001600160a01b0382166113245760405162461bcd60e51b8152600401610eb990614029565b506001600160a01b03166000908152600f602052604090205490565b600060175460001480156113545750601854155b1561136157506000919050565b6004546001600160a01b03838116911614801561139657506001600160a01b03821660009081526005602052604090205460ff165b80156113a457506000601854115b156113b157505060185490565b6003546001600160a01b0383811691161480156113e657506001600160a01b03821660009081526005602052604090205460ff165b156113f357505060175490565b6001600160a01b03821660009081526005602052604090205460ff161561142057610b8e826017546121cd565b81604051630ac29ab760e31b8152600401610eb99190613659565b919050565b600061144b81611f35565b6004546001600160a01b038084169116036114795760405163c23f6ccb60e01b815260040160405180910390fd5b50600480546001600160a01b0319166001600160a01b0392909216919091179055565b6114a76000336115aa565b1580156114c957506114c760008051602061472e833981519152336115aa565b155b156114e7576040516326f0f48160e01b815260040160405180910390fd5b80601c54036115095760405163c23f6ccb60e01b815260040160405180910390fd5b601c55565b6115196000336115aa565b15801561153b575061153960008051602061472e833981519152336115aa565b155b15611559576040516326f0f48160e01b815260040160405180910390fd5b6007546001600160a01b03908116908216036115885760405163c23f6ccb60e01b815260040160405180910390fd5b600780546001600160a01b0319166001600160a01b0392909216919091179055565b6000918252602082815260408084206001600160a01b0393909316845291905290205460ff1690565b60006115de81611f35565b6001600160a01b03821660009081526005602052604090205460ff1661161957816040516318317bd560e01b8152600401610eb99190613659565b6001600160a01b0382166000908152600560205260408120805460ff191690555b600654811015610e8b57826001600160a01b03166006828154811061166157611661613f94565b6000918252602090912001546001600160a01b03160361172d576006805461168b9060019061404f565b8154811061169b5761169b613f94565b600091825260209091200154600680546001600160a01b0390921691839081106116c7576116c7613f94565b9060005260206000200160006101000a8154816001600160a01b0302191690836001600160a01b03160217905550600680548061170657611706614062565b600082815260209020810160001990810180546001600160a01b0319169055019055505050565b8061173781614078565b91505061163a565b6060600d8054610bcd90613c7a565b6000808260038151811061176457611764613f94565b602002602001015190508260008151811061178157611781613f94565b60200260200101516001146117a85760405162461bcd60e51b8152600401610eb9906140dc565b806001600160a01b03166117bb86611294565b6001600160a01b0316146117e15760405162461bcd60e51b8152600401610eb990614158565b60006117ec86611b27565b90508360028151811061180157611801613f94565b60200260200101516040516020016118199190614168565b6040516020818303038152906040528051906020012081604051602001611840919061419f565b60405160208183030381529060405280519060200120146118735760405162461bcd60e51b8152600401610eb990614219565b600060405180604001604052808760008151811061189357611893613f94565b60200260200101518152602001876001815181106118b3576118b3613f94565b602002602001015181525090506000604051806040016040528060405180604001604052808a6002815181106118eb576118eb613f94565b602002602001015181526020018a60038151811061190b5761190b613f94565b6020026020010151815250815260200160405180604001604052808a60048151811061193957611939613f94565b602002602001015181526020018a60058151811061195957611959613f94565b60200260200101518152508152509050600060405180604001604052808960068151811061198957611989613f94565b60200260200101518152602001896007815181106119a9576119a9613f94565b6020026020010151815250905060006040518060c00160405280896000815181106119d6576119d6613f94565b60200260200101518152602001896001815181106119f6576119f6613f94565b6020026020010151815260200189600281518110611a1657611a16613f94565b6020026020010151815260200189600381518110611a3657611a36613f94565b6020026020010151815260200189600481518110611a5657611a56613f94565b6020026020010151815260200189600581518110611a7657611a76613f94565b60209081029190910101519052601d5460405163f398789b60e01b81529192506001600160a01b03169063f398789b90611aba9087908790879087906004016142f9565b602060405180830381865afa158015611ad7573d6000803e3d6000fd5b505050506040513d601f19601f82011682018060405250810190611afb9190614343565b611b175760405162461bcd60e51b8152600401610eb990614394565b5060019998505050505050505050565b6000818152601e60205260409020805460609190611b4490613c7a565b80601f0160208091040260200160405190810160405280929190818152602001828054611b7090613c7a565b8015611bbd5780601f10611b9257610100808354040283529160200191611bbd565b820191906000526020600020905b815481529060010190602001808311611ba057829003601f168201915b50505050509050919050565b6000611bd481611f35565b600a548203611bf65760405163c23f6ccb60e01b815260040160405180910390fd5b50600a55565b6016546000906001600160a01b0316611c2857604051630d7fe67b60e41b815260040160405180910390fd5b6000611c3383611294565b60165460405163294cdf0d60e01b81529192506001600160a01b03169063294cdf0d90611c64908490600401613659565b602060405180830381865afa158015611c81573d6000803e3d6000fd5b505050506040513d601f19601f82011682018060405250810190610cc891906143af565b6000611cb081611f35565b6001600160a01b03821660009081526005602052604090205460ff1615611cea5760405163f411c32760e01b815260040160405180910390fd5b506001600160a01b03166000818152600560205260408120805460ff191660019081179091556006805491820181559091527ff652222313e28459528d920b65115c16c04f3efc82aaedc97be59f3f377c0d3f0180546001600160a01b0319169091179055565b6060611d5c82612363565b6000611d66612388565b90506000815111611d865760405180602001604052806000815250610cc8565b80611d9084612397565b604051602001611da19291906143d0565b6040516020818303038152906040529392505050565b611dc082610d2b565b611dc981611f35565b610e8b838361208e565b6000611dde81611f35565b6002546001600160a01b03808416911603611e0c5760405163c23f6ccb60e01b815260040160405180910390fd5b50600280546001600160a01b0319166001600160a01b0392909216919091179055565b600080611e3b83611340565b915081611e488484611f97565b91509150915091565b611e5c6000336115aa565b158015611e7e5750611e7c60008051602061472e833981519152336115aa565b155b15611e9c576040516326f0f48160e01b815260040160405180910390fd5b8060175403611ebe5760405163c23f6ccb60e01b815260040160405180910390fd5b601755565b611ece6000336115aa565b158015611ef05750611eee60008051602061472e833981519152336115aa565b155b15611f0e576040516326f0f48160e01b815260040160405180910390fd5b80601b5403611f305760405163c23f6ccb60e01b815260040160405180910390fd5b601b55565b611169813361242a565b60006001600160e01b0319821663780e9d6360e01b1480610b8e5750610b8e82612483565b600b5460009015611f8f57610b8e6064611f89600b54856124c390919063ffffffff16565b906124cf565b506000919050565b600954600090819015611fd2576003546001600160a01b0390811690851603611fc35750600954611fd2565b611fcf846009546121cd565b90505b600a5415610cc857610e67611ff76064611f89600a54876124c390919063ffffffff16565b82906124db565b6000610cc883836124e7565b61201482826115aa565b610f1d576000828152602081815260408083206001600160a01b03851684529091529020805460ff1916600117905561204a3390565b6001600160a01b0316816001600160a01b0316837f2f8788117e7eff1d82e926ec794901d17c78024a50270940304540a733656f0d60405160405180910390a45050565b61209882826115aa565b15610f1d576000828152602081815260408083206001600160a01b0385168085529252808320805460ff1916905551339285917ff6391f5c32d9c69d2a47ea670b442974b53935d1edc7fd64eb21e047a839171b9190a45050565b6000806120ff83611294565b6001600160a01b0385811691161491505092915050565b600061212182611294565b905061212f8160008461253e565b6001600160a01b0381166000908152600f6020526040812080546001929061215890849061404f565b90915550506000828152600e602052604080822080546001600160a01b03191690555183916001600160a01b038416917fcc16f5dbb4873280815c1ee09dbd06736cffcc184412cf7a71a0fdb75d397ca59190a35050565b6000908152600e60205260409020546001600160a01b0316151590565b6000816000811180156121e957506001546001600160a01b0316155b156122075760405163fca2174f60e01b815260040160405180910390fd5b60008111801561222057506002546001600160a01b0316155b1561223e5760405163fca2174f60e01b815260040160405180910390fd5b60008111801561225757506003546001600160a01b0316155b156122755760405163fca2174f60e01b815260040160405180910390fd5b60008111801561228e57506007546001600160a01b0316155b156122ac5760405163fca2174f60e01b815260040160405180910390fd5b6001600160a01b03841660009081526005602052604090205460ff1615806122e157506003546001600160a01b038581169116145b15612301578360405163961c9a4f60e01b8152600401610eb99190613659565b82600003612312576000915061235c565b6001600160a01b0384166123445760025460035461233d916001600160a01b03908116911685612549565b915061235c565b60035461233d9085906001600160a01b031685612549565b5092915050565b61236c816121b0565b6111695760405162461bcd60e51b8152600401610eb990613fd6565b606060158054610bcd90613c7a565b606060006123a4836125f8565b60010190506000816001600160401b038111156123c3576123c361381f565b6040519080825280601f01601f1916602001820160405280156123ed576020820181803683370190505b5090508181016020015b600019016f181899199a1a9b1b9c1cb0b131b232b360811b600a86061a8153600a85049450846123f7575b509392505050565b61243482826115aa565b610f1d57612441816126ce565b61244c8360206126e0565b60405160200161245d929190614414565b60408051601f198184030181529082905262461bcd60e51b8252610eb9916004016136c9565b60006001600160e01b031982166313f2a32f60e01b14806124b457506001600160e01b03198216635b5e139f60e01b145b80610b8e5750610b8e8261284b565b6000610cc88284614466565b6000610cc8828461447e565b6000610cc88284614492565b600060008051602061474e83398151915261250181611f35565b600061250d8585612880565b905060008051602061476e833981519152818560405161252e929190613e28565b60405180910390a1949350505050565b610e8b838383612964565b60006060806125588686612a1c565b6001546040516307c0329d60e21b81529192506001600160a01b031690631f00ca749061258b90879085906004016144a5565b600060405180830381865afa1580156125a8573d6000803e3d6000fd5b505050506040513d6000823e601f3d908101601f191682016040526125d0919081019061453a565b9150816000815181106125e5576125e5613f94565b6020026020010151925050509392505050565b60008072184f03e93ff9f4daa797ed6e38ed64bf6a1f0160401b83106126375772184f03e93ff9f4daa797ed6e38ed64bf6a1f0160401b830492506040015b6904ee2d6d415b85acef8160201b8310612661576904ee2d6d415b85acef8160201b830492506020015b662386f26fc10000831061267f57662386f26fc10000830492506010015b6305f5e1008310612697576305f5e100830492506008015b61271083106126ab57612710830492506004015b606483106126bd576064830492506002015b600a8310610b8e5760010192915050565b6060610b8e6001600160a01b03831660145b606060006126ef836002614466565b6126fa906002614492565b6001600160401b038111156127115761271161381f565b6040519080825280601f01601f19166020018201604052801561273b576020820181803683370190505b509050600360fc1b8160008151811061275657612756613f94565b60200101906001600160f81b031916908160001a905350600f60fb1b8160018151811061278557612785613f94565b60200101906001600160f81b031916908160001a90535060006127a9846002614466565b6127b4906001614492565b90505b600181111561282c576f181899199a1a9b1b9c1cb0b131b232b360811b85600f16601081106127e8576127e8613f94565b1a60f81b8282815181106127fe576127fe613f94565b60200101906001600160f81b031916908160001a90535060049490941c9361282581614574565b90506127b7565b508315610cc85760405162461bcd60e51b8152600401610eb9906145bd565b60006001600160e01b03198216637965db0b60e01b1480610b8e57506301ffc9a760e01b6001600160e01b0319831614610b8e565b6000807f00000000000000000000000000000000000000000000000000000000000000001180156128d957507f00000000000000000000000000000000000000000000000000000000000000006128d6836112fc565b10155b1561291b57817f00000000000000000000000000000000000000000000000000000000000000006040516305dfb04760e01b8152600401610eb99291906145cd565b60008061292785611e2f565b91509150612936858383612bae565b600061294160145490565b9050612951601480546001019055565b61295b858261309f565b95945050505050565b6001600160a01b0383166129bf576129ba81601280546000838152601360205260408120829055600182018355919091527fbb8a6a4669ba250d26cd7a459eca9d215f8307e33aebe50379bc5a3617ec34440155565b6129e2565b816001600160a01b0316836001600160a01b0316146129e2576129e2838261317b565b6001600160a01b0382166129f957610e8b81613218565b826001600160a01b0316826001600160a01b031614610e8b57610e8b82826132c7565b6002546060906001600160a01b0384811691161480612a4857506002546001600160a01b038381169116145b15612b1257604080516002808252606082018352600092602083019080368337019050506002549091506001600160a01b03858116911614612a8a5783612a97565b6002546001600160a01b03165b81600081518110612aaa57612aaa613f94565b6001600160a01b039283166020918202929092010152600254848216911614612ad35782612ae0565b6002546001600160a01b03165b81600181518110612af357612af3613f94565b6001600160a01b03909216602092830291909101909101529050610b8e565b60408051600380825260808201909252600091602082016060803683370190505090508381600081518110612b4957612b49613f94565b6001600160a01b039283166020918202929092010152600254825191169082906001908110612b7a57612b7a613f94565b60200260200101906001600160a01b031690816001600160a01b0316815250508281600281518110612af357612af3613f94565b612bb882826124db565b600081118015612bd157506001546001600160a01b0316155b15612bef5760405163fca2174f60e01b815260040160405180910390fd5b600081118015612c0857506002546001600160a01b0316155b15612c265760405163fca2174f60e01b815260040160405180910390fd5b600081118015612c3f57506003546001600160a01b0316155b15612c5d5760405163fca2174f60e01b815260040160405180910390fd5b600081118015612c7657506007546001600160a01b0316155b15612c945760405163fca2174f60e01b815260040160405180910390fd5b82158015612ca0575081155b613099576000612caf84611f64565b90506000831180612cc05750600081115b8015612cd557506008546001600160a01b0316155b15612cf35760405163910af6f560e01b815260040160405180910390fd5b6001600160a01b03851660009081526005602052604090205460ff16612d2e5784604051630ac29ab760e31b8152600401610eb99190613659565b6001600160a01b038516612fd057612d4684846124db565b341015612d7157612d5784846124db565b60405163091a6d0f60e01b8152600401610eb9919061374e565b6000612d7d858361330b565b1115612e0e576007546000906001600160a01b0316612d9c868461330b565b604051612da8906145db565b60006040518083038185875af1925050503d8060008114612de5576040519150601f19603f3d011682016040523d82523d6000602084013e612dea565b606091505b5050905080612e0c576040516312171d8360e31b815260040160405180910390fd5b505b8215612e98576008546040516000916001600160a01b0316908590612e32906145db565b60006040518083038185875af1925050503d8060008114612e6f576040519150601f19603f3d011682016040523d82523d6000602084013e612e74565b606091505b5050905080612e96576040516312171d8360e31b815260040160405180910390fd5b505b8015612f22576008546040516000916001600160a01b0316908390612ebc906145db565b60006040518083038185875af1925050503d8060008114612ef9576040519150601f19603f3d011682016040523d82523d6000602084013e612efe565b606091505b5050905080612f20576040516312171d8360e31b815260040160405180910390fd5b505b612f2c84846124db565b341115612fcb576000612f49612f4286866124db565b349061330b565b90506000336001600160a01b031682604051612f64906145db565b60006040518083038185875af1925050503d8060008114612fa1576040519150601f19603f3d011682016040523d82523d6000602084013e612fa6565b606091505b5050905080612fc857604051633c31275160e21b815260040160405180910390fd5b50505b613054565b6000612fdc858361330b565b1115613010576007546130109033906001600160a01b0316612ffe878561330b565b6001600160a01b038916929190613317565b821561303257600854613032906001600160a01b038781169133911686613317565b801561305457600854613054906001600160a01b038781169133911684613317565b846001600160a01b03167f32c8827c44bf4e71963135be394d95e34ec7302da6f5d8fca5439557863a33f4858560405161308f929190613c49565b60405180910390a2505b50505050565b6001600160a01b0382166130c55760405162461bcd60e51b8152600401610eb99061461a565b6130ce816121b0565b156130eb5760405162461bcd60e51b8152600401610eb99061465a565b6130f76000838361253e565b6001600160a01b0382166000908152600f60205260408120805460019290613120908490614492565b90915550506000818152600e602052604080822080546001600160a01b0319166001600160a01b038616908117909155905183927f0f6798a560793a54c3bcfe86a93cde1e73087d944c0ea20544137d412139688591a35050565b60006001613188846112fc565b613192919061404f565b6000838152601160205260409020549091508082146131e5576001600160a01b03841660009081526010602090815260408083208584528252808320548484528184208190558352601190915290208190555b5060009182526011602090815260408084208490556001600160a01b039094168352601081528383209183525290812055565b60125460009061322a9060019061404f565b6000838152601360205260408120546012805493945090928490811061325257613252613f94565b90600052602060002001549050806012838154811061327357613273613f94565b60009182526020808320909101929092558281526013909152604080822084905585825281205560128054806132ab576132ab614062565b6001900381819060005260206000200160009055905550505050565b60006132d2836112fc565b6001600160a01b039093166000908152601060209081526040808320868452825280832085905593825260119052919091209190915550565b6000610cc8828461404f565b613099846323b872dd60e01b8585856040516024016133389392919061466a565b60408051601f198184030181529190526020810180516001600160e01b03166001600160e01b03199093169290921790915260006133bf826040518060400160405280602081526020017f5361666545524332303a206c6f772d6c6576656c2063616c6c206661696c6564815250856001600160a01b03166133fc9092919063ffffffff16565b90508051600014806133e05750808060200190518101906133e09190614343565b610e8b5760405162461bcd60e51b8152600401610eb9906146d9565b6060610e67848460008585600080866001600160a01b03168587604051613423919061419f565b60006040518083038185875af1925050503d8060008114613460576040519150601f19603f3d011682016040523d82523d6000602084013e613465565b606091505b509150915061347687838387613481565b979650505050505050565b606083156134c05782516000036134b9576001600160a01b0385163b6134b95760405162461bcd60e51b8152600401610eb99061471d565b5081610e67565b610e6783838151156134d55781518083602001fd5b8060405162461bcd60e51b8152600401610eb991906136c9565b828054828255906000526020600020908101928215613535579160200282015b8281111561353557825182906135259082613d6a565b509160200191906001019061350f565b50613541929150613545565b5090565b808211156135415760006135598282613562565b50600101613545565b50805461356e90613c7a565b6000825580601f1061357e575050565b601f01602090049060005260206000209081019061116991905b808211156135415760008155600101613598565b805b811461116957600080fd5b8035610b8e816135ac565b6000602082840312156135d9576135d9600080fd5b6000610e6784846135b9565b6001600160e01b031981166135ae565b8035610b8e816135e5565b60006020828403121561361557613615600080fd5b6000610e6784846135f5565b8015155b82525050565b60208101610b8e8284613621565b6001600160a01b031690565b6000610b8e82613639565b61362581613645565b60208101610b8e8284613650565b60005b8381101561368257818101518382015260200161366a565b50506000910152565b601f01601f191690565b600061369f825190565b8084526020840193506136b6818560208601613667565b6136bf8161368b565b9093019392505050565b60208082528101610cc88184613695565b60006136e68383613650565b505060200190565b60006136f8825190565b80845260209384019383018060005b8381101561372c57815161371b88826136da565b975060208301925050600101613707565b509495945050505050565b60208082528101610cc881846136ee565b80613625565b60208101610b8e8284613748565b6135ae81613645565b8035610b8e8161375c565b6000806040838503121561378657613786600080fd5b60006137928585613765565b92505060206137a3858286016135b9565b9150509250929050565b6000602082840312156137c2576137c2600080fd5b6000610e678484613765565b60008083601f8401126137e3576137e3600080fd5b5081356001600160401b038111156137fd576137fd600080fd5b60208301915083600182028301111561381857613818600080fd5b9250929050565b634e487b7160e01b600052604160045260246000fd5b61383e8261368b565b81018181106001600160401b038211171561385b5761385b61381f565b6040525050565b600061386d60405190565b905061143b8282613835565b60006001600160401b038211156138925761389261381f565b5060209081020190565b60006001600160401b038211156138b5576138b561381f565b6138be8261368b565b60200192915050565b82818337506000910152565b60006138e66138e18461389c565b613862565b90508281526020810184848401111561390157613901600080fd5b6124228482856138c7565b600082601f83011261392057613920600080fd5b8135610e678482602086016138d3565b600061393e6138e184613879565b8381529050602080820190840283018581111561395d5761395d600080fd5b835b8181101561399d5780356001600160401b0381111561398057613980600080fd5b80860161398d898261390c565b855250506020928301920161395f565b5050509392505050565b600082601f8301126139bb576139bb600080fd5b8135610e67848260208601613930565b600080600080606085870312156139e4576139e4600080fd5b60006139f08787613765565b94505060208501356001600160401b03811115613a0f57613a0f600080fd5b613a1b878288016137ce565b935093505060408501356001600160401b03811115613a3c57613a3c600080fd5b613a48878288016139a7565b91505092959194509250565b60008060408385031215613a6a57613a6a600080fd5b6000613a7685856135b9565b92505060206137a385828601613765565b6000610cc88383613695565b6000613a9d825190565b80845260208401935083602082028501613ab78560200190565b8060005b85811015613aec5784840389528151613ad48582613a87565b94506020830160209a909a0199925050600101613abb565b5091979650505050505050565b60208082528101610cc88184613a93565b6000610b8e613b1e613b1b84613639565b90565b613639565b6000610b8e82613b0a565b6000610b8e82613b23565b61362581613b2e565b60208101610b8e8284613b39565b6000613b5e6138e184613879565b83815290506020808201908402830185811115613b7d57613b7d600080fd5b835b8181101561399d5780613b9288826135b9565b84525060209283019201613b7f565b600082601f830112613bb557613bb5600080fd5b8135610e67848260208601613b50565b600080600060608486031215613bdd57613bdd600080fd5b6000613be986866135b9565b93505060208401356001600160401b03811115613c0857613c08600080fd5b613c1486828701613ba1565b92505060408401356001600160401b03811115613c3357613c33600080fd5b613c3f86828701613ba1565b9150509250925092565b60408101613c578285613748565b610cc86020830184613748565b634e487b7160e01b600052602260045260246000fd5b600281046001821680613c8e57607f821691505b602082108103613ca057613ca0613c64565b50919050565b6000610b8e613b1b8381565b613cbb83613ca6565b815460001960089490940293841b1916921b91909117905550565b6000610e8b818484613cb2565b81811015610f1d57613cf6600082613cd6565b600101613ce3565b601f821115610e8b576000818152602090206020601f85010481016020851015613d255750805b613d376020601f860104830182613ce3565b5050505050565b6000196008929092029190911c191690565b6000613d5c8383613d3e565b600290930290921792915050565b81516001600160401b03811115613d8357613d8361381f565b613d8d8254613c7a565b613d98828285613cfe565b6020601f831160018114613dc65760008415613db45750858201515b613dbe8582613d50565b865550613e20565b600085815260208120601f198616915b82811015613df65788850151825560209485019460019092019101613dd6565b86831015613e135784890151613e0f601f891682613d3e565b8355505b6001600288020188555050505b505050505050565b60408101613e368285613748565b610cc86020830184613650565b602881526000602082017f534254456e756d657261626c653a206f776e657220696e646578206f7574206f8152676620626f756e647360c01b602082015291505b5060400190565b60208082528101610b8e81613e43565b602f81526000602082017f416363657373436f6e74726f6c3a2063616e206f6e6c792072656e6f756e636581526e103937b632b9903337b91039b2b63360891b60208201529150613e84565b60208082528101610b8e81613e9b565b601e81526000602082017f5342543a2063616c6c6572206973206e6f7420746f6b656e206f776e65720000815291505b5060200190565b60208082528101610b8e81613ef7565b602981526000602082017f534254456e756d657261626c653a20676c6f62616c20696e646578206f7574208152686f6620626f756e647360b81b60208201529150613e84565b60208082528101610b8e81613f3e565b634e487b7160e01b600052603260045260246000fd5b601581526000602082017414d0950e881a5b9d985b1a59081d1bdad95b881251605a1b81529150613f27565b60208082528101610b8e81613faa565b602681526000602082017f5342543a2061646472657373207a65726f206973206e6f7420612076616c69648152651037bbb732b960d11b60208201529150613e84565b60208082528101610b8e81613fe6565b634e487b7160e01b600052601160045260246000fd5b81810381811115610b8e57610b8e614039565b634e487b7160e01b600052603160045260246000fd5b6000600019820361408b5761408b614039565b5060010190565b602d81526000602082017f54686520636c61696d20646f65736e277420736174697366792074686520717581526c32b93c9031b7b73234ba34b7b760991b60208201529150613e84565b60208082528101610b8e81614092565b604681526000602082017f5468652053425420646f65736e27742062656c6f6e6720746f2074686520616481527f6472657373207468617420697320747279696e6720746f20636c61696d20746860208201526532903637b0b760d11b604082015291505b5060600190565b60208082528101610b8e816140ec565b60006141748284613748565b50602001919050565b6000614187825190565b614195818560208601613667565b9290920192915050565b6000610cc8828461417d565b604b81526000602082017f54686520726f6f74206f6620746865204d65726b6c652054726565277320646181527f746120646f65736e2774206d617463682074686520726f6f742073746f72656460208201526a081a5b881d1a194814d09560aa1b60408201529150614151565b60208082528101610b8e816141ab565b60006136e68383613748565b6002818060005b83811015613e205781516142508782614229565b96506020830192505060010161423c565b6002818060005b83811015613e2057815161427c8782614229565b965060208301925050600101614268565b60006142998383614261565b505060400190565b6002818060005b83811015613e205781516142bc878261428d565b9650602083019250506001016142a8565b6006818060005b83811015613e205781516142e88782614229565b9650602083019250506001016142d4565b6101c081016143088287614235565b61431560408301866142a1565b61432260c0830185614235565b61295b6101008301846142cd565b8015156135ae565b8051610b8e81614330565b60006020828403121561435857614358600080fd5b6000610e678484614338565b6019815260006020820178141c9bdbd9881d995c9a599a58d85d1a5bdb8819985a5b1959603a1b81529150613f27565b60208082528101610b8e81614364565b8051610b8e816135ac565b6000602082840312156143c4576143c4600080fd5b6000610e6784846143a4565b60006143dc828561417d565b91506143e8828461417d565b64173539b7b760d91b8152915060058201610e67565b634e487b7160e01b600052601260045260246000fd5b76020b1b1b2b9b9a1b7b73a3937b61d1030b1b1b7bab73a1604d1b81526017016000614440828561417d565b7001034b99036b4b9b9b4b733903937b6329607d1b81526011019150610e67828461417d565b81810280821583820485141761235c5761235c614039565b60008261448d5761448d6143fe565b500490565b80820180821115610b8e57610b8e614039565b604081016144b38285613748565b8181036020830152610e6781846136ee565b60006144d36138e184613879565b838152905060208082019084028301858111156144f2576144f2600080fd5b835b8181101561399d578061450788826143a4565b845250602092830192016144f4565b600082601f83011261452a5761452a600080fd5b8151610e678482602086016144c5565b60006020828403121561454f5761454f600080fd5b81516001600160401b0381111561456857614568600080fd5b610e6784828501614516565b60008161458357614583614039565b506000190190565b60208082527f537472696e67733a20686578206c656e67746820696e73756666696369656e7491019081526000613f27565b60208082528101610b8e8161458b565b60408101613c578285613650565b6000610b8e82613b1b565b601d81526000602082017f5342543a206d696e7420746f20746865207a65726f206164647265737300000081529150613f27565b60208082528101610b8e816145e6565b601981526000602082017814d0950e881d1bdad95b88185b1c9958591e481b5a5b9d1959603a1b81529150613f27565b60208082528101610b8e8161462a565b606081016146788286613650565b6146856020830185613650565b610e676040830184613748565b602a81526000602082017f5361666545524332303a204552433230206f7065726174696f6e20646964206e8152691bdd081cdd58d8d9595960b21b60208201529150613e84565b60208082528101610b8e81614692565b601d81526000602082017f416464726573733a2063616c6c20746f206e6f6e2d636f6e747261637400000081529150613f27565b60208082528101610b8e816146e956fe52eafc11f6f81f86878bffd31109a0d92f37506527754f00788853ff9f63b1309f2df0fed2c77648de5860a4cc508cd0818c85b8b8a1ab4ceeef8d981c8956a60843ee1fcdab527b7002d046bba3513b0d6f0b9817d6c5588c025420ffe3ba17a2646970667358221220d08a609b467e187a4421e1a9b325c7f6fc33401842177e237df779e8920055aa64736f6c63430008120033",
  "devdoc": {
    "author": "Masa Finance",
    "details": "Inherits from the SSSBT contract.",
    "events": {
      "Burn(address,uint256)": {
        "details": "This emits when an SBT is burned  This event emits when SBTs are destroyed"
      },
      "Mint(address,uint256)": {
        "details": "This emits when an SBT is newly minted.  This event emits when SBTs are created"
      },
      "RoleAdminChanged(bytes32,bytes32,bytes32)": {
        "details": "Emitted when `newAdminRole` is set as ``role``'s admin role, replacing `previousAdminRole` `DEFAULT_ADMIN_ROLE` is the starting admin for all roles, despite {RoleAdminChanged} not being emitted signaling this. _Available since v3.1._"
      },
      "RoleGranted(bytes32,address,address)": {
        "details": "Emitted when `account` is granted `role`. `sender` is the account that originated the contract call, an admin role bearer except when using {AccessControl-_setupRole}."
      },
      "RoleRevoked(bytes32,address,address)": {
        "details": "Emitted when `account` is revoked `role`. `sender` is the account that originated the contract call:   - if using `revokeRole`, it is the admin role bearer   - if using `renounceRole`, it is the role bearer (i.e. `account`)"
      }
    },
    "kind": "dev",
    "methods": {
      "balanceOf(address)": {
        "details": "See {ISBT-balanceOf}."
      },
      "burn(uint256)": {
        "details": "Burns `tokenId`. See {SBT-_burn}. Requirements: - The caller must own `tokenId` or be an approved operator."
      },
      "constructor": {
        "details": "Creates a new Test ZKP SBT, inheriting from the Masa SSSBT contract.",
        "params": {
          "admin": "Administrator of the smart contract",
          "baseTokenURI": "Base URI of the token",
          "maxSBTToMint": "Maximum number of SBT that can be minted",
          "name": "Name of the token",
          "paymentParams": "Payment gateway params",
          "soulboundIdentity": "Address of the SoulboundIdentity contract",
          "symbol": "Symbol of the token",
          "verifier": "Verifier smart contract"
        }
      },
      "disablePaymentMethod(address)": {
        "details": "The caller must have the admin role to call this function",
        "params": {
          "_paymentMethod": "Token to remove"
        }
      },
      "enablePaymentMethod(address)": {
        "details": "The caller must have the admin role to call this function",
        "params": {
          "_paymentMethod": "New token to add"
        }
      },
      "exists(uint256)": {
        "details": "Returns true if the token has been minted",
        "params": {
          "tokenId": "Token to check"
        },
        "returns": {
          "_0": "True if the token exists"
        }
      },
      "getEnabledPaymentMethods()": {
        "details": "Returns the address of all available payment methods",
        "returns": {
          "_0": "Array of all enabled payment methods"
        }
      },
      "getEncryptedData(uint256)": {
        "params": {
          "tokenId": "The SBT ID"
        },
        "returns": {
          "_0": "The encrypted data with the public key of the owner of the SBT"
        }
      },
      "getIdentityId(uint256)": {
        "params": {
          "tokenId": "Id of the token"
        },
        "returns": {
          "_0": "Id of the identity"
        }
      },
      "getMintPrice(address)": {
        "details": "Returns current pricing for minting",
        "params": {
          "paymentMethod": "Address of token that user want to pay"
        },
        "returns": {
          "price": "Current price for minting in the given payment method"
        }
      },
      "getMintPriceWithProtocolFee(address)": {
        "details": "Returns current pricing for minting with protocol fee",
        "params": {
          "paymentMethod": "Address of token that user want to pay"
        },
        "returns": {
          "price": "Current price for minting in the given payment method",
          "protocolFee": "Current protocol fee for minting in the given payment method"
        }
      },
      "getProtocolFee(address,uint256)": {
        "details": "This method will calculate the protocol fee based on the payment method",
        "params": {
          "amount": "Price to be paid in the specified payment method",
          "paymentMethod": "Address of token that user want to pay"
        }
      },
      "getProtocolFeeSub(uint256)": {
        "details": "This method will calculate the protocol fee based on the payment method",
        "params": {
          "amount": "Price to be paid in the specified payment method"
        }
      },
      "getRoleAdmin(bytes32)": {
        "details": "Returns the admin role that controls `role`. See {grantRole} and {revokeRole}. To change a role's admin, use {_setRoleAdmin}."
      },
      "getRoot(uint256)": {
        "params": {
          "tokenId": "The SBT ID"
        },
        "returns": {
          "_0": "The root of the Merkle Tree's data without encryption, used to verify the data"
        }
      },
      "getVerifier()": {
        "returns": {
          "_0": "The verifier smart contract"
        }
      },
      "grantRole(bytes32,address)": {
        "details": "Grants `role` to `account`. If `account` had not been already granted `role`, emits a {RoleGranted} event. Requirements: - the caller must have ``role``'s admin role. May emit a {RoleGranted} event."
      },
      "hasRole(bytes32,address)": {
        "details": "Returns `true` if `account` has been granted `role`."
      },
      "mint(address,bytes,bytes[])": {
        "details": "The caller must have the MINTER role",
        "params": {
          "encryptedData": "Encrypted data",
          "root": "Root of the Merkle Tree's data without encryption, used to verify the data",
          "to": "The address to mint the SBT to"
        },
        "returns": {
          "_0": "The SBT ID of the newly minted SBT"
        }
      },
      "name()": {
        "details": "See {ISBTMetadata-name}."
      },
      "ownerOf(uint256)": {
        "details": "See {ISBT-ownerOf}."
      },
      "renounceRole(bytes32,address)": {
        "details": "Revokes `role` from the calling account. Roles are often managed via {grantRole} and {revokeRole}: this function's purpose is to provide a mechanism for accounts to lose their privileges if they are compromised (such as when a trusted device is misplaced). If the calling account had been revoked `role`, emits a {RoleRevoked} event. Requirements: - the caller must be `account`. May emit a {RoleRevoked} event."
      },
      "revokeRole(bytes32,address)": {
        "details": "Revokes `role` from `account`. If `account` had been granted `role`, emits a {RoleRevoked} event. Requirements: - the caller must have ``role``'s admin role. May emit a {RoleRevoked} event."
      },
      "setAddLinkPrice(uint256)": {
        "details": "The caller must have the admin or project admin role to call this function",
        "params": {
          "_addLinkPrice": "New price for adding the link in SoulLinker in stable coin"
        }
      },
      "setAddLinkPriceMASA(uint256)": {
        "details": "The caller must have the admin or project admin role to call this function",
        "params": {
          "_addLinkPriceMASA": "New price for adding the link in SoulLinker in MASA"
        }
      },
      "setMasaToken(address)": {
        "details": "The caller must have the admin role to call this function It can be set to address(0) to disable paying in MASA",
        "params": {
          "_masaToken": "New utility token to pay the fee in"
        }
      },
      "setMintPrice(uint256)": {
        "details": "The caller must have the admin or project admin role to call this function",
        "params": {
          "_mintPrice": "New price of minting in stable coin"
        }
      },
      "setMintPriceMASA(uint256)": {
        "details": "The caller must have the admin or project admin role to call this function",
        "params": {
          "_mintPriceMASA": "New price of minting in MASA"
        }
      },
      "setProjectFeeReceiver(address)": {
        "details": "The caller must have the admin or project admin role to call this function",
        "params": {
          "_projectFeeReceiver": "New project fee receiver wallet"
        }
      },
      "setProtocolFeeAmount(uint256)": {
        "details": "The caller must have the admin role to call this function",
        "params": {
          "_protocolFeeAmount": "New protocol fee amount"
        }
      },
      "setProtocolFeePercent(uint256)": {
        "details": "The caller must have the admin role to call this function",
        "params": {
          "_protocolFeePercent": "New protocol fee percent added to the project fee"
        }
      },
      "setProtocolFeePercentSub(uint256)": {
        "details": "The caller must have the admin role to call this function",
        "params": {
          "_protocolFeePercentSub": "New protocol fee percent substracted from the amount"
        }
      },
      "setProtocolFeeReceiver(address)": {
        "details": "The caller must have the admin role to call this function",
        "params": {
          "_protocolFeeReceiver": "New protocol fee wallet"
        }
      },
      "setQueryLinkPrice(uint256)": {
        "details": "The caller must have the admin or project admin role to call this function",
        "params": {
          "_queryLinkPrice": "New price for reading data in SoulLinker in stable coin"
        }
      },
      "setQueryLinkPriceMASA(uint256)": {
        "details": "The caller must have the admin or project admin role to call this function",
        "params": {
          "_queryLinkPriceMASA": "New price for reading data in SoulLinker in MASA"
        }
      },
      "setSoulboundIdentity(address)": {
        "details": "The caller must be the admin to call this function",
        "params": {
          "_soulboundIdentity": "Address of the SoulboundIdentity contract"
        }
      },
      "setStableCoin(address)": {
        "details": "The caller must have the admin role to call this function",
        "params": {
          "_stableCoin": "New stable coin to pay the fee in"
        }
      },
      "setSwapRouter(address)": {
        "details": "The caller must have the admin role to call this function",
        "params": {
          "_swapRouter": "New swap router address"
        }
      },
      "setWrappedNativeToken(address)": {
        "details": "The caller must have the admin role to call this function",
        "params": {
          "_wrappedNativeToken": "New wrapped native token address"
        }
      },
      "supportsInterface(bytes4)": {
        "details": "Interface identification is specified in ERC-165.",
        "params": {
          "interfaceId": "The interface identifier, as specified in ERC-165"
        },
        "returns": {
          "_0": "`true` if the contract implements `interfaceId` and  `interfaceId` is not 0xffffffff, `false` otherwise"
        }
      },
      "symbol()": {
        "details": "See {ISBTMetadata-symbol}."
      },
      "tokenByIndex(uint256)": {
        "details": "See {ISBTEnumerable-tokenByIndex}."
      },
      "tokenOfOwnerByIndex(address,uint256)": {
        "details": "See {ISBTEnumerable-tokenOfOwnerByIndex}."
      },
      "tokenURI(uint256)": {
        "details": "Throws if `_tokenId` is not a valid SBT. URIs are defined in RFC  3986. The URI may point to a JSON file that conforms to the \"ERC721  Metadata JSON Schema\".",
        "params": {
          "tokenId": "SBT to get the URI of"
        },
        "returns": {
          "_0": "URI of the SBT"
        }
      },
      "totalSupply()": {
        "details": "See {ISBTEnumerable-totalSupply}."
      }
    },
    "title": "Test ZKP SBT Authority",
    "version": 1
  },
  "userdoc": {
    "kind": "user",
    "methods": {
      "constructor": {
        "notice": "Creates a new Test ZKP SBT"
      },
      "disablePaymentMethod(address)": {
        "notice": "Removes a token as a valid payment method"
      },
      "enablePaymentMethod(address)": {
        "notice": "Adds a new token as a valid payment method"
      },
      "exists(uint256)": {
        "notice": "Returns true if the token exists"
      },
      "getEnabledPaymentMethods()": {
        "notice": "Returns all available payment methods"
      },
      "getEncryptedData(uint256)": {
        "notice": "Returns the encrypted data with the public key of the owner of the SBT"
      },
      "getIdentityId(uint256)": {
        "notice": "Returns the identityId owned by the given token"
      },
      "getMintPrice(address)": {
        "notice": "Returns the price for minting"
      },
      "getMintPriceWithProtocolFee(address)": {
        "notice": "Returns the price for minting with protocol fee"
      },
      "getProtocolFee(address,uint256)": {
        "notice": "Calculates the protocol fee added to the project fee"
      },
      "getProtocolFeeSub(uint256)": {
        "notice": "Calculates the protocol fee substracted from the amount"
      },
      "getRoot(uint256)": {
        "notice": "Returns the root of the Merkle Tree's data without encryption, used to verify the data"
      },
      "getVerifier()": {
        "notice": "Returns the verifier smart contract"
      },
      "mint(address,bytes,bytes[])": {
        "notice": "Mints a new SBT"
      },
      "setAddLinkPrice(uint256)": {
        "notice": "Sets the price for adding the link in SoulLinker in stable coin"
      },
      "setAddLinkPriceMASA(uint256)": {
        "notice": "Sets the price for adding the link in SoulLinker in MASA"
      },
      "setMasaToken(address)": {
        "notice": "Sets the utility token to pay the fee in (MASA)"
      },
      "setMintPrice(uint256)": {
        "notice": "Sets the price of minting in stable coin"
      },
      "setMintPriceMASA(uint256)": {
        "notice": "Sets the price of minting in MASA"
      },
      "setProjectFeeReceiver(address)": {
        "notice": "Set the project fee receiver wallet"
      },
      "setProtocolFeeAmount(uint256)": {
        "notice": "Set the protocol fee amount"
      },
      "setProtocolFeePercent(uint256)": {
        "notice": "Set the protocol fee percent added to the project fee"
      },
      "setProtocolFeePercentSub(uint256)": {
        "notice": "Set the protocol fee percent substracted from the amount"
      },
      "setProtocolFeeReceiver(address)": {
        "notice": "Set the protocol fee wallet"
      },
      "setQueryLinkPrice(uint256)": {
        "notice": "Sets the price for reading data in SoulLinker in stable coin"
      },
      "setQueryLinkPriceMASA(uint256)": {
        "notice": "Sets the price for reading data in SoulLinker in MASA"
      },
      "setSoulboundIdentity(address)": {
        "notice": "Sets the SoulboundIdentity contract address linked to this SBT"
      },
      "setStableCoin(address)": {
        "notice": "Sets the stable coin to pay the fee in (USDC)"
      },
      "setSwapRouter(address)": {
        "notice": "Sets the swap router address"
      },
      "setWrappedNativeToken(address)": {
        "notice": "Sets the wrapped native token address"
      },
      "supportsInterface(bytes4)": {
        "notice": "Query if a contract implements an interface"
      },
      "tokenURI(uint256)": {
        "notice": "A distinct Uniform Resource Identifier (URI) for a given asset."
      }
    },
    "notice": "Test Soulbound token",
    "version": 1
  },
  "storageLayout": {
    "storage": [
      {
        "astId": 3439,
        "contract": "contracts/ZKSBTAuthority.sol:ZKSBTAuthority",
        "label": "_roles",
        "offset": 0,
        "slot": "0",
        "type": "t_mapping(t_bytes32,t_struct(RoleData)3434_storage)"
      },
      {
        "astId": 43,
        "contract": "contracts/ZKSBTAuthority.sol:ZKSBTAuthority",
        "label": "swapRouter",
        "offset": 0,
        "slot": "1",
        "type": "t_address"
      },
      {
        "astId": 45,
        "contract": "contracts/ZKSBTAuthority.sol:ZKSBTAuthority",
        "label": "wrappedNativeToken",
        "offset": 0,
        "slot": "2",
        "type": "t_address"
      },
      {
        "astId": 47,
        "contract": "contracts/ZKSBTAuthority.sol:ZKSBTAuthority",
        "label": "stableCoin",
        "offset": 0,
        "slot": "3",
        "type": "t_address"
      },
      {
        "astId": 49,
        "contract": "contracts/ZKSBTAuthority.sol:ZKSBTAuthority",
        "label": "masaToken",
        "offset": 0,
        "slot": "4",
        "type": "t_address"
      },
      {
        "astId": 53,
        "contract": "contracts/ZKSBTAuthority.sol:ZKSBTAuthority",
        "label": "enabledPaymentMethod",
        "offset": 0,
        "slot": "5",
        "type": "t_mapping(t_address,t_bool)"
      },
      {
        "astId": 56,
        "contract": "contracts/ZKSBTAuthority.sol:ZKSBTAuthority",
        "label": "enabledPaymentMethods",
        "offset": 0,
        "slot": "6",
        "type": "t_array(t_address)dyn_storage"
      },
      {
        "astId": 58,
        "contract": "contracts/ZKSBTAuthority.sol:ZKSBTAuthority",
        "label": "projectFeeReceiver",
        "offset": 0,
        "slot": "7",
        "type": "t_address"
      },
      {
        "astId": 60,
        "contract": "contracts/ZKSBTAuthority.sol:ZKSBTAuthority",
        "label": "protocolFeeReceiver",
        "offset": 0,
        "slot": "8",
        "type": "t_address"
      },
      {
        "astId": 62,
        "contract": "contracts/ZKSBTAuthority.sol:ZKSBTAuthority",
        "label": "protocolFeeAmount",
        "offset": 0,
        "slot": "9",
        "type": "t_uint256"
      },
      {
        "astId": 64,
        "contract": "contracts/ZKSBTAuthority.sol:ZKSBTAuthority",
        "label": "protocolFeePercent",
        "offset": 0,
        "slot": "10",
        "type": "t_uint256"
      },
      {
        "astId": 66,
        "contract": "contracts/ZKSBTAuthority.sol:ZKSBTAuthority",
        "label": "protocolFeePercentSub",
        "offset": 0,
        "slot": "11",
        "type": "t_uint256"
      },
      {
        "astId": 2622,
        "contract": "contracts/ZKSBTAuthority.sol:ZKSBTAuthority",
        "label": "_name",
        "offset": 0,
        "slot": "12",
        "type": "t_string_storage"
      },
      {
        "astId": 2624,
        "contract": "contracts/ZKSBTAuthority.sol:ZKSBTAuthority",
        "label": "_symbol",
        "offset": 0,
        "slot": "13",
        "type": "t_string_storage"
      },
      {
        "astId": 2628,
        "contract": "contracts/ZKSBTAuthority.sol:ZKSBTAuthority",
        "label": "_owners",
        "offset": 0,
        "slot": "14",
        "type": "t_mapping(t_uint256,t_address)"
      },
      {
        "astId": 2632,
        "contract": "contracts/ZKSBTAuthority.sol:ZKSBTAuthority",
        "label": "_balances",
        "offset": 0,
        "slot": "15",
        "type": "t_mapping(t_address,t_uint256)"
      },
      {
        "astId": 3091,
        "contract": "contracts/ZKSBTAuthority.sol:ZKSBTAuthority",
        "label": "_ownedTokens",
        "offset": 0,
        "slot": "16",
        "type": "t_mapping(t_address,t_mapping(t_uint256,t_uint256))"
      },
      {
        "astId": 3095,
        "contract": "contracts/ZKSBTAuthority.sol:ZKSBTAuthority",
        "label": "_ownedTokensIndex",
        "offset": 0,
        "slot": "17",
        "type": "t_mapping(t_uint256,t_uint256)"
      },
      {
        "astId": 3098,
        "contract": "contracts/ZKSBTAuthority.sol:ZKSBTAuthority",
        "label": "_allTokens",
        "offset": 0,
        "slot": "18",
        "type": "t_array(t_uint256)dyn_storage"
      },
      {
        "astId": 3102,
        "contract": "contracts/ZKSBTAuthority.sol:ZKSBTAuthority",
        "label": "_allTokensIndex",
        "offset": 0,
        "slot": "19",
        "type": "t_mapping(t_uint256,t_uint256)"
      },
      {
        "astId": 1481,
        "contract": "contracts/ZKSBTAuthority.sol:ZKSBTAuthority",
        "label": "_tokenIdCounter",
        "offset": 0,
        "slot": "20",
        "type": "t_struct(Counter)4741_storage"
      },
      {
        "astId": 1483,
        "contract": "contracts/ZKSBTAuthority.sol:ZKSBTAuthority",
        "label": "_baseTokenURI",
        "offset": 0,
        "slot": "21",
        "type": "t_string_storage"
      },
      {
        "astId": 1488,
        "contract": "contracts/ZKSBTAuthority.sol:ZKSBTAuthority",
        "label": "soulboundIdentity",
        "offset": 0,
        "slot": "22",
        "type": "t_contract(ISoulboundIdentity)1220"
      },
      {
        "astId": 1490,
        "contract": "contracts/ZKSBTAuthority.sol:ZKSBTAuthority",
        "label": "mintPrice",
        "offset": 0,
        "slot": "23",
        "type": "t_uint256"
      },
      {
        "astId": 1492,
        "contract": "contracts/ZKSBTAuthority.sol:ZKSBTAuthority",
        "label": "mintPriceMASA",
        "offset": 0,
        "slot": "24",
        "type": "t_uint256"
      },
      {
        "astId": 1495,
        "contract": "contracts/ZKSBTAuthority.sol:ZKSBTAuthority",
        "label": "addLinkPrice",
        "offset": 0,
        "slot": "25",
        "type": "t_uint256"
      },
      {
        "astId": 1498,
        "contract": "contracts/ZKSBTAuthority.sol:ZKSBTAuthority",
        "label": "addLinkPriceMASA",
        "offset": 0,
        "slot": "26",
        "type": "t_uint256"
      },
      {
        "astId": 1501,
        "contract": "contracts/ZKSBTAuthority.sol:ZKSBTAuthority",
        "label": "queryLinkPrice",
        "offset": 0,
        "slot": "27",
        "type": "t_uint256"
      },
      {
        "astId": 1504,
        "contract": "contracts/ZKSBTAuthority.sol:ZKSBTAuthority",
        "label": "queryLinkPriceMASA",
        "offset": 0,
        "slot": "28",
        "type": "t_uint256"
      },
      {
        "astId": 7335,
        "contract": "contracts/ZKSBTAuthority.sol:ZKSBTAuthority",
        "label": "_verifier",
        "offset": 0,
        "slot": "29",
        "type": "t_contract(IVerifier)7327"
      },
      {
        "astId": 7346,
        "contract": "contracts/ZKSBTAuthority.sol:ZKSBTAuthority",
        "label": "sbtData",
        "offset": 0,
        "slot": "30",
        "type": "t_mapping(t_uint256,t_struct(SBTData)7341_storage)"
      },
      {
        "astId": 3839,
        "contract": "contracts/ZKSBTAuthority.sol:ZKSBTAuthority",
        "label": "_status",
        "offset": 0,
        "slot": "31",
        "type": "t_uint256"
      }
    ],
    "types": {
      "t_address": {
        "encoding": "inplace",
        "label": "address",
        "numberOfBytes": "20"
      },
      "t_array(t_address)dyn_storage": {
        "base": "t_address",
        "encoding": "dynamic_array",
        "label": "address[]",
        "numberOfBytes": "32"
      },
      "t_array(t_bytes_storage)dyn_storage": {
        "base": "t_bytes_storage",
        "encoding": "dynamic_array",
        "label": "bytes[]",
        "numberOfBytes": "32"
      },
      "t_array(t_uint256)dyn_storage": {
        "base": "t_uint256",
        "encoding": "dynamic_array",
        "label": "uint256[]",
        "numberOfBytes": "32"
      },
      "t_bool": {
        "encoding": "inplace",
        "label": "bool",
        "numberOfBytes": "1"
      },
      "t_bytes32": {
        "encoding": "inplace",
        "label": "bytes32",
        "numberOfBytes": "32"
      },
      "t_bytes_storage": {
        "encoding": "bytes",
        "label": "bytes",
        "numberOfBytes": "32"
      },
      "t_contract(ISoulboundIdentity)1220": {
        "encoding": "inplace",
        "label": "contract ISoulboundIdentity",
        "numberOfBytes": "20"
      },
      "t_contract(IVerifier)7327": {
        "encoding": "inplace",
        "label": "contract IVerifier",
        "numberOfBytes": "20"
      },
      "t_mapping(t_address,t_bool)": {
        "encoding": "mapping",
        "key": "t_address",
        "label": "mapping(address => bool)",
        "numberOfBytes": "32",
        "value": "t_bool"
      },
      "t_mapping(t_address,t_mapping(t_uint256,t_uint256))": {
        "encoding": "mapping",
        "key": "t_address",
        "label": "mapping(address => mapping(uint256 => uint256))",
        "numberOfBytes": "32",
        "value": "t_mapping(t_uint256,t_uint256)"
      },
      "t_mapping(t_address,t_uint256)": {
        "encoding": "mapping",
        "key": "t_address",
        "label": "mapping(address => uint256)",
        "numberOfBytes": "32",
        "value": "t_uint256"
      },
      "t_mapping(t_bytes32,t_struct(RoleData)3434_storage)": {
        "encoding": "mapping",
        "key": "t_bytes32",
        "label": "mapping(bytes32 => struct AccessControl.RoleData)",
        "numberOfBytes": "32",
        "value": "t_struct(RoleData)3434_storage"
      },
      "t_mapping(t_uint256,t_address)": {
        "encoding": "mapping",
        "key": "t_uint256",
        "label": "mapping(uint256 => address)",
        "numberOfBytes": "32",
        "value": "t_address"
      },
      "t_mapping(t_uint256,t_struct(SBTData)7341_storage)": {
        "encoding": "mapping",
        "key": "t_uint256",
        "label": "mapping(uint256 => struct ZKSBT.SBTData)",
        "numberOfBytes": "32",
        "value": "t_struct(SBTData)7341_storage"
      },
      "t_mapping(t_uint256,t_uint256)": {
        "encoding": "mapping",
        "key": "t_uint256",
        "label": "mapping(uint256 => uint256)",
        "numberOfBytes": "32",
        "value": "t_uint256"
      },
      "t_string_storage": {
        "encoding": "bytes",
        "label": "string",
        "numberOfBytes": "32"
      },
      "t_struct(Counter)4741_storage": {
        "encoding": "inplace",
        "label": "struct Counters.Counter",
        "members": [
          {
            "astId": 4740,
            "contract": "contracts/ZKSBTAuthority.sol:ZKSBTAuthority",
            "label": "_value",
            "offset": 0,
            "slot": "0",
            "type": "t_uint256"
          }
        ],
        "numberOfBytes": "32"
      },
      "t_struct(RoleData)3434_storage": {
        "encoding": "inplace",
        "label": "struct AccessControl.RoleData",
        "members": [
          {
            "astId": 3431,
            "contract": "contracts/ZKSBTAuthority.sol:ZKSBTAuthority",
            "label": "members",
            "offset": 0,
            "slot": "0",
            "type": "t_mapping(t_address,t_bool)"
          },
          {
            "astId": 3433,
            "contract": "contracts/ZKSBTAuthority.sol:ZKSBTAuthority",
            "label": "adminRole",
            "offset": 0,
            "slot": "1",
            "type": "t_bytes32"
          }
        ],
        "numberOfBytes": "64"
      },
      "t_struct(SBTData)7341_storage": {
        "encoding": "inplace",
        "label": "struct ZKSBT.SBTData",
        "members": [
          {
            "astId": 7337,
            "contract": "contracts/ZKSBTAuthority.sol:ZKSBTAuthority",
            "label": "root",
            "offset": 0,
            "slot": "0",
            "type": "t_bytes_storage"
          },
          {
            "astId": 7340,
            "contract": "contracts/ZKSBTAuthority.sol:ZKSBTAuthority",
            "label": "encryptedData",
            "offset": 0,
            "slot": "1",
            "type": "t_array(t_bytes_storage)dyn_storage"
          }
        ],
        "numberOfBytes": "64"
      },
      "t_uint256": {
        "encoding": "inplace",
        "label": "uint256",
        "numberOfBytes": "32"
      }
    }
  }
}