{
  "address": "0x992Cd8D2Db4aB9f87846B983cB2Bf94EB0007cB0",
  "abi": [
    {
      "inputs": [
        {
          "internalType": "address",
          "name": "admin",
          "type": "address"
        },
        {
          "internalType": "string",
          "name": "name",
          "type": "string"
        },
        {
          "internalType": "string",
          "name": "symbol",
          "type": "string"
        },
        {
          "internalType": "string",
          "name": "baseTokenURI",
          "type": "string"
        },
        {
          "internalType": "address",
          "name": "soulboundIdentity",
          "type": "address"
        },
        {
          "components": [
            {
              "internalType": "address",
              "name": "swapRouter",
              "type": "address"
            },
            {
              "internalType": "address",
              "name": "wrappedNativeToken",
              "type": "address"
            },
            {
              "internalType": "address",
              "name": "stableCoin",
              "type": "address"
            },
            {
              "internalType": "address",
              "name": "masaToken",
              "type": "address"
            },
            {
              "internalType": "address",
              "name": "projectFeeReceiver",
              "type": "address"
            },
            {
              "internalType": "address",
              "name": "protocolFeeReceiver",
              "type": "address"
            },
            {
              "internalType": "uint256",
              "name": "protocolFeeAmount",
              "type": "uint256"
            },
            {
              "internalType": "uint256",
              "name": "protocolFeePercent",
              "type": "uint256"
            },
            {
              "internalType": "uint256",
              "name": "protocolFeePercentSub",
              "type": "uint256"
            }
          ],
          "internalType": "struct PaymentGateway.PaymentParams",
          "name": "paymentParams",
          "type": "tuple"
        }
      ],
      "stateMutability": "nonpayable",
      "type": "constructor"
    },
    {
      "inputs": [],
      "name": "AlreadyAdded",
      "type": "error"
    },
    {
      "inputs": [
        {
          "internalType": "address",
          "name": "authority",
          "type": "address"
        }
      ],
      "name": "AuthorityNotExists",
      "type": "error"
    },
    {
      "inputs": [
        {
          "internalType": "address",
          "name": "caller",
          "type": "address"
        }
      ],
      "name": "CallerNotOwner",
      "type": "error"
    },
    {
      "inputs": [
        {
          "internalType": "uint256",
          "name": "amount",
          "type": "uint256"
        }
      ],
      "name": "InsufficientEthAmount",
      "type": "error"
    },
    {
      "inputs": [
        {
          "internalType": "address",
          "name": "paymentMethod",
          "type": "address"
        }
      ],
      "name": "InvalidPaymentMethod",
      "type": "error"
    },
    {
      "inputs": [],
      "name": "InvalidShortString",
      "type": "error"
    },
    {
      "inputs": [],
      "name": "InvalidSignature",
      "type": "error"
    },
    {
      "inputs": [
        {
          "internalType": "address",
          "name": "token",
          "type": "address"
        }
      ],
      "name": "InvalidToken",
      "type": "error"
    },
    {
      "inputs": [
        {
          "internalType": "address",
          "name": "erc20token",
          "type": "address"
        }
      ],
      "name": "NonExistingErc20Token",
      "type": "error"
    },
    {
      "inputs": [
        {
          "internalType": "address",
          "name": "signer",
          "type": "address"
        }
      ],
      "name": "NotAuthorized",
      "type": "error"
    },
    {
      "inputs": [],
      "name": "NotLinkedToAnIdentitySBT",
      "type": "error"
    },
    {
      "inputs": [],
      "name": "PaymentParamsNotSet",
      "type": "error"
    },
    {
      "inputs": [],
      "name": "ProtocolFeeReceiverNotSet",
      "type": "error"
    },
    {
      "inputs": [],
      "name": "RefundFailed",
      "type": "error"
    },
    {
      "inputs": [],
      "name": "SameValue",
      "type": "error"
    },
    {
      "inputs": [
        {
          "internalType": "string",
          "name": "str",
          "type": "string"
        }
      ],
      "name": "StringTooLong",
      "type": "error"
    },
    {
      "inputs": [],
      "name": "TransferFailed",
      "type": "error"
    },
    {
      "inputs": [],
      "name": "UserMustHaveProtocolOrProjectAdminRole",
      "type": "error"
    },
    {
      "inputs": [],
      "name": "ZeroAddress",
      "type": "error"
    },
    {
      "anonymous": false,
      "inputs": [
        {
          "indexed": true,
          "internalType": "address",
          "name": "_owner",
          "type": "address"
        },
        {
          "indexed": true,
          "internalType": "uint256",
          "name": "_tokenId",
          "type": "uint256"
        }
      ],
      "name": "Burn",
      "type": "event"
    },
    {
      "anonymous": false,
      "inputs": [],
      "name": "EIP712DomainChanged",
      "type": "event"
    },
    {
      "anonymous": false,
      "inputs": [
        {
          "indexed": true,
          "internalType": "address",
          "name": "_owner",
          "type": "address"
        },
        {
          "indexed": true,
          "internalType": "uint256",
          "name": "_tokenId",
          "type": "uint256"
        }
      ],
      "name": "Mint",
      "type": "event"
    },
    {
      "anonymous": false,
      "inputs": [
        {
          "indexed": false,
          "internalType": "uint256",
          "name": "tokenId",
          "type": "uint256"
        },
        {
          "indexed": false,
          "internalType": "address",
          "name": "to",
          "type": "address"
        },
        {
          "indexed": false,
          "internalType": "address",
          "name": "authorityAddress",
          "type": "address"
        },
        {
          "indexed": false,
          "internalType": "uint256",
          "name": "signatureDate",
          "type": "uint256"
        },
        {
          "indexed": false,
          "internalType": "address",
          "name": "paymentMethod",
          "type": "address"
        },
        {
          "indexed": false,
          "internalType": "uint256",
          "name": "mintPrice",
          "type": "uint256"
        }
      ],
      "name": "MintedToAddress",
      "type": "event"
    },
    {
      "anonymous": false,
      "inputs": [
        {
          "indexed": true,
          "internalType": "bytes32",
          "name": "role",
          "type": "bytes32"
        },
        {
          "indexed": true,
          "internalType": "bytes32",
          "name": "previousAdminRole",
          "type": "bytes32"
        },
        {
          "indexed": true,
          "internalType": "bytes32",
          "name": "newAdminRole",
          "type": "bytes32"
        }
      ],
      "name": "RoleAdminChanged",
      "type": "event"
    },
    {
      "anonymous": false,
      "inputs": [
        {
          "indexed": true,
          "internalType": "bytes32",
          "name": "role",
          "type": "bytes32"
        },
        {
          "indexed": true,
          "internalType": "address",
          "name": "account",
          "type": "address"
        },
        {
          "indexed": true,
          "internalType": "address",
          "name": "sender",
          "type": "address"
        }
      ],
      "name": "RoleGranted",
      "type": "event"
    },
    {
      "anonymous": false,
      "inputs": [
        {
          "indexed": true,
          "internalType": "bytes32",
          "name": "role",
          "type": "bytes32"
        },
        {
          "indexed": true,
          "internalType": "address",
          "name": "account",
          "type": "address"
        },
        {
          "indexed": true,
          "internalType": "address",
          "name": "sender",
          "type": "address"
        }
      ],
      "name": "RoleRevoked",
      "type": "event"
    },
    {
      "inputs": [],
      "name": "DEFAULT_ADMIN_ROLE",
      "outputs": [
        {
          "internalType": "bytes32",
          "name": "",
          "type": "bytes32"
        }
      ],
      "stateMutability": "view",
      "type": "function"
    },
    {
      "inputs": [],
      "name": "PROJECT_ADMIN_ROLE",
      "outputs": [
        {
          "internalType": "bytes32",
          "name": "",
          "type": "bytes32"
        }
      ],
      "stateMutability": "view",
      "type": "function"
    },
    {
      "inputs": [
        {
          "internalType": "address",
          "name": "_authority",
          "type": "address"
        }
      ],
      "name": "addAuthority",
      "outputs": [],
      "stateMutability": "nonpayable",
      "type": "function"
    },
    {
      "inputs": [],
      "name": "addLinkPrice",
      "outputs": [
        {
          "internalType": "uint256",
          "name": "",
          "type": "uint256"
        }
      ],
      "stateMutability": "view",
      "type": "function"
    },
    {
      "inputs": [],
      "name": "addLinkPriceMASA",
      "outputs": [
        {
          "internalType": "uint256",
          "name": "",
          "type": "uint256"
        }
      ],
      "stateMutability": "view",
      "type": "function"
    },
    {
      "inputs": [
        {
          "internalType": "address",
          "name": "",
          "type": "address"
        }
      ],
      "name": "authorities",
      "outputs": [
        {
          "internalType": "bool",
          "name": "",
          "type": "bool"
        }
      ],
      "stateMutability": "view",
      "type": "function"
    },
    {
      "inputs": [
        {
          "internalType": "address",
          "name": "owner",
          "type": "address"
        }
      ],
      "name": "balanceOf",
      "outputs": [
        {
          "internalType": "uint256",
          "name": "",
          "type": "uint256"
        }
      ],
      "stateMutability": "view",
      "type": "function"
    },
    {
      "inputs": [
        {
          "internalType": "uint256",
          "name": "tokenId",
          "type": "uint256"
        }
      ],
      "name": "burn",
      "outputs": [],
      "stateMutability": "nonpayable",
      "type": "function"
    },
    {
      "inputs": [
        {
          "internalType": "address",
          "name": "_paymentMethod",
          "type": "address"
        }
      ],
      "name": "disablePaymentMethod",
      "outputs": [],
      "stateMutability": "nonpayable",
      "type": "function"
    },
    {
      "inputs": [],
      "name": "eip712Domain",
      "outputs": [
        {
          "internalType": "bytes1",
          "name": "fields",
          "type": "bytes1"
        },
        {
          "internalType": "string",
          "name": "name",
          "type": "string"
        },
        {
          "internalType": "string",
          "name": "version",
          "type": "string"
        },
        {
          "internalType": "uint256",
          "name": "chainId",
          "type": "uint256"
        },
        {
          "internalType": "address",
          "name": "verifyingContract",
          "type": "address"
        },
        {
          "internalType": "bytes32",
          "name": "salt",
          "type": "bytes32"
        },
        {
          "internalType": "uint256[]",
          "name": "extensions",
          "type": "uint256[]"
        }
      ],
      "stateMutability": "view",
      "type": "function"
    },
    {
      "inputs": [
        {
          "internalType": "address",
          "name": "_paymentMethod",
          "type": "address"
        }
      ],
      "name": "enablePaymentMethod",
      "outputs": [],
      "stateMutability": "nonpayable",
      "type": "function"
    },
    {
      "inputs": [
        {
          "internalType": "address",
          "name": "",
          "type": "address"
        }
      ],
      "name": "enabledPaymentMethod",
      "outputs": [
        {
          "internalType": "bool",
          "name": "",
          "type": "bool"
        }
      ],
      "stateMutability": "view",
      "type": "function"
    },
    {
      "inputs": [
        {
          "internalType": "uint256",
          "name": "",
          "type": "uint256"
        }
      ],
      "name": "enabledPaymentMethods",
      "outputs": [
        {
          "internalType": "address",
          "name": "",
          "type": "address"
        }
      ],
      "stateMutability": "view",
      "type": "function"
    },
    {
      "inputs": [
        {
          "internalType": "uint256",
          "name": "tokenId",
          "type": "uint256"
        }
      ],
      "name": "exists",
      "outputs": [
        {
          "internalType": "bool",
          "name": "",
          "type": "bool"
        }
      ],
      "stateMutability": "view",
      "type": "function"
    },
    {
      "inputs": [],
      "name": "getEnabledPaymentMethods",
      "outputs": [
        {
          "internalType": "address[]",
          "name": "",
          "type": "address[]"
        }
      ],
      "stateMutability": "view",
      "type": "function"
    },
    {
      "inputs": [
        {
          "internalType": "uint256",
          "name": "tokenId",
          "type": "uint256"
        }
      ],
      "name": "getEncryptedData",
      "outputs": [
        {
          "components": [
            {
              "internalType": "bytes",
              "name": "iv",
              "type": "bytes"
            },
            {
              "internalType": "bytes",
              "name": "ephemPublicKey",
              "type": "bytes"
            },
            {
              "internalType": "bytes",
              "name": "ciphertext",
              "type": "bytes"
            },
            {
              "internalType": "bytes",
              "name": "mac",
              "type": "bytes"
            }
          ],
          "internalType": "struct ZKSBT.EncryptedData",
          "name": "",
          "type": "tuple"
        },
        {
          "components": [
            {
              "internalType": "bytes",
              "name": "iv",
              "type": "bytes"
            },
            {
              "internalType": "bytes",
              "name": "ephemPublicKey",
              "type": "bytes"
            },
            {
              "internalType": "bytes",
              "name": "ciphertext",
              "type": "bytes"
            },
            {
              "internalType": "bytes",
              "name": "mac",
              "type": "bytes"
            }
          ],
          "internalType": "struct ZKSBT.EncryptedData",
          "name": "",
          "type": "tuple"
        },
        {
          "components": [
            {
              "internalType": "bytes",
              "name": "iv",
              "type": "bytes"
            },
            {
              "internalType": "bytes",
              "name": "ephemPublicKey",
              "type": "bytes"
            },
            {
              "internalType": "bytes",
              "name": "ciphertext",
              "type": "bytes"
            },
            {
              "internalType": "bytes",
              "name": "mac",
              "type": "bytes"
            }
          ],
          "internalType": "struct ZKSBT.EncryptedData",
          "name": "",
          "type": "tuple"
        }
      ],
      "stateMutability": "view",
      "type": "function"
    },
    {
      "inputs": [
        {
          "internalType": "uint256",
          "name": "tokenId",
          "type": "uint256"
        }
      ],
      "name": "getIdentityId",
      "outputs": [
        {
          "internalType": "uint256",
          "name": "",
          "type": "uint256"
        }
      ],
      "stateMutability": "view",
      "type": "function"
    },
    {
      "inputs": [
        {
          "internalType": "address",
          "name": "paymentMethod",
          "type": "address"
        }
      ],
      "name": "getMintPrice",
      "outputs": [
        {
          "internalType": "uint256",
          "name": "price",
          "type": "uint256"
        }
      ],
      "stateMutability": "view",
      "type": "function"
    },
    {
      "inputs": [
        {
          "internalType": "address",
          "name": "paymentMethod",
          "type": "address"
        }
      ],
      "name": "getMintPriceWithProtocolFee",
      "outputs": [
        {
          "internalType": "uint256",
          "name": "price",
          "type": "uint256"
        },
        {
          "internalType": "uint256",
          "name": "protocolFee",
          "type": "uint256"
        }
      ],
      "stateMutability": "view",
      "type": "function"
    },
    {
      "inputs": [
        {
          "internalType": "address",
          "name": "paymentMethod",
          "type": "address"
        },
        {
          "internalType": "uint256",
          "name": "amount",
          "type": "uint256"
        }
      ],
      "name": "getProtocolFee",
      "outputs": [
        {
          "internalType": "uint256",
          "name": "",
          "type": "uint256"
        }
      ],
      "stateMutability": "view",
      "type": "function"
    },
    {
      "inputs": [
        {
          "internalType": "uint256",
          "name": "amount",
          "type": "uint256"
        }
      ],
      "name": "getProtocolFeeSub",
      "outputs": [
        {
          "internalType": "uint256",
          "name": "",
          "type": "uint256"
        }
      ],
      "stateMutability": "view",
      "type": "function"
    },
    {
      "inputs": [
        {
          "internalType": "bytes32",
          "name": "role",
          "type": "bytes32"
        }
      ],
      "name": "getRoleAdmin",
      "outputs": [
        {
          "internalType": "bytes32",
          "name": "",
          "type": "bytes32"
        }
      ],
      "stateMutability": "view",
      "type": "function"
    },
    {
      "inputs": [
        {
          "internalType": "uint256",
          "name": "tokenId",
          "type": "uint256"
        }
      ],
      "name": "getRoot",
      "outputs": [
        {
          "internalType": "bytes",
          "name": "",
          "type": "bytes"
        }
      ],
      "stateMutability": "view",
      "type": "function"
    },
    {
      "inputs": [
        {
          "internalType": "bytes32",
          "name": "role",
          "type": "bytes32"
        },
        {
          "internalType": "address",
          "name": "account",
          "type": "address"
        }
      ],
      "name": "grantRole",
      "outputs": [],
      "stateMutability": "nonpayable",
      "type": "function"
    },
    {
      "inputs": [
        {
          "internalType": "bytes32",
          "name": "role",
          "type": "bytes32"
        },
        {
          "internalType": "address",
          "name": "account",
          "type": "address"
        }
      ],
      "name": "hasRole",
      "outputs": [
        {
          "internalType": "bool",
          "name": "",
          "type": "bool"
        }
      ],
      "stateMutability": "view",
      "type": "function"
    },
    {
      "inputs": [],
      "name": "masaToken",
      "outputs": [
        {
          "internalType": "address",
          "name": "",
          "type": "address"
        }
      ],
      "stateMutability": "view",
      "type": "function"
    },
    {
      "inputs": [
        {
          "internalType": "address",
          "name": "to",
          "type": "address"
        },
        {
          "internalType": "address",
          "name": "authorityAddress",
          "type": "address"
        },
        {
          "internalType": "uint256",
          "name": "signatureDate",
          "type": "uint256"
        },
        {
          "internalType": "bytes",
          "name": "root",
          "type": "bytes"
        },
        {
          "components": [
            {
              "internalType": "bytes",
              "name": "iv",
              "type": "bytes"
            },
            {
              "internalType": "bytes",
              "name": "ephemPublicKey",
              "type": "bytes"
            },
            {
              "internalType": "bytes",
              "name": "ciphertext",
              "type": "bytes"
            },
            {
              "internalType": "bytes",
              "name": "mac",
              "type": "bytes"
            }
          ],
          "internalType": "struct ZKSBT.EncryptedData",
          "name": "encryptedCreditScore",
          "type": "tuple"
        },
        {
          "components": [
            {
              "internalType": "bytes",
              "name": "iv",
              "type": "bytes"
            },
            {
              "internalType": "bytes",
              "name": "ephemPublicKey",
              "type": "bytes"
            },
            {
              "internalType": "bytes",
              "name": "ciphertext",
              "type": "bytes"
            },
            {
              "internalType": "bytes",
              "name": "mac",
              "type": "bytes"
            }
          ],
          "internalType": "struct ZKSBT.EncryptedData",
          "name": "encryptedIncome",
          "type": "tuple"
        },
        {
          "components": [
            {
              "internalType": "bytes",
              "name": "iv",
              "type": "bytes"
            },
            {
              "internalType": "bytes",
              "name": "ephemPublicKey",
              "type": "bytes"
            },
            {
              "internalType": "bytes",
              "name": "ciphertext",
              "type": "bytes"
            },
            {
              "internalType": "bytes",
              "name": "mac",
              "type": "bytes"
            }
          ],
          "internalType": "struct ZKSBT.EncryptedData",
          "name": "encryptedReportDate",
          "type": "tuple"
        },
        {
          "internalType": "bytes",
          "name": "signature",
          "type": "bytes"
        }
      ],
      "name": "mint",
      "outputs": [
        {
          "internalType": "uint256",
          "name": "",
          "type": "uint256"
        }
      ],
      "stateMutability": "payable",
      "type": "function"
    },
    {
      "inputs": [],
      "name": "mintPrice",
      "outputs": [
        {
          "internalType": "uint256",
          "name": "",
          "type": "uint256"
        }
      ],
      "stateMutability": "view",
      "type": "function"
    },
    {
      "inputs": [],
      "name": "mintPriceMASA",
      "outputs": [
        {
          "internalType": "uint256",
          "name": "",
          "type": "uint256"
        }
      ],
      "stateMutability": "view",
      "type": "function"
    },
    {
      "inputs": [],
      "name": "name",
      "outputs": [
        {
          "internalType": "string",
          "name": "",
          "type": "string"
        }
      ],
      "stateMutability": "view",
      "type": "function"
    },
    {
      "inputs": [
        {
          "internalType": "uint256",
          "name": "tokenId",
          "type": "uint256"
        }
      ],
      "name": "ownerOf",
      "outputs": [
        {
          "internalType": "address",
          "name": "",
          "type": "address"
        }
      ],
      "stateMutability": "view",
      "type": "function"
    },
    {
      "inputs": [],
      "name": "projectFeeReceiver",
      "outputs": [
        {
          "internalType": "address",
          "name": "",
          "type": "address"
        }
      ],
      "stateMutability": "view",
      "type": "function"
    },
    {
      "inputs": [],
      "name": "protocolFeeAmount",
      "outputs": [
        {
          "internalType": "uint256",
          "name": "",
          "type": "uint256"
        }
      ],
      "stateMutability": "view",
      "type": "function"
    },
    {
      "inputs": [],
      "name": "protocolFeePercent",
      "outputs": [
        {
          "internalType": "uint256",
          "name": "",
          "type": "uint256"
        }
      ],
      "stateMutability": "view",
      "type": "function"
    },
    {
      "inputs": [],
      "name": "protocolFeePercentSub",
      "outputs": [
        {
          "internalType": "uint256",
          "name": "",
          "type": "uint256"
        }
      ],
      "stateMutability": "view",
      "type": "function"
    },
    {
      "inputs": [],
      "name": "protocolFeeReceiver",
      "outputs": [
        {
          "internalType": "address",
          "name": "",
          "type": "address"
        }
      ],
      "stateMutability": "view",
      "type": "function"
    },
    {
      "inputs": [],
      "name": "queryLinkPrice",
      "outputs": [
        {
          "internalType": "uint256",
          "name": "",
          "type": "uint256"
        }
      ],
      "stateMutability": "view",
      "type": "function"
    },
    {
      "inputs": [],
      "name": "queryLinkPriceMASA",
      "outputs": [
        {
          "internalType": "uint256",
          "name": "",
          "type": "uint256"
        }
      ],
      "stateMutability": "view",
      "type": "function"
    },
    {
      "inputs": [
        {
          "internalType": "address",
          "name": "_authority",
          "type": "address"
        }
      ],
      "name": "removeAuthority",
      "outputs": [],
      "stateMutability": "nonpayable",
      "type": "function"
    },
    {
      "inputs": [
        {
          "internalType": "bytes32",
          "name": "role",
          "type": "bytes32"
        },
        {
          "internalType": "address",
          "name": "account",
          "type": "address"
        }
      ],
      "name": "renounceRole",
      "outputs": [],
      "stateMutability": "nonpayable",
      "type": "function"
    },
    {
      "inputs": [
        {
          "internalType": "bytes32",
          "name": "role",
          "type": "bytes32"
        },
        {
          "internalType": "address",
          "name": "account",
          "type": "address"
        }
      ],
      "name": "revokeRole",
      "outputs": [],
      "stateMutability": "nonpayable",
      "type": "function"
    },
    {
      "inputs": [
        {
          "internalType": "uint256",
          "name": "",
          "type": "uint256"
        }
      ],
      "name": "sbtData",
      "outputs": [
        {
          "internalType": "bytes",
          "name": "root",
          "type": "bytes"
        },
        {
          "components": [
            {
              "internalType": "bytes",
              "name": "iv",
              "type": "bytes"
            },
            {
              "internalType": "bytes",
              "name": "ephemPublicKey",
              "type": "bytes"
            },
            {
              "internalType": "bytes",
              "name": "ciphertext",
              "type": "bytes"
            },
            {
              "internalType": "bytes",
              "name": "mac",
              "type": "bytes"
            }
          ],
          "internalType": "struct ZKSBT.EncryptedData",
          "name": "encryptedCreditScore",
          "type": "tuple"
        },
        {
          "components": [
            {
              "internalType": "bytes",
              "name": "iv",
              "type": "bytes"
            },
            {
              "internalType": "bytes",
              "name": "ephemPublicKey",
              "type": "bytes"
            },
            {
              "internalType": "bytes",
              "name": "ciphertext",
              "type": "bytes"
            },
            {
              "internalType": "bytes",
              "name": "mac",
              "type": "bytes"
            }
          ],
          "internalType": "struct ZKSBT.EncryptedData",
          "name": "encryptedIncome",
          "type": "tuple"
        },
        {
          "components": [
            {
              "internalType": "bytes",
              "name": "iv",
              "type": "bytes"
            },
            {
              "internalType": "bytes",
              "name": "ephemPublicKey",
              "type": "bytes"
            },
            {
              "internalType": "bytes",
              "name": "ciphertext",
              "type": "bytes"
            },
            {
              "internalType": "bytes",
              "name": "mac",
              "type": "bytes"
            }
          ],
          "internalType": "struct ZKSBT.EncryptedData",
          "name": "encryptedReportDate",
          "type": "tuple"
        }
      ],
      "stateMutability": "view",
      "type": "function"
    },
    {
      "inputs": [
        {
          "internalType": "uint256",
          "name": "_addLinkPrice",
          "type": "uint256"
        }
      ],
      "name": "setAddLinkPrice",
      "outputs": [],
      "stateMutability": "nonpayable",
      "type": "function"
    },
    {
      "inputs": [
        {
          "internalType": "uint256",
          "name": "_addLinkPriceMASA",
          "type": "uint256"
        }
      ],
      "name": "setAddLinkPriceMASA",
      "outputs": [],
      "stateMutability": "nonpayable",
      "type": "function"
    },
    {
      "inputs": [
        {
          "internalType": "address",
          "name": "_masaToken",
          "type": "address"
        }
      ],
      "name": "setMasaToken",
      "outputs": [],
      "stateMutability": "nonpayable",
      "type": "function"
    },
    {
      "inputs": [
        {
          "internalType": "uint256",
          "name": "_mintPrice",
          "type": "uint256"
        }
      ],
      "name": "setMintPrice",
      "outputs": [],
      "stateMutability": "nonpayable",
      "type": "function"
    },
    {
      "inputs": [
        {
          "internalType": "uint256",
          "name": "_mintPriceMASA",
          "type": "uint256"
        }
      ],
      "name": "setMintPriceMASA",
      "outputs": [],
      "stateMutability": "nonpayable",
      "type": "function"
    },
    {
      "inputs": [
        {
          "internalType": "address",
          "name": "_projectFeeReceiver",
          "type": "address"
        }
      ],
      "name": "setProjectFeeReceiver",
      "outputs": [],
      "stateMutability": "nonpayable",
      "type": "function"
    },
    {
      "inputs": [
        {
          "internalType": "uint256",
          "name": "_protocolFeeAmount",
          "type": "uint256"
        }
      ],
      "name": "setProtocolFeeAmount",
      "outputs": [],
      "stateMutability": "nonpayable",
      "type": "function"
    },
    {
      "inputs": [
        {
          "internalType": "uint256",
          "name": "_protocolFeePercent",
          "type": "uint256"
        }
      ],
      "name": "setProtocolFeePercent",
      "outputs": [],
      "stateMutability": "nonpayable",
      "type": "function"
    },
    {
      "inputs": [
        {
          "internalType": "uint256",
          "name": "_protocolFeePercentSub",
          "type": "uint256"
        }
      ],
      "name": "setProtocolFeePercentSub",
      "outputs": [],
      "stateMutability": "nonpayable",
      "type": "function"
    },
    {
      "inputs": [
        {
          "internalType": "address",
          "name": "_protocolFeeReceiver",
          "type": "address"
        }
      ],
      "name": "setProtocolFeeReceiver",
      "outputs": [],
      "stateMutability": "nonpayable",
      "type": "function"
    },
    {
      "inputs": [
        {
          "internalType": "uint256",
          "name": "_queryLinkPrice",
          "type": "uint256"
        }
      ],
      "name": "setQueryLinkPrice",
      "outputs": [],
      "stateMutability": "nonpayable",
      "type": "function"
    },
    {
      "inputs": [
        {
          "internalType": "uint256",
          "name": "_queryLinkPriceMASA",
          "type": "uint256"
        }
      ],
      "name": "setQueryLinkPriceMASA",
      "outputs": [],
      "stateMutability": "nonpayable",
      "type": "function"
    },
    {
      "inputs": [
        {
          "internalType": "address",
          "name": "_soulboundIdentity",
          "type": "address"
        }
      ],
      "name": "setSoulboundIdentity",
      "outputs": [],
      "stateMutability": "nonpayable",
      "type": "function"
    },
    {
      "inputs": [
        {
          "internalType": "address",
          "name": "_stableCoin",
          "type": "address"
        }
      ],
      "name": "setStableCoin",
      "outputs": [],
      "stateMutability": "nonpayable",
      "type": "function"
    },
    {
      "inputs": [
        {
          "internalType": "address",
          "name": "_swapRouter",
          "type": "address"
        }
      ],
      "name": "setSwapRouter",
      "outputs": [],
      "stateMutability": "nonpayable",
      "type": "function"
    },
    {
      "inputs": [
        {
          "internalType": "address",
          "name": "_wrappedNativeToken",
          "type": "address"
        }
      ],
      "name": "setWrappedNativeToken",
      "outputs": [],
      "stateMutability": "nonpayable",
      "type": "function"
    },
    {
      "inputs": [],
      "name": "soulboundIdentity",
      "outputs": [
        {
          "internalType": "contract ISoulboundIdentity",
          "name": "",
          "type": "address"
        }
      ],
      "stateMutability": "view",
      "type": "function"
    },
    {
      "inputs": [],
      "name": "stableCoin",
      "outputs": [
        {
          "internalType": "address",
          "name": "",
          "type": "address"
        }
      ],
      "stateMutability": "view",
      "type": "function"
    },
    {
      "inputs": [
        {
          "internalType": "bytes4",
          "name": "interfaceId",
          "type": "bytes4"
        }
      ],
      "name": "supportsInterface",
      "outputs": [
        {
          "internalType": "bool",
          "name": "",
          "type": "bool"
        }
      ],
      "stateMutability": "view",
      "type": "function"
    },
    {
      "inputs": [],
      "name": "swapRouter",
      "outputs": [
        {
          "internalType": "address",
          "name": "",
          "type": "address"
        }
      ],
      "stateMutability": "view",
      "type": "function"
    },
    {
      "inputs": [],
      "name": "symbol",
      "outputs": [
        {
          "internalType": "string",
          "name": "",
          "type": "string"
        }
      ],
      "stateMutability": "view",
      "type": "function"
    },
    {
      "inputs": [
        {
          "internalType": "uint256",
          "name": "index",
          "type": "uint256"
        }
      ],
      "name": "tokenByIndex",
      "outputs": [
        {
          "internalType": "uint256",
          "name": "",
          "type": "uint256"
        }
      ],
      "stateMutability": "view",
      "type": "function"
    },
    {
      "inputs": [
        {
          "internalType": "address",
          "name": "owner",
          "type": "address"
        },
        {
          "internalType": "uint256",
          "name": "index",
          "type": "uint256"
        }
      ],
      "name": "tokenOfOwnerByIndex",
      "outputs": [
        {
          "internalType": "uint256",
          "name": "",
          "type": "uint256"
        }
      ],
      "stateMutability": "view",
      "type": "function"
    },
    {
      "inputs": [
        {
          "internalType": "uint256",
          "name": "tokenId",
          "type": "uint256"
        }
      ],
      "name": "tokenURI",
      "outputs": [
        {
          "internalType": "string",
          "name": "",
          "type": "string"
        }
      ],
      "stateMutability": "view",
      "type": "function"
    },
    {
      "inputs": [],
      "name": "totalSupply",
      "outputs": [
        {
          "internalType": "uint256",
          "name": "",
          "type": "uint256"
        }
      ],
      "stateMutability": "view",
      "type": "function"
    },
    {
      "inputs": [],
      "name": "wrappedNativeToken",
      "outputs": [
        {
          "internalType": "address",
          "name": "",
          "type": "address"
        }
      ],
      "stateMutability": "view",
      "type": "function"
    }
  ],
  "transactionHash": "0xf0eab301bd12a9d6a84b3460dd397ab4ec755e3a88dfc27a8334149af9160f91",
  "args": [
    "0xA38dd237a3A8D50537B74a4B0D4E7E8A5359386F",
    "ZKP SBT",
    "ZKSBT",
    "https://testserver/v1.0",
    "0x0000000000000000000000000000000000000000",
    [
      "0x7a250d5630B4cF539739dF2C5dAcb4c659F2488D",
      "0xB4FBF271143F4FBf7B91A5ded31805e42b2208d6",
      "0xD87Ba7A50B2E7E660f678A895E4B72E7CB4CCd9C",
      "0x1f9840a85d5aF5bf1D1762F925BDADdC4201F984",
      "0x46c9cdA3F83C5c13C767A07b6E80aEd302E40B28",
      "0x0000000000000000000000000000000000000000",
      0,
      0,
      0
    ]
  ],
  "numDeployments": 1,
  "solcInputHash": "3d7fd040eb78a688dbe5eca7e5bc5282",
  "bytecode": "0x6101606040523480156200001257600080fd5b50604051620064f1380380620064f1833981016040819052620000359162000718565b858585858585604051806040016040528060128152602001712d25a9a12a29b2b63329b7bb32b932b4b3b760711b815250604051806040016040528060058152602001640312e302e360dc1b81525087878787878784848783620000a36000801b836200024860201b60201c565b8051600180546001600160a01b03199081166001600160a01b039384161790915560208084015160028054841691851691909117905560408401516003805484169185169190911790556060840151600480548416918516919091179055608084015160078054841691851691909117905560a084015160088054909316931692909217905560c082015160095560e0820151600a5561010090910151600b558351620001579250600c91850190620003e8565b5080516200016d90600d906020840190620003e8565b506200017f9150600090508762000248565b825162000194906014906020860190620003e8565b5081601560006101000a8154816001600160a01b0302191690836001600160a01b03160217905550505050505050620001dd601c83620002e960201b62002dd51790919060201c565b61012052620001fa81601d620002e9602090811b62002dd517901c565b61014052815160208084019190912060e052815190820120610100524660a052620002246200033d565b6080525050503060601b60c052505060016021555062000957975050505050505050565b6000828152602081815260408083206001600160a01b038516845290915290205460ff16620002e5576000828152602081815260408083206001600160a01b03851684529091529020805460ff19166001179055620002a43390565b6001600160a01b0316816001600160a01b0316837f2f8788117e7eff1d82e926ec794901d17c78024a50270940304540a733656f0d60405160405180910390a45b5050565b60006020835110156200030957620003018362000399565b905062000337565b826200032083620003e560201b62002e0c1760201c565b8151620003319260200190620003e8565b5060ff90505b92915050565b60e051610100516040516000926200037e927f8b73c3c69bb8fe3d512ecc4cf759cc79239f7b179b0ffacaa9a75d522b39400f924690309060200162000818565b60405160208183030381529060405280519060200120905090565b600080829050601f81511115620003d0578260405163305a27a960e01b8152600401620003c79190620008a7565b60405180910390fd5b8051620003dd82620008cc565b179392505050565b90565b828054620003f69062000926565b90600052602060002090601f0160209004810192826200041a576000855562000465565b82601f106200043557805160ff191683800117855562000465565b8280016001018555821562000465579182015b828111156200046557825182559160200191906001019062000448565b506200047392915062000477565b5090565b5b8082111562000473576000815560010162000478565b60006001600160a01b03821662000337565b620004ab816200048e565b8114620004b757600080fd5b50565b80516200033781620004a0565b601f01601f191690565b634e487b7160e01b600052604160045260246000fd5b620004f282620004c7565b81018181106001600160401b0382111715620005125762000512620004d1565b6040525050565b60006200052560405190565b9050620005338282620004e7565b919050565b60006001600160401b03821115620005545762000554620004d1565b6200055f82620004c7565b60200192915050565b60005b83811015620005855781810151838201526020016200056b565b8381111562000595576000848401525b50505050565b6000620005b2620005ac8462000538565b62000519565b905082815260208101848484011115620005cf57620005cf600080fd5b620005dc84828562000568565b509392505050565b600082601f830112620005fa57620005fa600080fd5b81516200060c8482602086016200059b565b949350505050565b80620004ab565b8051620003378162000614565b60006101208284031215620006405762000640600080fd5b6200064d61012062000519565b905060006200065d8484620004ba565b82525060206200067084848301620004ba565b60208301525060406200068684828501620004ba565b60408301525060606200069c84828501620004ba565b6060830152506080620006b284828501620004ba565b60808301525060a0620006c884828501620004ba565b60a08301525060c0620006de848285016200061b565b60c08301525060e0620006f4848285016200061b565b60e0830152506101006200070b848285016200061b565b6101008301525092915050565b6000806000806000806101c08789031215620007375762000737600080fd5b6000620007458989620004ba565b96505060208701516001600160401b03811115620007665762000766600080fd5b6200077489828a01620005e4565b95505060408701516001600160401b03811115620007955762000795600080fd5b620007a389828a01620005e4565b94505060608701516001600160401b03811115620007c457620007c4600080fd5b620007d289828a01620005e4565b9350506080620007e589828a01620004ba565b92505060a0620007f889828a0162000628565b9150509295509295509295565b805b82525050565b62000807816200048e565b60a0810162000828828862000805565b62000837602083018762000805565b62000846604083018662000805565b62000855606083018562000805565b6200086460808301846200080d565b9695505050505050565b600062000879825190565b8084526020840193506200089281856020860162000568565b6200089d81620004c7565b9093019392505050565b60208082528101620008ba81846200086e565b9392505050565b600062000337825190565b6000620008d7825190565b60208301620008e681620008c1565b92506020821015620009095762000904600019836020036008021b90565b831692505b5050919050565b634e487b7160e01b600052602260045260246000fd5b6002810460018216806200093b57607f821691505b6020821081141562000951576200095162000910565b50919050565b60805160a05160c05160601c60e051610100516101205161014051615b3c620009b560003960006126560152600061262b015260006145250152600061450401526000614092015260006140bc015260006140e60152615b3c6000f3fe6080604052600436106102fe5760003560e01c8062bdfde51461030357806301ffc9a7146103255780630513c3e91461035b57806306fdde031461038857806310200519146103aa578063126ed01c146103cc57806313150b48146103f9578063135f470c1461040f57806317fcb39b1461042557806318160ddd146104455780631830e8811461045a5780631f37c12414610470578063217a2c7b1461048657806323af4e17146104a6578063248a9ca3146104c657806326defa73146104e6578063289c686b146105065780632f2ff15d146105265780632f745c591461054657806336568abe1461056657806339a51be5146105865780633ad3033e146105a65780633c72ae70146105c65780633ec0b0bc146105e6578063412736571461061557806341c04d5e1461063557806342966c681461065757806345eeefec1461067757806346877b1a1461068a5780634962a158146106aa5780634f558e79146106ca5780634f6ccce7146106ea5780636352211e1461070a5780636817c76c1461072a5780636bfd499f1461074057806370a0823114610760578063719d0f2b1461078057806376ad1997146107a0578063776d1a54146107c0578063776fafac146107d657806377bed5ed146108065780637a0d1646146108335780637db8cb681461086357806384b0196e146108835780638d018461146108ab5780638ec9c93b146108cb57806391223d69146108e157806391d148541461091157806394a665e91461093157806395d89b4114610951578063992642e51461096657806399b589cb146109865780639b24b3b0146109a6578063a217fddf146109c6578063a4983421146109db578063b97d6b23146109fb578063c1177d1914610a11578063c31c9c0714610a31578063c86aadb614610a51578063c87b56dd14610a71578063d544e01014610a91578063d547741f14610ab1578063d6e6eb9f14610ad1578063da058ae314610ae7578063eb93e85514610b07578063ebda439614610b35578063f4a0a52814610b55578063fd48ac8314610b75575b600080fd5b34801561030f57600080fd5b5061032361031e366004614976565b610b95565b005b34801561033157600080fd5b506103456103403660046149b2565b610bc9565b60405161035291906149dd565b60405180910390f35b34801561036757600080fd5b5061037b610376366004614976565b610bda565b6040516103529190614a0b565b34801561039457600080fd5b5061039d610c04565b6040516103529190614a83565b3480156103b657600080fd5b506103bf610c96565b6040516103529190614af1565b3480156103d857600080fd5b506103ec6103e7366004614976565b610cf7565b6040516103529190614b08565b34801561040557600080fd5b506103ec601b5481565b34801561041b57600080fd5b506103ec600b5481565b34801561043157600080fd5b5060025461037b906001600160a01b031681565b34801561045157600080fd5b506012546103ec565b34801561046657600080fd5b506103ec60175481565b34801561047c57600080fd5b506103ec60185481565b34801561049257600080fd5b506103ec6104a1366004614b2a565b610d02565b3480156104b257600080fd5b506103236104c1366004614b67565b610d15565b3480156104d257600080fd5b506103ec6104e1366004614976565b610d72565b3480156104f257600080fd5b50610323610501366004614b67565b610d87565b34801561051257600080fd5b50610323610521366004614976565b610e57565b34801561053257600080fd5b50610323610541366004614b88565b610eca565b34801561055257600080fd5b506103ec610561366004614b2a565b610eeb565b34801561057257600080fd5b50610323610581366004614b88565b610f46565b34801561059257600080fd5b5060085461037b906001600160a01b031681565b3480156105b257600080fd5b506103236105c1366004614b67565b610f7c565b3480156105d257600080fd5b506103236105e1366004614976565b610fd9565b3480156105f257600080fd5b50610606610601366004614976565b61104c565b60405161035293929190614c2a565b34801561062157600080fd5b50610323610630366004614b67565b61178f565b34801561064157600080fd5b506103ec600080516020615ae783398151915281565b34801561066357600080fd5b50610323610672366004614976565b6117ec565b6103ec610685366004614cc8565b61181e565b34801561069657600080fd5b506103236106a5366004614b67565b611ad2565b3480156106b657600080fd5b506103236106c5366004614976565b611b2f565b3480156106d657600080fd5b506103456106e5366004614976565b611ba2565b3480156106f657600080fd5b506103ec610705366004614976565b611bad565b34801561071657600080fd5b5061037b610725366004614976565b611bfb565b34801561073657600080fd5b506103ec60165481565b34801561074c57600080fd5b5061032361075b366004614976565b611c30565b34801561076c57600080fd5b506103ec61077b366004614b67565b611c64565b34801561078c57600080fd5b506103ec61079b366004614b67565b611ca8565b3480156107ac57600080fd5b506103236107bb366004614b67565b611da8565b3480156107cc57600080fd5b506103ec60195481565b3480156107e257600080fd5b506107f66107f1366004614976565b611e05565b6040516103529493929190614e06565b34801561081257600080fd5b50601554610826906001600160a01b031681565b6040516103529190614e88565b34801561083f57600080fd5b5061034561084e366004614b67565b60056020526000908152604090205460ff1681565b34801561086f57600080fd5b5061032361087e366004614976565b6125aa565b34801561088f57600080fd5b5061089861261d565b6040516103529796959493929190614ef0565b3480156108b757600080fd5b506103236108c6366004614b67565b6126a6565b3480156108d757600080fd5b506103ec60095481565b3480156108ed57600080fd5b506103456108fc366004614b67565b601f6020526000908152604090205460ff1681565b34801561091d57600080fd5b5061034561092c366004614b88565b612742565b34801561093d57600080fd5b5061032361094c366004614b67565b61276b565b34801561095d57600080fd5b5061039d6128d8565b34801561097257600080fd5b5060035461037b906001600160a01b031681565b34801561099257600080fd5b5060075461037b906001600160a01b031681565b3480156109b257600080fd5b5061039d6109c1366004614976565b6128e7565b3480156109d257600080fd5b506103ec600081565b3480156109e757600080fd5b506103236109f6366004614976565b612988565b348015610a0757600080fd5b506103ec601a5481565b348015610a1d57600080fd5b506103ec610a2c366004614976565b6129bc565b348015610a3d57600080fd5b5060015461037b906001600160a01b031681565b348015610a5d57600080fd5b50610323610a6c366004614b67565b612a74565b348015610a7d57600080fd5b5061039d610a8c366004614976565b612b20565b348015610a9d57600080fd5b50610323610aac366004614b67565b612b86565b348015610abd57600080fd5b50610323610acc366004614b88565b612c54565b348015610add57600080fd5b506103ec600a5481565b348015610af357600080fd5b50610323610b02366004614b67565b612c70565b348015610b1357600080fd5b50610b27610b22366004614b67565b612ccd565b604051610352929190614f6c565b348015610b4157600080fd5b5060045461037b906001600160a01b031681565b348015610b6157600080fd5b50610323610b70366004614976565b612cef565b348015610b8157600080fd5b50610323610b90366004614976565b612d62565b6000610ba081612e0f565b600954821415610bc35760405163c23f6ccb60e01b815260040160405180910390fd5b50600955565b6000610bd482612e19565b92915050565b60068181548110610bea57600080fd5b6000918252602090912001546001600160a01b0316905081565b6060600c8054610c1390614f9d565b80601f0160208091040260200160405190810160405280929190818152602001828054610c3f90614f9d565b8015610c8c5780601f10610c6157610100808354040283529160200191610c8c565b820191906000526020600020905b815481529060010190602001808311610c6f57829003601f168201915b5050505050905090565b60606006805480602002602001604051908101604052809291908181526020018280548015610c8c57602002820191906000526020600020905b81546001600160a01b03168152600190910190602001808311610cd0575050505050905090565b6000610bd482612e3e565b6000610d0e8383612e71565b9392505050565b6000610d2081612e0f565b6003546001600160a01b0383811691161415610d4f5760405163c23f6ccb60e01b815260040160405180910390fd5b50600380546001600160a01b0319166001600160a01b0392909216919091179055565b60009081526020819052604090206001015490565b610d92600033612742565b158015610db45750610db2600080516020615ae783398151915233612742565b155b15610dd2576040516326f0f48160e01b815260040160405180910390fd5b6001600160a01b038116610df95760405163d92e233d60e01b815260040160405180910390fd5b6001600160a01b0381166000908152601f602052604090205460ff1615610e335760405163f411c32760e01b815260040160405180910390fd5b6001600160a01b03166000908152601f60205260409020805460ff19166001179055565b610e62600033612742565b158015610e845750610e82600080516020615ae783398151915233612742565b155b15610ea2576040516326f0f48160e01b815260040160405180910390fd5b806018541415610ec55760405163c23f6ccb60e01b815260040160405180910390fd5b601855565b610ed382610d72565b610edc81612e0f565b610ee68383612ee0565b505050565b6000610ef683611c64565b8210610f1d5760405162461bcd60e51b8152600401610f149061500c565b60405180910390fd5b506001600160a01b03919091166000908152601060209081526040808320938352929052205490565b6001600160a01b0381163314610f6e5760405162461bcd60e51b8152600401610f1490615068565b610f788282612f64565b5050565b6000610f8781612e0f565b6015546001600160a01b0383811691161415610fb65760405163c23f6ccb60e01b815260040160405180910390fd5b50601580546001600160a01b0319166001600160a01b0392909216919091179055565b610fe4600033612742565b1580156110065750611004600080516020615ae783398151915233612742565b155b15611024576040516326f0f48160e01b815260040160405180910390fd5b8060195414156110475760405163c23f6ccb60e01b815260040160405180910390fd5b601955565b61105461489d565b61105c61489d565b61106461489d565b600084815260208052604090819020815160808101909252600181018054909260058301926009019184908290829061109c90614f9d565b80601f01602080910402602001604051908101604052809291908181526020018280546110c890614f9d565b80156111155780601f106110ea57610100808354040283529160200191611115565b820191906000526020600020905b8154815290600101906020018083116110f857829003601f168201915b5050505050815260200160018201805461112e90614f9d565b80601f016020809104026020016040519081016040528092919081815260200182805461115a90614f9d565b80156111a75780601f1061117c576101008083540402835291602001916111a7565b820191906000526020600020905b81548152906001019060200180831161118a57829003601f168201915b505050505081526020016002820180546111c090614f9d565b80601f01602080910402602001604051908101604052809291908181526020018280546111ec90614f9d565b80156112395780601f1061120e57610100808354040283529160200191611239565b820191906000526020600020905b81548152906001019060200180831161121c57829003601f168201915b5050505050815260200160038201805461125290614f9d565b80601f016020809104026020016040519081016040528092919081815260200182805461127e90614f9d565b80156112cb5780601f106112a0576101008083540402835291602001916112cb565b820191906000526020600020905b8154815290600101906020018083116112ae57829003601f168201915b5050505050815250509250816040518060800160405290816000820180546112f290614f9d565b80601f016020809104026020016040519081016040528092919081815260200182805461131e90614f9d565b801561136b5780601f106113405761010080835404028352916020019161136b565b820191906000526020600020905b81548152906001019060200180831161134e57829003601f168201915b5050505050815260200160018201805461138490614f9d565b80601f01602080910402602001604051908101604052809291908181526020018280546113b090614f9d565b80156113fd5780601f106113d2576101008083540402835291602001916113fd565b820191906000526020600020905b8154815290600101906020018083116113e057829003601f168201915b5050505050815260200160028201805461141690614f9d565b80601f016020809104026020016040519081016040528092919081815260200182805461144290614f9d565b801561148f5780601f106114645761010080835404028352916020019161148f565b820191906000526020600020905b81548152906001019060200180831161147257829003601f168201915b505050505081526020016003820180546114a890614f9d565b80601f01602080910402602001604051908101604052809291908181526020018280546114d490614f9d565b80156115215780601f106114f657610100808354040283529160200191611521565b820191906000526020600020905b81548152906001019060200180831161150457829003601f168201915b50505050508152505091508060405180608001604052908160008201805461154890614f9d565b80601f016020809104026020016040519081016040528092919081815260200182805461157490614f9d565b80156115c15780601f10611596576101008083540402835291602001916115c1565b820191906000526020600020905b8154815290600101906020018083116115a457829003601f168201915b505050505081526020016001820180546115da90614f9d565b80601f016020809104026020016040519081016040528092919081815260200182805461160690614f9d565b80156116535780601f1061162857610100808354040283529160200191611653565b820191906000526020600020905b81548152906001019060200180831161163657829003601f168201915b5050505050815260200160028201805461166c90614f9d565b80601f016020809104026020016040519081016040528092919081815260200182805461169890614f9d565b80156116e55780601f106116ba576101008083540402835291602001916116e5565b820191906000526020600020905b8154815290600101906020018083116116c857829003601f168201915b505050505081526020016003820180546116fe90614f9d565b80601f016020809104026020016040519081016040528092919081815260200182805461172a90614f9d565b80156117775780601f1061174c57610100808354040283529160200191611777565b820191906000526020600020905b81548152906001019060200180831161175a57829003601f168201915b50505050508152505090509250925092509193909250565b600061179a81612e0f565b6001546001600160a01b03838116911614156117c95760405163c23f6ccb60e01b815260040160405180910390fd5b50600180546001600160a01b0319166001600160a01b0392909216919091179055565b6117f63382612fc9565b6118125760405162461bcd60e51b8152600401610f14906150af565b61181b81612fec565b50565b60006001600160a01b038b16331461184b573360405163060296c760e31b8152600401610f149190614a0b565b60006118848c8c8c8c8c61186260408e018e6150bf565b61186f60408f018f6150bf565b8e806040019061187f91906150bf565b613086565b9050600061189760008e848f898961314e565b6040805160a06020601f8e018190040282018101909252608081018c81529293509182918d908d90819085018382808284376000920191909152505050908252506020016118e48a6152e4565b81526020016118f2896152e4565b8152602001611900886152e4565b9052600082815260208080526040909120825180519192611926928492909101906148c5565b50602082810151805180519192600185019261194592849201906148c5565b50602082810151805161195e92600185019201906148c5565b506040820151805161197a9160028401916020909101906148c5565b50606082015180516119969160038401916020909101906148c5565b50505060408201518051805160058401916119b6918391602001906148c5565b5060208281015180516119cf92600185019201906148c5565b50604082015180516119eb9160028401916020909101906148c5565b5060608201518051611a079160038401916020909101906148c5565b5050506060820151805180516009840191611a27918391602001906148c5565b506020828101518051611a4092600185019201906148c5565b5060408201518051611a5c9160028401916020909101906148c5565b5060608201518051611a789160038401916020909101906148c5565b5050509050507fc90403d5f004ffdbf65d5821160d02ec2aca1434bf532f015ae34177b0b36f37818e8e8e6000601654604051611aba969594939291906152f0565b60405180910390a19c9b505050505050505050505050565b6000611add81612e0f565b6008546001600160a01b0383811691161415611b0c5760405163c23f6ccb60e01b815260040160405180910390fd5b50600880546001600160a01b0319166001600160a01b0392909216919091179055565b611b3a600033612742565b158015611b5c5750611b5a600080516020615ae783398151915233612742565b155b15611b7a576040516326f0f48160e01b815260040160405180910390fd5b806017541415611b9d5760405163c23f6ccb60e01b815260040160405180910390fd5b601755565b6000610bd4826131e1565b6000611bb860125490565b8210611bd65760405162461bcd60e51b8152600401610f1490615385565b60128281548110611be957611be9615395565b90600052602060002001549050919050565b6000818152600e60205260408120546001600160a01b031680610bd45760405162461bcd60e51b8152600401610f14906153d7565b6000611c3b81612e0f565b600b54821415611c5e5760405163c23f6ccb60e01b815260040160405180910390fd5b50600b55565b60006001600160a01b038216611c8c5760405162461bcd60e51b8152600401610f149061542a565b506001600160a01b03166000908152600f602052604090205490565b60006016546000148015611cbc5750601754155b15611cc957506000919050565b6004546001600160a01b038381169116148015611cfe57506001600160a01b03821660009081526005602052604090205460ff165b8015611d0c57506000601754115b15611d1957505060175490565b6003546001600160a01b038381169116148015611d4e57506001600160a01b03821660009081526005602052604090205460ff165b15611d5b57505060165490565b6001600160a01b03821660009081526005602052604090205460ff1615611d8857610bd4826016546131fe565b81604051630ac29ab760e31b8152600401610f149190614a0b565b919050565b6000611db381612e0f565b6004546001600160a01b0383811691161415611de25760405163c23f6ccb60e01b815260040160405180910390fd5b50600480546001600160a01b0319166001600160a01b0392909216919091179055565b6020805260009081526040902080548190611e1f90614f9d565b80601f0160208091040260200160405190810160405280929190818152602001828054611e4b90614f9d565b8015611e985780601f10611e6d57610100808354040283529160200191611e98565b820191906000526020600020905b815481529060010190602001808311611e7b57829003601f168201915b50505050509080600101604051806080016040529081600082018054611ebd90614f9d565b80601f0160208091040260200160405190810160405280929190818152602001828054611ee990614f9d565b8015611f365780601f10611f0b57610100808354040283529160200191611f36565b820191906000526020600020905b815481529060010190602001808311611f1957829003601f168201915b50505050508152602001600182018054611f4f90614f9d565b80601f0160208091040260200160405190810160405280929190818152602001828054611f7b90614f9d565b8015611fc85780601f10611f9d57610100808354040283529160200191611fc8565b820191906000526020600020905b815481529060010190602001808311611fab57829003601f168201915b50505050508152602001600282018054611fe190614f9d565b80601f016020809104026020016040519081016040528092919081815260200182805461200d90614f9d565b801561205a5780601f1061202f5761010080835404028352916020019161205a565b820191906000526020600020905b81548152906001019060200180831161203d57829003601f168201915b5050505050815260200160038201805461207390614f9d565b80601f016020809104026020016040519081016040528092919081815260200182805461209f90614f9d565b80156120ec5780601f106120c1576101008083540402835291602001916120ec565b820191906000526020600020905b8154815290600101906020018083116120cf57829003601f168201915b505050505081525050908060050160405180608001604052908160008201805461211590614f9d565b80601f016020809104026020016040519081016040528092919081815260200182805461214190614f9d565b801561218e5780601f106121635761010080835404028352916020019161218e565b820191906000526020600020905b81548152906001019060200180831161217157829003601f168201915b505050505081526020016001820180546121a790614f9d565b80601f01602080910402602001604051908101604052809291908181526020018280546121d390614f9d565b80156122205780601f106121f557610100808354040283529160200191612220565b820191906000526020600020905b81548152906001019060200180831161220357829003601f168201915b5050505050815260200160028201805461223990614f9d565b80601f016020809104026020016040519081016040528092919081815260200182805461226590614f9d565b80156122b25780601f10612287576101008083540402835291602001916122b2565b820191906000526020600020905b81548152906001019060200180831161229557829003601f168201915b505050505081526020016003820180546122cb90614f9d565b80601f01602080910402602001604051908101604052809291908181526020018280546122f790614f9d565b80156123445780601f1061231957610100808354040283529160200191612344565b820191906000526020600020905b81548152906001019060200180831161232757829003601f168201915b505050505081525050908060090160405180608001604052908160008201805461236d90614f9d565b80601f016020809104026020016040519081016040528092919081815260200182805461239990614f9d565b80156123e65780601f106123bb576101008083540402835291602001916123e6565b820191906000526020600020905b8154815290600101906020018083116123c957829003601f168201915b505050505081526020016001820180546123ff90614f9d565b80601f016020809104026020016040519081016040528092919081815260200182805461242b90614f9d565b80156124785780601f1061244d57610100808354040283529160200191612478565b820191906000526020600020905b81548152906001019060200180831161245b57829003601f168201915b5050505050815260200160028201805461249190614f9d565b80601f01602080910402602001604051908101604052809291908181526020018280546124bd90614f9d565b801561250a5780601f106124df5761010080835404028352916020019161250a565b820191906000526020600020905b8154815290600101906020018083116124ed57829003601f168201915b5050505050815260200160038201805461252390614f9d565b80601f016020809104026020016040519081016040528092919081815260200182805461254f90614f9d565b801561259c5780601f106125715761010080835404028352916020019161259c565b820191906000526020600020905b81548152906001019060200180831161257f57829003601f168201915b505050505081525050905084565b6125b5600033612742565b1580156125d757506125d5600080516020615ae783398151915233612742565b155b156125f5576040516326f0f48160e01b815260040160405180910390fd5b80601b5414156126185760405163c23f6ccb60e01b815260040160405180910390fd5b601b55565b6000606080828080836126517f0000000000000000000000000000000000000000000000000000000000000000601c613391565b61267c7f0000000000000000000000000000000000000000000000000000000000000000601d613391565b60408051600080825260208201909252600f60f81b9b939a50919850469750309650945092509050565b6126b1600033612742565b1580156126d357506126d1600080516020615ae783398151915233612742565b155b156126f1576040516326f0f48160e01b815260040160405180910390fd5b6007546001600160a01b03828116911614156127205760405163c23f6ccb60e01b815260040160405180910390fd5b600780546001600160a01b0319166001600160a01b0392909216919091179055565b6000918252602082815260408084206001600160a01b0393909316845291905290205460ff1690565b600061277681612e0f565b6001600160a01b03821660009081526005602052604090205460ff166127b157816040516318317bd560e01b8152600401610f149190614a0b565b6001600160a01b0382166000908152600560205260408120805460ff191690555b600654811015610ee657826001600160a01b0316600682815481106127f9576127f9615395565b6000918252602090912001546001600160a01b031614156128c6576006805461282490600190615450565b8154811061283457612834615395565b600091825260209091200154600680546001600160a01b03909216918390811061286057612860615395565b9060005260206000200160006101000a8154816001600160a01b0302191690836001600160a01b03160217905550600680548061289f5761289f615467565b600082815260209020810160001990810180546001600160a01b0319169055019055505050565b806128d08161547d565b9150506127d2565b6060600d8054610c1390614f9d565b6000818152602080526040902080546060919061290390614f9d565b80601f016020809104026020016040519081016040528092919081815260200182805461292f90614f9d565b801561297c5780601f106129515761010080835404028352916020019161297c565b820191906000526020600020905b81548152906001019060200180831161295f57829003601f168201915b50505050509050919050565b600061299381612e0f565b600a548214156129b65760405163c23f6ccb60e01b815260040160405180910390fd5b50600a55565b6015546000906001600160a01b03166129e857604051630d7fe67b60e41b815260040160405180910390fd5b60006129f383611bfb565b60155460405163294cdf0d60e01b81529192506001600160a01b03169063294cdf0d90612a24908490600401614a0b565b60206040518083038186803b158015612a3c57600080fd5b505afa158015612a50573d6000803e3d6000fd5b505050506040513d601f19601f82011682018060405250810190610d0e91906154a3565b6000612a7f81612e0f565b6001600160a01b03821660009081526005602052604090205460ff1615612ab95760405163f411c32760e01b815260040160405180910390fd5b506001600160a01b03166000818152600560205260408120805460ff191660019081179091556006805491820181559091527ff652222313e28459528d920b65115c16c04f3efc82aaedc97be59f3f377c0d3f0180546001600160a01b0319169091179055565b6060612b2b82613435565b6000612b3561345a565b90506000815111612b555760405180602001604052806000815250610d0e565b80612b5f84613469565b604051602001612b709291906154e6565b6040516020818303038152906040529392505050565b612b91600033612742565b158015612bb35750612bb1600080516020615ae783398151915233612742565b155b15612bd1576040516326f0f48160e01b815260040160405180910390fd5b6001600160a01b038116612bf85760405163d92e233d60e01b815260040160405180910390fd5b6001600160a01b0381166000908152601f602052604090205460ff16612c3357806040516324b1f80560e21b8152600401610f149190614a0b565b6001600160a01b03166000908152601f60205260409020805460ff19169055565b612c5d82610d72565b612c6681612e0f565b610ee68383612f64565b6000612c7b81612e0f565b6002546001600160a01b0383811691161415612caa5760405163c23f6ccb60e01b815260040160405180910390fd5b50600280546001600160a01b0319166001600160a01b0392909216919091179055565b600080612cd983611ca8565b915081612ce68484612e71565b91509150915091565b612cfa600033612742565b158015612d1c5750612d1a600080516020615ae783398151915233612742565b155b15612d3a576040516326f0f48160e01b815260040160405180910390fd5b806016541415612d5d5760405163c23f6ccb60e01b815260040160405180910390fd5b601655565b612d6d600033612742565b158015612d8f5750612d8d600080516020615ae783398151915233612742565b155b15612dad576040516326f0f48160e01b815260040160405180910390fd5b80601a541415612dd05760405163c23f6ccb60e01b815260040160405180910390fd5b601a55565b6000602083511015612df157612dea83613505565b9050610bd4565b82828151612e0292602001906148c5565b5060ff9050610bd4565b90565b61181b8133613543565b60006001600160e01b0319821663780e9d6360e01b1480610bd45750610bd48261359c565b600b5460009015612e6957610bd46064612e63600b54856135dc90919063ffffffff16565b906135e8565b506000919050565b600954600090819015612eac576003546001600160a01b0385811691161415612e9d5750600954612eac565b612ea9846009546131fe565b90505b600a5415610d0e57612ed8612ed16064612e63600a54876135dc90919063ffffffff16565b82906135f4565b949350505050565b612eea8282612742565b610f78576000828152602081815260408083206001600160a01b03851684529091529020805460ff19166001179055612f203390565b6001600160a01b0316816001600160a01b0316837f2f8788117e7eff1d82e926ec794901d17c78024a50270940304540a733656f0d60405160405180910390a45050565b612f6e8282612742565b15610f78576000828152602081815260408083206001600160a01b0385168085529252808320805460ff1916905551339285917ff6391f5c32d9c69d2a47ea670b442974b53935d1edc7fd64eb21e047a839171b9190a45050565b600080612fd583611bfb565b6001600160a01b0385811691161491505092915050565b6000612ff782611bfb565b905061300581600084613600565b6001600160a01b0381166000908152600f6020526040812080546001929061302e908490615450565b90915550506000828152600e602052604080822080546001600160a01b03191690555183916001600160a01b038416917fcc16f5dbb4873280815c1ee09dbd06736cffcc184412cf7a71a0fdb75d397ca59190a35050565b600061313e7f2ea84b66306c06d18588a09ce7f1dbcee6c4567b27904af16457a4c7869ab43e8d8d8d8d8d6040516130bf929190615527565b60405180910390208c8c6040516130d7929190615527565b60405180910390208b8b6040516130ef929190615527565b60405180910390208a8a604051613107929190615527565b6040519081900381206131239897969594939291602001615534565b6040516020818303038152906040528051906020012061360b565b9c9b505050505050505050505050565b60006131928584848080601f016020809104026020016040519081016040528093929190818152602001838380828437600092019190915250899250613638915050565b60008061319e89612ccd565b915091506131ad8983836136b9565b60006131b8601e5490565b90506131c8601e80546001019055565b6131d28982613b6c565b925050505b9695505050505050565b6000908152600e60205260409020546001600160a01b0316151590565b60008160008111801561321a57506001546001600160a01b0316155b156132385760405163fca2174f60e01b815260040160405180910390fd5b60008111801561325157506002546001600160a01b0316155b1561326f5760405163fca2174f60e01b815260040160405180910390fd5b60008111801561328857506003546001600160a01b0316155b156132a65760405163fca2174f60e01b815260040160405180910390fd5b6000811180156132bf57506007546001600160a01b0316155b156132dd5760405163fca2174f60e01b815260040160405180910390fd5b6001600160a01b03841660009081526005602052604090205460ff16158061331257506003546001600160a01b038581169116145b15613332578360405163961c9a4f60e01b8152600401610f149190614a0b565b82613340576000915061338a565b6001600160a01b0384166133725760025460035461336b916001600160a01b03908116911685613c48565b915061338a565b60035461336b9085906001600160a01b031685613c48565b5092915050565b606060ff83146133a457612dea83613d06565b8180546133b090614f9d565b80601f01602080910402602001604051908101604052809291908181526020018280546133dc90614f9d565b80156134295780601f106133fe57610100808354040283529160200191613429565b820191906000526020600020905b81548152906001019060200180831161340c57829003601f168201915b50505050509050610bd4565b61343e816131e1565b61181b5760405162461bcd60e51b8152600401610f14906153d7565b606060148054610c1390614f9d565b6060600061347683613d45565b60010190506000816001600160401b038111156134955761349561511d565b6040519080825280601f01601f1916602001820160405280156134bf576020820181803683370190505b5090508181016020015b600019016f181899199a1a9b1b9c1cb0b131b232b360811b600a86061a8153600a85049450846134f8576134fd565b6134c9565b509392505050565b600080829050601f81511115613530578260405163305a27a960e01b8152600401610f149190614a83565b805161353b826155be565b179392505050565b61354d8282612742565b610f785761355a81613e1b565b613565836020613e2d565b6040516020016135769291906155fd565b60408051601f198184030181529082905262461bcd60e51b8252610f1491600401614a83565b60006001600160e01b031982166313f2a32f60e01b14806135cd57506001600160e01b03198216635b5e139f60e01b145b80610bd45750610bd482613f98565b6000610d0e828461564f565b6000610d0e828461566e565b6000610d0e8284615682565b610ee6838383613fcd565b6000610bd4613618614085565b8360405161190160f01b8152600281019290925260228201526042902090565b60006136448484614115565b9050816001600160a01b0316816001600160a01b03161461367857604051638baa579f60e01b815260040160405180910390fd5b6001600160a01b0381166000908152601f602052604090205460ff166136b35780604051634a0bfec160e01b8152600401610f149190614a0b565b50505050565b6136c382826135f4565b6000811180156136dc57506001546001600160a01b0316155b156136fa5760405163fca2174f60e01b815260040160405180910390fd5b60008111801561371357506002546001600160a01b0316155b156137315760405163fca2174f60e01b815260040160405180910390fd5b60008111801561374a57506003546001600160a01b0316155b156137685760405163fca2174f60e01b815260040160405180910390fd5b60008111801561378157506007546001600160a01b0316155b1561379f5760405163fca2174f60e01b815260040160405180910390fd5b821580156137ab575081155b156137b5576136b3565b60006137c084612e3e565b905060008311806137d15750600081115b80156137e657506008546001600160a01b0316155b156138045760405163910af6f560e01b815260040160405180910390fd5b6001600160a01b03851660009081526005602052604090205460ff1661383f5784604051630ac29ab760e31b8152600401610f149190614a0b565b6001600160a01b038516613ae15761385784846135f4565b3410156138825761386884846135f4565b60405163091a6d0f60e01b8152600401610f149190614b08565b600061388e8583614131565b111561391f576007546000906001600160a01b03166138ad8684614131565b6040516138b99061569a565b60006040518083038185875af1925050503d80600081146138f6576040519150601f19603f3d011682016040523d82523d6000602084013e6138fb565b606091505b505090508061391d576040516312171d8360e31b815260040160405180910390fd5b505b82156139a9576008546040516000916001600160a01b03169085906139439061569a565b60006040518083038185875af1925050503d8060008114613980576040519150601f19603f3d011682016040523d82523d6000602084013e613985565b606091505b50509050806139a7576040516312171d8360e31b815260040160405180910390fd5b505b8015613a33576008546040516000916001600160a01b03169083906139cd9061569a565b60006040518083038185875af1925050503d8060008114613a0a576040519150601f19603f3d011682016040523d82523d6000602084013e613a0f565b606091505b5050905080613a31576040516312171d8360e31b815260040160405180910390fd5b505b613a3d84846135f4565b341115613adc576000613a5a613a5386866135f4565b3490614131565b90506000336001600160a01b031682604051613a759061569a565b60006040518083038185875af1925050503d8060008114613ab2576040519150601f19603f3d011682016040523d82523d6000602084013e613ab7565b606091505b5050905080613ad957604051633c31275160e21b815260040160405180910390fd5b50505b613b65565b6000613aed8583614131565b1115613b2157600754613b219033906001600160a01b0316613b0f8785614131565b6001600160a01b03891692919061413d565b8215613b4357600854613b43906001600160a01b03878116913391168661413d565b8015613b6557600854613b65906001600160a01b03878116913391168461413d565b5050505050565b6001600160a01b038216613b925760405162461bcd60e51b8152600401610f14906156d6565b613b9b816131e1565b15613bb85760405162461bcd60e51b8152600401610f1490615716565b613bc460008383613600565b6001600160a01b0382166000908152600f60205260408120805460019290613bed908490615682565b90915550506000818152600e602052604080822080546001600160a01b0319166001600160a01b038616908117909155905183927f0f6798a560793a54c3bcfe86a93cde1e73087d944c0ea20544137d412139688591a35050565b6000606080613c578686614195565b6001546040516307c0329d60e21b81529192506001600160a01b031690631f00ca7490613c8a9087908590600401615726565b60006040518083038186803b158015613ca257600080fd5b505afa158015613cb6573d6000803e3d6000fd5b505050506040513d6000823e601f3d908101601f19168201604052613cde91908101906157e8565b915081600081518110613cf357613cf3615395565b6020026020010151925050509392505050565b60606000613d1383614327565b604080516020808252818301909252919250600091906020820181803683375050509182525060208101929092525090565b60008072184f03e93ff9f4daa797ed6e38ed64bf6a1f0160401b8310613d845772184f03e93ff9f4daa797ed6e38ed64bf6a1f0160401b830492506040015b6904ee2d6d415b85acef8160201b8310613dae576904ee2d6d415b85acef8160201b830492506020015b662386f26fc100008310613dcc57662386f26fc10000830492506010015b6305f5e1008310613de4576305f5e100830492506008015b6127108310613df857612710830492506004015b60648310613e0a576064830492506002015b600a8310610bd45760010192915050565b6060610bd46001600160a01b03831660145b60606000613e3c83600261564f565b613e47906002615682565b6001600160401b03811115613e5e57613e5e61511d565b6040519080825280601f01601f191660200182016040528015613e88576020820181803683370190505b509050600360fc1b81600081518110613ea357613ea3615395565b60200101906001600160f81b031916908160001a905350600f60fb1b81600181518110613ed257613ed2615395565b60200101906001600160f81b031916908160001a9053506000613ef684600261564f565b613f01906001615682565b90505b6001811115613f79576f181899199a1a9b1b9c1cb0b131b232b360811b85600f1660108110613f3557613f35615395565b1a60f81b828281518110613f4b57613f4b615395565b60200101906001600160f81b031916908160001a90535060049490941c93613f7281615822565b9050613f04565b508315610d0e5760405162461bcd60e51b8152600401610f149061586b565b60006001600160e01b03198216637965db0b60e01b1480610bd457506301ffc9a760e01b6001600160e01b0319831614610bd4565b6001600160a01b0383166140285761402381601280546000838152601360205260408120829055600182018355919091527fbb8a6a4669ba250d26cd7a459eca9d215f8307e33aebe50379bc5a3617ec34440155565b61404b565b816001600160a01b0316836001600160a01b03161461404b5761404b838261434f565b6001600160a01b03821661406257610ee6816143ec565b826001600160a01b0316826001600160a01b031614610ee657610ee6828261449b565b6000306001600160a01b037f0000000000000000000000000000000000000000000000000000000000000000161480156140de57507f000000000000000000000000000000000000000000000000000000000000000046145b1561410857507f000000000000000000000000000000000000000000000000000000000000000090565b6141106144df565b905090565b60008060006141248585614575565b915091506134fd816145bb565b6000610d0e8284615450565b6136b3846323b872dd60e01b85858560405160240161415e9392919061587b565b60408051601f198184030181529190526020810180516001600160e01b03166001600160e01b03199093169290921790915261466e565b6002546060906001600160a01b03848116911614806141c157506002546001600160a01b038381169116145b1561428b57604080516002808252606082018352600092602083019080368337019050506002549091506001600160a01b038581169116146142035783614210565b6002546001600160a01b03165b8160008151811061422357614223615395565b6001600160a01b03928316602091820292909201015260025484821691161461424c5782614259565b6002546001600160a01b03165b8160018151811061426c5761426c615395565b6001600160a01b03909216602092830291909101909101529050610bd4565b604080516003808252608082019092526000916020820160608036833701905050905083816000815181106142c2576142c2615395565b6001600160a01b0392831660209182029290920101526002548251911690829060019081106142f3576142f3615395565b60200260200101906001600160a01b031690816001600160a01b031681525050828160028151811061426c5761426c615395565b600060ff8216601f811115610bd457604051632cd44ac360e21b815260040160405180910390fd5b6000600161435c84611c64565b6143669190615450565b6000838152601160205260409020549091508082146143b9576001600160a01b03841660009081526010602090815260408083208584528252808320548484528184208190558352601190915290208190555b5060009182526011602090815260408084208490556001600160a01b039094168352601081528383209183525290812055565b6012546000906143fe90600190615450565b6000838152601360205260408120546012805493945090928490811061442657614426615395565b90600052602060002001549050806012838154811061444757614447615395565b600091825260208083209091019290925582815260139091526040808220849055858252812055601280548061447f5761447f615467565b6001900381819060005260206000200160009055905550505050565b60006144a683611c64565b6001600160a01b039093166000908152601060209081526040808320868452825280832085905593825260119052919091209190915550565b60007f8b73c3c69bb8fe3d512ecc4cf759cc79239f7b179b0ffacaa9a75d522b39400f7f00000000000000000000000000000000000000000000000000000000000000007f0000000000000000000000000000000000000000000000000000000000000000463060405160200161455a9594939291906158a3565b60405160208183030381529060405280519060200120905090565b6000808251604114156145ac5760208301516040840151606085015160001a6145a087828585614700565b945094505050506145b4565b506000905060025b9250929050565b60008160048111156145cf576145cf6158e5565b14156145d85750565b60018160048111156145ec576145ec6158e5565b141561460a5760405162461bcd60e51b8152600401610f149061592a565b600281600481111561461e5761461e6158e5565b141561463c5760405162461bcd60e51b8152600401610f149061596e565b6003816004811115614650576146506158e5565b141561181b5760405162461bcd60e51b8152600401610f14906159bd565b60006146c3826040518060400160405280602081526020017f5361666545524332303a206c6f772d6c6576656c2063616c6c206661696c6564815250856001600160a01b03166147ad9092919063ffffffff16565b90508051600014806146e45750808060200190518101906146e491906159e0565b610ee65760405162461bcd60e51b8152600401610f1490615a48565b6000806fa2a8918ca85bafe22016d0b997e4df60600160ff1b0383111561472d57506000905060036147a4565b6000600187878787604051600081526020016040526040516147529493929190615a61565b6020604051602081039080840390855afa158015614774573d6000803e3d6000fd5b5050604051601f1901519150506001600160a01b03811661479d576000600192509250506147a4565b9150600090505b94509492505050565b6060612ed8848460008585600080866001600160a01b031685876040516147d49190615a96565b60006040518083038185875af1925050503d8060008114614811576040519150601f19603f3d011682016040523d82523d6000602084013e614816565b606091505b509150915061482787838387614832565b979650505050505050565b6060831561486e578251614867576001600160a01b0385163b6148675760405162461bcd60e51b8152600401610f1490615ad6565b5081612ed8565b612ed883838151156148835781518083602001fd5b8060405162461bcd60e51b8152600401610f149190614a83565b6040518060800160405280606081526020016060815260200160608152602001606081525090565b8280546148d190614f9d565b90600052602060002090601f0160209004810192826148f35760008555614939565b82601f1061490c57805160ff1916838001178555614939565b82800160010185558215614939579182015b8281111561493957825182559160200191906001019061491e565b50614945929150614949565b5090565b5b80821115614945576000815560010161494a565b805b811461181b57600080fd5b8035610bd48161495e565b60006020828403121561498b5761498b600080fd5b6000612ed8848461496b565b6001600160e01b03198116614960565b8035610bd481614997565b6000602082840312156149c7576149c7600080fd5b6000612ed884846149a7565b8015155b82525050565b60208101610bd482846149d3565b6001600160a01b031690565b6000610bd4826149eb565b6149d7816149f7565b60208101610bd48284614a02565b60005b83811015614a34578181015183820152602001614a1c565b838111156136b35750506000910152565b601f01601f191690565b6000614a59825190565b808452602084019350614a70818560208601614a19565b614a7981614a45565b9093019392505050565b60208082528101610d0e8184614a4f565b6000614aa08383614a02565b505060200190565b6000614ab2825190565b80845260209384019383018060005b83811015614ae6578151614ad58882614a94565b975060208301925050600101614ac1565b509495945050505050565b60208082528101610d0e8184614aa8565b806149d7565b60208101610bd48284614b02565b614960816149f7565b8035610bd481614b16565b60008060408385031215614b4057614b40600080fd5b6000614b4c8585614b1f565b9250506020614b5d8582860161496b565b9150509250929050565b600060208284031215614b7c57614b7c600080fd5b6000612ed88484614b1f565b60008060408385031215614b9e57614b9e600080fd5b6000614baa858561496b565b9250506020614b5d85828601614b1f565b8051608080845260009190840190614bd38282614a4f565b91505060208301518482036020860152614bed8282614a4f565b91505060408301518482036040860152614c078282614a4f565b91505060608301518482036060860152614c218282614a4f565b95945050505050565b60608082528101614c3b8186614bbb565b90508181036020830152614c4f8185614bbb565b90508181036040830152614c218184614bbb565b60008083601f840112614c7857614c78600080fd5b5081356001600160401b03811115614c9257614c92600080fd5b6020830191508360018202830111156145b4576145b4600080fd5b600060808284031215614cc257614cc2600080fd5b50919050565b6000806000806000806000806000806101008b8d031215614ceb57614ceb600080fd5b6000614cf78d8d614b1f565b9a50506020614d088d828e01614b1f565b9950506040614d198d828e0161496b565b98505060608b01356001600160401b03811115614d3857614d38600080fd5b614d448d828e01614c63565b975097505060808b01356001600160401b03811115614d6557614d65600080fd5b614d718d828e01614cad565b95505060a08b01356001600160401b03811115614d9057614d90600080fd5b614d9c8d828e01614cad565b94505060c08b01356001600160401b03811115614dbb57614dbb600080fd5b614dc78d828e01614cad565b93505060e08b01356001600160401b03811115614de657614de6600080fd5b614df28d828e01614c63565b92509250509295989b9194979a5092959850565b60808082528101614e178187614a4f565b90508181036020830152614e2b8186614bbb565b90508181036040830152614e3f8185614bbb565b905081810360608301526131d78184614bbb565b6000610bd4614e64612e0c846149eb565b6149eb565b6000610bd482614e53565b6000610bd482614e69565b6149d781614e74565b60208101610bd48284614e7f565b6001600160f81b031981166149d7565b6000614aa08383614b02565b6000614ebc825190565b80845260209384019383018060005b83811015614ae6578151614edf8882614ea6565b975060208301925050600101614ecb565b60e08101614efe828a614e96565b8181036020830152614f108189614a4f565b90508181036040830152614f248188614a4f565b9050614f336060830187614b02565b614f406080830186614a02565b614f4d60a0830185614b02565b81810360c0830152614f5f8184614eb2565b9998505050505050505050565b60408101614f7a8285614b02565b610d0e6020830184614b02565b634e487b7160e01b600052602260045260246000fd5b600281046001821680614fb157607f821691505b60208210811415614cc257614cc2614f87565b602881526000602082017f534254456e756d657261626c653a206f776e657220696e646578206f7574206f8152676620626f756e647360c01b602082015291505b5060400190565b60208082528101610bd481614fc4565b602f81526000602082017f416363657373436f6e74726f6c3a2063616e206f6e6c792072656e6f756e636581526e103937b632b9903337b91039b2b63360891b60208201529150615005565b60208082528101610bd48161501c565b601e81526000602082017f5342543a2063616c6c6572206973206e6f7420746f6b656e206f776e65720000815291505b5060200190565b60208082528101610bd481615078565b6000808335601e19368590030181126150da576150da600080fd5b8084019250823591506001600160401b038211156150fa576150fa600080fd5b60208301925060018202360383131561511557615115600080fd5b509250929050565b634e487b7160e01b600052604160045260246000fd5b61513c82614a45565b81018181106001600160401b03821117156151595761515961511d565b6040525050565b600061516b60405190565b9050611da38282615133565b60006001600160401b038211156151905761519061511d565b61519982614a45565b60200192915050565b82818337506000910152565b60006151c16151bc84615177565b615160565b9050828152602081018484840111156151dc576151dc600080fd5b6134fd8482856151a2565b600082601f8301126151fb576151fb600080fd5b8135612ed88482602086016151ae565b60006080828403121561522057615220600080fd5b61522a6080615160565b905081356001600160401b0381111561524557615245600080fd5b615251848285016151e7565b82525060208201356001600160401b0381111561527057615270600080fd5b61527c848285016151e7565b60208301525060408201356001600160401b0381111561529e5761529e600080fd5b6152aa848285016151e7565b60408301525060608201356001600160401b038111156152cc576152cc600080fd5b6152d8848285016151e7565b60608301525092915050565b6000610bd4368361520b565b60c081016152fe8289614b02565b61530b6020830188614a02565b6153186040830187614a02565b6153256060830186614b02565b6153326080830185614a02565b61482760a0830184614b02565b602981526000602082017f534254456e756d657261626c653a20676c6f62616c20696e646578206f7574208152686f6620626f756e647360b81b60208201529150615005565b60208082528101610bd48161533f565b634e487b7160e01b600052603260045260246000fd5b601581526000602082017414d0950e881a5b9d985b1a59081d1bdad95b881251605a1b815291506150a8565b60208082528101610bd4816153ab565b602681526000602082017f5342543a2061646472657373207a65726f206973206e6f7420612076616c69648152651037bbb732b960d11b60208201529150615005565b60208082528101610bd4816153e7565b634e487b7160e01b600052601160045260246000fd5b6000828210156154625761546261543a565b500390565b634e487b7160e01b600052603160045260246000fd5b60006000198214156154915761549161543a565b5060010190565b8051610bd48161495e565b6000602082840312156154b8576154b8600080fd5b6000612ed88484615498565b60006154ce825190565b6154dc818560208601614a19565b9290920192915050565b60006154f282856154c4565b91506154fe82846154c4565b64173539b7b760d91b8152915060058201612ed8565b60006155218385846151a2565b50500190565b6000612ed8828486615514565b6101008101615543828b614b02565b615550602083018a614a02565b61555d6040830189614a02565b61556a6060830188614b02565b6155776080830187614b02565b61558460a0830186614b02565b61559160c0830185614b02565b614f5f60e0830184614b02565b634e487b7160e01b600052601260045260246000fd5b6000610bd4825190565b60006155c8825190565b602083016155d5816155b4565b925060208210156155f6576155f1600019836020036008021b90565b831692505b5050919050565b76020b1b1b2b9b9a1b7b73a3937b61d1030b1b1b7bab73a1604d1b8152601701600061562982856154c4565b7001034b99036b4b9b9b4b733903937b6329607d1b81526011019150612ed882846154c4565b60008160001904831182151516156156695761566961543a565b500290565b60008261567d5761567d61559e565b500490565b600082198211156156955761569561543a565b500190565b600081610bd4565b601d81526000602082017f5342543a206d696e7420746f20746865207a65726f2061646472657373000000815291506150a8565b60208082528101610bd4816156a2565b601981526000602082017814d0950e881d1bdad95b88185b1c9958591e481b5a5b9d1959603a1b815291506150a8565b60208082528101610bd4816156e6565b604081016157348285614b02565b8181036020830152612ed88184614aa8565b60006001600160401b0382111561575f5761575f61511d565b5060209081020190565b60006157776151bc84615746565b8381529050602080820190840283018581111561579657615796600080fd5b835b818110156157ba57806157ab8882615498565b84525060209283019201615798565b5050509392505050565b600082601f8301126157d8576157d8600080fd5b8151612ed8848260208601615769565b6000602082840312156157fd576157fd600080fd5b81516001600160401b0381111561581657615816600080fd5b612ed8848285016157c4565b6000816158315761583161543a565b506000190190565b60208082527f537472696e67733a20686578206c656e67746820696e73756666696369656e74910190815260006150a8565b60208082528101610bd481615839565b606081016158898286614a02565b6158966020830185614a02565b612ed86040830184614b02565b60a081016158b18288614b02565b6158be6020830187614b02565b6158cb6040830186614b02565b6158d86060830185614b02565b6131d76080830184614a02565b634e487b7160e01b600052602160045260246000fd5b601881526000602082017745434453413a20696e76616c6964207369676e617475726560401b815291506150a8565b60208082528101610bd4816158fb565b601f81526000602082017f45434453413a20696e76616c6964207369676e6174757265206c656e67746800815291506150a8565b60208082528101610bd48161593a565b602281526000602082017f45434453413a20696e76616c6964207369676e6174757265202773272076616c815261756560f01b60208201529150615005565b60208082528101610bd48161597e565b801515614960565b8051610bd4816159cd565b6000602082840312156159f5576159f5600080fd5b6000612ed884846159d5565b602a81526000602082017f5361666545524332303a204552433230206f7065726174696f6e20646964206e8152691bdd081cdd58d8d9595960b21b60208201529150615005565b60208082528101610bd481615a01565b60ff81166149d7565b60808101615a6f8287614b02565b615a7c6020830186615a58565b615a896040830185614b02565b614c216060830184614b02565b6000610d0e82846154c4565b601d81526000602082017f416464726573733a2063616c6c20746f206e6f6e2d636f6e7472616374000000815291506150a8565b60208082528101610bd481615aa256fe52eafc11f6f81f86878bffd31109a0d92f37506527754f00788853ff9f63b130a2646970667358221220d1c394d6c36d4f1d0dde03a6391078f84c4b038fb9530daf08622d0a19a5566e64736f6c63430008080033",
  "devdoc": {
    "author": "Masa Finance",
    "details": "Inherits from the SSSBT contract.",
    "kind": "dev",
    "methods": {
      "addAuthority(address)": {
        "details": "The caller must have the admin or project admin role to call this function",
        "params": {
          "_authority": "New authority to add"
        }
      },
      "balanceOf(address)": {
        "details": "See {ISBT-balanceOf}."
      },
      "burn(uint256)": {
        "details": "Burns `tokenId`. See {SBT-_burn}. Requirements: - The caller must own `tokenId` or be an approved operator."
      },
      "constructor": {
        "details": "Creates a new Test ZKP SBT, inheriting from the Masa SSSBT contract.",
        "params": {
          "admin": "Administrator of the smart contract",
          "baseTokenURI": "Base URI of the token",
          "name": "Name of the token",
          "paymentParams": "Payment gateway params",
          "soulboundIdentity": "Address of the SoulboundIdentity contract",
          "symbol": "Symbol of the token"
        }
      },
      "disablePaymentMethod(address)": {
        "details": "The caller must have the admin role to call this function",
        "params": {
          "_paymentMethod": "Token to remove"
        }
      },
      "eip712Domain()": {
        "details": "See {EIP-5267}. _Available since v4.9._"
      },
      "enablePaymentMethod(address)": {
        "details": "The caller must have the admin role to call this function",
        "params": {
          "_paymentMethod": "New token to add"
        }
      },
      "exists(uint256)": {
        "details": "Returns true if the token has been minted",
        "params": {
          "tokenId": "Token to check"
        },
        "returns": {
          "_0": "True if the token exists"
        }
      },
      "getEnabledPaymentMethods()": {
        "details": "Returns the address of all available payment methods",
        "returns": {
          "_0": "Array of all enabled payment methods"
        }
      },
      "getIdentityId(uint256)": {
        "params": {
          "tokenId": "Id of the token"
        },
        "returns": {
          "_0": "Id of the identity"
        }
      },
      "getMintPrice(address)": {
        "details": "Returns current pricing for minting",
        "params": {
          "paymentMethod": "Address of token that user want to pay"
        },
        "returns": {
          "price": "Current price for minting in the given payment method"
        }
      },
      "getMintPriceWithProtocolFee(address)": {
        "details": "Returns current pricing for minting with protocol fee",
        "params": {
          "paymentMethod": "Address of token that user want to pay"
        },
        "returns": {
          "price": "Current price for minting in the given payment method",
          "protocolFee": "Current protocol fee for minting in the given payment method"
        }
      },
      "getProtocolFee(address,uint256)": {
        "details": "This method will calculate the protocol fee based on the payment method",
        "params": {
          "amount": "Price to be paid in the specified payment method",
          "paymentMethod": "Address of token that user want to pay"
        }
      },
      "getProtocolFeeSub(uint256)": {
        "details": "This method will calculate the protocol fee based on the payment method",
        "params": {
          "amount": "Price to be paid in the specified payment method"
        }
      },
      "getRoleAdmin(bytes32)": {
        "details": "Returns the admin role that controls `role`. See {grantRole} and {revokeRole}. To change a role's admin, use {_setRoleAdmin}."
      },
      "grantRole(bytes32,address)": {
        "details": "Grants `role` to `account`. If `account` had not been already granted `role`, emits a {RoleGranted} event. Requirements: - the caller must have ``role``'s admin role. May emit a {RoleGranted} event."
      },
      "hasRole(bytes32,address)": {
        "details": "Returns `true` if `account` has been granted `role`."
      },
      "mint(address,address,uint256,bytes,(bytes,bytes,bytes,bytes),(bytes,bytes,bytes,bytes),(bytes,bytes,bytes,bytes),bytes)": {
        "details": "The caller must have the MINTER role",
        "params": {
          "authorityAddress": "Address of the authority that signed the message",
          "encryptedCreditScore": "Encrypted credit score",
          "encryptedIncome": "Encrypted income",
          "encryptedReportDate": "Encrypted report date",
          "root": "Root of the Merkle Tree's data without encryption, used to verify the data",
          "signature": "Signature of the message",
          "signatureDate": "Date of the signature",
          "to": "The address to mint the SBT to"
        },
        "returns": {
          "_0": "The SBT ID of the newly minted SBT"
        }
      },
      "name()": {
        "details": "See {ISBTMetadata-name}."
      },
      "ownerOf(uint256)": {
        "details": "See {ISBT-ownerOf}."
      },
      "removeAuthority(address)": {
        "details": "The caller must have the admin or project admin role to call this function",
        "params": {
          "_authority": "Authority to remove"
        }
      },
      "renounceRole(bytes32,address)": {
        "details": "Revokes `role` from the calling account. Roles are often managed via {grantRole} and {revokeRole}: this function's purpose is to provide a mechanism for accounts to lose their privileges if they are compromised (such as when a trusted device is misplaced). If the calling account had been revoked `role`, emits a {RoleRevoked} event. Requirements: - the caller must be `account`. May emit a {RoleRevoked} event."
      },
      "revokeRole(bytes32,address)": {
        "details": "Revokes `role` from `account`. If `account` had been granted `role`, emits a {RoleRevoked} event. Requirements: - the caller must have ``role``'s admin role. May emit a {RoleRevoked} event."
      },
      "setAddLinkPrice(uint256)": {
        "details": "The caller must have the admin or project admin role to call this function",
        "params": {
          "_addLinkPrice": "New price for adding the link in SoulLinker in stable coin"
        }
      },
      "setAddLinkPriceMASA(uint256)": {
        "details": "The caller must have the admin or project admin role to call this function",
        "params": {
          "_addLinkPriceMASA": "New price for adding the link in SoulLinker in MASA"
        }
      },
      "setMasaToken(address)": {
        "details": "The caller must have the admin role to call this function It can be set to address(0) to disable paying in MASA",
        "params": {
          "_masaToken": "New utility token to pay the fee in"
        }
      },
      "setMintPrice(uint256)": {
        "details": "The caller must have the admin or project admin role to call this function",
        "params": {
          "_mintPrice": "New price of minting in stable coin"
        }
      },
      "setMintPriceMASA(uint256)": {
        "details": "The caller must have the admin or project admin role to call this function",
        "params": {
          "_mintPriceMASA": "New price of minting in MASA"
        }
      },
      "setProjectFeeReceiver(address)": {
        "details": "The caller must have the admin or project admin role to call this function",
        "params": {
          "_projectFeeReceiver": "New project fee receiver wallet"
        }
      },
      "setProtocolFeeAmount(uint256)": {
        "details": "The caller must have the admin role to call this function",
        "params": {
          "_protocolFeeAmount": "New protocol fee amount"
        }
      },
      "setProtocolFeePercent(uint256)": {
        "details": "The caller must have the admin role to call this function",
        "params": {
          "_protocolFeePercent": "New protocol fee percent added to the project fee"
        }
      },
      "setProtocolFeePercentSub(uint256)": {
        "details": "The caller must have the admin role to call this function",
        "params": {
          "_protocolFeePercentSub": "New protocol fee percent substracted from the amount"
        }
      },
      "setProtocolFeeReceiver(address)": {
        "details": "The caller must have the admin role to call this function",
        "params": {
          "_protocolFeeReceiver": "New protocol fee wallet"
        }
      },
      "setQueryLinkPrice(uint256)": {
        "details": "The caller must have the admin or project admin role to call this function",
        "params": {
          "_queryLinkPrice": "New price for reading data in SoulLinker in stable coin"
        }
      },
      "setQueryLinkPriceMASA(uint256)": {
        "details": "The caller must have the admin or project admin role to call this function",
        "params": {
          "_queryLinkPriceMASA": "New price for reading data in SoulLinker in MASA"
        }
      },
      "setSoulboundIdentity(address)": {
        "details": "The caller must be the admin to call this function",
        "params": {
          "_soulboundIdentity": "Address of the SoulboundIdentity contract"
        }
      },
      "setStableCoin(address)": {
        "details": "The caller must have the admin role to call this function",
        "params": {
          "_stableCoin": "New stable coin to pay the fee in"
        }
      },
      "setSwapRouter(address)": {
        "details": "The caller must have the admin role to call this function",
        "params": {
          "_swapRouter": "New swap router address"
        }
      },
      "setWrappedNativeToken(address)": {
        "details": "The caller must have the admin role to call this function",
        "params": {
          "_wrappedNativeToken": "New wrapped native token address"
        }
      },
      "supportsInterface(bytes4)": {
        "details": "Interface identification is specified in ERC-165.",
        "params": {
          "interfaceId": "The interface identifier, as specified in ERC-165"
        },
        "returns": {
          "_0": "`true` if the contract implements `interfaceId` and  `interfaceId` is not 0xffffffff, `false` otherwise"
        }
      },
      "symbol()": {
        "details": "See {ISBTMetadata-symbol}."
      },
      "tokenByIndex(uint256)": {
        "details": "See {ISBTEnumerable-tokenByIndex}."
      },
      "tokenOfOwnerByIndex(address,uint256)": {
        "details": "See {ISBTEnumerable-tokenOfOwnerByIndex}."
      },
      "tokenURI(uint256)": {
        "details": "Throws if `_tokenId` is not a valid SBT. URIs are defined in RFC  3986. The URI may point to a JSON file that conforms to the \"ERC721  Metadata JSON Schema\".",
        "params": {
          "tokenId": "SBT to get the URI of"
        },
        "returns": {
          "_0": "URI of the SBT"
        }
      },
      "totalSupply()": {
        "details": "See {ISBTEnumerable-totalSupply}."
      }
    },
    "title": "Test ZKP SBT Self-Sovereign",
    "version": 1
  },
  "userdoc": {
    "kind": "user",
    "methods": {
      "addAuthority(address)": {
        "notice": "Adds a new authority to the list of authorities"
      },
      "constructor": {
        "notice": "Creates a new Test ZKP SBT"
      },
      "disablePaymentMethod(address)": {
        "notice": "Removes a token as a valid payment method"
      },
      "enablePaymentMethod(address)": {
        "notice": "Adds a new token as a valid payment method"
      },
      "exists(uint256)": {
        "notice": "Returns true if the token exists"
      },
      "getEnabledPaymentMethods()": {
        "notice": "Returns all available payment methods"
      },
      "getIdentityId(uint256)": {
        "notice": "Returns the identityId owned by the given token"
      },
      "getMintPrice(address)": {
        "notice": "Returns the price for minting"
      },
      "getMintPriceWithProtocolFee(address)": {
        "notice": "Returns the price for minting with protocol fee"
      },
      "getProtocolFee(address,uint256)": {
        "notice": "Calculates the protocol fee added to the project fee"
      },
      "getProtocolFeeSub(uint256)": {
        "notice": "Calculates the protocol fee substracted from the amount"
      },
      "mint(address,address,uint256,bytes,(bytes,bytes,bytes,bytes),(bytes,bytes,bytes,bytes),(bytes,bytes,bytes,bytes),bytes)": {
        "notice": "Mints a new SBT"
      },
      "removeAuthority(address)": {
        "notice": "Removes an authority from the list of authorities"
      },
      "setAddLinkPrice(uint256)": {
        "notice": "Sets the price for adding the link in SoulLinker in stable coin"
      },
      "setAddLinkPriceMASA(uint256)": {
        "notice": "Sets the price for adding the link in SoulLinker in MASA"
      },
      "setMasaToken(address)": {
        "notice": "Sets the utility token to pay the fee in (MASA)"
      },
      "setMintPrice(uint256)": {
        "notice": "Sets the price of minting in stable coin"
      },
      "setMintPriceMASA(uint256)": {
        "notice": "Sets the price of minting in MASA"
      },
      "setProjectFeeReceiver(address)": {
        "notice": "Set the project fee receiver wallet"
      },
      "setProtocolFeeAmount(uint256)": {
        "notice": "Set the protocol fee amount"
      },
      "setProtocolFeePercent(uint256)": {
        "notice": "Set the protocol fee percent added to the project fee"
      },
      "setProtocolFeePercentSub(uint256)": {
        "notice": "Set the protocol fee percent substracted from the amount"
      },
      "setProtocolFeeReceiver(address)": {
        "notice": "Set the protocol fee wallet"
      },
      "setQueryLinkPrice(uint256)": {
        "notice": "Sets the price for reading data in SoulLinker in stable coin"
      },
      "setQueryLinkPriceMASA(uint256)": {
        "notice": "Sets the price for reading data in SoulLinker in MASA"
      },
      "setSoulboundIdentity(address)": {
        "notice": "Sets the SoulboundIdentity contract address linked to this SBT"
      },
      "setStableCoin(address)": {
        "notice": "Sets the stable coin to pay the fee in (USDC)"
      },
      "setSwapRouter(address)": {
        "notice": "Sets the swap router address"
      },
      "setWrappedNativeToken(address)": {
        "notice": "Sets the wrapped native token address"
      },
      "supportsInterface(bytes4)": {
        "notice": "Query if a contract implements an interface"
      },
      "tokenURI(uint256)": {
        "notice": "A distinct Uniform Resource Identifier (URI) for a given asset."
      }
    },
    "notice": "Test Soulbound token",
    "version": 1
  },
  "storageLayout": {
    "storage": [
      {
        "astId": 3182,
        "contract": "contracts/ZKSBTSelfSovereign.sol:ZKSBTSelfSovereign",
        "label": "_roles",
        "offset": 0,
        "slot": "0",
        "type": "t_mapping(t_bytes32,t_struct(RoleData)3177_storage)"
      },
      {
        "astId": 43,
        "contract": "contracts/ZKSBTSelfSovereign.sol:ZKSBTSelfSovereign",
        "label": "swapRouter",
        "offset": 0,
        "slot": "1",
        "type": "t_address"
      },
      {
        "astId": 45,
        "contract": "contracts/ZKSBTSelfSovereign.sol:ZKSBTSelfSovereign",
        "label": "wrappedNativeToken",
        "offset": 0,
        "slot": "2",
        "type": "t_address"
      },
      {
        "astId": 47,
        "contract": "contracts/ZKSBTSelfSovereign.sol:ZKSBTSelfSovereign",
        "label": "stableCoin",
        "offset": 0,
        "slot": "3",
        "type": "t_address"
      },
      {
        "astId": 49,
        "contract": "contracts/ZKSBTSelfSovereign.sol:ZKSBTSelfSovereign",
        "label": "masaToken",
        "offset": 0,
        "slot": "4",
        "type": "t_address"
      },
      {
        "astId": 53,
        "contract": "contracts/ZKSBTSelfSovereign.sol:ZKSBTSelfSovereign",
        "label": "enabledPaymentMethod",
        "offset": 0,
        "slot": "5",
        "type": "t_mapping(t_address,t_bool)"
      },
      {
        "astId": 56,
        "contract": "contracts/ZKSBTSelfSovereign.sol:ZKSBTSelfSovereign",
        "label": "enabledPaymentMethods",
        "offset": 0,
        "slot": "6",
        "type": "t_array(t_address)dyn_storage"
      },
      {
        "astId": 58,
        "contract": "contracts/ZKSBTSelfSovereign.sol:ZKSBTSelfSovereign",
        "label": "projectFeeReceiver",
        "offset": 0,
        "slot": "7",
        "type": "t_address"
      },
      {
        "astId": 60,
        "contract": "contracts/ZKSBTSelfSovereign.sol:ZKSBTSelfSovereign",
        "label": "protocolFeeReceiver",
        "offset": 0,
        "slot": "8",
        "type": "t_address"
      },
      {
        "astId": 62,
        "contract": "contracts/ZKSBTSelfSovereign.sol:ZKSBTSelfSovereign",
        "label": "protocolFeeAmount",
        "offset": 0,
        "slot": "9",
        "type": "t_uint256"
      },
      {
        "astId": 64,
        "contract": "contracts/ZKSBTSelfSovereign.sol:ZKSBTSelfSovereign",
        "label": "protocolFeePercent",
        "offset": 0,
        "slot": "10",
        "type": "t_uint256"
      },
      {
        "astId": 66,
        "contract": "contracts/ZKSBTSelfSovereign.sol:ZKSBTSelfSovereign",
        "label": "protocolFeePercentSub",
        "offset": 0,
        "slot": "11",
        "type": "t_uint256"
      },
      {
        "astId": 2365,
        "contract": "contracts/ZKSBTSelfSovereign.sol:ZKSBTSelfSovereign",
        "label": "_name",
        "offset": 0,
        "slot": "12",
        "type": "t_string_storage"
      },
      {
        "astId": 2367,
        "contract": "contracts/ZKSBTSelfSovereign.sol:ZKSBTSelfSovereign",
        "label": "_symbol",
        "offset": 0,
        "slot": "13",
        "type": "t_string_storage"
      },
      {
        "astId": 2371,
        "contract": "contracts/ZKSBTSelfSovereign.sol:ZKSBTSelfSovereign",
        "label": "_owners",
        "offset": 0,
        "slot": "14",
        "type": "t_mapping(t_uint256,t_address)"
      },
      {
        "astId": 2375,
        "contract": "contracts/ZKSBTSelfSovereign.sol:ZKSBTSelfSovereign",
        "label": "_balances",
        "offset": 0,
        "slot": "15",
        "type": "t_mapping(t_address,t_uint256)"
      },
      {
        "astId": 2834,
        "contract": "contracts/ZKSBTSelfSovereign.sol:ZKSBTSelfSovereign",
        "label": "_ownedTokens",
        "offset": 0,
        "slot": "16",
        "type": "t_mapping(t_address,t_mapping(t_uint256,t_uint256))"
      },
      {
        "astId": 2838,
        "contract": "contracts/ZKSBTSelfSovereign.sol:ZKSBTSelfSovereign",
        "label": "_ownedTokensIndex",
        "offset": 0,
        "slot": "17",
        "type": "t_mapping(t_uint256,t_uint256)"
      },
      {
        "astId": 2841,
        "contract": "contracts/ZKSBTSelfSovereign.sol:ZKSBTSelfSovereign",
        "label": "_allTokens",
        "offset": 0,
        "slot": "18",
        "type": "t_array(t_uint256)dyn_storage"
      },
      {
        "astId": 2845,
        "contract": "contracts/ZKSBTSelfSovereign.sol:ZKSBTSelfSovereign",
        "label": "_allTokensIndex",
        "offset": 0,
        "slot": "19",
        "type": "t_mapping(t_uint256,t_uint256)"
      },
      {
        "astId": 1451,
        "contract": "contracts/ZKSBTSelfSovereign.sol:ZKSBTSelfSovereign",
        "label": "_baseTokenURI",
        "offset": 0,
        "slot": "20",
        "type": "t_string_storage"
      },
      {
        "astId": 1454,
        "contract": "contracts/ZKSBTSelfSovereign.sol:ZKSBTSelfSovereign",
        "label": "soulboundIdentity",
        "offset": 0,
        "slot": "21",
        "type": "t_contract(ISoulboundIdentity)1206"
      },
      {
        "astId": 1456,
        "contract": "contracts/ZKSBTSelfSovereign.sol:ZKSBTSelfSovereign",
        "label": "mintPrice",
        "offset": 0,
        "slot": "22",
        "type": "t_uint256"
      },
      {
        "astId": 1458,
        "contract": "contracts/ZKSBTSelfSovereign.sol:ZKSBTSelfSovereign",
        "label": "mintPriceMASA",
        "offset": 0,
        "slot": "23",
        "type": "t_uint256"
      },
      {
        "astId": 1461,
        "contract": "contracts/ZKSBTSelfSovereign.sol:ZKSBTSelfSovereign",
        "label": "addLinkPrice",
        "offset": 0,
        "slot": "24",
        "type": "t_uint256"
      },
      {
        "astId": 1464,
        "contract": "contracts/ZKSBTSelfSovereign.sol:ZKSBTSelfSovereign",
        "label": "addLinkPriceMASA",
        "offset": 0,
        "slot": "25",
        "type": "t_uint256"
      },
      {
        "astId": 1467,
        "contract": "contracts/ZKSBTSelfSovereign.sol:ZKSBTSelfSovereign",
        "label": "queryLinkPrice",
        "offset": 0,
        "slot": "26",
        "type": "t_uint256"
      },
      {
        "astId": 1470,
        "contract": "contracts/ZKSBTSelfSovereign.sol:ZKSBTSelfSovereign",
        "label": "queryLinkPriceMASA",
        "offset": 0,
        "slot": "27",
        "type": "t_uint256"
      },
      {
        "astId": 5622,
        "contract": "contracts/ZKSBTSelfSovereign.sol:ZKSBTSelfSovereign",
        "label": "_nameFallback",
        "offset": 0,
        "slot": "28",
        "type": "t_string_storage"
      },
      {
        "astId": 5624,
        "contract": "contracts/ZKSBTSelfSovereign.sol:ZKSBTSelfSovereign",
        "label": "_versionFallback",
        "offset": 0,
        "slot": "29",
        "type": "t_string_storage"
      },
      {
        "astId": 2093,
        "contract": "contracts/ZKSBTSelfSovereign.sol:ZKSBTSelfSovereign",
        "label": "_tokenIdCounter",
        "offset": 0,
        "slot": "30",
        "type": "t_struct(Counter)4600_storage"
      },
      {
        "astId": 2097,
        "contract": "contracts/ZKSBTSelfSovereign.sol:ZKSBTSelfSovereign",
        "label": "authorities",
        "offset": 0,
        "slot": "31",
        "type": "t_mapping(t_address,t_bool)"
      },
      {
        "astId": 7381,
        "contract": "contracts/ZKSBTSelfSovereign.sol:ZKSBTSelfSovereign",
        "label": "sbtData",
        "offset": 0,
        "slot": "32",
        "type": "t_mapping(t_uint256,t_struct(SBTData)7376_storage)"
      },
      {
        "astId": 3582,
        "contract": "contracts/ZKSBTSelfSovereign.sol:ZKSBTSelfSovereign",
        "label": "_status",
        "offset": 0,
        "slot": "33",
        "type": "t_uint256"
      }
    ],
    "types": {
      "t_address": {
        "encoding": "inplace",
        "label": "address",
        "numberOfBytes": "20"
      },
      "t_array(t_address)dyn_storage": {
        "base": "t_address",
        "encoding": "dynamic_array",
        "label": "address[]",
        "numberOfBytes": "32"
      },
      "t_array(t_uint256)dyn_storage": {
        "base": "t_uint256",
        "encoding": "dynamic_array",
        "label": "uint256[]",
        "numberOfBytes": "32"
      },
      "t_bool": {
        "encoding": "inplace",
        "label": "bool",
        "numberOfBytes": "1"
      },
      "t_bytes32": {
        "encoding": "inplace",
        "label": "bytes32",
        "numberOfBytes": "32"
      },
      "t_bytes_storage": {
        "encoding": "bytes",
        "label": "bytes",
        "numberOfBytes": "32"
      },
      "t_contract(ISoulboundIdentity)1206": {
        "encoding": "inplace",
        "label": "contract ISoulboundIdentity",
        "numberOfBytes": "20"
      },
      "t_mapping(t_address,t_bool)": {
        "encoding": "mapping",
        "key": "t_address",
        "label": "mapping(address => bool)",
        "numberOfBytes": "32",
        "value": "t_bool"
      },
      "t_mapping(t_address,t_mapping(t_uint256,t_uint256))": {
        "encoding": "mapping",
        "key": "t_address",
        "label": "mapping(address => mapping(uint256 => uint256))",
        "numberOfBytes": "32",
        "value": "t_mapping(t_uint256,t_uint256)"
      },
      "t_mapping(t_address,t_uint256)": {
        "encoding": "mapping",
        "key": "t_address",
        "label": "mapping(address => uint256)",
        "numberOfBytes": "32",
        "value": "t_uint256"
      },
      "t_mapping(t_bytes32,t_struct(RoleData)3177_storage)": {
        "encoding": "mapping",
        "key": "t_bytes32",
        "label": "mapping(bytes32 => struct AccessControl.RoleData)",
        "numberOfBytes": "32",
        "value": "t_struct(RoleData)3177_storage"
      },
      "t_mapping(t_uint256,t_address)": {
        "encoding": "mapping",
        "key": "t_uint256",
        "label": "mapping(uint256 => address)",
        "numberOfBytes": "32",
        "value": "t_address"
      },
      "t_mapping(t_uint256,t_struct(SBTData)7376_storage)": {
        "encoding": "mapping",
        "key": "t_uint256",
        "label": "mapping(uint256 => struct ZKSBT.SBTData)",
        "numberOfBytes": "32",
        "value": "t_struct(SBTData)7376_storage"
      },
      "t_mapping(t_uint256,t_uint256)": {
        "encoding": "mapping",
        "key": "t_uint256",
        "label": "mapping(uint256 => uint256)",
        "numberOfBytes": "32",
        "value": "t_uint256"
      },
      "t_string_storage": {
        "encoding": "bytes",
        "label": "string",
        "numberOfBytes": "32"
      },
      "t_struct(Counter)4600_storage": {
        "encoding": "inplace",
        "label": "struct Counters.Counter",
        "members": [
          {
            "astId": 4599,
            "contract": "contracts/ZKSBTSelfSovereign.sol:ZKSBTSelfSovereign",
            "label": "_value",
            "offset": 0,
            "slot": "0",
            "type": "t_uint256"
          }
        ],
        "numberOfBytes": "32"
      },
      "t_struct(EncryptedData)7364_storage": {
        "encoding": "inplace",
        "label": "struct ZKSBT.EncryptedData",
        "members": [
          {
            "astId": 7357,
            "contract": "contracts/ZKSBTSelfSovereign.sol:ZKSBTSelfSovereign",
            "label": "iv",
            "offset": 0,
            "slot": "0",
            "type": "t_bytes_storage"
          },
          {
            "astId": 7359,
            "contract": "contracts/ZKSBTSelfSovereign.sol:ZKSBTSelfSovereign",
            "label": "ephemPublicKey",
            "offset": 0,
            "slot": "1",
            "type": "t_bytes_storage"
          },
          {
            "astId": 7361,
            "contract": "contracts/ZKSBTSelfSovereign.sol:ZKSBTSelfSovereign",
            "label": "ciphertext",
            "offset": 0,
            "slot": "2",
            "type": "t_bytes_storage"
          },
          {
            "astId": 7363,
            "contract": "contracts/ZKSBTSelfSovereign.sol:ZKSBTSelfSovereign",
            "label": "mac",
            "offset": 0,
            "slot": "3",
            "type": "t_bytes_storage"
          }
        ],
        "numberOfBytes": "128"
      },
      "t_struct(RoleData)3177_storage": {
        "encoding": "inplace",
        "label": "struct AccessControl.RoleData",
        "members": [
          {
            "astId": 3174,
            "contract": "contracts/ZKSBTSelfSovereign.sol:ZKSBTSelfSovereign",
            "label": "members",
            "offset": 0,
            "slot": "0",
            "type": "t_mapping(t_address,t_bool)"
          },
          {
            "astId": 3176,
            "contract": "contracts/ZKSBTSelfSovereign.sol:ZKSBTSelfSovereign",
            "label": "adminRole",
            "offset": 0,
            "slot": "1",
            "type": "t_bytes32"
          }
        ],
        "numberOfBytes": "64"
      },
      "t_struct(SBTData)7376_storage": {
        "encoding": "inplace",
        "label": "struct ZKSBT.SBTData",
        "members": [
          {
            "astId": 7366,
            "contract": "contracts/ZKSBTSelfSovereign.sol:ZKSBTSelfSovereign",
            "label": "root",
            "offset": 0,
            "slot": "0",
            "type": "t_bytes_storage"
          },
          {
            "astId": 7369,
            "contract": "contracts/ZKSBTSelfSovereign.sol:ZKSBTSelfSovereign",
            "label": "encryptedCreditScore",
            "offset": 0,
            "slot": "1",
            "type": "t_struct(EncryptedData)7364_storage"
          },
          {
            "astId": 7372,
            "contract": "contracts/ZKSBTSelfSovereign.sol:ZKSBTSelfSovereign",
            "label": "encryptedIncome",
            "offset": 0,
            "slot": "5",
            "type": "t_struct(EncryptedData)7364_storage"
          },
          {
            "astId": 7375,
            "contract": "contracts/ZKSBTSelfSovereign.sol:ZKSBTSelfSovereign",
            "label": "encryptedReportDate",
            "offset": 0,
            "slot": "9",
            "type": "t_struct(EncryptedData)7364_storage"
          }
        ],
        "numberOfBytes": "416"
      },
      "t_uint256": {
        "encoding": "inplace",
        "label": "uint256",
        "numberOfBytes": "32"
      }
    }
  }
}