{
  "address": "0xB0eD105597bbDcc38327a2F34711C7772042b570",
  "abi": [
    {
      "inputs": [
        {
          "internalType": "address",
          "name": "admin",
          "type": "address"
        },
        {
          "internalType": "string",
          "name": "name",
          "type": "string"
        },
        {
          "internalType": "string",
          "name": "symbol",
          "type": "string"
        },
        {
          "internalType": "string",
          "name": "baseTokenURI",
          "type": "string"
        },
        {
          "internalType": "address",
          "name": "soulboundIdentity",
          "type": "address"
        },
        {
          "components": [
            {
              "internalType": "address",
              "name": "swapRouter",
              "type": "address"
            },
            {
              "internalType": "address",
              "name": "wrappedNativeToken",
              "type": "address"
            },
            {
              "internalType": "address",
              "name": "stableCoin",
              "type": "address"
            },
            {
              "internalType": "address",
              "name": "masaToken",
              "type": "address"
            },
            {
              "internalType": "address",
              "name": "projectFeeReceiver",
              "type": "address"
            },
            {
              "internalType": "address",
              "name": "protocolFeeReceiver",
              "type": "address"
            },
            {
              "internalType": "uint256",
              "name": "protocolFeeAmount",
              "type": "uint256"
            },
            {
              "internalType": "uint256",
              "name": "protocolFeePercent",
              "type": "uint256"
            },
            {
              "internalType": "uint256",
              "name": "protocolFeePercentSub",
              "type": "uint256"
            }
          ],
          "internalType": "struct PaymentGateway.PaymentParams",
          "name": "paymentParams",
          "type": "tuple"
        }
      ],
      "stateMutability": "nonpayable",
      "type": "constructor"
    },
    {
      "inputs": [],
      "name": "AlreadyAdded",
      "type": "error"
    },
    {
      "inputs": [
        {
          "internalType": "uint256",
          "name": "amount",
          "type": "uint256"
        }
      ],
      "name": "InsufficientEthAmount",
      "type": "error"
    },
    {
      "inputs": [
        {
          "internalType": "address",
          "name": "paymentMethod",
          "type": "address"
        }
      ],
      "name": "InvalidPaymentMethod",
      "type": "error"
    },
    {
      "inputs": [
        {
          "internalType": "address",
          "name": "token",
          "type": "address"
        }
      ],
      "name": "InvalidToken",
      "type": "error"
    },
    {
      "inputs": [
        {
          "internalType": "address",
          "name": "erc20token",
          "type": "address"
        }
      ],
      "name": "NonExistingErc20Token",
      "type": "error"
    },
    {
      "inputs": [],
      "name": "NotLinkedToAnIdentitySBT",
      "type": "error"
    },
    {
      "inputs": [],
      "name": "PaymentParamsNotSet",
      "type": "error"
    },
    {
      "inputs": [],
      "name": "ProtocolFeeReceiverNotSet",
      "type": "error"
    },
    {
      "inputs": [],
      "name": "RefundFailed",
      "type": "error"
    },
    {
      "inputs": [],
      "name": "SameValue",
      "type": "error"
    },
    {
      "inputs": [],
      "name": "TransferFailed",
      "type": "error"
    },
    {
      "inputs": [],
      "name": "UserMustHaveProtocolOrProjectAdminRole",
      "type": "error"
    },
    {
      "anonymous": false,
      "inputs": [
        {
          "indexed": true,
          "internalType": "address",
          "name": "_owner",
          "type": "address"
        },
        {
          "indexed": true,
          "internalType": "uint256",
          "name": "_tokenId",
          "type": "uint256"
        }
      ],
      "name": "Burn",
      "type": "event"
    },
    {
      "anonymous": false,
      "inputs": [
        {
          "indexed": true,
          "internalType": "address",
          "name": "_owner",
          "type": "address"
        },
        {
          "indexed": true,
          "internalType": "uint256",
          "name": "_tokenId",
          "type": "uint256"
        }
      ],
      "name": "Mint",
      "type": "event"
    },
    {
      "anonymous": false,
      "inputs": [
        {
          "indexed": false,
          "internalType": "uint256",
          "name": "tokenId",
          "type": "uint256"
        },
        {
          "indexed": false,
          "internalType": "address",
          "name": "to",
          "type": "address"
        }
      ],
      "name": "MintedToAddress",
      "type": "event"
    },
    {
      "anonymous": false,
      "inputs": [
        {
          "indexed": true,
          "internalType": "bytes32",
          "name": "role",
          "type": "bytes32"
        },
        {
          "indexed": true,
          "internalType": "bytes32",
          "name": "previousAdminRole",
          "type": "bytes32"
        },
        {
          "indexed": true,
          "internalType": "bytes32",
          "name": "newAdminRole",
          "type": "bytes32"
        }
      ],
      "name": "RoleAdminChanged",
      "type": "event"
    },
    {
      "anonymous": false,
      "inputs": [
        {
          "indexed": true,
          "internalType": "bytes32",
          "name": "role",
          "type": "bytes32"
        },
        {
          "indexed": true,
          "internalType": "address",
          "name": "account",
          "type": "address"
        },
        {
          "indexed": true,
          "internalType": "address",
          "name": "sender",
          "type": "address"
        }
      ],
      "name": "RoleGranted",
      "type": "event"
    },
    {
      "anonymous": false,
      "inputs": [
        {
          "indexed": true,
          "internalType": "bytes32",
          "name": "role",
          "type": "bytes32"
        },
        {
          "indexed": true,
          "internalType": "address",
          "name": "account",
          "type": "address"
        },
        {
          "indexed": true,
          "internalType": "address",
          "name": "sender",
          "type": "address"
        }
      ],
      "name": "RoleRevoked",
      "type": "event"
    },
    {
      "inputs": [],
      "name": "DEFAULT_ADMIN_ROLE",
      "outputs": [
        {
          "internalType": "bytes32",
          "name": "",
          "type": "bytes32"
        }
      ],
      "stateMutability": "view",
      "type": "function"
    },
    {
      "inputs": [],
      "name": "MINTER_ROLE",
      "outputs": [
        {
          "internalType": "bytes32",
          "name": "",
          "type": "bytes32"
        }
      ],
      "stateMutability": "view",
      "type": "function"
    },
    {
      "inputs": [],
      "name": "PROJECT_ADMIN_ROLE",
      "outputs": [
        {
          "internalType": "bytes32",
          "name": "",
          "type": "bytes32"
        }
      ],
      "stateMutability": "view",
      "type": "function"
    },
    {
      "inputs": [],
      "name": "addLinkPrice",
      "outputs": [
        {
          "internalType": "uint256",
          "name": "",
          "type": "uint256"
        }
      ],
      "stateMutability": "view",
      "type": "function"
    },
    {
      "inputs": [],
      "name": "addLinkPriceMASA",
      "outputs": [
        {
          "internalType": "uint256",
          "name": "",
          "type": "uint256"
        }
      ],
      "stateMutability": "view",
      "type": "function"
    },
    {
      "inputs": [
        {
          "internalType": "address",
          "name": "owner",
          "type": "address"
        }
      ],
      "name": "balanceOf",
      "outputs": [
        {
          "internalType": "uint256",
          "name": "",
          "type": "uint256"
        }
      ],
      "stateMutability": "view",
      "type": "function"
    },
    {
      "inputs": [
        {
          "internalType": "uint256",
          "name": "tokenId",
          "type": "uint256"
        }
      ],
      "name": "burn",
      "outputs": [],
      "stateMutability": "nonpayable",
      "type": "function"
    },
    {
      "inputs": [
        {
          "internalType": "address",
          "name": "_paymentMethod",
          "type": "address"
        }
      ],
      "name": "disablePaymentMethod",
      "outputs": [],
      "stateMutability": "nonpayable",
      "type": "function"
    },
    {
      "inputs": [
        {
          "internalType": "address",
          "name": "_paymentMethod",
          "type": "address"
        }
      ],
      "name": "enablePaymentMethod",
      "outputs": [],
      "stateMutability": "nonpayable",
      "type": "function"
    },
    {
      "inputs": [
        {
          "internalType": "address",
          "name": "",
          "type": "address"
        }
      ],
      "name": "enabledPaymentMethod",
      "outputs": [
        {
          "internalType": "bool",
          "name": "",
          "type": "bool"
        }
      ],
      "stateMutability": "view",
      "type": "function"
    },
    {
      "inputs": [
        {
          "internalType": "uint256",
          "name": "",
          "type": "uint256"
        }
      ],
      "name": "enabledPaymentMethods",
      "outputs": [
        {
          "internalType": "address",
          "name": "",
          "type": "address"
        }
      ],
      "stateMutability": "view",
      "type": "function"
    },
    {
      "inputs": [
        {
          "internalType": "uint256",
          "name": "tokenId",
          "type": "uint256"
        }
      ],
      "name": "exists",
      "outputs": [
        {
          "internalType": "bool",
          "name": "",
          "type": "bool"
        }
      ],
      "stateMutability": "view",
      "type": "function"
    },
    {
      "inputs": [],
      "name": "getEnabledPaymentMethods",
      "outputs": [
        {
          "internalType": "address[]",
          "name": "",
          "type": "address[]"
        }
      ],
      "stateMutability": "view",
      "type": "function"
    },
    {
      "inputs": [
        {
          "internalType": "uint256",
          "name": "tokenId",
          "type": "uint256"
        }
      ],
      "name": "getEncryptedData",
      "outputs": [
        {
          "components": [
            {
              "internalType": "bytes",
              "name": "iv",
              "type": "bytes"
            },
            {
              "internalType": "bytes",
              "name": "ephemPublicKey",
              "type": "bytes"
            },
            {
              "internalType": "bytes",
              "name": "ciphertext",
              "type": "bytes"
            },
            {
              "internalType": "bytes",
              "name": "mac",
              "type": "bytes"
            }
          ],
          "internalType": "struct ZKSBT.EncryptedData",
          "name": "",
          "type": "tuple"
        },
        {
          "components": [
            {
              "internalType": "bytes",
              "name": "iv",
              "type": "bytes"
            },
            {
              "internalType": "bytes",
              "name": "ephemPublicKey",
              "type": "bytes"
            },
            {
              "internalType": "bytes",
              "name": "ciphertext",
              "type": "bytes"
            },
            {
              "internalType": "bytes",
              "name": "mac",
              "type": "bytes"
            }
          ],
          "internalType": "struct ZKSBT.EncryptedData",
          "name": "",
          "type": "tuple"
        },
        {
          "components": [
            {
              "internalType": "bytes",
              "name": "iv",
              "type": "bytes"
            },
            {
              "internalType": "bytes",
              "name": "ephemPublicKey",
              "type": "bytes"
            },
            {
              "internalType": "bytes",
              "name": "ciphertext",
              "type": "bytes"
            },
            {
              "internalType": "bytes",
              "name": "mac",
              "type": "bytes"
            }
          ],
          "internalType": "struct ZKSBT.EncryptedData",
          "name": "",
          "type": "tuple"
        }
      ],
      "stateMutability": "view",
      "type": "function"
    },
    {
      "inputs": [
        {
          "internalType": "uint256",
          "name": "tokenId",
          "type": "uint256"
        }
      ],
      "name": "getIdentityId",
      "outputs": [
        {
          "internalType": "uint256",
          "name": "",
          "type": "uint256"
        }
      ],
      "stateMutability": "view",
      "type": "function"
    },
    {
      "inputs": [
        {
          "internalType": "address",
          "name": "paymentMethod",
          "type": "address"
        }
      ],
      "name": "getMintPrice",
      "outputs": [
        {
          "internalType": "uint256",
          "name": "price",
          "type": "uint256"
        }
      ],
      "stateMutability": "view",
      "type": "function"
    },
    {
      "inputs": [
        {
          "internalType": "address",
          "name": "paymentMethod",
          "type": "address"
        }
      ],
      "name": "getMintPriceWithProtocolFee",
      "outputs": [
        {
          "internalType": "uint256",
          "name": "price",
          "type": "uint256"
        },
        {
          "internalType": "uint256",
          "name": "protocolFee",
          "type": "uint256"
        }
      ],
      "stateMutability": "view",
      "type": "function"
    },
    {
      "inputs": [
        {
          "internalType": "address",
          "name": "paymentMethod",
          "type": "address"
        },
        {
          "internalType": "uint256",
          "name": "amount",
          "type": "uint256"
        }
      ],
      "name": "getProtocolFee",
      "outputs": [
        {
          "internalType": "uint256",
          "name": "",
          "type": "uint256"
        }
      ],
      "stateMutability": "view",
      "type": "function"
    },
    {
      "inputs": [
        {
          "internalType": "uint256",
          "name": "amount",
          "type": "uint256"
        }
      ],
      "name": "getProtocolFeeSub",
      "outputs": [
        {
          "internalType": "uint256",
          "name": "",
          "type": "uint256"
        }
      ],
      "stateMutability": "view",
      "type": "function"
    },
    {
      "inputs": [
        {
          "internalType": "bytes32",
          "name": "role",
          "type": "bytes32"
        }
      ],
      "name": "getRoleAdmin",
      "outputs": [
        {
          "internalType": "bytes32",
          "name": "",
          "type": "bytes32"
        }
      ],
      "stateMutability": "view",
      "type": "function"
    },
    {
      "inputs": [
        {
          "internalType": "uint256",
          "name": "tokenId",
          "type": "uint256"
        }
      ],
      "name": "getRoot",
      "outputs": [
        {
          "internalType": "bytes",
          "name": "",
          "type": "bytes"
        }
      ],
      "stateMutability": "view",
      "type": "function"
    },
    {
      "inputs": [
        {
          "internalType": "bytes32",
          "name": "role",
          "type": "bytes32"
        },
        {
          "internalType": "address",
          "name": "account",
          "type": "address"
        }
      ],
      "name": "grantRole",
      "outputs": [],
      "stateMutability": "nonpayable",
      "type": "function"
    },
    {
      "inputs": [
        {
          "internalType": "bytes32",
          "name": "role",
          "type": "bytes32"
        },
        {
          "internalType": "address",
          "name": "account",
          "type": "address"
        }
      ],
      "name": "hasRole",
      "outputs": [
        {
          "internalType": "bool",
          "name": "",
          "type": "bool"
        }
      ],
      "stateMutability": "view",
      "type": "function"
    },
    {
      "inputs": [],
      "name": "masaToken",
      "outputs": [
        {
          "internalType": "address",
          "name": "",
          "type": "address"
        }
      ],
      "stateMutability": "view",
      "type": "function"
    },
    {
      "inputs": [
        {
          "internalType": "address",
          "name": "to",
          "type": "address"
        },
        {
          "internalType": "bytes",
          "name": "root",
          "type": "bytes"
        },
        {
          "components": [
            {
              "internalType": "bytes",
              "name": "iv",
              "type": "bytes"
            },
            {
              "internalType": "bytes",
              "name": "ephemPublicKey",
              "type": "bytes"
            },
            {
              "internalType": "bytes",
              "name": "ciphertext",
              "type": "bytes"
            },
            {
              "internalType": "bytes",
              "name": "mac",
              "type": "bytes"
            }
          ],
          "internalType": "struct ZKSBT.EncryptedData",
          "name": "encryptedCreditScore",
          "type": "tuple"
        },
        {
          "components": [
            {
              "internalType": "bytes",
              "name": "iv",
              "type": "bytes"
            },
            {
              "internalType": "bytes",
              "name": "ephemPublicKey",
              "type": "bytes"
            },
            {
              "internalType": "bytes",
              "name": "ciphertext",
              "type": "bytes"
            },
            {
              "internalType": "bytes",
              "name": "mac",
              "type": "bytes"
            }
          ],
          "internalType": "struct ZKSBT.EncryptedData",
          "name": "encryptedIncome",
          "type": "tuple"
        },
        {
          "components": [
            {
              "internalType": "bytes",
              "name": "iv",
              "type": "bytes"
            },
            {
              "internalType": "bytes",
              "name": "ephemPublicKey",
              "type": "bytes"
            },
            {
              "internalType": "bytes",
              "name": "ciphertext",
              "type": "bytes"
            },
            {
              "internalType": "bytes",
              "name": "mac",
              "type": "bytes"
            }
          ],
          "internalType": "struct ZKSBT.EncryptedData",
          "name": "encryptedReportDate",
          "type": "tuple"
        }
      ],
      "name": "mint",
      "outputs": [
        {
          "internalType": "uint256",
          "name": "",
          "type": "uint256"
        }
      ],
      "stateMutability": "payable",
      "type": "function"
    },
    {
      "inputs": [],
      "name": "mintPrice",
      "outputs": [
        {
          "internalType": "uint256",
          "name": "",
          "type": "uint256"
        }
      ],
      "stateMutability": "view",
      "type": "function"
    },
    {
      "inputs": [],
      "name": "mintPriceMASA",
      "outputs": [
        {
          "internalType": "uint256",
          "name": "",
          "type": "uint256"
        }
      ],
      "stateMutability": "view",
      "type": "function"
    },
    {
      "inputs": [],
      "name": "name",
      "outputs": [
        {
          "internalType": "string",
          "name": "",
          "type": "string"
        }
      ],
      "stateMutability": "view",
      "type": "function"
    },
    {
      "inputs": [
        {
          "internalType": "uint256",
          "name": "tokenId",
          "type": "uint256"
        }
      ],
      "name": "ownerOf",
      "outputs": [
        {
          "internalType": "address",
          "name": "",
          "type": "address"
        }
      ],
      "stateMutability": "view",
      "type": "function"
    },
    {
      "inputs": [],
      "name": "projectFeeReceiver",
      "outputs": [
        {
          "internalType": "address",
          "name": "",
          "type": "address"
        }
      ],
      "stateMutability": "view",
      "type": "function"
    },
    {
      "inputs": [],
      "name": "protocolFeeAmount",
      "outputs": [
        {
          "internalType": "uint256",
          "name": "",
          "type": "uint256"
        }
      ],
      "stateMutability": "view",
      "type": "function"
    },
    {
      "inputs": [],
      "name": "protocolFeePercent",
      "outputs": [
        {
          "internalType": "uint256",
          "name": "",
          "type": "uint256"
        }
      ],
      "stateMutability": "view",
      "type": "function"
    },
    {
      "inputs": [],
      "name": "protocolFeePercentSub",
      "outputs": [
        {
          "internalType": "uint256",
          "name": "",
          "type": "uint256"
        }
      ],
      "stateMutability": "view",
      "type": "function"
    },
    {
      "inputs": [],
      "name": "protocolFeeReceiver",
      "outputs": [
        {
          "internalType": "address",
          "name": "",
          "type": "address"
        }
      ],
      "stateMutability": "view",
      "type": "function"
    },
    {
      "inputs": [],
      "name": "queryLinkPrice",
      "outputs": [
        {
          "internalType": "uint256",
          "name": "",
          "type": "uint256"
        }
      ],
      "stateMutability": "view",
      "type": "function"
    },
    {
      "inputs": [],
      "name": "queryLinkPriceMASA",
      "outputs": [
        {
          "internalType": "uint256",
          "name": "",
          "type": "uint256"
        }
      ],
      "stateMutability": "view",
      "type": "function"
    },
    {
      "inputs": [
        {
          "internalType": "bytes32",
          "name": "role",
          "type": "bytes32"
        },
        {
          "internalType": "address",
          "name": "account",
          "type": "address"
        }
      ],
      "name": "renounceRole",
      "outputs": [],
      "stateMutability": "nonpayable",
      "type": "function"
    },
    {
      "inputs": [
        {
          "internalType": "bytes32",
          "name": "role",
          "type": "bytes32"
        },
        {
          "internalType": "address",
          "name": "account",
          "type": "address"
        }
      ],
      "name": "revokeRole",
      "outputs": [],
      "stateMutability": "nonpayable",
      "type": "function"
    },
    {
      "inputs": [
        {
          "internalType": "uint256",
          "name": "",
          "type": "uint256"
        }
      ],
      "name": "sbtData",
      "outputs": [
        {
          "internalType": "bytes",
          "name": "root",
          "type": "bytes"
        },
        {
          "components": [
            {
              "internalType": "bytes",
              "name": "iv",
              "type": "bytes"
            },
            {
              "internalType": "bytes",
              "name": "ephemPublicKey",
              "type": "bytes"
            },
            {
              "internalType": "bytes",
              "name": "ciphertext",
              "type": "bytes"
            },
            {
              "internalType": "bytes",
              "name": "mac",
              "type": "bytes"
            }
          ],
          "internalType": "struct ZKSBT.EncryptedData",
          "name": "encryptedCreditScore",
          "type": "tuple"
        },
        {
          "components": [
            {
              "internalType": "bytes",
              "name": "iv",
              "type": "bytes"
            },
            {
              "internalType": "bytes",
              "name": "ephemPublicKey",
              "type": "bytes"
            },
            {
              "internalType": "bytes",
              "name": "ciphertext",
              "type": "bytes"
            },
            {
              "internalType": "bytes",
              "name": "mac",
              "type": "bytes"
            }
          ],
          "internalType": "struct ZKSBT.EncryptedData",
          "name": "encryptedIncome",
          "type": "tuple"
        },
        {
          "components": [
            {
              "internalType": "bytes",
              "name": "iv",
              "type": "bytes"
            },
            {
              "internalType": "bytes",
              "name": "ephemPublicKey",
              "type": "bytes"
            },
            {
              "internalType": "bytes",
              "name": "ciphertext",
              "type": "bytes"
            },
            {
              "internalType": "bytes",
              "name": "mac",
              "type": "bytes"
            }
          ],
          "internalType": "struct ZKSBT.EncryptedData",
          "name": "encryptedReportDate",
          "type": "tuple"
        }
      ],
      "stateMutability": "view",
      "type": "function"
    },
    {
      "inputs": [
        {
          "internalType": "uint256",
          "name": "_addLinkPrice",
          "type": "uint256"
        }
      ],
      "name": "setAddLinkPrice",
      "outputs": [],
      "stateMutability": "nonpayable",
      "type": "function"
    },
    {
      "inputs": [
        {
          "internalType": "uint256",
          "name": "_addLinkPriceMASA",
          "type": "uint256"
        }
      ],
      "name": "setAddLinkPriceMASA",
      "outputs": [],
      "stateMutability": "nonpayable",
      "type": "function"
    },
    {
      "inputs": [
        {
          "internalType": "address",
          "name": "_masaToken",
          "type": "address"
        }
      ],
      "name": "setMasaToken",
      "outputs": [],
      "stateMutability": "nonpayable",
      "type": "function"
    },
    {
      "inputs": [
        {
          "internalType": "uint256",
          "name": "_mintPrice",
          "type": "uint256"
        }
      ],
      "name": "setMintPrice",
      "outputs": [],
      "stateMutability": "nonpayable",
      "type": "function"
    },
    {
      "inputs": [
        {
          "internalType": "uint256",
          "name": "_mintPriceMASA",
          "type": "uint256"
        }
      ],
      "name": "setMintPriceMASA",
      "outputs": [],
      "stateMutability": "nonpayable",
      "type": "function"
    },
    {
      "inputs": [
        {
          "internalType": "address",
          "name": "_projectFeeReceiver",
          "type": "address"
        }
      ],
      "name": "setProjectFeeReceiver",
      "outputs": [],
      "stateMutability": "nonpayable",
      "type": "function"
    },
    {
      "inputs": [
        {
          "internalType": "uint256",
          "name": "_protocolFeeAmount",
          "type": "uint256"
        }
      ],
      "name": "setProtocolFeeAmount",
      "outputs": [],
      "stateMutability": "nonpayable",
      "type": "function"
    },
    {
      "inputs": [
        {
          "internalType": "uint256",
          "name": "_protocolFeePercent",
          "type": "uint256"
        }
      ],
      "name": "setProtocolFeePercent",
      "outputs": [],
      "stateMutability": "nonpayable",
      "type": "function"
    },
    {
      "inputs": [
        {
          "internalType": "uint256",
          "name": "_protocolFeePercentSub",
          "type": "uint256"
        }
      ],
      "name": "setProtocolFeePercentSub",
      "outputs": [],
      "stateMutability": "nonpayable",
      "type": "function"
    },
    {
      "inputs": [
        {
          "internalType": "address",
          "name": "_protocolFeeReceiver",
          "type": "address"
        }
      ],
      "name": "setProtocolFeeReceiver",
      "outputs": [],
      "stateMutability": "nonpayable",
      "type": "function"
    },
    {
      "inputs": [
        {
          "internalType": "uint256",
          "name": "_queryLinkPrice",
          "type": "uint256"
        }
      ],
      "name": "setQueryLinkPrice",
      "outputs": [],
      "stateMutability": "nonpayable",
      "type": "function"
    },
    {
      "inputs": [
        {
          "internalType": "uint256",
          "name": "_queryLinkPriceMASA",
          "type": "uint256"
        }
      ],
      "name": "setQueryLinkPriceMASA",
      "outputs": [],
      "stateMutability": "nonpayable",
      "type": "function"
    },
    {
      "inputs": [
        {
          "internalType": "address",
          "name": "_soulboundIdentity",
          "type": "address"
        }
      ],
      "name": "setSoulboundIdentity",
      "outputs": [],
      "stateMutability": "nonpayable",
      "type": "function"
    },
    {
      "inputs": [
        {
          "internalType": "address",
          "name": "_stableCoin",
          "type": "address"
        }
      ],
      "name": "setStableCoin",
      "outputs": [],
      "stateMutability": "nonpayable",
      "type": "function"
    },
    {
      "inputs": [
        {
          "internalType": "address",
          "name": "_swapRouter",
          "type": "address"
        }
      ],
      "name": "setSwapRouter",
      "outputs": [],
      "stateMutability": "nonpayable",
      "type": "function"
    },
    {
      "inputs": [
        {
          "internalType": "address",
          "name": "_wrappedNativeToken",
          "type": "address"
        }
      ],
      "name": "setWrappedNativeToken",
      "outputs": [],
      "stateMutability": "nonpayable",
      "type": "function"
    },
    {
      "inputs": [],
      "name": "soulboundIdentity",
      "outputs": [
        {
          "internalType": "contract ISoulboundIdentity",
          "name": "",
          "type": "address"
        }
      ],
      "stateMutability": "view",
      "type": "function"
    },
    {
      "inputs": [],
      "name": "stableCoin",
      "outputs": [
        {
          "internalType": "address",
          "name": "",
          "type": "address"
        }
      ],
      "stateMutability": "view",
      "type": "function"
    },
    {
      "inputs": [
        {
          "internalType": "bytes4",
          "name": "interfaceId",
          "type": "bytes4"
        }
      ],
      "name": "supportsInterface",
      "outputs": [
        {
          "internalType": "bool",
          "name": "",
          "type": "bool"
        }
      ],
      "stateMutability": "view",
      "type": "function"
    },
    {
      "inputs": [],
      "name": "swapRouter",
      "outputs": [
        {
          "internalType": "address",
          "name": "",
          "type": "address"
        }
      ],
      "stateMutability": "view",
      "type": "function"
    },
    {
      "inputs": [],
      "name": "symbol",
      "outputs": [
        {
          "internalType": "string",
          "name": "",
          "type": "string"
        }
      ],
      "stateMutability": "view",
      "type": "function"
    },
    {
      "inputs": [
        {
          "internalType": "uint256",
          "name": "index",
          "type": "uint256"
        }
      ],
      "name": "tokenByIndex",
      "outputs": [
        {
          "internalType": "uint256",
          "name": "",
          "type": "uint256"
        }
      ],
      "stateMutability": "view",
      "type": "function"
    },
    {
      "inputs": [
        {
          "internalType": "address",
          "name": "owner",
          "type": "address"
        },
        {
          "internalType": "uint256",
          "name": "index",
          "type": "uint256"
        }
      ],
      "name": "tokenOfOwnerByIndex",
      "outputs": [
        {
          "internalType": "uint256",
          "name": "",
          "type": "uint256"
        }
      ],
      "stateMutability": "view",
      "type": "function"
    },
    {
      "inputs": [
        {
          "internalType": "uint256",
          "name": "tokenId",
          "type": "uint256"
        }
      ],
      "name": "tokenURI",
      "outputs": [
        {
          "internalType": "string",
          "name": "",
          "type": "string"
        }
      ],
      "stateMutability": "view",
      "type": "function"
    },
    {
      "inputs": [],
      "name": "totalSupply",
      "outputs": [
        {
          "internalType": "uint256",
          "name": "",
          "type": "uint256"
        }
      ],
      "stateMutability": "view",
      "type": "function"
    },
    {
      "inputs": [],
      "name": "wrappedNativeToken",
      "outputs": [
        {
          "internalType": "address",
          "name": "",
          "type": "address"
        }
      ],
      "stateMutability": "view",
      "type": "function"
    }
  ],
  "transactionHash": "0x42bb6fcbc872cdc846b7d755bb580f4de5deecd31611ffb4b3a1226b509dcd9c",
  "args": [
    "0xA38dd237a3A8D50537B74a4B0D4E7E8A5359386F",
    "ZKP SBT",
    "ZKSBT",
    "https://testserver/v1.0",
    "0x0000000000000000000000000000000000000000",
    [
      "0x7a250d5630B4cF539739dF2C5dAcb4c659F2488D",
      "0xB4FBF271143F4FBf7B91A5ded31805e42b2208d6",
      "0xD87Ba7A50B2E7E660f678A895E4B72E7CB4CCd9C",
      "0x1f9840a85d5aF5bf1D1762F925BDADdC4201F984",
      "0x46c9cdA3F83C5c13C767A07b6E80aEd302E40B28",
      "0x0000000000000000000000000000000000000000",
      0,
      0,
      0
    ]
  ],
  "numDeployments": 1,
  "solcInputHash": "3d7fd040eb78a688dbe5eca7e5bc5282",
  "bytecode": "0x60806040523480156200001157600080fd5b506040516200550438038062005504833981016040819052620000349162000593565b8585858585858585858585858484878362000051600083620001af565b8051600180546001600160a01b03199081166001600160a01b039384161790915560208084015160028054841691851691909117905560408401516003805484169185169190911790556060840151600480548416918516919091179055608084015160078054841691851691909117905560a084015160088054909316931692909217905560c082015160095560e0820151600a5561010090910151600b558351620001059250600c9185019062000263565b5080516200011b90600d90602084019062000263565b506200012d91506000905087620001af565b82516200014290601490602086019062000263565b5050601580546001600160a01b0319166001600160a01b0392909216919091179055506200019792507f9f2df0fed2c77648de5860a4cc508cd0818c85b8b8a1ab4ceeef8d981c8956a69150889050620001af565b50506001601e5550620006c798505050505050505050565b620001bb828262000238565b62000234576000828152602081815260408083206001600160a01b03851684529091529020805460ff19166001179055620001f33390565b6001600160a01b0316816001600160a01b0316837f2f8788117e7eff1d82e926ec794901d17c78024a50270940304540a733656f0d60405160405180910390a45b5050565b6000828152602081815260408083206001600160a01b038516845290915290205460ff165b92915050565b828054620002719062000696565b90600052602060002090601f016020900481019282620002955760008555620002e0565b82601f10620002b057805160ff1916838001178555620002e0565b82800160010185558215620002e0579182015b82811115620002e0578251825591602001919060010190620002c3565b50620002ee929150620002f2565b5090565b5b80821115620002ee5760008155600101620002f3565b60006001600160a01b0382166200025d565b620003268162000309565b81146200033257600080fd5b50565b80516200025d816200031b565b601f01601f191690565b634e487b7160e01b600052604160045260246000fd5b6200036d8262000342565b81018181106001600160401b03821117156200038d576200038d6200034c565b6040525050565b6000620003a060405190565b9050620003ae828262000362565b919050565b60006001600160401b03821115620003cf57620003cf6200034c565b620003da8262000342565b60200192915050565b60005b8381101562000400578181015183820152602001620003e6565b8381111562000410576000848401525b50505050565b60006200042d6200042784620003b3565b62000394565b9050828152602081018484840111156200044a576200044a600080fd5b62000457848285620003e3565b509392505050565b600082601f830112620004755762000475600080fd5b81516200048784826020860162000416565b949350505050565b8062000326565b80516200025d816200048f565b60006101208284031215620004bb57620004bb600080fd5b620004c861012062000394565b90506000620004d8848462000335565b8252506020620004eb8484830162000335565b6020830152506040620005018482850162000335565b6040830152506060620005178482850162000335565b60608301525060806200052d8482850162000335565b60808301525060a0620005438482850162000335565b60a08301525060c0620005598482850162000496565b60c08301525060e06200056f8482850162000496565b60e083015250610100620005868482850162000496565b6101008301525092915050565b6000806000806000806101c08789031215620005b257620005b2600080fd5b6000620005c0898962000335565b96505060208701516001600160401b03811115620005e157620005e1600080fd5b620005ef89828a016200045f565b95505060408701516001600160401b03811115620006105762000610600080fd5b6200061e89828a016200045f565b94505060608701516001600160401b038111156200063f576200063f600080fd5b6200064d89828a016200045f565b93505060806200066089828a0162000335565b92505060a06200067389828a01620004a3565b9150509295509295509295565b634e487b7160e01b600052602260045260246000fd5b600281046001821680620006ab57607f821691505b60208210811415620006c157620006c162000680565b50919050565b614e2d80620006d76000396000f3fe6080604052600436106102dd5760003560e01c8062bdfde5146102e257806301ffc9a7146103045780630513c3e91461033a57806306fdde03146103675780631020051914610389578063126ed01c146103ab57806313150b48146103d8578063135f470c146103ee57806317fcb39b1461040457806318160ddd146104245780631830e881146104395780631f37c1241461044f578063217a2c7b1461046557806323af4e1714610485578063248a9ca3146104a5578063289c686b146104c55780632f2ff15d146104e55780632f745c591461050557806336568abe1461052557806339a51be5146105455780633ad3033e146105655780633c72ae70146105855780633ec0b0bc146105a557806341273657146105d457806341c04d5e146105f457806342966c681461061657806343c7db9a1461063657806346877b1a146106495780634962a158146106695780634f558e79146106895780634f6ccce7146106a95780636352211e146106c95780636817c76c146106e95780636bfd499f146106ff57806370a082311461071f578063719d0f2b1461073f57806376ad19971461075f578063776d1a541461077f578063776fafac1461079557806377bed5ed146107c55780637a0d1646146107f25780637db8cb68146108225780638d018461146108425780638ec9c93b1461086257806391d148541461087857806394a665e91461089857806395d89b41146108b8578063992642e5146108cd57806399b589cb146108ed5780639b24b3b01461090d578063a217fddf1461092d578063a498342114610942578063b97d6b2314610962578063c1177d1914610978578063c31c9c0714610998578063c86aadb6146109b8578063c87b56dd146109d8578063d5391393146109f8578063d547741f14610a1a578063d6e6eb9f14610a3a578063da058ae314610a50578063eb93e85514610a70578063ebda439614610a9e578063f4a0a52814610abe578063fd48ac8314610ade575b600080fd5b3480156102ee57600080fd5b506103026102fd36600461402e565b610afe565b005b34801561031057600080fd5b5061032461031f36600461406a565b610b32565b6040516103319190614095565b60405180910390f35b34801561034657600080fd5b5061035a61035536600461402e565b610b43565b60405161033191906140c3565b34801561037357600080fd5b5061037c610b6d565b604051610331919061413b565b34801561039557600080fd5b5061039e610bff565b60405161033191906141a9565b3480156103b757600080fd5b506103cb6103c636600461402e565b610c60565b60405161033191906141c0565b3480156103e457600080fd5b506103cb601b5481565b3480156103fa57600080fd5b506103cb600b5481565b34801561041057600080fd5b5060025461035a906001600160a01b031681565b34801561043057600080fd5b506012546103cb565b34801561044557600080fd5b506103cb60175481565b34801561045b57600080fd5b506103cb60185481565b34801561047157600080fd5b506103cb6104803660046141e2565b610c6b565b34801561049157600080fd5b506103026104a036600461421f565b610c7e565b3480156104b157600080fd5b506103cb6104c036600461402e565b610cdb565b3480156104d157600080fd5b506103026104e036600461402e565b610cf0565b3480156104f157600080fd5b50610302610500366004614240565b610d63565b34801561051157600080fd5b506103cb6105203660046141e2565b610d84565b34801561053157600080fd5b50610302610540366004614240565b610ddf565b34801561055157600080fd5b5060085461035a906001600160a01b031681565b34801561057157600080fd5b5061030261058036600461421f565b610e15565b34801561059157600080fd5b506103026105a036600461402e565b610e72565b3480156105b157600080fd5b506105c56105c036600461402e565b610ee5565b604051610331939291906142e2565b3480156105e057600080fd5b506103026105ef36600461421f565b611629565b34801561060057600080fd5b506103cb600080516020614db883398151915281565b34801561062257600080fd5b5061030261063136600461402e565b611686565b6103cb610644366004614387565b6116b8565b34801561065557600080fd5b5061030261066436600461421f565b6118f3565b34801561067557600080fd5b5061030261068436600461402e565b611950565b34801561069557600080fd5b506103246106a436600461402e565b6119c3565b3480156106b557600080fd5b506103cb6106c436600461402e565b6119ce565b3480156106d557600080fd5b5061035a6106e436600461402e565b611a1c565b3480156106f557600080fd5b506103cb60165481565b34801561070b57600080fd5b5061030261071a36600461402e565b611a51565b34801561072b57600080fd5b506103cb61073a36600461421f565b611a85565b34801561074b57600080fd5b506103cb61075a36600461421f565b611ac9565b34801561076b57600080fd5b5061030261077a36600461421f565b611bc9565b34801561078b57600080fd5b506103cb60195481565b3480156107a157600080fd5b506107b56107b036600461402e565b611c26565b604051610331949392919061446a565b3480156107d157600080fd5b506015546107e5906001600160a01b031681565b60405161033191906144f9565b3480156107fe57600080fd5b5061032461080d36600461421f565b60056020526000908152604090205460ff1681565b34801561082e57600080fd5b5061030261083d36600461402e565b6123cc565b34801561084e57600080fd5b5061030261085d36600461421f565b61243f565b34801561086e57600080fd5b506103cb60095481565b34801561088457600080fd5b50610324610893366004614240565b6124db565b3480156108a457600080fd5b506103026108b336600461421f565b612504565b3480156108c457600080fd5b5061037c612671565b3480156108d957600080fd5b5060035461035a906001600160a01b031681565b3480156108f957600080fd5b5060075461035a906001600160a01b031681565b34801561091957600080fd5b5061037c61092836600461402e565b612680565b34801561093957600080fd5b506103cb600081565b34801561094e57600080fd5b5061030261095d36600461402e565b612722565b34801561096e57600080fd5b506103cb601a5481565b34801561098457600080fd5b506103cb61099336600461402e565b612756565b3480156109a457600080fd5b5060015461035a906001600160a01b031681565b3480156109c457600080fd5b506103026109d336600461421f565b61280e565b3480156109e457600080fd5b5061037c6109f336600461402e565b6128ba565b348015610a0457600080fd5b506103cb600080516020614dd883398151915281565b348015610a2657600080fd5b50610302610a35366004614240565b612920565b348015610a4657600080fd5b506103cb600a5481565b348015610a5c57600080fd5b50610302610a6b36600461421f565b61293c565b348015610a7c57600080fd5b50610a90610a8b36600461421f565b612999565b604051610331929190614507565b348015610aaa57600080fd5b5060045461035a906001600160a01b031681565b348015610aca57600080fd5b50610302610ad936600461402e565b6129bb565b348015610aea57600080fd5b50610302610af936600461402e565b612a2e565b6000610b0981612aa1565b600954821415610b2c5760405163c23f6ccb60e01b815260040160405180910390fd5b50600955565b6000610b3d82612aab565b92915050565b60068181548110610b5357600080fd5b6000918252602090912001546001600160a01b0316905081565b6060600c8054610b7c90614538565b80601f0160208091040260200160405190810160405280929190818152602001828054610ba890614538565b8015610bf55780601f10610bca57610100808354040283529160200191610bf5565b820191906000526020600020905b815481529060010190602001808311610bd857829003601f168201915b5050505050905090565b60606006805480602002602001604051908101604052809291908181526020018280548015610bf557602002820191906000526020600020905b81546001600160a01b03168152600190910190602001808311610c39575050505050905090565b6000610b3d82612ad0565b6000610c778383612b03565b9392505050565b6000610c8981612aa1565b6003546001600160a01b0383811691161415610cb85760405163c23f6ccb60e01b815260040160405180910390fd5b50600380546001600160a01b0319166001600160a01b0392909216919091179055565b60009081526020819052604090206001015490565b610cfb6000336124db565b158015610d1d5750610d1b600080516020614db8833981519152336124db565b155b15610d3b576040516326f0f48160e01b815260040160405180910390fd5b806018541415610d5e5760405163c23f6ccb60e01b815260040160405180910390fd5b601855565b610d6c82610cdb565b610d7581612aa1565b610d7f8383612b72565b505050565b6000610d8f83611a85565b8210610db65760405162461bcd60e51b8152600401610dad906145a7565b60405180910390fd5b506001600160a01b03919091166000908152601060209081526040808320938352929052205490565b6001600160a01b0381163314610e075760405162461bcd60e51b8152600401610dad90614603565b610e118282612bf6565b5050565b6000610e2081612aa1565b6015546001600160a01b0383811691161415610e4f5760405163c23f6ccb60e01b815260040160405180910390fd5b50601580546001600160a01b0319166001600160a01b0392909216919091179055565b610e7d6000336124db565b158015610e9f5750610e9d600080516020614db8833981519152336124db565b155b15610ebd576040516326f0f48160e01b815260040160405180910390fd5b806019541415610ee05760405163c23f6ccb60e01b815260040160405180910390fd5b601955565b610eed613f55565b610ef5613f55565b610efd613f55565b6000848152601d6020526040908190208151608081019092526001810180549092600583019260090191849082908290610f3690614538565b80601f0160208091040260200160405190810160405280929190818152602001828054610f6290614538565b8015610faf5780601f10610f8457610100808354040283529160200191610faf565b820191906000526020600020905b815481529060010190602001808311610f9257829003601f168201915b50505050508152602001600182018054610fc890614538565b80601f0160208091040260200160405190810160405280929190818152602001828054610ff490614538565b80156110415780601f1061101657610100808354040283529160200191611041565b820191906000526020600020905b81548152906001019060200180831161102457829003601f168201915b5050505050815260200160028201805461105a90614538565b80601f016020809104026020016040519081016040528092919081815260200182805461108690614538565b80156110d35780601f106110a8576101008083540402835291602001916110d3565b820191906000526020600020905b8154815290600101906020018083116110b657829003601f168201915b505050505081526020016003820180546110ec90614538565b80601f016020809104026020016040519081016040528092919081815260200182805461111890614538565b80156111655780601f1061113a57610100808354040283529160200191611165565b820191906000526020600020905b81548152906001019060200180831161114857829003601f168201915b50505050508152505092508160405180608001604052908160008201805461118c90614538565b80601f01602080910402602001604051908101604052809291908181526020018280546111b890614538565b80156112055780601f106111da57610100808354040283529160200191611205565b820191906000526020600020905b8154815290600101906020018083116111e857829003601f168201915b5050505050815260200160018201805461121e90614538565b80601f016020809104026020016040519081016040528092919081815260200182805461124a90614538565b80156112975780601f1061126c57610100808354040283529160200191611297565b820191906000526020600020905b81548152906001019060200180831161127a57829003601f168201915b505050505081526020016002820180546112b090614538565b80601f01602080910402602001604051908101604052809291908181526020018280546112dc90614538565b80156113295780601f106112fe57610100808354040283529160200191611329565b820191906000526020600020905b81548152906001019060200180831161130c57829003601f168201915b5050505050815260200160038201805461134290614538565b80601f016020809104026020016040519081016040528092919081815260200182805461136e90614538565b80156113bb5780601f10611390576101008083540402835291602001916113bb565b820191906000526020600020905b81548152906001019060200180831161139e57829003601f168201915b5050505050815250509150806040518060800160405290816000820180546113e290614538565b80601f016020809104026020016040519081016040528092919081815260200182805461140e90614538565b801561145b5780601f106114305761010080835404028352916020019161145b565b820191906000526020600020905b81548152906001019060200180831161143e57829003601f168201915b5050505050815260200160018201805461147490614538565b80601f01602080910402602001604051908101604052809291908181526020018280546114a090614538565b80156114ed5780601f106114c2576101008083540402835291602001916114ed565b820191906000526020600020905b8154815290600101906020018083116114d057829003601f168201915b5050505050815260200160028201805461150690614538565b80601f016020809104026020016040519081016040528092919081815260200182805461153290614538565b801561157f5780601f106115545761010080835404028352916020019161157f565b820191906000526020600020905b81548152906001019060200180831161156257829003601f168201915b5050505050815260200160038201805461159890614538565b80601f01602080910402602001604051908101604052809291908181526020018280546115c490614538565b80156116115780601f106115e657610100808354040283529160200191611611565b820191906000526020600020905b8154815290600101906020018083116115f457829003601f168201915b50505050508152505090509250925092509193909250565b600061163481612aa1565b6001546001600160a01b03838116911614156116635760405163c23f6ccb60e01b815260040160405180910390fd5b50600180546001600160a01b0319166001600160a01b0392909216919091179055565b6116903382612c5b565b6116ac5760405162461bcd60e51b8152600401610dad9061464a565b6116b581612c7e565b50565b6000806116c6600089612d18565b6040805160a06020601f8b018190040282018101909252608081018981529293509182918a908a908190850183828082843760009201919091525050509082525060200161171387614821565b815260200161172186614821565b815260200161172f85614821565b90526000828152601d6020908152604090912082518051919261175792849290910190613f7d565b5060208281015180518051919260018501926117769284920190613f7d565b50602082810151805161178f9260018501920190613f7d565b50604082015180516117ab916002840191602090910190613f7d565b50606082015180516117c7916003840191602090910190613f7d565b50505060408201518051805160058401916117e791839160200190613f7d565b5060208281015180516118009260018501920190613f7d565b506040820151805161181c916002840191602090910190613f7d565b5060608201518051611838916003840191602090910190613f7d565b505050606082015180518051600984019161185891839160200190613f7d565b5060208281015180516118719260018501920190613f7d565b506040820151805161188d916002840191602090910190613f7d565b50606082015180516118a9916003840191602090910190613f7d565b5050509050507f0843ee1fcdab527b7002d046bba3513b0d6f0b9817d6c5588c025420ffe3ba1781896040516118e092919061482d565b60405180910390a1979650505050505050565b60006118fe81612aa1565b6008546001600160a01b038381169116141561192d5760405163c23f6ccb60e01b815260040160405180910390fd5b50600880546001600160a01b0319166001600160a01b0392909216919091179055565b61195b6000336124db565b15801561197d575061197b600080516020614db8833981519152336124db565b155b1561199b576040516326f0f48160e01b815260040160405180910390fd5b8060175414156119be5760405163c23f6ccb60e01b815260040160405180910390fd5b601755565b6000610b3d82612d7e565b60006119d960125490565b82106119f75760405162461bcd60e51b8152600401610dad9061488e565b60128281548110611a0a57611a0a61489e565b90600052602060002001549050919050565b6000818152600e60205260408120546001600160a01b031680610b3d5760405162461bcd60e51b8152600401610dad906148e0565b6000611a5c81612aa1565b600b54821415611a7f5760405163c23f6ccb60e01b815260040160405180910390fd5b50600b55565b60006001600160a01b038216611aad5760405162461bcd60e51b8152600401610dad90614933565b506001600160a01b03166000908152600f602052604090205490565b60006016546000148015611add5750601754155b15611aea57506000919050565b6004546001600160a01b038381169116148015611b1f57506001600160a01b03821660009081526005602052604090205460ff165b8015611b2d57506000601754115b15611b3a57505060175490565b6003546001600160a01b038381169116148015611b6f57506001600160a01b03821660009081526005602052604090205460ff165b15611b7c57505060165490565b6001600160a01b03821660009081526005602052604090205460ff1615611ba957610b3d82601654612d9b565b81604051630ac29ab760e31b8152600401610dad91906140c3565b919050565b6000611bd481612aa1565b6004546001600160a01b0383811691161415611c035760405163c23f6ccb60e01b815260040160405180910390fd5b50600480546001600160a01b0319166001600160a01b0392909216919091179055565b601d60205260009081526040902080548190611c4190614538565b80601f0160208091040260200160405190810160405280929190818152602001828054611c6d90614538565b8015611cba5780601f10611c8f57610100808354040283529160200191611cba565b820191906000526020600020905b815481529060010190602001808311611c9d57829003601f168201915b50505050509080600101604051806080016040529081600082018054611cdf90614538565b80601f0160208091040260200160405190810160405280929190818152602001828054611d0b90614538565b8015611d585780601f10611d2d57610100808354040283529160200191611d58565b820191906000526020600020905b815481529060010190602001808311611d3b57829003601f168201915b50505050508152602001600182018054611d7190614538565b80601f0160208091040260200160405190810160405280929190818152602001828054611d9d90614538565b8015611dea5780601f10611dbf57610100808354040283529160200191611dea565b820191906000526020600020905b815481529060010190602001808311611dcd57829003601f168201915b50505050508152602001600282018054611e0390614538565b80601f0160208091040260200160405190810160405280929190818152602001828054611e2f90614538565b8015611e7c5780601f10611e5157610100808354040283529160200191611e7c565b820191906000526020600020905b815481529060010190602001808311611e5f57829003601f168201915b50505050508152602001600382018054611e9590614538565b80601f0160208091040260200160405190810160405280929190818152602001828054611ec190614538565b8015611f0e5780601f10611ee357610100808354040283529160200191611f0e565b820191906000526020600020905b815481529060010190602001808311611ef157829003601f168201915b5050505050815250509080600501604051806080016040529081600082018054611f3790614538565b80601f0160208091040260200160405190810160405280929190818152602001828054611f6390614538565b8015611fb05780601f10611f8557610100808354040283529160200191611fb0565b820191906000526020600020905b815481529060010190602001808311611f9357829003601f168201915b50505050508152602001600182018054611fc990614538565b80601f0160208091040260200160405190810160405280929190818152602001828054611ff590614538565b80156120425780601f1061201757610100808354040283529160200191612042565b820191906000526020600020905b81548152906001019060200180831161202557829003601f168201915b5050505050815260200160028201805461205b90614538565b80601f016020809104026020016040519081016040528092919081815260200182805461208790614538565b80156120d45780601f106120a9576101008083540402835291602001916120d4565b820191906000526020600020905b8154815290600101906020018083116120b757829003601f168201915b505050505081526020016003820180546120ed90614538565b80601f016020809104026020016040519081016040528092919081815260200182805461211990614538565b80156121665780601f1061213b57610100808354040283529160200191612166565b820191906000526020600020905b81548152906001019060200180831161214957829003601f168201915b505050505081525050908060090160405180608001604052908160008201805461218f90614538565b80601f01602080910402602001604051908101604052809291908181526020018280546121bb90614538565b80156122085780601f106121dd57610100808354040283529160200191612208565b820191906000526020600020905b8154815290600101906020018083116121eb57829003601f168201915b5050505050815260200160018201805461222190614538565b80601f016020809104026020016040519081016040528092919081815260200182805461224d90614538565b801561229a5780601f1061226f5761010080835404028352916020019161229a565b820191906000526020600020905b81548152906001019060200180831161227d57829003601f168201915b505050505081526020016002820180546122b390614538565b80601f01602080910402602001604051908101604052809291908181526020018280546122df90614538565b801561232c5780601f106123015761010080835404028352916020019161232c565b820191906000526020600020905b81548152906001019060200180831161230f57829003601f168201915b5050505050815260200160038201805461234590614538565b80601f016020809104026020016040519081016040528092919081815260200182805461237190614538565b80156123be5780601f10612393576101008083540402835291602001916123be565b820191906000526020600020905b8154815290600101906020018083116123a157829003601f168201915b505050505081525050905084565b6123d76000336124db565b1580156123f957506123f7600080516020614db8833981519152336124db565b155b15612417576040516326f0f48160e01b815260040160405180910390fd5b80601b54141561243a5760405163c23f6ccb60e01b815260040160405180910390fd5b601b55565b61244a6000336124db565b15801561246c575061246a600080516020614db8833981519152336124db565b155b1561248a576040516326f0f48160e01b815260040160405180910390fd5b6007546001600160a01b03828116911614156124b95760405163c23f6ccb60e01b815260040160405180910390fd5b600780546001600160a01b0319166001600160a01b0392909216919091179055565b6000918252602082815260408084206001600160a01b0393909316845291905290205460ff1690565b600061250f81612aa1565b6001600160a01b03821660009081526005602052604090205460ff1661254a57816040516318317bd560e01b8152600401610dad91906140c3565b6001600160a01b0382166000908152600560205260408120805460ff191690555b600654811015610d7f57826001600160a01b0316600682815481106125925761259261489e565b6000918252602090912001546001600160a01b0316141561265f57600680546125bd90600190614959565b815481106125cd576125cd61489e565b600091825260209091200154600680546001600160a01b0390921691839081106125f9576125f961489e565b9060005260206000200160006101000a8154816001600160a01b0302191690836001600160a01b03160217905550600680548061263857612638614970565b600082815260209020810160001990810180546001600160a01b0319169055019055505050565b8061266981614986565b91505061256b565b6060600d8054610b7c90614538565b6000818152601d6020526040902080546060919061269d90614538565b80601f01602080910402602001604051908101604052809291908181526020018280546126c990614538565b80156127165780601f106126eb57610100808354040283529160200191612716565b820191906000526020600020905b8154815290600101906020018083116126f957829003601f168201915b50505050509050919050565b600061272d81612aa1565b600a548214156127505760405163c23f6ccb60e01b815260040160405180910390fd5b50600a55565b6015546000906001600160a01b031661278257604051630d7fe67b60e41b815260040160405180910390fd5b600061278d83611a1c565b60155460405163294cdf0d60e01b81529192506001600160a01b03169063294cdf0d906127be9084906004016140c3565b60206040518083038186803b1580156127d657600080fd5b505afa1580156127ea573d6000803e3d6000fd5b505050506040513d601f19601f82011682018060405250810190610c7791906149ac565b600061281981612aa1565b6001600160a01b03821660009081526005602052604090205460ff16156128535760405163f411c32760e01b815260040160405180910390fd5b506001600160a01b03166000818152600560205260408120805460ff191660019081179091556006805491820181559091527ff652222313e28459528d920b65115c16c04f3efc82aaedc97be59f3f377c0d3f0180546001600160a01b0319169091179055565b60606128c582612f27565b60006128cf612f4c565b905060008151116128ef5760405180602001604052806000815250610c77565b806128f984612f5b565b60405160200161290a9291906149ef565b6040516020818303038152906040529392505050565b61292982610cdb565b61293281612aa1565b610d7f8383612bf6565b600061294781612aa1565b6002546001600160a01b03838116911614156129765760405163c23f6ccb60e01b815260040160405180910390fd5b50600280546001600160a01b0319166001600160a01b0392909216919091179055565b6000806129a583611ac9565b9150816129b28484612b03565b91509150915091565b6129c66000336124db565b1580156129e857506129e6600080516020614db8833981519152336124db565b155b15612a06576040516326f0f48160e01b815260040160405180910390fd5b806016541415612a295760405163c23f6ccb60e01b815260040160405180910390fd5b601655565b612a396000336124db565b158015612a5b5750612a59600080516020614db8833981519152336124db565b155b15612a79576040516326f0f48160e01b815260040160405180910390fd5b80601a541415612a9c5760405163c23f6ccb60e01b815260040160405180910390fd5b601a55565b6116b58133612ff7565b60006001600160e01b0319821663780e9d6360e01b1480610b3d5750610b3d82613050565b600b5460009015612afb57610b3d6064612af5600b548561309090919063ffffffff16565b9061309c565b506000919050565b600954600090819015612b3e576003546001600160a01b0385811691161415612b2f5750600954612b3e565b612b3b84600954612d9b565b90505b600a5415610c7757612b6a612b636064612af5600a548761309090919063ffffffff16565b82906130a8565b949350505050565b612b7c82826124db565b610e11576000828152602081815260408083206001600160a01b03851684529091529020805460ff19166001179055612bb23390565b6001600160a01b0316816001600160a01b0316837f2f8788117e7eff1d82e926ec794901d17c78024a50270940304540a733656f0d60405160405180910390a45050565b612c0082826124db565b15610e11576000828152602081815260408083206001600160a01b0385168085529252808320805460ff1916905551339285917ff6391f5c32d9c69d2a47ea670b442974b53935d1edc7fd64eb21e047a839171b9190a45050565b600080612c6783611a1c565b6001600160a01b0385811691161491505092915050565b6000612c8982611a1c565b9050612c97816000846130b4565b6001600160a01b0381166000908152600f60205260408120805460019290612cc0908490614959565b90915550506000828152600e602052604080822080546001600160a01b03191690555183916001600160a01b038416917fcc16f5dbb4873280815c1ee09dbd06736cffcc184412cf7a71a0fdb75d397ca59190a35050565b6000600080516020614dd8833981519152612d3281612aa1565b600080612d3e86612999565b91509150612d4d8683836130bf565b6000612d58601c5490565b9050612d68601c80546001019055565b612d728682613573565b935050505b5092915050565b6000908152600e60205260409020546001600160a01b0316151590565b600081600081118015612db757506001546001600160a01b0316155b15612dd55760405163fca2174f60e01b815260040160405180910390fd5b600081118015612dee57506002546001600160a01b0316155b15612e0c5760405163fca2174f60e01b815260040160405180910390fd5b600081118015612e2557506003546001600160a01b0316155b15612e435760405163fca2174f60e01b815260040160405180910390fd5b600081118015612e5c57506007546001600160a01b0316155b15612e7a5760405163fca2174f60e01b815260040160405180910390fd5b6001600160a01b03841660009081526005602052604090205460ff161580612eaf57506003546001600160a01b038581169116145b15612ecf578360405163961c9a4f60e01b8152600401610dad91906140c3565b82612edd5760009150612d77565b6001600160a01b038416612f0f57600254600354612f08916001600160a01b0390811691168561364f565b9150612d77565b600354612f089085906001600160a01b03168561364f565b612f3081612d7e565b6116b55760405162461bcd60e51b8152600401610dad906148e0565b606060148054610b7c90614538565b60606000612f688361370d565b60010190506000816001600160401b03811115612f8757612f8761465a565b6040519080825280601f01601f191660200182016040528015612fb1576020820181803683370190505b5090508181016020015b600019016f181899199a1a9b1b9c1cb0b131b232b360811b600a86061a8153600a8504945084612fea57612fef565b612fbb565b509392505050565b61300182826124db565b610e115761300e816137e3565b6130198360206137f5565b60405160200161302a929190614a33565b60408051601f198184030181529082905262461bcd60e51b8252610dad9160040161413b565b60006001600160e01b031982166313f2a32f60e01b148061308157506001600160e01b03198216635b5e139f60e01b145b80610b3d5750610b3d82613960565b6000610c778284614a85565b6000610c778284614aa4565b6000610c778284614ab8565b610d7f838383613995565b6130c982826130a8565b6000811180156130e257506001546001600160a01b0316155b156131005760405163fca2174f60e01b815260040160405180910390fd5b60008111801561311957506002546001600160a01b0316155b156131375760405163fca2174f60e01b815260040160405180910390fd5b60008111801561315057506003546001600160a01b0316155b1561316e5760405163fca2174f60e01b815260040160405180910390fd5b60008111801561318757506007546001600160a01b0316155b156131a55760405163fca2174f60e01b815260040160405180910390fd5b821580156131b1575081155b156131bb5761356d565b60006131c684612ad0565b905060008311806131d75750600081115b80156131ec57506008546001600160a01b0316155b1561320a5760405163910af6f560e01b815260040160405180910390fd5b6001600160a01b03851660009081526005602052604090205460ff166132455784604051630ac29ab760e31b8152600401610dad91906140c3565b6001600160a01b0385166134e75761325d84846130a8565b3410156132885761326e84846130a8565b60405163091a6d0f60e01b8152600401610dad91906141c0565b60006132948583613a4d565b1115613325576007546000906001600160a01b03166132b38684613a4d565b6040516132bf90614ad0565b60006040518083038185875af1925050503d80600081146132fc576040519150601f19603f3d011682016040523d82523d6000602084013e613301565b606091505b5050905080613323576040516312171d8360e31b815260040160405180910390fd5b505b82156133af576008546040516000916001600160a01b031690859061334990614ad0565b60006040518083038185875af1925050503d8060008114613386576040519150601f19603f3d011682016040523d82523d6000602084013e61338b565b606091505b50509050806133ad576040516312171d8360e31b815260040160405180910390fd5b505b8015613439576008546040516000916001600160a01b03169083906133d390614ad0565b60006040518083038185875af1925050503d8060008114613410576040519150601f19603f3d011682016040523d82523d6000602084013e613415565b606091505b5050905080613437576040516312171d8360e31b815260040160405180910390fd5b505b61344384846130a8565b3411156134e257600061346061345986866130a8565b3490613a4d565b90506000336001600160a01b03168260405161347b90614ad0565b60006040518083038185875af1925050503d80600081146134b8576040519150601f19603f3d011682016040523d82523d6000602084013e6134bd565b606091505b50509050806134df57604051633c31275160e21b815260040160405180910390fd5b50505b61356b565b60006134f38583613a4d565b1115613527576007546135279033906001600160a01b03166135158785613a4d565b6001600160a01b038916929190613a59565b821561354957600854613549906001600160a01b038781169133911686613a59565b801561356b5760085461356b906001600160a01b038781169133911684613a59565b505b50505050565b6001600160a01b0382166135995760405162461bcd60e51b8152600401610dad90614b0f565b6135a281612d7e565b156135bf5760405162461bcd60e51b8152600401610dad90614b4f565b6135cb600083836130b4565b6001600160a01b0382166000908152600f602052604081208054600192906135f4908490614ab8565b90915550506000818152600e602052604080822080546001600160a01b0319166001600160a01b038616908117909155905183927f0f6798a560793a54c3bcfe86a93cde1e73087d944c0ea20544137d412139688591a35050565b600060608061365e8686613ab1565b6001546040516307c0329d60e21b81529192506001600160a01b031690631f00ca74906136919087908590600401614b5f565b60006040518083038186803b1580156136a957600080fd5b505afa1580156136bd573d6000803e3d6000fd5b505050506040513d6000823e601f3d908101601f191682016040526136e59190810190614c21565b9150816000815181106136fa576136fa61489e565b6020026020010151925050509392505050565b60008072184f03e93ff9f4daa797ed6e38ed64bf6a1f0160401b831061374c5772184f03e93ff9f4daa797ed6e38ed64bf6a1f0160401b830492506040015b6904ee2d6d415b85acef8160201b8310613776576904ee2d6d415b85acef8160201b830492506020015b662386f26fc10000831061379457662386f26fc10000830492506010015b6305f5e10083106137ac576305f5e100830492506008015b61271083106137c057612710830492506004015b606483106137d2576064830492506002015b600a8310610b3d5760010192915050565b6060610b3d6001600160a01b03831660145b60606000613804836002614a85565b61380f906002614ab8565b6001600160401b038111156138265761382661465a565b6040519080825280601f01601f191660200182016040528015613850576020820181803683370190505b509050600360fc1b8160008151811061386b5761386b61489e565b60200101906001600160f81b031916908160001a905350600f60fb1b8160018151811061389a5761389a61489e565b60200101906001600160f81b031916908160001a90535060006138be846002614a85565b6138c9906001614ab8565b90505b6001811115613941576f181899199a1a9b1b9c1cb0b131b232b360811b85600f16601081106138fd576138fd61489e565b1a60f81b8282815181106139135761391361489e565b60200101906001600160f81b031916908160001a90535060049490941c9361393a81614c5b565b90506138cc565b508315610c775760405162461bcd60e51b8152600401610dad90614ca4565b60006001600160e01b03198216637965db0b60e01b1480610b3d57506301ffc9a760e01b6001600160e01b0319831614610b3d565b6001600160a01b0383166139f0576139eb81601280546000838152601360205260408120829055600182018355919091527fbb8a6a4669ba250d26cd7a459eca9d215f8307e33aebe50379bc5a3617ec34440155565b613a13565b816001600160a01b0316836001600160a01b031614613a1357613a138382613c43565b6001600160a01b038216613a2a57610d7f81613ce0565b826001600160a01b0316826001600160a01b031614610d7f57610d7f8282613d8f565b6000610c778284614959565b61356d846323b872dd60e01b858585604051602401613a7a93929190614cb4565b60408051601f198184030181529190526020810180516001600160e01b03166001600160e01b031990931692909217909152613dd3565b6002546060906001600160a01b0384811691161480613add57506002546001600160a01b038381169116145b15613ba757604080516002808252606082018352600092602083019080368337019050506002549091506001600160a01b03858116911614613b1f5783613b2c565b6002546001600160a01b03165b81600081518110613b3f57613b3f61489e565b6001600160a01b039283166020918202929092010152600254848216911614613b685782613b75565b6002546001600160a01b03165b81600181518110613b8857613b8861489e565b6001600160a01b03909216602092830291909101909101529050610b3d565b60408051600380825260808201909252600091602082016060803683370190505090508381600081518110613bde57613bde61489e565b6001600160a01b039283166020918202929092010152600254825191169082906001908110613c0f57613c0f61489e565b60200260200101906001600160a01b031690816001600160a01b0316815250508281600281518110613b8857613b8861489e565b60006001613c5084611a85565b613c5a9190614959565b600083815260116020526040902054909150808214613cad576001600160a01b03841660009081526010602090815260408083208584528252808320548484528184208190558352601190915290208190555b5060009182526011602090815260408084208490556001600160a01b039094168352601081528383209183525290812055565b601254600090613cf290600190614959565b60008381526013602052604081205460128054939450909284908110613d1a57613d1a61489e565b906000526020600020015490508060128381548110613d3b57613d3b61489e565b6000918252602080832090910192909255828152601390915260408082208490558582528120556012805480613d7357613d73614970565b6001900381819060005260206000200160009055905550505050565b6000613d9a83611a85565b6001600160a01b039093166000908152601060209081526040808320868452825280832085905593825260119052919091209190915550565b6000613e28826040518060400160405280602081526020017f5361666545524332303a206c6f772d6c6576656c2063616c6c206661696c6564815250856001600160a01b0316613e659092919063ffffffff16565b9050805160001480613e49575080806020019051810190613e499190614cef565b610d7f5760405162461bcd60e51b8152600401610dad90614d57565b6060612b6a848460008585600080866001600160a01b03168587604051613e8c9190614d67565b60006040518083038185875af1925050503d8060008114613ec9576040519150601f19603f3d011682016040523d82523d6000602084013e613ece565b606091505b5091509150613edf87838387613eea565b979650505050505050565b60608315613f26578251613f1f576001600160a01b0385163b613f1f5760405162461bcd60e51b8152600401610dad90614da7565b5081612b6a565b612b6a8383815115613f3b5781518083602001fd5b8060405162461bcd60e51b8152600401610dad919061413b565b6040518060800160405280606081526020016060815260200160608152602001606081525090565b828054613f8990614538565b90600052602060002090601f016020900481019282613fab5760008555613ff1565b82601f10613fc457805160ff1916838001178555613ff1565b82800160010185558215613ff1579182015b82811115613ff1578251825591602001919060010190613fd6565b50613ffd929150614001565b5090565b5b80821115613ffd5760008155600101614002565b805b81146116b557600080fd5b8035610b3d81614016565b60006020828403121561404357614043600080fd5b6000612b6a8484614023565b6001600160e01b03198116614018565b8035610b3d8161404f565b60006020828403121561407f5761407f600080fd5b6000612b6a848461405f565b8015155b82525050565b60208101610b3d828461408b565b6001600160a01b031690565b6000610b3d826140a3565b61408f816140af565b60208101610b3d82846140ba565b60005b838110156140ec5781810151838201526020016140d4565b8381111561356d5750506000910152565b601f01601f191690565b6000614111825190565b8084526020840193506141288185602086016140d1565b614131816140fd565b9093019392505050565b60208082528101610c778184614107565b600061415883836140ba565b505060200190565b600061416a825190565b80845260209384019383018060005b8381101561419e57815161418d888261414c565b975060208301925050600101614179565b509495945050505050565b60208082528101610c778184614160565b8061408f565b60208101610b3d82846141ba565b614018816140af565b8035610b3d816141ce565b600080604083850312156141f8576141f8600080fd5b600061420485856141d7565b925050602061421585828601614023565b9150509250929050565b60006020828403121561423457614234600080fd5b6000612b6a84846141d7565b6000806040838503121561425657614256600080fd5b60006142628585614023565b9250506020614215858286016141d7565b805160808084526000919084019061428b8282614107565b915050602083015184820360208601526142a58282614107565b915050604083015184820360408601526142bf8282614107565b915050606083015184820360608601526142d98282614107565b95945050505050565b606080825281016142f38186614273565b905081810360208301526143078185614273565b905081810360408301526142d98184614273565b60008083601f84011261433057614330600080fd5b5081356001600160401b0381111561434a5761434a600080fd5b60208301915083600182028301111561436557614365600080fd5b9250929050565b60006080828403121561438157614381600080fd5b50919050565b60008060008060008060a087890312156143a3576143a3600080fd5b60006143af89896141d7565b96505060208701356001600160401b038111156143ce576143ce600080fd5b6143da89828a0161431b565b955095505060408701356001600160401b038111156143fb576143fb600080fd5b61440789828a0161436c565b93505060608701356001600160401b0381111561442657614426600080fd5b61443289828a0161436c565b92505060808701356001600160401b0381111561445157614451600080fd5b61445d89828a0161436c565b9150509295509295509295565b6080808252810161447b8187614107565b9050818103602083015261448f8186614273565b905081810360408301526144a38185614273565b905081810360608301526144b78184614273565b9695505050505050565b6000610b3d6144d56144d2846140a3565b90565b6140a3565b6000610b3d826144c1565b6000610b3d826144da565b61408f816144e5565b60208101610b3d82846144f0565b6040810161451582856141ba565b610c7760208301846141ba565b634e487b7160e01b600052602260045260246000fd5b60028104600182168061454c57607f821691505b6020821081141561438157614381614522565b602881526000602082017f534254456e756d657261626c653a206f776e657220696e646578206f7574206f8152676620626f756e647360c01b602082015291505b5060400190565b60208082528101610b3d8161455f565b602f81526000602082017f416363657373436f6e74726f6c3a2063616e206f6e6c792072656e6f756e636581526e103937b632b9903337b91039b2b63360891b602082015291506145a0565b60208082528101610b3d816145b7565b601e81526000602082017f5342543a2063616c6c6572206973206e6f7420746f6b656e206f776e65720000815291505b5060200190565b60208082528101610b3d81614613565b634e487b7160e01b600052604160045260246000fd5b614679826140fd565b81018181106001600160401b03821117156146965761469661465a565b6040525050565b60006146a860405190565b9050611bc48282614670565b60006001600160401b038211156146cd576146cd61465a565b6146d6826140fd565b60200192915050565b82818337506000910152565b60006146fe6146f9846146b4565b61469d565b90508281526020810184848401111561471957614719600080fd5b612fef8482856146df565b600082601f83011261473857614738600080fd5b8135612b6a8482602086016146eb565b60006080828403121561475d5761475d600080fd5b614767608061469d565b905081356001600160401b0381111561478257614782600080fd5b61478e84828501614724565b82525060208201356001600160401b038111156147ad576147ad600080fd5b6147b984828501614724565b60208301525060408201356001600160401b038111156147db576147db600080fd5b6147e784828501614724565b60408301525060608201356001600160401b0381111561480957614809600080fd5b61481584828501614724565b60608301525092915050565b6000610b3d3683614748565b6040810161483b82856141ba565b610c7760208301846140ba565b602981526000602082017f534254456e756d657261626c653a20676c6f62616c20696e646578206f7574208152686f6620626f756e647360b81b602082015291506145a0565b60208082528101610b3d81614848565b634e487b7160e01b600052603260045260246000fd5b601581526000602082017414d0950e881a5b9d985b1a59081d1bdad95b881251605a1b81529150614643565b60208082528101610b3d816148b4565b602681526000602082017f5342543a2061646472657373207a65726f206973206e6f7420612076616c69648152651037bbb732b960d11b602082015291506145a0565b60208082528101610b3d816148f0565b634e487b7160e01b600052601160045260246000fd5b60008282101561496b5761496b614943565b500390565b634e487b7160e01b600052603160045260246000fd5b600060001982141561499a5761499a614943565b5060010190565b8051610b3d81614016565b6000602082840312156149c1576149c1600080fd5b6000612b6a84846149a1565b60006149d7825190565b6149e58185602086016140d1565b9290920192915050565b60006149fb82856149cd565b9150614a0782846149cd565b64173539b7b760d91b8152915060058201612b6a565b634e487b7160e01b600052601260045260246000fd5b76020b1b1b2b9b9a1b7b73a3937b61d1030b1b1b7bab73a1604d1b81526017016000614a5f82856149cd565b7001034b99036b4b9b9b4b733903937b6329607d1b81526011019150612b6a82846149cd565b6000816000190483118215151615614a9f57614a9f614943565b500290565b600082614ab357614ab3614a1d565b500490565b60008219821115614acb57614acb614943565b500190565b6000610b3d826144d2565b601d81526000602082017f5342543a206d696e7420746f20746865207a65726f206164647265737300000081529150614643565b60208082528101610b3d81614adb565b601981526000602082017814d0950e881d1bdad95b88185b1c9958591e481b5a5b9d1959603a1b81529150614643565b60208082528101610b3d81614b1f565b60408101614b6d82856141ba565b8181036020830152612b6a8184614160565b60006001600160401b03821115614b9857614b9861465a565b5060209081020190565b6000614bb06146f984614b7f565b83815290506020808201908402830185811115614bcf57614bcf600080fd5b835b81811015614bf35780614be488826149a1565b84525060209283019201614bd1565b5050509392505050565b600082601f830112614c1157614c11600080fd5b8151612b6a848260208601614ba2565b600060208284031215614c3657614c36600080fd5b81516001600160401b03811115614c4f57614c4f600080fd5b612b6a84828501614bfd565b600081614c6a57614c6a614943565b506000190190565b60208082527f537472696e67733a20686578206c656e67746820696e73756666696369656e7491019081526000614643565b60208082528101610b3d81614c72565b60608101614cc282866140ba565b614ccf60208301856140ba565b612b6a60408301846141ba565b801515614018565b8051610b3d81614cdc565b600060208284031215614d0457614d04600080fd5b6000612b6a8484614ce4565b602a81526000602082017f5361666545524332303a204552433230206f7065726174696f6e20646964206e8152691bdd081cdd58d8d9595960b21b602082015291506145a0565b60208082528101610b3d81614d10565b6000610c7782846149cd565b601d81526000602082017f416464726573733a2063616c6c20746f206e6f6e2d636f6e747261637400000081529150614643565b60208082528101610b3d81614d7356fe52eafc11f6f81f86878bffd31109a0d92f37506527754f00788853ff9f63b1309f2df0fed2c77648de5860a4cc508cd0818c85b8b8a1ab4ceeef8d981c8956a6a26469706673582212200496b8b8a4b5bef048dd0a5e57e04806d3e8805887b7a07e277a974cc720ddce64736f6c63430008080033",
  "devdoc": {
    "author": "Masa Finance",
    "details": "Inherits from the SSSBT contract.",
    "kind": "dev",
    "methods": {
      "balanceOf(address)": {
        "details": "See {ISBT-balanceOf}."
      },
      "burn(uint256)": {
        "details": "Burns `tokenId`. See {SBT-_burn}. Requirements: - The caller must own `tokenId` or be an approved operator."
      },
      "constructor": {
        "details": "Creates a new Test ZKP SBT, inheriting from the Masa SSSBT contract.",
        "params": {
          "admin": "Administrator of the smart contract",
          "baseTokenURI": "Base URI of the token",
          "name": "Name of the token",
          "paymentParams": "Payment gateway params",
          "soulboundIdentity": "Address of the SoulboundIdentity contract",
          "symbol": "Symbol of the token"
        }
      },
      "disablePaymentMethod(address)": {
        "details": "The caller must have the admin role to call this function",
        "params": {
          "_paymentMethod": "Token to remove"
        }
      },
      "enablePaymentMethod(address)": {
        "details": "The caller must have the admin role to call this function",
        "params": {
          "_paymentMethod": "New token to add"
        }
      },
      "exists(uint256)": {
        "details": "Returns true if the token has been minted",
        "params": {
          "tokenId": "Token to check"
        },
        "returns": {
          "_0": "True if the token exists"
        }
      },
      "getEnabledPaymentMethods()": {
        "details": "Returns the address of all available payment methods",
        "returns": {
          "_0": "Array of all enabled payment methods"
        }
      },
      "getIdentityId(uint256)": {
        "params": {
          "tokenId": "Id of the token"
        },
        "returns": {
          "_0": "Id of the identity"
        }
      },
      "getMintPrice(address)": {
        "details": "Returns current pricing for minting",
        "params": {
          "paymentMethod": "Address of token that user want to pay"
        },
        "returns": {
          "price": "Current price for minting in the given payment method"
        }
      },
      "getMintPriceWithProtocolFee(address)": {
        "details": "Returns current pricing for minting with protocol fee",
        "params": {
          "paymentMethod": "Address of token that user want to pay"
        },
        "returns": {
          "price": "Current price for minting in the given payment method",
          "protocolFee": "Current protocol fee for minting in the given payment method"
        }
      },
      "getProtocolFee(address,uint256)": {
        "details": "This method will calculate the protocol fee based on the payment method",
        "params": {
          "amount": "Price to be paid in the specified payment method",
          "paymentMethod": "Address of token that user want to pay"
        }
      },
      "getProtocolFeeSub(uint256)": {
        "details": "This method will calculate the protocol fee based on the payment method",
        "params": {
          "amount": "Price to be paid in the specified payment method"
        }
      },
      "getRoleAdmin(bytes32)": {
        "details": "Returns the admin role that controls `role`. See {grantRole} and {revokeRole}. To change a role's admin, use {_setRoleAdmin}."
      },
      "grantRole(bytes32,address)": {
        "details": "Grants `role` to `account`. If `account` had not been already granted `role`, emits a {RoleGranted} event. Requirements: - the caller must have ``role``'s admin role. May emit a {RoleGranted} event."
      },
      "hasRole(bytes32,address)": {
        "details": "Returns `true` if `account` has been granted `role`."
      },
      "mint(address,bytes,(bytes,bytes,bytes,bytes),(bytes,bytes,bytes,bytes),(bytes,bytes,bytes,bytes))": {
        "details": "The caller must have the MINTER role",
        "params": {
          "encryptedCreditScore": "Encrypted credit score",
          "encryptedIncome": "Encrypted income",
          "encryptedReportDate": "Encrypted report date",
          "root": "Root of the Merkle Tree's data without encryption, used to verify the data",
          "to": "The address to mint the SBT to"
        },
        "returns": {
          "_0": "The SBT ID of the newly minted SBT"
        }
      },
      "name()": {
        "details": "See {ISBTMetadata-name}."
      },
      "ownerOf(uint256)": {
        "details": "See {ISBT-ownerOf}."
      },
      "renounceRole(bytes32,address)": {
        "details": "Revokes `role` from the calling account. Roles are often managed via {grantRole} and {revokeRole}: this function's purpose is to provide a mechanism for accounts to lose their privileges if they are compromised (such as when a trusted device is misplaced). If the calling account had been revoked `role`, emits a {RoleRevoked} event. Requirements: - the caller must be `account`. May emit a {RoleRevoked} event."
      },
      "revokeRole(bytes32,address)": {
        "details": "Revokes `role` from `account`. If `account` had been granted `role`, emits a {RoleRevoked} event. Requirements: - the caller must have ``role``'s admin role. May emit a {RoleRevoked} event."
      },
      "setAddLinkPrice(uint256)": {
        "details": "The caller must have the admin or project admin role to call this function",
        "params": {
          "_addLinkPrice": "New price for adding the link in SoulLinker in stable coin"
        }
      },
      "setAddLinkPriceMASA(uint256)": {
        "details": "The caller must have the admin or project admin role to call this function",
        "params": {
          "_addLinkPriceMASA": "New price for adding the link in SoulLinker in MASA"
        }
      },
      "setMasaToken(address)": {
        "details": "The caller must have the admin role to call this function It can be set to address(0) to disable paying in MASA",
        "params": {
          "_masaToken": "New utility token to pay the fee in"
        }
      },
      "setMintPrice(uint256)": {
        "details": "The caller must have the admin or project admin role to call this function",
        "params": {
          "_mintPrice": "New price of minting in stable coin"
        }
      },
      "setMintPriceMASA(uint256)": {
        "details": "The caller must have the admin or project admin role to call this function",
        "params": {
          "_mintPriceMASA": "New price of minting in MASA"
        }
      },
      "setProjectFeeReceiver(address)": {
        "details": "The caller must have the admin or project admin role to call this function",
        "params": {
          "_projectFeeReceiver": "New project fee receiver wallet"
        }
      },
      "setProtocolFeeAmount(uint256)": {
        "details": "The caller must have the admin role to call this function",
        "params": {
          "_protocolFeeAmount": "New protocol fee amount"
        }
      },
      "setProtocolFeePercent(uint256)": {
        "details": "The caller must have the admin role to call this function",
        "params": {
          "_protocolFeePercent": "New protocol fee percent added to the project fee"
        }
      },
      "setProtocolFeePercentSub(uint256)": {
        "details": "The caller must have the admin role to call this function",
        "params": {
          "_protocolFeePercentSub": "New protocol fee percent substracted from the amount"
        }
      },
      "setProtocolFeeReceiver(address)": {
        "details": "The caller must have the admin role to call this function",
        "params": {
          "_protocolFeeReceiver": "New protocol fee wallet"
        }
      },
      "setQueryLinkPrice(uint256)": {
        "details": "The caller must have the admin or project admin role to call this function",
        "params": {
          "_queryLinkPrice": "New price for reading data in SoulLinker in stable coin"
        }
      },
      "setQueryLinkPriceMASA(uint256)": {
        "details": "The caller must have the admin or project admin role to call this function",
        "params": {
          "_queryLinkPriceMASA": "New price for reading data in SoulLinker in MASA"
        }
      },
      "setSoulboundIdentity(address)": {
        "details": "The caller must be the admin to call this function",
        "params": {
          "_soulboundIdentity": "Address of the SoulboundIdentity contract"
        }
      },
      "setStableCoin(address)": {
        "details": "The caller must have the admin role to call this function",
        "params": {
          "_stableCoin": "New stable coin to pay the fee in"
        }
      },
      "setSwapRouter(address)": {
        "details": "The caller must have the admin role to call this function",
        "params": {
          "_swapRouter": "New swap router address"
        }
      },
      "setWrappedNativeToken(address)": {
        "details": "The caller must have the admin role to call this function",
        "params": {
          "_wrappedNativeToken": "New wrapped native token address"
        }
      },
      "supportsInterface(bytes4)": {
        "details": "Interface identification is specified in ERC-165.",
        "params": {
          "interfaceId": "The interface identifier, as specified in ERC-165"
        },
        "returns": {
          "_0": "`true` if the contract implements `interfaceId` and  `interfaceId` is not 0xffffffff, `false` otherwise"
        }
      },
      "symbol()": {
        "details": "See {ISBTMetadata-symbol}."
      },
      "tokenByIndex(uint256)": {
        "details": "See {ISBTEnumerable-tokenByIndex}."
      },
      "tokenOfOwnerByIndex(address,uint256)": {
        "details": "See {ISBTEnumerable-tokenOfOwnerByIndex}."
      },
      "tokenURI(uint256)": {
        "details": "Throws if `_tokenId` is not a valid SBT. URIs are defined in RFC  3986. The URI may point to a JSON file that conforms to the \"ERC721  Metadata JSON Schema\".",
        "params": {
          "tokenId": "SBT to get the URI of"
        },
        "returns": {
          "_0": "URI of the SBT"
        }
      },
      "totalSupply()": {
        "details": "See {ISBTEnumerable-totalSupply}."
      }
    },
    "title": "Test ZKP SBT Authority",
    "version": 1
  },
  "userdoc": {
    "kind": "user",
    "methods": {
      "constructor": {
        "notice": "Creates a new Test ZKP SBT"
      },
      "disablePaymentMethod(address)": {
        "notice": "Removes a token as a valid payment method"
      },
      "enablePaymentMethod(address)": {
        "notice": "Adds a new token as a valid payment method"
      },
      "exists(uint256)": {
        "notice": "Returns true if the token exists"
      },
      "getEnabledPaymentMethods()": {
        "notice": "Returns all available payment methods"
      },
      "getIdentityId(uint256)": {
        "notice": "Returns the identityId owned by the given token"
      },
      "getMintPrice(address)": {
        "notice": "Returns the price for minting"
      },
      "getMintPriceWithProtocolFee(address)": {
        "notice": "Returns the price for minting with protocol fee"
      },
      "getProtocolFee(address,uint256)": {
        "notice": "Calculates the protocol fee added to the project fee"
      },
      "getProtocolFeeSub(uint256)": {
        "notice": "Calculates the protocol fee substracted from the amount"
      },
      "mint(address,bytes,(bytes,bytes,bytes,bytes),(bytes,bytes,bytes,bytes),(bytes,bytes,bytes,bytes))": {
        "notice": "Mints a new SBT"
      },
      "setAddLinkPrice(uint256)": {
        "notice": "Sets the price for adding the link in SoulLinker in stable coin"
      },
      "setAddLinkPriceMASA(uint256)": {
        "notice": "Sets the price for adding the link in SoulLinker in MASA"
      },
      "setMasaToken(address)": {
        "notice": "Sets the utility token to pay the fee in (MASA)"
      },
      "setMintPrice(uint256)": {
        "notice": "Sets the price of minting in stable coin"
      },
      "setMintPriceMASA(uint256)": {
        "notice": "Sets the price of minting in MASA"
      },
      "setProjectFeeReceiver(address)": {
        "notice": "Set the project fee receiver wallet"
      },
      "setProtocolFeeAmount(uint256)": {
        "notice": "Set the protocol fee amount"
      },
      "setProtocolFeePercent(uint256)": {
        "notice": "Set the protocol fee percent added to the project fee"
      },
      "setProtocolFeePercentSub(uint256)": {
        "notice": "Set the protocol fee percent substracted from the amount"
      },
      "setProtocolFeeReceiver(address)": {
        "notice": "Set the protocol fee wallet"
      },
      "setQueryLinkPrice(uint256)": {
        "notice": "Sets the price for reading data in SoulLinker in stable coin"
      },
      "setQueryLinkPriceMASA(uint256)": {
        "notice": "Sets the price for reading data in SoulLinker in MASA"
      },
      "setSoulboundIdentity(address)": {
        "notice": "Sets the SoulboundIdentity contract address linked to this SBT"
      },
      "setStableCoin(address)": {
        "notice": "Sets the stable coin to pay the fee in (USDC)"
      },
      "setSwapRouter(address)": {
        "notice": "Sets the swap router address"
      },
      "setWrappedNativeToken(address)": {
        "notice": "Sets the wrapped native token address"
      },
      "supportsInterface(bytes4)": {
        "notice": "Query if a contract implements an interface"
      },
      "tokenURI(uint256)": {
        "notice": "A distinct Uniform Resource Identifier (URI) for a given asset."
      }
    },
    "notice": "Test Soulbound token",
    "version": 1
  },
  "storageLayout": {
    "storage": [
      {
        "astId": 3182,
        "contract": "contracts/ZKSBTAuthority.sol:ZKSBTAuthority",
        "label": "_roles",
        "offset": 0,
        "slot": "0",
        "type": "t_mapping(t_bytes32,t_struct(RoleData)3177_storage)"
      },
      {
        "astId": 43,
        "contract": "contracts/ZKSBTAuthority.sol:ZKSBTAuthority",
        "label": "swapRouter",
        "offset": 0,
        "slot": "1",
        "type": "t_address"
      },
      {
        "astId": 45,
        "contract": "contracts/ZKSBTAuthority.sol:ZKSBTAuthority",
        "label": "wrappedNativeToken",
        "offset": 0,
        "slot": "2",
        "type": "t_address"
      },
      {
        "astId": 47,
        "contract": "contracts/ZKSBTAuthority.sol:ZKSBTAuthority",
        "label": "stableCoin",
        "offset": 0,
        "slot": "3",
        "type": "t_address"
      },
      {
        "astId": 49,
        "contract": "contracts/ZKSBTAuthority.sol:ZKSBTAuthority",
        "label": "masaToken",
        "offset": 0,
        "slot": "4",
        "type": "t_address"
      },
      {
        "astId": 53,
        "contract": "contracts/ZKSBTAuthority.sol:ZKSBTAuthority",
        "label": "enabledPaymentMethod",
        "offset": 0,
        "slot": "5",
        "type": "t_mapping(t_address,t_bool)"
      },
      {
        "astId": 56,
        "contract": "contracts/ZKSBTAuthority.sol:ZKSBTAuthority",
        "label": "enabledPaymentMethods",
        "offset": 0,
        "slot": "6",
        "type": "t_array(t_address)dyn_storage"
      },
      {
        "astId": 58,
        "contract": "contracts/ZKSBTAuthority.sol:ZKSBTAuthority",
        "label": "projectFeeReceiver",
        "offset": 0,
        "slot": "7",
        "type": "t_address"
      },
      {
        "astId": 60,
        "contract": "contracts/ZKSBTAuthority.sol:ZKSBTAuthority",
        "label": "protocolFeeReceiver",
        "offset": 0,
        "slot": "8",
        "type": "t_address"
      },
      {
        "astId": 62,
        "contract": "contracts/ZKSBTAuthority.sol:ZKSBTAuthority",
        "label": "protocolFeeAmount",
        "offset": 0,
        "slot": "9",
        "type": "t_uint256"
      },
      {
        "astId": 64,
        "contract": "contracts/ZKSBTAuthority.sol:ZKSBTAuthority",
        "label": "protocolFeePercent",
        "offset": 0,
        "slot": "10",
        "type": "t_uint256"
      },
      {
        "astId": 66,
        "contract": "contracts/ZKSBTAuthority.sol:ZKSBTAuthority",
        "label": "protocolFeePercentSub",
        "offset": 0,
        "slot": "11",
        "type": "t_uint256"
      },
      {
        "astId": 2365,
        "contract": "contracts/ZKSBTAuthority.sol:ZKSBTAuthority",
        "label": "_name",
        "offset": 0,
        "slot": "12",
        "type": "t_string_storage"
      },
      {
        "astId": 2367,
        "contract": "contracts/ZKSBTAuthority.sol:ZKSBTAuthority",
        "label": "_symbol",
        "offset": 0,
        "slot": "13",
        "type": "t_string_storage"
      },
      {
        "astId": 2371,
        "contract": "contracts/ZKSBTAuthority.sol:ZKSBTAuthority",
        "label": "_owners",
        "offset": 0,
        "slot": "14",
        "type": "t_mapping(t_uint256,t_address)"
      },
      {
        "astId": 2375,
        "contract": "contracts/ZKSBTAuthority.sol:ZKSBTAuthority",
        "label": "_balances",
        "offset": 0,
        "slot": "15",
        "type": "t_mapping(t_address,t_uint256)"
      },
      {
        "astId": 2834,
        "contract": "contracts/ZKSBTAuthority.sol:ZKSBTAuthority",
        "label": "_ownedTokens",
        "offset": 0,
        "slot": "16",
        "type": "t_mapping(t_address,t_mapping(t_uint256,t_uint256))"
      },
      {
        "astId": 2838,
        "contract": "contracts/ZKSBTAuthority.sol:ZKSBTAuthority",
        "label": "_ownedTokensIndex",
        "offset": 0,
        "slot": "17",
        "type": "t_mapping(t_uint256,t_uint256)"
      },
      {
        "astId": 2841,
        "contract": "contracts/ZKSBTAuthority.sol:ZKSBTAuthority",
        "label": "_allTokens",
        "offset": 0,
        "slot": "18",
        "type": "t_array(t_uint256)dyn_storage"
      },
      {
        "astId": 2845,
        "contract": "contracts/ZKSBTAuthority.sol:ZKSBTAuthority",
        "label": "_allTokensIndex",
        "offset": 0,
        "slot": "19",
        "type": "t_mapping(t_uint256,t_uint256)"
      },
      {
        "astId": 1451,
        "contract": "contracts/ZKSBTAuthority.sol:ZKSBTAuthority",
        "label": "_baseTokenURI",
        "offset": 0,
        "slot": "20",
        "type": "t_string_storage"
      },
      {
        "astId": 1454,
        "contract": "contracts/ZKSBTAuthority.sol:ZKSBTAuthority",
        "label": "soulboundIdentity",
        "offset": 0,
        "slot": "21",
        "type": "t_contract(ISoulboundIdentity)1206"
      },
      {
        "astId": 1456,
        "contract": "contracts/ZKSBTAuthority.sol:ZKSBTAuthority",
        "label": "mintPrice",
        "offset": 0,
        "slot": "22",
        "type": "t_uint256"
      },
      {
        "astId": 1458,
        "contract": "contracts/ZKSBTAuthority.sol:ZKSBTAuthority",
        "label": "mintPriceMASA",
        "offset": 0,
        "slot": "23",
        "type": "t_uint256"
      },
      {
        "astId": 1461,
        "contract": "contracts/ZKSBTAuthority.sol:ZKSBTAuthority",
        "label": "addLinkPrice",
        "offset": 0,
        "slot": "24",
        "type": "t_uint256"
      },
      {
        "astId": 1464,
        "contract": "contracts/ZKSBTAuthority.sol:ZKSBTAuthority",
        "label": "addLinkPriceMASA",
        "offset": 0,
        "slot": "25",
        "type": "t_uint256"
      },
      {
        "astId": 1467,
        "contract": "contracts/ZKSBTAuthority.sol:ZKSBTAuthority",
        "label": "queryLinkPrice",
        "offset": 0,
        "slot": "26",
        "type": "t_uint256"
      },
      {
        "astId": 1470,
        "contract": "contracts/ZKSBTAuthority.sol:ZKSBTAuthority",
        "label": "queryLinkPriceMASA",
        "offset": 0,
        "slot": "27",
        "type": "t_uint256"
      },
      {
        "astId": 1997,
        "contract": "contracts/ZKSBTAuthority.sol:ZKSBTAuthority",
        "label": "_tokenIdCounter",
        "offset": 0,
        "slot": "28",
        "type": "t_struct(Counter)4600_storage"
      },
      {
        "astId": 7381,
        "contract": "contracts/ZKSBTAuthority.sol:ZKSBTAuthority",
        "label": "sbtData",
        "offset": 0,
        "slot": "29",
        "type": "t_mapping(t_uint256,t_struct(SBTData)7376_storage)"
      },
      {
        "astId": 3582,
        "contract": "contracts/ZKSBTAuthority.sol:ZKSBTAuthority",
        "label": "_status",
        "offset": 0,
        "slot": "30",
        "type": "t_uint256"
      }
    ],
    "types": {
      "t_address": {
        "encoding": "inplace",
        "label": "address",
        "numberOfBytes": "20"
      },
      "t_array(t_address)dyn_storage": {
        "base": "t_address",
        "encoding": "dynamic_array",
        "label": "address[]",
        "numberOfBytes": "32"
      },
      "t_array(t_uint256)dyn_storage": {
        "base": "t_uint256",
        "encoding": "dynamic_array",
        "label": "uint256[]",
        "numberOfBytes": "32"
      },
      "t_bool": {
        "encoding": "inplace",
        "label": "bool",
        "numberOfBytes": "1"
      },
      "t_bytes32": {
        "encoding": "inplace",
        "label": "bytes32",
        "numberOfBytes": "32"
      },
      "t_bytes_storage": {
        "encoding": "bytes",
        "label": "bytes",
        "numberOfBytes": "32"
      },
      "t_contract(ISoulboundIdentity)1206": {
        "encoding": "inplace",
        "label": "contract ISoulboundIdentity",
        "numberOfBytes": "20"
      },
      "t_mapping(t_address,t_bool)": {
        "encoding": "mapping",
        "key": "t_address",
        "label": "mapping(address => bool)",
        "numberOfBytes": "32",
        "value": "t_bool"
      },
      "t_mapping(t_address,t_mapping(t_uint256,t_uint256))": {
        "encoding": "mapping",
        "key": "t_address",
        "label": "mapping(address => mapping(uint256 => uint256))",
        "numberOfBytes": "32",
        "value": "t_mapping(t_uint256,t_uint256)"
      },
      "t_mapping(t_address,t_uint256)": {
        "encoding": "mapping",
        "key": "t_address",
        "label": "mapping(address => uint256)",
        "numberOfBytes": "32",
        "value": "t_uint256"
      },
      "t_mapping(t_bytes32,t_struct(RoleData)3177_storage)": {
        "encoding": "mapping",
        "key": "t_bytes32",
        "label": "mapping(bytes32 => struct AccessControl.RoleData)",
        "numberOfBytes": "32",
        "value": "t_struct(RoleData)3177_storage"
      },
      "t_mapping(t_uint256,t_address)": {
        "encoding": "mapping",
        "key": "t_uint256",
        "label": "mapping(uint256 => address)",
        "numberOfBytes": "32",
        "value": "t_address"
      },
      "t_mapping(t_uint256,t_struct(SBTData)7376_storage)": {
        "encoding": "mapping",
        "key": "t_uint256",
        "label": "mapping(uint256 => struct ZKSBT.SBTData)",
        "numberOfBytes": "32",
        "value": "t_struct(SBTData)7376_storage"
      },
      "t_mapping(t_uint256,t_uint256)": {
        "encoding": "mapping",
        "key": "t_uint256",
        "label": "mapping(uint256 => uint256)",
        "numberOfBytes": "32",
        "value": "t_uint256"
      },
      "t_string_storage": {
        "encoding": "bytes",
        "label": "string",
        "numberOfBytes": "32"
      },
      "t_struct(Counter)4600_storage": {
        "encoding": "inplace",
        "label": "struct Counters.Counter",
        "members": [
          {
            "astId": 4599,
            "contract": "contracts/ZKSBTAuthority.sol:ZKSBTAuthority",
            "label": "_value",
            "offset": 0,
            "slot": "0",
            "type": "t_uint256"
          }
        ],
        "numberOfBytes": "32"
      },
      "t_struct(EncryptedData)7364_storage": {
        "encoding": "inplace",
        "label": "struct ZKSBT.EncryptedData",
        "members": [
          {
            "astId": 7357,
            "contract": "contracts/ZKSBTAuthority.sol:ZKSBTAuthority",
            "label": "iv",
            "offset": 0,
            "slot": "0",
            "type": "t_bytes_storage"
          },
          {
            "astId": 7359,
            "contract": "contracts/ZKSBTAuthority.sol:ZKSBTAuthority",
            "label": "ephemPublicKey",
            "offset": 0,
            "slot": "1",
            "type": "t_bytes_storage"
          },
          {
            "astId": 7361,
            "contract": "contracts/ZKSBTAuthority.sol:ZKSBTAuthority",
            "label": "ciphertext",
            "offset": 0,
            "slot": "2",
            "type": "t_bytes_storage"
          },
          {
            "astId": 7363,
            "contract": "contracts/ZKSBTAuthority.sol:ZKSBTAuthority",
            "label": "mac",
            "offset": 0,
            "slot": "3",
            "type": "t_bytes_storage"
          }
        ],
        "numberOfBytes": "128"
      },
      "t_struct(RoleData)3177_storage": {
        "encoding": "inplace",
        "label": "struct AccessControl.RoleData",
        "members": [
          {
            "astId": 3174,
            "contract": "contracts/ZKSBTAuthority.sol:ZKSBTAuthority",
            "label": "members",
            "offset": 0,
            "slot": "0",
            "type": "t_mapping(t_address,t_bool)"
          },
          {
            "astId": 3176,
            "contract": "contracts/ZKSBTAuthority.sol:ZKSBTAuthority",
            "label": "adminRole",
            "offset": 0,
            "slot": "1",
            "type": "t_bytes32"
          }
        ],
        "numberOfBytes": "64"
      },
      "t_struct(SBTData)7376_storage": {
        "encoding": "inplace",
        "label": "struct ZKSBT.SBTData",
        "members": [
          {
            "astId": 7366,
            "contract": "contracts/ZKSBTAuthority.sol:ZKSBTAuthority",
            "label": "root",
            "offset": 0,
            "slot": "0",
            "type": "t_bytes_storage"
          },
          {
            "astId": 7369,
            "contract": "contracts/ZKSBTAuthority.sol:ZKSBTAuthority",
            "label": "encryptedCreditScore",
            "offset": 0,
            "slot": "1",
            "type": "t_struct(EncryptedData)7364_storage"
          },
          {
            "astId": 7372,
            "contract": "contracts/ZKSBTAuthority.sol:ZKSBTAuthority",
            "label": "encryptedIncome",
            "offset": 0,
            "slot": "5",
            "type": "t_struct(EncryptedData)7364_storage"
          },
          {
            "astId": 7375,
            "contract": "contracts/ZKSBTAuthority.sol:ZKSBTAuthority",
            "label": "encryptedReportDate",
            "offset": 0,
            "slot": "9",
            "type": "t_struct(EncryptedData)7364_storage"
          }
        ],
        "numberOfBytes": "416"
      },
      "t_uint256": {
        "encoding": "inplace",
        "label": "uint256",
        "numberOfBytes": "32"
      }
    }
  }
}